{"abi":[{"type":"function","name":"BPS_DIVISOR","inputs":[],"outputs":[{"name":"","type":"uint256","internalType":"uint256"}],"stateMutability":"view"},{"type":"function","name":"FEE_BPS","inputs":[],"outputs":[{"name":"","type":"uint256","internalType":"uint256"}],"stateMutability":"view"},{"type":"function","name":"MAX_POSITION_BPS","inputs":[],"outputs":[{"name":"","type":"uint256","internalType":"uint256"}],"stateMutability":"view"},{"type":"function","name":"MIN_LIQUIDITY_BPS","inputs":[],"outputs":[{"name":"","type":"uint256","internalType":"uint256"}],"stateMutability":"view"},{"type":"function","name":"MIN_TOTAL_LIQUIDITY","inputs":[],"outputs":[{"name":"","type":"uint256","internalType":"uint256"}],"stateMutability":"view"},{"type":"function","name":"MIN_TRADE_AMOUNT","inputs":[],"outputs":[{"name":"","type":"uint256","internalType":"uint256"}],"stateMutability":"view"},{"type":"function","name":"PRECISION","inputs":[],"outputs":[{"name":"","type":"uint256","internalType":"uint256"}],"stateMutability":"view"},{"type":"function","name":"buyShares","inputs":[{"name":"outcome","type":"uint8","internalType":"uint8"},{"name":"amountIn","type":"uint256","internalType":"uint256"},{"name":"minSharesOut","type":"uint256","internalType":"uint256"}],"outputs":[],"stateMutability":"nonpayable"},{"type":"function","name":"claim","inputs":[],"outputs":[],"stateMutability":"nonpayable"},{"type":"function","name":"claimed","inputs":[{"name":"","type":"address","internalType":"address"}],"outputs":[{"name":"","type":"bool","internalType":"bool"}],"stateMutability":"view"},{"type":"function","name":"config","inputs":[],"outputs":[{"name":"cutoffTime","type":"uint64","internalType":"uint64"},{"name":"resolveTime","type":"uint64","internalType":"uint64"},{"name":"creatorFeeShareBps","type":"uint16","internalType":"uint16"},{"name":"winningOutcome","type":"uint8","internalType":"uint8"},{"name":"initialized","type":"bool","internalType":"bool"},{"name":"resolved","type":"bool","internalType":"bool"},{"name":"feesDistributed","type":"bool","internalType":"bool"}],"stateMutability":"view"},{"type":"function","name":"creator","inputs":[],"outputs":[{"name":"","type":"address","internalType":"address"}],"stateMutability":"view"},{"type":"function","name":"creatorFeeShareBps","inputs":[],"outputs":[{"name":"","type":"uint16","internalType":"uint16"}],"stateMutability":"view"},{"type":"function","name":"cutoffTime","inputs":[],"outputs":[{"name":"","type":"uint64","internalType":"uint64"}],"stateMutability":"view"},{"type":"function","name":"factory","inputs":[],"outputs":[{"name":"","type":"address","internalType":"address"}],"stateMutability":"view"},{"type":"function","name":"feesDistributed","inputs":[],"outputs":[{"name":"","type":"bool","internalType":"bool"}],"stateMutability":"view"},{"type":"function","name":"getAmountIn","inputs":[{"name":"outcome","type":"uint8","internalType":"uint8"},{"name":"sharesOut","type":"uint256","internalType":"uint256"}],"outputs":[{"name":"amountIn","type":"uint256","internalType":"uint256"}],"stateMutability":"view"},{"type":"function","name":"getAmountOut","inputs":[{"name":"outcome","type":"uint8","internalType":"uint8"},{"name":"amountIn","type":"uint256","internalType":"uint256"}],"outputs":[{"name":"sharesOut","type":"uint256","internalType":"uint256"},{"name":"feeAmount","type":"uint256","internalType":"uint256"}],"stateMutability":"view"},{"type":"function","name":"getOutcomePrice","inputs":[{"name":"outcome","type":"uint8","internalType":"uint8"}],"outputs":[{"name":"","type":"uint256","internalType":"uint256"}],"stateMutability":"view"},{"type":"function","name":"getSpotPrice","inputs":[],"outputs":[{"name":"","type":"uint256","internalType":"uint256"}],"stateMutability":"view"},{"type":"function","name":"ingestResolution","inputs":[{"name":"outcome","type":"uint8","internalType":"uint8"},{"name":"dataHash","type":"bytes32","internalType":"bytes32"}],"outputs":[],"stateMutability":"nonpayable"},{"type":"function","name":"initialLiquidity","inputs":[],"outputs":[{"name":"","type":"uint256","internalType":"uint256"}],"stateMutability":"view"},{"type":"function","name":"initialize","inputs":[{"name":"_params","type":"tuple","internalType":"struct MarketTypes.MarketParams","components":[{"name":"title","type":"string","internalType":"string"},{"name":"description","type":"string","internalType":"string"},{"name":"subject","type":"tuple","internalType":"struct MarketTypes.SubjectParams","components":[{"name":"kind","type":"uint8","internalType":"enum MarketTypes.SubjectKind"},{"name":"metricId","type":"bytes32","internalType":"bytes32"},{"name":"tokenIdentifier","type":"string","internalType":"string"},{"name":"valueDecimals","type":"uint8","internalType":"uint8"}]},{"name":"predicate","type":"tuple","internalType":"struct MarketTypes.PredicateParams","components":[{"name":"op","type":"uint8","internalType":"enum MarketTypes.PredicateOp"},{"name":"threshold","type":"int256","internalType":"int256"}]},{"name":"window","type":"tuple","internalType":"struct MarketTypes.WindowParams","components":[{"name":"kind","type":"uint8","internalType":"enum MarketTypes.WindowKind"},{"name":"tStart","type":"uint64","internalType":"uint64"},{"name":"tEnd","type":"uint64","internalType":"uint64"}]},{"name":"oracle","type":"tuple","internalType":"struct MarketTypes.OracleSpec","components":[{"name":"primarySourceId","type":"bytes32","internalType":"bytes32"},{"name":"fallbackSourceId","type":"bytes32","internalType":"bytes32"},{"name":"roundingDecimals","type":"uint8","internalType":"uint8"}]},{"name":"cutoffTime","type":"uint64","internalType":"uint64"},{"name":"creator","type":"address","internalType":"address"},{"name":"econ","type":"tuple","internalType":"struct MarketTypes.Economics","components":[{"name":"feeBps","type":"uint16","internalType":"uint16"},{"name":"creatorFeeShareBps","type":"uint16","internalType":"uint16"},{"name":"maxTotalPool","type":"uint256","internalType":"uint256"},{"name":"timeDecayBps","type":"uint16","internalType":"uint16"}]},{"name":"isProtocolMarket","type":"bool","internalType":"bool"}]},{"name":"_stakeToken","type":"address","internalType":"address"},{"name":"_treasury","type":"address","internalType":"address"},{"name":"_oracle","type":"address","internalType":"address"},{"name":"_factory","type":"address","internalType":"address"},{"name":"_liquidityAmount","type":"uint256","internalType":"uint256"}],"outputs":[],"stateMutability":"nonpayable"},{"type":"function","name":"initialized","inputs":[],"outputs":[{"name":"","type":"bool","internalType":"bool"}],"stateMutability":"view"},{"type":"function","name":"oracle","inputs":[],"outputs":[{"name":"","type":"address","internalType":"address"}],"stateMutability":"view"},{"type":"function","name":"params","inputs":[],"outputs":[{"name":"title","type":"string","internalType":"string"},{"name":"description","type":"string","internalType":"string"},{"name":"subject","type":"tuple","internalType":"struct MarketTypes.SubjectParams","components":[{"name":"kind","type":"uint8","internalType":"enum MarketTypes.SubjectKind"},{"name":"metricId","type":"bytes32","internalType":"bytes32"},{"name":"tokenIdentifier","type":"string","internalType":"string"},{"name":"valueDecimals","type":"uint8","internalType":"uint8"}]},{"name":"predicate","type":"tuple","internalType":"struct MarketTypes.PredicateParams","components":[{"name":"op","type":"uint8","internalType":"enum MarketTypes.PredicateOp"},{"name":"threshold","type":"int256","internalType":"int256"}]},{"name":"window","type":"tuple","internalType":"struct MarketTypes.WindowParams","components":[{"name":"kind","type":"uint8","internalType":"enum MarketTypes.WindowKind"},{"name":"tStart","type":"uint64","internalType":"uint64"},{"name":"tEnd","type":"uint64","internalType":"uint64"}]},{"name":"oracle","type":"tuple","internalType":"struct MarketTypes.OracleSpec","components":[{"name":"primarySourceId","type":"bytes32","internalType":"bytes32"},{"name":"fallbackSourceId","type":"bytes32","internalType":"bytes32"},{"name":"roundingDecimals","type":"uint8","internalType":"uint8"}]},{"name":"cutoffTime","type":"uint64","internalType":"uint64"},{"name":"creator","type":"address","internalType":"address"},{"name":"econ","type":"tuple","internalType":"struct MarketTypes.Economics","components":[{"name":"feeBps","type":"uint16","internalType":"uint16"},{"name":"creatorFeeShareBps","type":"uint16","internalType":"uint16"},{"name":"maxTotalPool","type":"uint256","internalType":"uint256"},{"name":"timeDecayBps","type":"uint16","internalType":"uint16"}]},{"name":"isProtocolMarket","type":"bool","internalType":"bool"}],"stateMutability":"view"},{"type":"function","name":"paused","inputs":[],"outputs":[{"name":"","type":"bool","internalType":"bool"}],"stateMutability":"view"},{"type":"function","name":"reserveNO","inputs":[],"outputs":[{"name":"","type":"uint256","internalType":"uint256"}],"stateMutability":"view"},{"type":"function","name":"reserveYES","inputs":[],"outputs":[{"name":"","type":"uint256","internalType":"uint256"}],"stateMutability":"view"},{"type":"function","name":"resolutionDataHash","inputs":[],"outputs":[{"name":"","type":"bytes32","internalType":"bytes32"}],"stateMutability":"view"},{"type":"function","name":"resolveTime","inputs":[],"outputs":[{"name":"","type":"uint64","internalType":"uint64"}],"stateMutability":"view"},{"type":"function","name":"resolved","inputs":[],"outputs":[{"name":"","type":"bool","internalType":"bool"}],"stateMutability":"view"},{"type":"function","name":"sellShares","inputs":[{"name":"outcome","type":"uint8","internalType":"uint8"},{"name":"sharesIn","type":"uint256","internalType":"uint256"},{"name":"minAmountOut","type":"uint256","internalType":"uint256"}],"outputs":[],"stateMutability":"nonpayable"},{"type":"function","name":"setPaused","inputs":[{"name":"_paused","type":"bool","internalType":"bool"}],"outputs":[],"stateMutability":"nonpayable"},{"type":"function","name":"sharesNO","inputs":[{"name":"","type":"address","internalType":"address"}],"outputs":[{"name":"","type":"uint256","internalType":"uint256"}],"stateMutability":"view"},{"type":"function","name":"sharesYES","inputs":[{"name":"","type":"address","internalType":"address"}],"outputs":[{"name":"","type":"uint256","internalType":"uint256"}],"stateMutability":"view"},{"type":"function","name":"stakeToken","inputs":[],"outputs":[{"name":"","type":"address","internalType":"contract IERC20"}],"stateMutability":"view"},{"type":"function","name":"totalFeesCollected","inputs":[],"outputs":[{"name":"","type":"uint256","internalType":"uint256"}],"stateMutability":"view"},{"type":"function","name":"totalPool","inputs":[],"outputs":[{"name":"","type":"uint256","internalType":"uint256"}],"stateMutability":"view"},{"type":"function","name":"treasury","inputs":[],"outputs":[{"name":"","type":"address","internalType":"address"}],"stateMutability":"view"},{"type":"function","name":"userInfo","inputs":[{"name":"user","type":"address","internalType":"address"}],"outputs":[{"name":"yesShares","type":"uint256","internalType":"uint256"},{"name":"noShares","type":"uint256","internalType":"uint256"},{"name":"hasClaimed","type":"bool","internalType":"bool"}],"stateMutability":"view"},{"type":"function","name":"winningOutcome","inputs":[],"outputs":[{"name":"","type":"uint8","internalType":"uint8"}],"stateMutability":"view"},{"type":"event","name":"Claimed","inputs":[{"name":"user","type":"address","indexed":true,"internalType":"address"},{"name":"payout","type":"uint256","indexed":false,"internalType":"uint256"}],"anonymous":false},{"type":"event","name":"FeesDistributed","inputs":[{"name":"treasury","type":"address","indexed":false,"internalType":"address"},{"name":"creator","type":"address","indexed":false,"internalType":"address"},{"name":"treasuryFee","type":"uint256","indexed":false,"internalType":"uint256"},{"name":"creatorFee","type":"uint256","indexed":false,"internalType":"uint256"}],"anonymous":false},{"type":"event","name":"MarketInitialized","inputs":[{"name":"creator","type":"address","indexed":true,"internalType":"address"},{"name":"liquidityAmount","type":"uint256","indexed":false,"internalType":"uint256"},{"name":"cutoffTime","type":"uint64","indexed":false,"internalType":"uint64"},{"name":"resolveTime","type":"uint64","indexed":false,"internalType":"uint64"}],"anonymous":false},{"type":"event","name":"Paused","inputs":[{"name":"account","type":"address","indexed":false,"internalType":"address"}],"anonymous":false},{"type":"event","name":"Resolved","inputs":[{"name":"winningOutcome","type":"uint8","indexed":false,"internalType":"uint8"},{"name":"dataHash","type":"bytes32","indexed":false,"internalType":"bytes32"}],"anonymous":false},{"type":"event","name":"SharesPurchased","inputs":[{"name":"buyer","type":"address","indexed":true,"internalType":"address"},{"name":"outcome","type":"uint8","indexed":false,"internalType":"uint8"},{"name":"amountIn","type":"uint256","indexed":false,"internalType":"uint256"},{"name":"sharesOut","type":"uint256","indexed":false,"internalType":"uint256"},{"name":"feeAmount","type":"uint256","indexed":false,"internalType":"uint256"},{"name":"newPrice","type":"uint256","indexed":false,"internalType":"uint256"}],"anonymous":false},{"type":"event","name":"SharesSold","inputs":[{"name":"seller","type":"address","indexed":true,"internalType":"address"},{"name":"outcome","type":"uint8","indexed":false,"internalType":"uint8"},{"name":"sharesIn","type":"uint256","indexed":false,"internalType":"uint256"},{"name":"amountOut","type":"uint256","indexed":false,"internalType":"uint256"},{"name":"feeAmount","type":"uint256","indexed":false,"internalType":"uint256"},{"name":"newPrice","type":"uint256","indexed":false,"internalType":"uint256"}],"anonymous":false},{"type":"event","name":"Unpaused","inputs":[{"name":"account","type":"address","indexed":false,"internalType":"address"}],"anonymous":false},{"type":"error","name":"EnforcedPause","inputs":[]},{"type":"error","name":"ExpectedPause","inputs":[]},{"type":"error","name":"ReentrancyGuardReentrantCall","inputs":[]},{"type":"error","name":"SafeERC20FailedOperation","inputs":[{"name":"token","type":"address","internalType":"address"}]}],"bytecode":{"object":"0x6080604052348015600e575f5ffd5b5060015f55612c41806100205f395ff3fe608060405234801561000f575f5ffd5b5060043610610255575f3560e01c806379502c5511610140578063b49c3089116100bf578063c884ef8311610084578063c884ef8314610607578063cff0ab9614610629578063da9e708814610647578063dc76fabc14610650578063ecfb49a314610658578063f355082d14610660575f5ffd5b8063b49c3089146105b0578063b76162d7146105cf578063bf333f2c146105d8578063c33748dc146105e1578063c45a0155146105f4575f5ffd5b8063a317f2d611610105578063a317f2d614610541578063a5f74a5f14610553578063aaf5eb6814610566578063ac0bd1fb14610575578063af2ba65c14610588575f5ffd5b806379502c55146104595780637d071d4f146104fd5780637dc0d1d01461050657806398f55334146105195780639b34ae0314610522575f5ffd5b80633f6fa655116101d75780635c975abb1161019c5780635c975abb1461040557806360c6d8ae1461041057806361d027b31461041957806362107e8d1461042c5780636ffde0d71461043d57806375f0c2f014610450575f5ffd5b80633f6fa655146103bc57806340702adc146103ce57806341018641146103d75780634e71d92d146103ea57806351ed6a30146103f2575f5ffd5b8063191fe1ed1161021d578063191fe1ed146103155780631959a0021461031e578063298278261461037d57806331b7d4131461039e578063389665ca146103ac575f5ffd5b806302d05d3f1461025957806305ed76c41461028957806310d6bb75146102b5578063158ef93e146102e257806316c38b3c14610300575b5f5ffd5b60085461026c906001600160a01b031681565b6040516001600160a01b0390911681526020015b60405180910390f35b600c54600160401b90046001600160401b03165b6040516001600160401b039091168152602001610280565b6102d46102c3366004612311565b600d6020525f908152604090205481565b604051908152602001610280565b600c54600160981b900460ff165b6040519015158152602001610280565b61031361030e366004612339565b610673565b005b6102d461271081565b61036061032c366004612311565b6001600160a01b03165f908152600d6020908152604080832054600e835281842054600f9093529220549192909160ff1690565b604080519384526020840192909252151590820152606001610280565b600c54600160801b900461ffff1660405161ffff9091168152602001610280565b6102d466038d7ea4c6800081565b6102d4683635c9adc5dea0000081565b600c54600160a01b900460ff166102f0565b6102d460045481565b6102d46103e5366004612362565b6106d8565b61031361077a565b60065461026c906001600160a01b031681565b60015460ff166102f0565b6102d460055481565b60075461026c906001600160a01b031681565b600c546001600160401b031661029d565b61031361044b36600461237b565b610936565b6102d46103e881565b600c546104ae906001600160401b0380821691600160401b81049091169061ffff600160801b8204169060ff600160901b8204811691600160981b8104821691600160a01b8204811691600160a81b90041687565b604080516001600160401b03988916815297909616602088015261ffff9094169486019490945260ff90911660608501521515608084015290151560a0830152151560c082015260e001610280565b6102d4600b5481565b60095461026c906001600160a01b031681565b6102d46109c481565b600c54600160901b900460ff1660405160ff9091168152602001610280565b600c54600160a81b900460ff166102f0565b6103136105613660046123ab565b610d13565b6102d4670de0b6b3a764000081565b61031361058336600461237b565b610e6a565b61059b6105963660046123ab565b61114a565b60408051928352602083019190915201610280565b6102d46105be366004612311565b600e6020525f908152604090205481565b6102d460035481565b6102d461012c81565b6102d46105ef3660046123ab565b61127d565b600a5461026c906001600160a01b031681565b6102f0610615366004612311565b600f6020525f908152604090205460ff1681565b6106316113ad565b6040516102809a99989796959493929190612474565b6102d460025481565b6102d46116fc565b6102d461175a565b61031361066e366004612867565b6117c4565b6007546001600160a01b031633146106bf5760405162461bcd60e51b815260206004820152600a60248201526927b7363c9037bbb732b960b11b60448201526064015b60405180910390fd5b80156106d0576106cd611e69565b50565b6106cd611ebd565b5f60018260ff1611156106fd5760405162461bcd60e51b81526004016106b6906129f4565b5f60035460025461070e9190612a31565b9050805f036107315761072a6002670de0b6b3a7640000612a4a565b9392505050565b8260ff1660010361075d5780670de0b6b3a76400006002546107539190612a69565b61072a9190612a4a565b80670de0b6b3a76400006003546107539190612a69565b50919050565b610782611ef6565b600c54600160a01b900460ff166107ca5760405162461bcd60e51b815260206004820152600c60248201526b139bdd081c995cdbdb1d995960a21b60448201526064016106b6565b335f908152600f602052604090205460ff161561081b5760405162461bcd60e51b815260206004820152600f60248201526e105b1c9958591e4818db185a5b5959608a1b60448201526064016106b6565b600c545f90600160901b900460ff166001036108465750335f908152600d6020526040902054610857565b50335f908152600e60205260409020545b5f811161089a5760405162461bcd60e51b81526020600482015260116024820152704e6f2077696e6e696e672073686172657360781b60448201526064016106b6565b335f908152600f60205260409020805460ff19166001179055600c54600160a81b900460ff161580156108ce57505f600554115b156108db576108db611f1e565b60065481906108f4906001600160a01b0316338361202a565b60405181815233907fd8138f8a3f377c5259ca548e70e4c2de94f129f5a11036a15b69513cba2b426a9060200160405180910390a2505061093460015f55565b565b61093e611ef6565b610946612089565b600c546001600160401b031642106109915760405162461bcd60e51b815260206004820152600e60248201526d151c98591a5b99c818db1bdcd95960921b60448201526064016106b6565b600c54600160a01b900460ff16156109bb5760405162461bcd60e51b81526004016106b690612a80565b60018360ff1611156109df5760405162461bcd60e51b81526004016106b6906129f4565b5f8211610a1c5760405162461bcd60e51b815260206004820152600b60248201526a5a65726f2073686172657360a81b60448201526064016106b6565b8260ff16600103610a8a57335f908152600d6020526040902054821115610a855760405162461bcd60e51b815260206004820152601760248201527f496e73756666696369656e74205945532073686172657300000000000000000060448201526064016106b6565b610ae1565b335f908152600e6020526040902054821115610ae15760405162461bcd60e51b8152602060048201526016602482015275496e73756666696369656e74204e4f2073686172657360501b60448201526064016106b6565b5f5f8460ff16600103610afb575050600254600354610b04565b50506003546002545b5f610b0f8584612a31565b610b198684612a69565b610b239190612a4a565b90505f612710610b3561012c84612a69565b610b3f9190612a4a565b90505f610b4c8284612aaa565b905085811015610b925760405162461bcd60e51b815260206004820152601160248201527014db1a5c1c1859d948195e18d959591959607a1b60448201526064016106b6565b8760ff16600103610bf657335f908152600d602052604081208054899290610bbb908490612aaa565b925050819055508660035f828254610bd39190612a31565b925050819055508260025f828254610beb9190612aaa565b90915550610c4a9050565b335f908152600e602052604081208054899290610c14908490612aaa565b925050819055508660025f828254610c2c9190612a31565b925050819055508260035f828254610c449190612aaa565b90915550505b8160055f828254610c5b9190612a31565b9091555050600654610c77906001600160a01b0316338361202a565b5f600354600254610c889190612a31565b670de0b6b3a7640000600254610c9e9190612a69565b610ca89190612a4a565b6040805160ff8c168152602081018b9052908101849052606081018590526080810182905290915033907f6d835bea46ecd12f05be073365ff4c4d35c1ff63fc4e86ef7f00c353f575d8ce9060a00160405180910390a2505050505050610d0e60015f55565b505050565b6009546001600160a01b03163314610d5b5760405162461bcd60e51b815260206004820152600b60248201526a4f6e6c79206f7261636c6560a81b60448201526064016106b6565b600c54600160401b90046001600160401b0316421015610da95760405162461bcd60e51b8152602060048201526009602482015268546f6f206561726c7960b81b60448201526064016106b6565b600c54600160a01b900460ff1615610dd35760405162461bcd60e51b81526004016106b690612a80565b60018260ff161115610df75760405162461bcd60e51b81526004016106b6906129f4565b600c805460ff8416600160901b0262ff00ff60901b1990911617600160a01b179055600b8190556040517fa22a153b3aaea5b4815053e6f9dd68769c041ac2588276b05574e15495ff1ea890610e5e908490849060ff929092168252602082015260400190565b60405180910390a15050565b610e72611ef6565b610e7a612089565b600c546001600160401b03164210610ec55760405162461bcd60e51b815260206004820152600e60248201526d151c98591a5b99c818db1bdcd95960921b60448201526064016106b6565b600c54600160a01b900460ff1615610eef5760405162461bcd60e51b81526004016106b690612a80565b60018360ff161115610f135760405162461bcd60e51b81526004016106b6906129f4565b66038d7ea4c68000821015610f5a5760405162461bcd60e51b815260206004820152600d60248201526c42656c6f77206d696e696d756d60981b60448201526064016106b6565b5f5f610f66858561114a565b9150915082821015610fae5760405162461bcd60e51b815260206004820152601160248201527014db1a5c1c1859d948195e18d959591959607a1b60448201526064016106b6565b610fb93386846120ad565b610fc4858383612182565b600654610fdc906001600160a01b0316333087612228565b8460ff16600103611046578360025f828254610ff89190612a31565b9091555061100890508183612a31565b60035f8282546110189190612aaa565b9091555050335f908152600d60205260408120805484929061103b908490612a31565b909155506110a09050565b8360035f8282546110579190612a31565b9091555061106790508183612a31565b60025f8282546110779190612aaa565b9091555050335f908152600e60205260408120805484929061109a908490612a31565b90915550505b8060055f8282546110b19190612a31565b90915550506003546002545f916110c791612a31565b670de0b6b3a76400006002546110dd9190612a69565b6110e79190612a4a565b6040805160ff8916815260208101889052908101859052606081018490526080810182905290915033907f435e83f150b2d380baf7500cfbc6f61706ca2cb05603af7dbbaa5572fa3ec6d09060a00160405180910390a2505050610d0e60015f55565b5f5f60018460ff1611156111705760405162461bcd60e51b81526004016106b6906129f4565b5f83116111ac5760405162461bcd60e51b815260206004820152600a60248201526916995c9bc81a5b9c1d5d60b21b60448201526064016106b6565b5f5f8560ff166001036111c65750506003546002546111cf565b50506002546003545b5f6111da8684612a31565b6111e48784612a69565b6111ee9190612a4a565b90506127106111ff61012c83612a69565b6112099190612a4a565b93506112158482612aaa565b9450600a611224836009612a69565b61122e9190612a4a565b85106112735760405162461bcd60e51b815260206004820152601460248201527345786365656473206d617820736c69707061676560601b60448201526064016106b6565b5050509250929050565b5f60018360ff1611156112a25760405162461bcd60e51b81526004016106b6906129f4565b5f82116112df5760405162461bcd60e51b815260206004820152600b60248201526a16995c9bc81bdd5d1c1d5d60aa1b60448201526064016106b6565b5f5f8460ff166001036112f9575050600354600254611302565b50506002546003545b5f61131161012c612710612aaa565b61131d61271087612a69565b6113279190612a4a565b9050600a611336836009612a69565b6113409190612a4a565b81106113855760405162461bcd60e51b815260206004820152601460248201527345786365656473206d617820736c69707061676560601b60448201526064016106b6565b61138f8183612aaa565b6113998285612a69565b6113a39190612a4a565b9695505050505050565b6010805481906113bc90612abd565b80601f01602080910402602001604051908101604052809291908181526020018280546113e890612abd565b80156114335780601f1061140a57610100808354040283529160200191611433565b820191905f5260205f20905b81548152906001019060200180831161141657829003601f168201915b50505050509080600101805461144890612abd565b80601f016020809104026020016040519081016040528092919081815260200182805461147490612abd565b80156114bf5780601f10611496576101008083540402835291602001916114bf565b820191905f5260205f20905b8154815290600101906020018083116114a257829003601f168201915b50506040805160808101909152600286018054959695919450925083915060ff1660018111156114f1576114f1612401565b600181111561150257611502612401565b81526020016001820154815260200160028201805461152090612abd565b80601f016020809104026020016040519081016040528092919081815260200182805461154c90612abd565b80156115975780601f1061156e57610100808354040283529160200191611597565b820191905f5260205f20905b81548152906001019060200180831161157a57829003601f168201915b505050918352505060039182015460ff9081166020909201919091526040805180820190915260068501805494959491939092849216908111156115dd576115dd612401565b60038111156115ee576115ee612401565b8152600191909101546020909101526040805160608101909152600883018054929392829060ff16600281111561162757611627612401565b600281111561163857611638612401565b8152905461010081046001600160401b039081166020808501919091526901000000000000000000909204811660409384015282516060808201855260098701548252600a87015482850152600b87015460ff90811683870152600c8801548651608081018852600d8a015461ffff808216835262010000909104811697820197909752600e8a015497810197909752600f890154909516918601919091526010909601549495909491831693600160401b9093046001600160a01b03169291168a565b5f6002545f148061170d5750600354155b1561172a576117256002670de0b6b3a7640000612a4a565b905090565b60035460025461173a9190612a31565b670de0b6b3a76400006002546117509190612a69565b6117259190612a4a565b6006546040516370a0823160e01b81523060048201525f916001600160a01b0316906370a0823190602401602060405180830381865afa1580156117a0573d5f5f3e3d5ffd5b505050506040513d601f19601f820116820180604052508101906117259190612aef565b600c54600160981b900460ff16156118145760405162461bcd60e51b8152602060048201526013602482015272105b1c9958591e481a5b9a5d1a585b1a5e9959606a1b60448201526064016106b6565b683635c9adc5dea000008110156118665760405162461bcd60e51b8152602060048201526016602482015275496e73756666696369656e74206c697175696469747960501b60448201526064016106b6565b428660800151604001516001600160401b0316116118bd5760405162461bcd60e51b8152602060048201526014602482015273496e76616c6964207265736f6c76652074696d6560601b60448201526064016106b6565b428660c001516001600160401b03161161190f5760405162461bcd60e51b8152602060048201526013602482015272496e76616c6964206375746f66662074696d6560681b60448201526064016106b6565b8560800151604001516001600160401b03168660c001516001600160401b031611156119745760405162461bcd60e51b81526020600482015260146024820152734375746f6666206166746572207265736f6c766560601b60448201526064016106b6565b600a80546001600160a01b03199081166001600160a01b038581169190911790925560068054821688841617905560078054821687841617905560e0880151600880548316918416919091179055600980549091169185169190911790558551869060109081906119e59082612b51565b50602082015160018201906119fa9082612b51565b5060408201518051600283018054909190829060ff191660018381811115611a2457611a24612401565b02179055506020820151600182015560408201516002820190611a479082612b51565b506060918201516003918201805460ff90921660ff1992831617905591840151805160068501805492949093919284929116906001908490811115611a8e57611a8e612401565b0217905550602091909101516001918201556080830151805160088401805492939092839160ff1990911690836002811115611acc57611acc612401565b02179055506020820151815f0160016101000a8154816001600160401b0302191690836001600160401b031602179055506040820151815f0160096101000a8154816001600160401b0302191690836001600160401b03160217905550505060a0820151816009015f820151815f0155602082015181600101556040820151816002015f6101000a81548160ff021916908360ff160217905550505060c082015181600c015f6101000a8154816001600160401b0302191690836001600160401b0316021790555060e082015181600c0160086101000a8154816001600160a01b0302191690836001600160a01b0316021790555061010082015181600d015f820151815f015f6101000a81548161ffff021916908361ffff1602179055506020820151815f0160026101000a81548161ffff021916908361ffff160217905550604082015181600101556060820151816002015f6101000a81548161ffff021916908361ffff1602179055505050610120820151816010015f6101000a81548160ff0219169083151502179055509050506040518060e001604052808760c001516001600160401b031681526020018760800151604001516001600160401b031681526020018761010001516020015161ffff1681526020015f60ff1681526020016001151581526020015f151581526020015f1515815250600c5f820151815f015f6101000a8154816001600160401b0302191690836001600160401b031602179055506020820151815f0160086101000a8154816001600160401b0302191690836001600160401b031602179055506040820151815f0160106101000a81548161ffff021916908361ffff1602179055506060820151815f0160126101000a81548160ff021916908360ff1602179055506080820151815f0160136101000a81548160ff02191690831515021790555060a0820151815f0160146101000a81548160ff02191690831515021790555060c0820151815f0160156101000a81548160ff02191690831515021790555090505080600481905550600281611dd49190612a4a565b6002908155611de39082612a4a565b600355600654611dfe906001600160a01b0316833084612228565b600854600c54604080518481526001600160401b038084166020830152600160401b90930490921682820152516001600160a01b03909216917faf77c2b0a23728ca7ca7c7e7306c7112db8040d7ed550aafc88f19b20ae4119d9181900360600190a2505050505050565b611e71612089565b6001805460ff1916811790557f62e78cea01bee320cd4e420270b5ea74000d11b0c9f74754ebdbfc544b05a258335b6040516001600160a01b03909116815260200160405180910390a1565b611ec5612267565b6001805460ff191690557f5db9ee0a495bf2e6ff9c91a7834c1ba4fdd244a5e8aa4e537bd38aeae4b073aa33611ea0565b60025f5403611f1857604051633ee5aeb560e01b815260040160405180910390fd5b60025f55565b600c54600160a81b900460ff1680611f365750600554155b15611f3d57565b600c546005545f9161271091611f5e91600160801b900461ffff1690612a69565b611f689190612a4a565b90505f81600554611f799190612aaa565b600c805460ff60a81b1916600160a81b17905590508015611fb157600754600654611fb1916001600160a01b0391821691168361202a565b8115611fd457600854600654611fd4916001600160a01b0391821691168461202a565b600754600854604080516001600160a01b0393841681529290911660208301528101829052606081018390527ff227c93b6b816f85ef75ee32431495d61932665acd4193a40431a42f1502701a90608001610e5e565b6040516001600160a01b03838116602483015260448201839052610d0e91859182169063a9059cbb906064015b604051602081830303815290604052915060e01b6020820180516001600160e01b03838183161783525050505061228a565b60015460ff16156109345760405163d93c066560e01b815260040160405180910390fd5b5f8260ff166001146120d6576001600160a01b0384165f908152600e60205260409020546120ef565b6001600160a01b0384165f908152600d60205260409020545b90505f6120fc8383612a31565b90505f6127106109c460026004546121149190612a4a565b61211e9190612a69565b6121289190612a4a565b90508082111561217a5760405162461bcd60e51b815260206004820152601760248201527f506f736974696f6e206c696d697420657863656564656400000000000000000060448201526064016106b6565b505050505050565b5f6127106103e860026004546121989190612a4a565b6121a29190612a69565b6121ac9190612a4a565b90505f8460ff166001146121c2576002546121c6565b6003545b90505f6121d38486612a31565b6121dd9083612aaa565b90508281101561217a5760405162461bcd60e51b8152602060048201526016602482015275496e73756666696369656e74206c697175696469747960501b60448201526064016106b6565b6040516001600160a01b0384811660248301528381166044830152606482018390526122619186918216906323b872dd90608401612057565b50505050565b60015460ff1661093457604051638dfc202b60e01b815260040160405180910390fd5b5f5f60205f8451602086015f885af1806122a9576040513d5f823e3d81fd5b50505f513d915081156122c05780600114156122cd565b6001600160a01b0384163b155b1561226157604051635274afe760e01b81526001600160a01b03851660048201526024016106b6565b80356001600160a01b038116811461230c575f5ffd5b919050565b5f60208284031215612321575f5ffd5b61072a826122f6565b8035801515811461230c575f5ffd5b5f60208284031215612349575f5ffd5b61072a8261232a565b803560ff8116811461230c575f5ffd5b5f60208284031215612372575f5ffd5b61072a82612352565b5f5f5f6060848603121561238d575f5ffd5b61239684612352565b95602085013595506040909401359392505050565b5f5f604083850312156123bc575f5ffd5b6123c583612352565b946020939093013593505050565b5f81518084528060208401602086015e5f602082860101526020601f19601f83011685010191505092915050565b634e487b7160e01b5f52602160045260245ffd5b80516004811061242757612427612401565b8252602090810151910152565b80516003811061244657612446612401565b808352506001600160401b0360208201511660208301526001600160401b0360408201511660408301525050565b61024081525f61248861024083018d6123d3565b828103602084015261249a818d6123d3565b905082810360408401528a51600281106124b6576124b6612401565b8082525060208b0151602082015260408b0151608060408301526124dd60808301826123d3565b905060ff60608d015116606083015280925050506124fe606083018a612415565b61250b60a0830189612434565b86516101008301526020870151610120830152604087015160ff166101408301526001600160401b0386166101608301526001600160a01b038516610180830152835161ffff9081166101a0840152602085015181166101c084015260408501516101e08401526060850151166102008301528215156102208301529b9a5050505050505050505050565b634e487b7160e01b5f52604160045260245ffd5b604051608081016001600160401b03811182821017156125cc576125cc612596565b60405290565b604051606081016001600160401b03811182821017156125cc576125cc612596565b60405161014081016001600160401b03811182821017156125cc576125cc612596565b5f82601f830112612626575f5ffd5b81356001600160401b0381111561263f5761263f612596565b604051601f8201601f19908116603f011681016001600160401b038111828210171561266d5761266d612596565b604052818152838201602001851015612684575f5ffd5b816020850160208301375f918101602001919091529392505050565b5f608082840312156126b0575f5ffd5b6126b86125aa565b90508135600281106126c8575f5ffd5b81526020828101359082015260408201356001600160401b038111156126ec575f5ffd5b6126f884828501612617565b60408301525061270a60608301612352565b606082015292915050565b5f60408284031215612725575f5ffd5b604080519081016001600160401b038111828210171561274757612747612596565b60405290508082356004811061275b575f5ffd5b8152602092830135920191909152919050565b80356001600160401b038116811461230c575f5ffd5b5f60608284031215612794575f5ffd5b61279c6125d2565b90508135600381106127ac575f5ffd5b81526127ba6020830161276e565b60208201526127cb6040830161276e565b604082015292915050565b5f606082840312156127e6575f5ffd5b6127ee6125d2565b823581526020808401359082015290506127cb60408301612352565b803561ffff8116811461230c575f5ffd5b5f6080828403121561282b575f5ffd5b6128336125aa565b905061283e8261280a565b815261284c6020830161280a565b60208201526040828101359082015261270a6060830161280a565b5f5f5f5f5f5f60c0878903121561287c575f5ffd5b86356001600160401b03811115612891575f5ffd5b8701610240818a0312156128a3575f5ffd5b6128ab6125f4565b81356001600160401b038111156128c0575f5ffd5b6128cc8b828501612617565b82525060208201356001600160401b038111156128e7575f5ffd5b6128f38b828501612617565b60208301525060408201356001600160401b03811115612911575f5ffd5b61291d8b8285016126a0565b6040830152506129308a60608401612715565b60608201526129428a60a08401612784565b60808201526129558a61010084016127d6565b60a0820152612967610160830161276e565b60c082015261297961018083016122f6565b60e082015261298c8a6101a0840161281b565b61010082015261299f610220830161232a565b61012082015296506129b59050602088016122f6565b94506129c3604088016122f6565b93506129d1606088016122f6565b92506129df608088016122f6565b9598949750929591949360a090920135925050565b6020808252600f908201526e496e76616c6964206f7574636f6d6560881b604082015260600190565b634e487b7160e01b5f52601160045260245ffd5b80820180821115612a4457612a44612a1d565b92915050565b5f82612a6457634e487b7160e01b5f52601260045260245ffd5b500490565b8082028115828204841417612a4457612a44612a1d565b60208082526010908201526f105b1c9958591e481c995cdbdb1d995960821b604082015260600190565b81810381811115612a4457612a44612a1d565b600181811c90821680612ad157607f821691505b60208210810361077457634e487b7160e01b5f52602260045260245ffd5b5f60208284031215612aff575f5ffd5b5051919050565b601f821115610d0e57805f5260205f20601f840160051c81016020851015612b2b5750805b601f840160051c820191505b81811015612b4a575f8155600101612b37565b5050505050565b81516001600160401b03811115612b6a57612b6a612596565b612b7e81612b788454612abd565b84612b06565b6020601f821160018114612bb0575f8315612b995750848201515b5f19600385901b1c1916600184901b178455612b4a565b5f84815260208120601f198516915b82811015612bdf5787850151825560209485019460019092019101612bbf565b5084821015612bfc57868401515f19600387901b60f8161c191681555b50505050600190811b0190555056fea26469706673582212203ca358f0f4e67bec01f36ec726900598dd17958685831e6067c7ce23b34c887464736f6c634300081c0033","linkReferences":{}},"methodIdentifiers":{"BPS_DIVISOR()":"191fe1ed","FEE_BPS()":"bf333f2c","MAX_POSITION_BPS()":"98f55334","MIN_LIQUIDITY_BPS()":"75f0c2f0","MIN_TOTAL_LIQUIDITY()":"389665ca","MIN_TRADE_AMOUNT()":"31b7d413","PRECISION()":"aaf5eb68","buyShares(uint8,uint256,uint256)":"ac0bd1fb","claim()":"4e71d92d","claimed(address)":"c884ef83","config()":"79502c55","creator()":"02d05d3f","creatorFeeShareBps()":"29827826","cutoffTime()":"62107e8d","factory()":"c45a0155","feesDistributed()":"a317f2d6","getAmountIn(uint8,uint256)":"c33748dc","getAmountOut(uint8,uint256)":"af2ba65c","getOutcomePrice(uint8)":"41018641","getSpotPrice()":"dc76fabc","ingestResolution(uint8,bytes32)":"a5f74a5f","initialLiquidity()":"40702adc","initialize((string,string,(uint8,bytes32,string,uint8),(uint8,int256),(uint8,uint64,uint64),(bytes32,bytes32,uint8),uint64,address,(uint16,uint16,uint256,uint16),bool),address,address,address,address,uint256)":"f355082d","initialized()":"158ef93e","oracle()":"7dc0d1d0","params()":"cff0ab96","paused()":"5c975abb","reserveNO()":"b76162d7","reserveYES()":"da9e7088","resolutionDataHash()":"7d071d4f","resolveTime()":"05ed76c4","resolved()":"3f6fa655","sellShares(uint8,uint256,uint256)":"6ffde0d7","setPaused(bool)":"16c38b3c","sharesNO(address)":"b49c3089","sharesYES(address)":"10d6bb75","stakeToken()":"51ed6a30","totalFeesCollected()":"60c6d8ae","totalPool()":"ecfb49a3","treasury()":"61d027b3","userInfo(address)":"1959a002","winningOutcome()":"9b34ae03"},"id":62}