{"abi":[{"type":"function","name":"BPS_DIVISOR","inputs":[],"outputs":[{"name":"","type":"uint256","internalType":"uint256"}],"stateMutability":"view"},{"type":"function","name":"FEE_BPS","inputs":[],"outputs":[{"name":"","type":"uint256","internalType":"uint256"}],"stateMutability":"view"},{"type":"function","name":"MAX_POSITION_BPS","inputs":[],"outputs":[{"name":"","type":"uint256","internalType":"uint256"}],"stateMutability":"view"},{"type":"function","name":"MIN_LIQUIDITY_BPS","inputs":[],"outputs":[{"name":"","type":"uint256","internalType":"uint256"}],"stateMutability":"view"},{"type":"function","name":"MIN_TRADE_AMOUNT","inputs":[],"outputs":[{"name":"","type":"uint256","internalType":"uint256"}],"stateMutability":"view"},{"type":"function","name":"PRECISION","inputs":[],"outputs":[{"name":"","type":"uint256","internalType":"uint256"}],"stateMutability":"view"},{"type":"function","name":"buyShares","inputs":[{"name":"outcome","type":"uint8","internalType":"uint8"},{"name":"amountIn","type":"uint256","internalType":"uint256"},{"name":"minSharesOut","type":"uint256","internalType":"uint256"}],"outputs":[],"stateMutability":"nonpayable"},{"type":"function","name":"claim","inputs":[],"outputs":[],"stateMutability":"nonpayable"},{"type":"function","name":"claimed","inputs":[{"name":"","type":"address","internalType":"address"}],"outputs":[{"name":"","type":"bool","internalType":"bool"}],"stateMutability":"view"},{"type":"function","name":"config","inputs":[],"outputs":[{"name":"cutoffTime","type":"uint64","internalType":"uint64"},{"name":"resolveTime","type":"uint64","internalType":"uint64"},{"name":"creatorFeeShareBps","type":"uint16","internalType":"uint16"},{"name":"winningOutcome","type":"uint8","internalType":"uint8"},{"name":"initialized","type":"bool","internalType":"bool"},{"name":"resolved","type":"bool","internalType":"bool"},{"name":"feesDistributed","type":"bool","internalType":"bool"}],"stateMutability":"view"},{"type":"function","name":"creator","inputs":[],"outputs":[{"name":"","type":"address","internalType":"address"}],"stateMutability":"view"},{"type":"function","name":"creatorFeeShareBps","inputs":[],"outputs":[{"name":"","type":"uint16","internalType":"uint16"}],"stateMutability":"view"},{"type":"function","name":"cutoffTime","inputs":[],"outputs":[{"name":"","type":"uint64","internalType":"uint64"}],"stateMutability":"view"},{"type":"function","name":"factory","inputs":[],"outputs":[{"name":"","type":"address","internalType":"address"}],"stateMutability":"view"},{"type":"function","name":"feesDistributed","inputs":[],"outputs":[{"name":"","type":"bool","internalType":"bool"}],"stateMutability":"view"},{"type":"function","name":"getAmountIn","inputs":[{"name":"outcome","type":"uint8","internalType":"uint8"},{"name":"sharesOut","type":"uint256","internalType":"uint256"}],"outputs":[{"name":"amountIn","type":"uint256","internalType":"uint256"}],"stateMutability":"view"},{"type":"function","name":"getAmountOut","inputs":[{"name":"outcome","type":"uint8","internalType":"uint8"},{"name":"amountIn","type":"uint256","internalType":"uint256"}],"outputs":[{"name":"sharesOut","type":"uint256","internalType":"uint256"},{"name":"feeAmount","type":"uint256","internalType":"uint256"}],"stateMutability":"view"},{"type":"function","name":"getOutcomePrice","inputs":[{"name":"outcome","type":"uint8","internalType":"uint8"}],"outputs":[{"name":"","type":"uint256","internalType":"uint256"}],"stateMutability":"view"},{"type":"function","name":"getSpotPrice","inputs":[],"outputs":[{"name":"","type":"uint256","internalType":"uint256"}],"stateMutability":"view"},{"type":"function","name":"ingestResolution","inputs":[{"name":"outcome","type":"uint8","internalType":"uint8"},{"name":"dataHash","type":"bytes32","internalType":"bytes32"}],"outputs":[],"stateMutability":"nonpayable"},{"type":"function","name":"initialLiquidity","inputs":[],"outputs":[{"name":"","type":"uint256","internalType":"uint256"}],"stateMutability":"view"},{"type":"function","name":"initialize","inputs":[{"name":"_params","type":"tuple","internalType":"struct MarketTypes.MarketParams","components":[{"name":"title","type":"string","internalType":"string"},{"name":"description","type":"string","internalType":"string"},{"name":"subject","type":"tuple","internalType":"struct MarketTypes.SubjectParams","components":[{"name":"kind","type":"uint8","internalType":"enum MarketTypes.SubjectKind"},{"name":"metricId","type":"bytes32","internalType":"bytes32"},{"name":"tokenIdentifier","type":"string","internalType":"string"},{"name":"valueDecimals","type":"uint8","internalType":"uint8"}]},{"name":"predicate","type":"tuple","internalType":"struct MarketTypes.PredicateParams","components":[{"name":"op","type":"uint8","internalType":"enum MarketTypes.PredicateOp"},{"name":"threshold","type":"int256","internalType":"int256"}]},{"name":"window","type":"tuple","internalType":"struct MarketTypes.WindowParams","components":[{"name":"kind","type":"uint8","internalType":"enum MarketTypes.WindowKind"},{"name":"tStart","type":"uint64","internalType":"uint64"},{"name":"tEnd","type":"uint64","internalType":"uint64"}]},{"name":"oracle","type":"tuple","internalType":"struct MarketTypes.OracleSpec","components":[{"name":"primarySourceId","type":"bytes32","internalType":"bytes32"},{"name":"fallbackSourceId","type":"bytes32","internalType":"bytes32"},{"name":"roundingDecimals","type":"uint8","internalType":"uint8"}]},{"name":"cutoffTime","type":"uint64","internalType":"uint64"},{"name":"creator","type":"address","internalType":"address"},{"name":"econ","type":"tuple","internalType":"struct MarketTypes.Economics","components":[{"name":"feeBps","type":"uint16","internalType":"uint16"},{"name":"creatorFeeShareBps","type":"uint16","internalType":"uint16"},{"name":"maxTotalPool","type":"uint256","internalType":"uint256"},{"name":"timeDecayBps","type":"uint16","internalType":"uint16"}]},{"name":"isProtocolMarket","type":"bool","internalType":"bool"}]},{"name":"_stakeToken","type":"address","internalType":"address"},{"name":"_treasury","type":"address","internalType":"address"},{"name":"_oracle","type":"address","internalType":"address"},{"name":"_factory","type":"address","internalType":"address"},{"name":"_liquidityAmount","type":"uint256","internalType":"uint256"},{"name":"_minLiquidity","type":"uint256","internalType":"uint256"}],"outputs":[],"stateMutability":"nonpayable"},{"type":"function","name":"initialized","inputs":[],"outputs":[{"name":"","type":"bool","internalType":"bool"}],"stateMutability":"view"},{"type":"function","name":"oracle","inputs":[],"outputs":[{"name":"","type":"address","internalType":"address"}],"stateMutability":"view"},{"type":"function","name":"params","inputs":[],"outputs":[{"name":"title","type":"string","internalType":"string"},{"name":"description","type":"string","internalType":"string"},{"name":"subject","type":"tuple","internalType":"struct MarketTypes.SubjectParams","components":[{"name":"kind","type":"uint8","internalType":"enum MarketTypes.SubjectKind"},{"name":"metricId","type":"bytes32","internalType":"bytes32"},{"name":"tokenIdentifier","type":"string","internalType":"string"},{"name":"valueDecimals","type":"uint8","internalType":"uint8"}]},{"name":"predicate","type":"tuple","internalType":"struct MarketTypes.PredicateParams","components":[{"name":"op","type":"uint8","internalType":"enum MarketTypes.PredicateOp"},{"name":"threshold","type":"int256","internalType":"int256"}]},{"name":"window","type":"tuple","internalType":"struct MarketTypes.WindowParams","components":[{"name":"kind","type":"uint8","internalType":"enum MarketTypes.WindowKind"},{"name":"tStart","type":"uint64","internalType":"uint64"},{"name":"tEnd","type":"uint64","internalType":"uint64"}]},{"name":"oracle","type":"tuple","internalType":"struct MarketTypes.OracleSpec","components":[{"name":"primarySourceId","type":"bytes32","internalType":"bytes32"},{"name":"fallbackSourceId","type":"bytes32","internalType":"bytes32"},{"name":"roundingDecimals","type":"uint8","internalType":"uint8"}]},{"name":"cutoffTime","type":"uint64","internalType":"uint64"},{"name":"creator","type":"address","internalType":"address"},{"name":"econ","type":"tuple","internalType":"struct MarketTypes.Economics","components":[{"name":"feeBps","type":"uint16","internalType":"uint16"},{"name":"creatorFeeShareBps","type":"uint16","internalType":"uint16"},{"name":"maxTotalPool","type":"uint256","internalType":"uint256"},{"name":"timeDecayBps","type":"uint16","internalType":"uint16"}]},{"name":"isProtocolMarket","type":"bool","internalType":"bool"}],"stateMutability":"view"},{"type":"function","name":"paused","inputs":[],"outputs":[{"name":"","type":"bool","internalType":"bool"}],"stateMutability":"view"},{"type":"function","name":"reserveNO","inputs":[],"outputs":[{"name":"","type":"uint256","internalType":"uint256"}],"stateMutability":"view"},{"type":"function","name":"reserveYES","inputs":[],"outputs":[{"name":"","type":"uint256","internalType":"uint256"}],"stateMutability":"view"},{"type":"function","name":"resolutionDataHash","inputs":[],"outputs":[{"name":"","type":"bytes32","internalType":"bytes32"}],"stateMutability":"view"},{"type":"function","name":"resolveTime","inputs":[],"outputs":[{"name":"","type":"uint64","internalType":"uint64"}],"stateMutability":"view"},{"type":"function","name":"resolved","inputs":[],"outputs":[{"name":"","type":"bool","internalType":"bool"}],"stateMutability":"view"},{"type":"function","name":"sellShares","inputs":[{"name":"outcome","type":"uint8","internalType":"uint8"},{"name":"sharesIn","type":"uint256","internalType":"uint256"},{"name":"minAmountOut","type":"uint256","internalType":"uint256"}],"outputs":[],"stateMutability":"nonpayable"},{"type":"function","name":"setPaused","inputs":[{"name":"_paused","type":"bool","internalType":"bool"}],"outputs":[],"stateMutability":"nonpayable"},{"type":"function","name":"sharesNO","inputs":[{"name":"","type":"address","internalType":"address"}],"outputs":[{"name":"","type":"uint256","internalType":"uint256"}],"stateMutability":"view"},{"type":"function","name":"sharesYES","inputs":[{"name":"","type":"address","internalType":"address"}],"outputs":[{"name":"","type":"uint256","internalType":"uint256"}],"stateMutability":"view"},{"type":"function","name":"stakeToken","inputs":[],"outputs":[{"name":"","type":"address","internalType":"contract IERC20"}],"stateMutability":"view"},{"type":"function","name":"totalFeesCollected","inputs":[],"outputs":[{"name":"","type":"uint256","internalType":"uint256"}],"stateMutability":"view"},{"type":"function","name":"totalPool","inputs":[],"outputs":[{"name":"","type":"uint256","internalType":"uint256"}],"stateMutability":"view"},{"type":"function","name":"treasury","inputs":[],"outputs":[{"name":"","type":"address","internalType":"address"}],"stateMutability":"view"},{"type":"function","name":"userInfo","inputs":[{"name":"user","type":"address","internalType":"address"}],"outputs":[{"name":"yesShares","type":"uint256","internalType":"uint256"},{"name":"noShares","type":"uint256","internalType":"uint256"},{"name":"hasClaimed","type":"bool","internalType":"bool"}],"stateMutability":"view"},{"type":"function","name":"winningOutcome","inputs":[],"outputs":[{"name":"","type":"uint8","internalType":"uint8"}],"stateMutability":"view"},{"type":"event","name":"Claimed","inputs":[{"name":"user","type":"address","indexed":true,"internalType":"address"},{"name":"payout","type":"uint256","indexed":false,"internalType":"uint256"}],"anonymous":false},{"type":"event","name":"FeesDistributed","inputs":[{"name":"treasury","type":"address","indexed":false,"internalType":"address"},{"name":"creator","type":"address","indexed":false,"internalType":"address"},{"name":"treasuryFee","type":"uint256","indexed":false,"internalType":"uint256"},{"name":"creatorFee","type":"uint256","indexed":false,"internalType":"uint256"}],"anonymous":false},{"type":"event","name":"MarketInitialized","inputs":[{"name":"creator","type":"address","indexed":true,"internalType":"address"},{"name":"liquidityAmount","type":"uint256","indexed":false,"internalType":"uint256"},{"name":"cutoffTime","type":"uint64","indexed":false,"internalType":"uint64"},{"name":"resolveTime","type":"uint64","indexed":false,"internalType":"uint64"}],"anonymous":false},{"type":"event","name":"Paused","inputs":[{"name":"account","type":"address","indexed":false,"internalType":"address"}],"anonymous":false},{"type":"event","name":"Resolved","inputs":[{"name":"winningOutcome","type":"uint8","indexed":false,"internalType":"uint8"},{"name":"dataHash","type":"bytes32","indexed":false,"internalType":"bytes32"}],"anonymous":false},{"type":"event","name":"SharesPurchased","inputs":[{"name":"buyer","type":"address","indexed":true,"internalType":"address"},{"name":"outcome","type":"uint8","indexed":false,"internalType":"uint8"},{"name":"amountIn","type":"uint256","indexed":false,"internalType":"uint256"},{"name":"sharesOut","type":"uint256","indexed":false,"internalType":"uint256"},{"name":"feeAmount","type":"uint256","indexed":false,"internalType":"uint256"},{"name":"newPrice","type":"uint256","indexed":false,"internalType":"uint256"}],"anonymous":false},{"type":"event","name":"SharesSold","inputs":[{"name":"seller","type":"address","indexed":true,"internalType":"address"},{"name":"outcome","type":"uint8","indexed":false,"internalType":"uint8"},{"name":"sharesIn","type":"uint256","indexed":false,"internalType":"uint256"},{"name":"amountOut","type":"uint256","indexed":false,"internalType":"uint256"},{"name":"feeAmount","type":"uint256","indexed":false,"internalType":"uint256"},{"name":"newPrice","type":"uint256","indexed":false,"internalType":"uint256"}],"anonymous":false},{"type":"event","name":"Unpaused","inputs":[{"name":"account","type":"address","indexed":false,"internalType":"address"}],"anonymous":false},{"type":"error","name":"EnforcedPause","inputs":[]},{"type":"error","name":"ExpectedPause","inputs":[]},{"type":"error","name":"ReentrancyGuardReentrantCall","inputs":[]},{"type":"error","name":"SafeERC20FailedOperation","inputs":[{"name":"token","type":"address","internalType":"address"}]}],"bytecode":{"object":"0x6080604052348015600e575f5ffd5b5060015f55612c1f806100205f395ff3fe608060405234801561000f575f5ffd5b506004361061024a575f3560e01c806375f0c2f011610140578063af2ba65c116100bf578063c45a015511610084578063c45a0155146105e8578063c884ef83146105fb578063cff0ab961461061d578063da9e70881461063b578063dc76fabc14610644578063ecfb49a31461064c575f5ffd5b8063af2ba65c1461057c578063b49c3089146105a4578063b76162d7146105c3578063bf333f2c146105cc578063c33748dc146105d5575f5ffd5b80639b34ae03116101055780639b34ae0314610516578063a317f2d614610535578063a5f74a5f14610547578063aaf5eb681461055a578063ac0bd1fb14610569575f5ffd5b806375f0c2f01461044457806379502c551461044d5780637d071d4f146104f15780637dc0d1d0146104fa57806398f553341461050d575f5ffd5b806340702adc116101cc5780635c975abb116101915780635c975abb146103f957806360c6d8ae1461040457806361d027b31461040d57806362107e8d146104205780636ffde0d714610431575f5ffd5b806340702adc146103af57806341018641146103b857806349447633146103cb5780634e71d92d146103de57806351ed6a30146103e6575f5ffd5b8063191fe1ed11610212578063191fe1ed1461030a5780631959a00214610313578063298278261461037257806331b7d413146103935780633f6fa6551461039d575f5ffd5b806302d05d3f1461024e57806305ed76c41461027e57806310d6bb75146102aa578063158ef93e146102d757806316c38b3c146102f5575b5f5ffd5b600854610261906001600160a01b031681565b6040516001600160a01b0390911681526020015b60405180910390f35b600c54600160401b90046001600160401b03165b6040516001600160401b039091168152602001610275565b6102c96102b83660046122e6565b600d6020525f908152604090205481565b604051908152602001610275565b600c54600160981b900460ff165b6040519015158152602001610275565b61030861030336600461230e565b610654565b005b6102c961271081565b6103556103213660046122e6565b6001600160a01b03165f908152600d6020908152604080832054600e835281842054600f9093529220549192909160ff1690565b604080519384526020840192909252151590820152606001610275565b600c54600160801b900461ffff1660405161ffff9091168152602001610275565b6102c9620f424081565b600c54600160a01b900460ff166102e5565b6102c960045481565b6102c96103c6366004612337565b6106b9565b6103086103d9366004612621565b61075b565b610308610df8565b600654610261906001600160a01b031681565b60015460ff166102e5565b6102c960055481565b600754610261906001600160a01b031681565b600c546001600160401b0316610292565b61030861043f3660046127b7565b610fb4565b6102c96103e881565b600c546104a2906001600160401b0380821691600160401b81049091169061ffff600160801b8204169060ff600160901b8204811691600160981b8104821691600160a01b8204811691600160a81b90041687565b604080516001600160401b03988916815297909616602088015261ffff9094169486019490945260ff90911660608501521515608084015290151560a0830152151560c082015260e001610275565b6102c9600b5481565b600954610261906001600160a01b031681565b6102c96109c481565b600c54600160901b900460ff1660405160ff9091168152602001610275565b600c54600160a81b900460ff166102e5565b6103086105553660046127e7565b611391565b6102c9670de0b6b3a764000081565b6103086105773660046127b7565b6114e8565b61058f61058a3660046127e7565b6117c4565b60408051928352602083019190915201610275565b6102c96105b23660046122e6565b600e6020525f908152604090205481565b6102c960035481565b6102c961012c81565b6102c96105e33660046127e7565b6118f7565b600a54610261906001600160a01b031681565b6102e56106093660046122e6565b600f6020525f908152604090205460ff1681565b610625611a27565b6040516102759a999897969594939291906128b0565b6102c960025481565b6102c9611d76565b6102c9611dd4565b6007546001600160a01b031633146106a05760405162461bcd60e51b815260206004820152600a60248201526927b7363c9037bbb732b960b11b60448201526064015b60405180910390fd5b80156106b1576106ae611e3e565b50565b6106ae611e92565b5f60018260ff1611156106de5760405162461bcd60e51b8152600401610697906129d2565b5f6003546002546106ef9190612a0f565b9050805f036107125761070b6002670de0b6b3a7640000612a28565b9392505050565b8260ff1660010361073e5780670de0b6b3a76400006002546107349190612a47565b61070b9190612a28565b80670de0b6b3a76400006003546107349190612a47565b50919050565b600c54600160981b900460ff16156107ab5760405162461bcd60e51b8152602060048201526013602482015272105b1c9958591e481a5b9a5d1a585b1a5e9959606a1b6044820152606401610697565b808210156107f45760405162461bcd60e51b8152602060048201526016602482015275496e73756666696369656e74206c697175696469747960501b6044820152606401610697565b428760800151604001516001600160401b03161161084b5760405162461bcd60e51b8152602060048201526014602482015273496e76616c6964207265736f6c76652074696d6560601b6044820152606401610697565b428760c001516001600160401b03161161089d5760405162461bcd60e51b8152602060048201526013602482015272496e76616c6964206375746f66662074696d6560681b6044820152606401610697565b8660800151604001516001600160401b03168760c001516001600160401b031611156109025760405162461bcd60e51b81526020600482015260146024820152734375746f6666206166746572207265736f6c766560601b6044820152606401610697565b600a80546001600160a01b03199081166001600160a01b038681169190911790925560068054821689841617905560078054821688841617905560e0890151600880548316918416919091179055600980549091169186169190911790558651879060109081906109739082612adb565b50602082015160018201906109889082612adb565b5060408201518051600283018054909190829060ff1916600183818111156109b2576109b261283d565b021790555060208201516001820155604082015160028201906109d59082612adb565b506060918201516003918201805460ff90921660ff1992831617905591840151805160068501805492949093919284929116906001908490811115610a1c57610a1c61283d565b0217905550602091909101516001918201556080830151805160088401805492939092839160ff1990911690836002811115610a5a57610a5a61283d565b02179055506020820151815f0160016101000a8154816001600160401b0302191690836001600160401b031602179055506040820151815f0160096101000a8154816001600160401b0302191690836001600160401b03160217905550505060a0820151816009015f820151815f0155602082015181600101556040820151816002015f6101000a81548160ff021916908360ff160217905550505060c082015181600c015f6101000a8154816001600160401b0302191690836001600160401b0316021790555060e082015181600c0160086101000a8154816001600160a01b0302191690836001600160a01b0316021790555061010082015181600d015f820151815f015f6101000a81548161ffff021916908361ffff1602179055506020820151815f0160026101000a81548161ffff021916908361ffff160217905550604082015181600101556060820151816002015f6101000a81548161ffff021916908361ffff1602179055505050610120820151816010015f6101000a81548160ff0219169083151502179055509050506040518060e001604052808860c001516001600160401b031681526020018860800151604001516001600160401b031681526020018861010001516020015161ffff1681526020015f60ff1681526020016001151581526020015f151581526020015f1515815250600c5f820151815f015f6101000a8154816001600160401b0302191690836001600160401b031602179055506020820151815f0160086101000a8154816001600160401b0302191690836001600160401b031602179055506040820151815f0160106101000a81548161ffff021916908361ffff1602179055506060820151815f0160126101000a81548160ff021916908360ff1602179055506080820151815f0160136101000a81548160ff02191690831515021790555060a0820151815f0160146101000a81548160ff02191690831515021790555060c0820151815f0160156101000a81548160ff02191690831515021790555090505081600481905550600282610d629190612a28565b6002908155610d719083612a28565b600355600654610d8c906001600160a01b0316843085611ecb565b600854600c54604080518581526001600160401b038084166020830152600160401b90930490921682820152516001600160a01b03909216917faf77c2b0a23728ca7ca7c7e7306c7112db8040d7ed550aafc88f19b20ae4119d9181900360600190a250505050505050565b610e00611f38565b600c54600160a01b900460ff16610e485760405162461bcd60e51b815260206004820152600c60248201526b139bdd081c995cdbdb1d995960a21b6044820152606401610697565b335f908152600f602052604090205460ff1615610e995760405162461bcd60e51b815260206004820152600f60248201526e105b1c9958591e4818db185a5b5959608a1b6044820152606401610697565b600c545f90600160901b900460ff16600103610ec45750335f908152600d6020526040902054610ed5565b50335f908152600e60205260409020545b5f8111610f185760405162461bcd60e51b81526020600482015260116024820152704e6f2077696e6e696e672073686172657360781b6044820152606401610697565b335f908152600f60205260409020805460ff19166001179055600c54600160a81b900460ff16158015610f4c57505f600554115b15610f5957610f59611f60565b6006548190610f72906001600160a01b0316338361206c565b60405181815233907fd8138f8a3f377c5259ca548e70e4c2de94f129f5a11036a15b69513cba2b426a9060200160405180910390a25050610fb260015f55565b565b610fbc611f38565b610fc461209d565b600c546001600160401b0316421061100f5760405162461bcd60e51b815260206004820152600e60248201526d151c98591a5b99c818db1bdcd95960921b6044820152606401610697565b600c54600160a01b900460ff16156110395760405162461bcd60e51b815260040161069790612b95565b60018360ff16111561105d5760405162461bcd60e51b8152600401610697906129d2565b5f821161109a5760405162461bcd60e51b815260206004820152600b60248201526a5a65726f2073686172657360a81b6044820152606401610697565b8260ff1660010361110857335f908152600d60205260409020548211156111035760405162461bcd60e51b815260206004820152601760248201527f496e73756666696369656e7420594553207368617265730000000000000000006044820152606401610697565b61115f565b335f908152600e602052604090205482111561115f5760405162461bcd60e51b8152602060048201526016602482015275496e73756666696369656e74204e4f2073686172657360501b6044820152606401610697565b5f5f8460ff16600103611179575050600254600354611182565b50506003546002545b5f61118d8584612a0f565b6111978684612a47565b6111a19190612a28565b90505f6127106111b361012c84612a47565b6111bd9190612a28565b90505f6111ca8284612bbf565b9050858110156112105760405162461bcd60e51b815260206004820152601160248201527014db1a5c1c1859d948195e18d959591959607a1b6044820152606401610697565b8760ff1660010361127457335f908152600d602052604081208054899290611239908490612bbf565b925050819055508660035f8282546112519190612a0f565b925050819055508260025f8282546112699190612bbf565b909155506112c89050565b335f908152600e602052604081208054899290611292908490612bbf565b925050819055508660025f8282546112aa9190612a0f565b925050819055508260035f8282546112c29190612bbf565b90915550505b8160055f8282546112d99190612a0f565b90915550506006546112f5906001600160a01b0316338361206c565b5f6003546002546113069190612a0f565b670de0b6b3a764000060025461131c9190612a47565b6113269190612a28565b6040805160ff8c168152602081018b9052908101849052606081018590526080810182905290915033907f6d835bea46ecd12f05be073365ff4c4d35c1ff63fc4e86ef7f00c353f575d8ce9060a00160405180910390a250505050505061138c60015f55565b505050565b6009546001600160a01b031633146113d95760405162461bcd60e51b815260206004820152600b60248201526a4f6e6c79206f7261636c6560a81b6044820152606401610697565b600c54600160401b90046001600160401b03164210156114275760405162461bcd60e51b8152602060048201526009602482015268546f6f206561726c7960b81b6044820152606401610697565b600c54600160a01b900460ff16156114515760405162461bcd60e51b815260040161069790612b95565b60018260ff1611156114755760405162461bcd60e51b8152600401610697906129d2565b600c805460ff8416600160901b0262ff00ff60901b1990911617600160a01b179055600b8190556040517fa22a153b3aaea5b4815053e6f9dd68769c041ac2588276b05574e15495ff1ea8906114dc908490849060ff929092168252602082015260400190565b60405180910390a15050565b6114f0611f38565b6114f861209d565b600c546001600160401b031642106115435760405162461bcd60e51b815260206004820152600e60248201526d151c98591a5b99c818db1bdcd95960921b6044820152606401610697565b600c54600160a01b900460ff161561156d5760405162461bcd60e51b815260040161069790612b95565b60018360ff1611156115915760405162461bcd60e51b8152600401610697906129d2565b620f42408210156115d45760405162461bcd60e51b815260206004820152600d60248201526c42656c6f77206d696e696d756d60981b6044820152606401610697565b5f5f6115e085856117c4565b91509150828210156116285760405162461bcd60e51b815260206004820152601160248201527014db1a5c1c1859d948195e18d959591959607a1b6044820152606401610697565b6116333386846120c1565b61163e858383612196565b600654611656906001600160a01b0316333087611ecb565b8460ff166001036116c0578360025f8282546116729190612a0f565b9091555061168290508183612a0f565b60035f8282546116929190612bbf565b9091555050335f908152600d6020526040812080548492906116b5908490612a0f565b9091555061171a9050565b8360035f8282546116d19190612a0f565b909155506116e190508183612a0f565b60025f8282546116f19190612bbf565b9091555050335f908152600e602052604081208054849290611714908490612a0f565b90915550505b8060055f82825461172b9190612a0f565b90915550506003546002545f9161174191612a0f565b670de0b6b3a76400006002546117579190612a47565b6117619190612a28565b6040805160ff8916815260208101889052908101859052606081018490526080810182905290915033907f435e83f150b2d380baf7500cfbc6f61706ca2cb05603af7dbbaa5572fa3ec6d09060a00160405180910390a250505061138c60015f55565b5f5f60018460ff1611156117ea5760405162461bcd60e51b8152600401610697906129d2565b5f83116118265760405162461bcd60e51b815260206004820152600a60248201526916995c9bc81a5b9c1d5d60b21b6044820152606401610697565b5f5f8560ff16600103611840575050600354600254611849565b50506002546003545b5f6118548684612a0f565b61185e8784612a47565b6118689190612a28565b905061271061187961012c83612a47565b6118839190612a28565b935061188f8482612bbf565b9450600a61189e836009612a47565b6118a89190612a28565b85106118ed5760405162461bcd60e51b815260206004820152601460248201527345786365656473206d617820736c69707061676560601b6044820152606401610697565b5050509250929050565b5f60018360ff16111561191c5760405162461bcd60e51b8152600401610697906129d2565b5f82116119595760405162461bcd60e51b815260206004820152600b60248201526a16995c9bc81bdd5d1c1d5d60aa1b6044820152606401610697565b5f5f8460ff1660010361197357505060035460025461197c565b50506002546003545b5f61198b61012c612710612bbf565b61199761271087612a47565b6119a19190612a28565b9050600a6119b0836009612a47565b6119ba9190612a28565b81106119ff5760405162461bcd60e51b815260206004820152601460248201527345786365656473206d617820736c69707061676560601b6044820152606401610697565b611a098183612bbf565b611a138285612a47565b611a1d9190612a28565b9695505050505050565b601080548190611a3690612a5e565b80601f0160208091040260200160405190810160405280929190818152602001828054611a6290612a5e565b8015611aad5780601f10611a8457610100808354040283529160200191611aad565b820191905f5260205f20905b815481529060010190602001808311611a9057829003601f168201915b505050505090806001018054611ac290612a5e565b80601f0160208091040260200160405190810160405280929190818152602001828054611aee90612a5e565b8015611b395780601f10611b1057610100808354040283529160200191611b39565b820191905f5260205f20905b815481529060010190602001808311611b1c57829003601f168201915b50506040805160808101909152600286018054959695919450925083915060ff166001811115611b6b57611b6b61283d565b6001811115611b7c57611b7c61283d565b815260200160018201548152602001600282018054611b9a90612a5e565b80601f0160208091040260200160405190810160405280929190818152602001828054611bc690612a5e565b8015611c115780601f10611be857610100808354040283529160200191611c11565b820191905f5260205f20905b815481529060010190602001808311611bf457829003601f168201915b505050918352505060039182015460ff908116602090920191909152604080518082019091526006850180549495949193909284921690811115611c5757611c5761283d565b6003811115611c6857611c6861283d565b8152600191909101546020909101526040805160608101909152600883018054929392829060ff166002811115611ca157611ca161283d565b6002811115611cb257611cb261283d565b8152905461010081046001600160401b039081166020808501919091526901000000000000000000909204811660409384015282516060808201855260098701548252600a87015482850152600b87015460ff90811683870152600c8801548651608081018852600d8a015461ffff808216835262010000909104811697820197909752600e8a015497810197909752600f890154909516918601919091526010909601549495909491831693600160401b9093046001600160a01b03169291168a565b5f6002545f1480611d875750600354155b15611da457611d9f6002670de0b6b3a7640000612a28565b905090565b600354600254611db49190612a0f565b670de0b6b3a7640000600254611dca9190612a47565b611d9f9190612a28565b6006546040516370a0823160e01b81523060048201525f916001600160a01b0316906370a0823190602401602060405180830381865afa158015611e1a573d5f5f3e3d5ffd5b505050506040513d601f19601f82011682018060405250810190611d9f9190612bd2565b611e4661209d565b6001805460ff1916811790557f62e78cea01bee320cd4e420270b5ea74000d11b0c9f74754ebdbfc544b05a258335b6040516001600160a01b03909116815260200160405180910390a1565b611e9a61223c565b6001805460ff191690557f5db9ee0a495bf2e6ff9c91a7834c1ba4fdd244a5e8aa4e537bd38aeae4b073aa33611e75565b6040516001600160a01b038481166024830152838116604483015260648201839052611f329186918216906323b872dd906084015b604051602081830303815290604052915060e01b6020820180516001600160e01b03838183161783525050505061225f565b50505050565b60025f5403611f5a57604051633ee5aeb560e01b815260040160405180910390fd5b60025f55565b600c54600160a81b900460ff1680611f785750600554155b15611f7f57565b600c546005545f9161271091611fa091600160801b900461ffff1690612a47565b611faa9190612a28565b90505f81600554611fbb9190612bbf565b600c805460ff60a81b1916600160a81b17905590508015611ff357600754600654611ff3916001600160a01b0391821691168361206c565b811561201657600854600654612016916001600160a01b0391821691168461206c565b600754600854604080516001600160a01b0393841681529290911660208301528101829052606081018390527ff227c93b6b816f85ef75ee32431495d61932665acd4193a40431a42f1502701a906080016114dc565b6040516001600160a01b0383811660248301526044820183905261138c91859182169063a9059cbb90606401611f00565b60015460ff1615610fb25760405163d93c066560e01b815260040160405180910390fd5b5f8260ff166001146120ea576001600160a01b0384165f908152600e6020526040902054612103565b6001600160a01b0384165f908152600d60205260409020545b90505f6121108383612a0f565b90505f6127106109c460026004546121289190612a28565b6121329190612a47565b61213c9190612a28565b90508082111561218e5760405162461bcd60e51b815260206004820152601760248201527f506f736974696f6e206c696d69742065786365656465640000000000000000006044820152606401610697565b505050505050565b5f6127106103e860026004546121ac9190612a28565b6121b69190612a47565b6121c09190612a28565b90505f8460ff166001146121d6576002546121da565b6003545b90505f6121e78486612a0f565b6121f19083612bbf565b90508281101561218e5760405162461bcd60e51b8152602060048201526016602482015275496e73756666696369656e74206c697175696469747960501b6044820152606401610697565b60015460ff16610fb257604051638dfc202b60e01b815260040160405180910390fd5b5f5f60205f8451602086015f885af18061227e576040513d5f823e3d81fd5b50505f513d915081156122955780600114156122a2565b6001600160a01b0384163b155b15611f3257604051635274afe760e01b81526001600160a01b0385166004820152602401610697565b80356001600160a01b03811681146122e1575f5ffd5b919050565b5f602082840312156122f6575f5ffd5b61070b826122cb565b803580151581146122e1575f5ffd5b5f6020828403121561231e575f5ffd5b61070b826122ff565b803560ff811681146122e1575f5ffd5b5f60208284031215612347575f5ffd5b61070b82612327565b634e487b7160e01b5f52604160045260245ffd5b604051608081016001600160401b038111828210171561238657612386612350565b60405290565b604051606081016001600160401b038111828210171561238657612386612350565b60405161014081016001600160401b038111828210171561238657612386612350565b5f82601f8301126123e0575f5ffd5b81356001600160401b038111156123f9576123f9612350565b604051601f8201601f19908116603f011681016001600160401b038111828210171561242757612427612350565b60405281815283820160200185101561243e575f5ffd5b816020850160208301375f918101602001919091529392505050565b5f6080828403121561246a575f5ffd5b612472612364565b9050813560028110612482575f5ffd5b81526020828101359082015260408201356001600160401b038111156124a6575f5ffd5b6124b2848285016123d1565b6040830152506124c460608301612327565b606082015292915050565b5f604082840312156124df575f5ffd5b604080519081016001600160401b038111828210171561250157612501612350565b604052905080823560048110612515575f5ffd5b8152602092830135920191909152919050565b80356001600160401b03811681146122e1575f5ffd5b5f6060828403121561254e575f5ffd5b61255661238c565b9050813560038110612566575f5ffd5b815261257460208301612528565b602082015261258560408301612528565b604082015292915050565b5f606082840312156125a0575f5ffd5b6125a861238c565b8235815260208084013590820152905061258560408301612327565b803561ffff811681146122e1575f5ffd5b5f608082840312156125e5575f5ffd5b6125ed612364565b90506125f8826125c4565b8152612606602083016125c4565b6020820152604082810135908201526124c4606083016125c4565b5f5f5f5f5f5f5f60e0888a031215612637575f5ffd5b87356001600160401b0381111561264c575f5ffd5b8801610240818b03121561265e575f5ffd5b6126666123ae565b81356001600160401b0381111561267b575f5ffd5b6126878c8285016123d1565b82525060208201356001600160401b038111156126a2575f5ffd5b6126ae8c8285016123d1565b60208301525060408201356001600160401b038111156126cc575f5ffd5b6126d88c82850161245a565b6040830152506126eb8b606084016124cf565b60608201526126fd8b60a0840161253e565b60808201526127108b6101008401612590565b60a08201526127226101608301612528565b60c082015261273461018083016122cb565b60e08201526127478b6101a084016125d5565b61010082015261275a61022083016122ff565b61012082015297506127709050602089016122cb565b955061277e604089016122cb565b945061278c606089016122cb565b935061279a608089016122cb565b9699959850939692959460a0840135945060c09093013592915050565b5f5f5f606084860312156127c9575f5ffd5b6127d284612327565b95602085013595506040909401359392505050565b5f5f604083850312156127f8575f5ffd5b61280183612327565b946020939093013593505050565b5f81518084528060208401602086015e5f602082860101526020601f19601f83011685010191505092915050565b634e487b7160e01b5f52602160045260245ffd5b8051600481106128635761286361283d565b8252602090810151910152565b8051600381106128825761288261283d565b808352506001600160401b0360208201511660208301526001600160401b0360408201511660408301525050565b61024081525f6128c461024083018d61280f565b82810360208401526128d6818d61280f565b905082810360408401528a51600281106128f2576128f261283d565b8082525060208b0151602082015260408b015160806040830152612919608083018261280f565b905060ff60608d0151166060830152809250505061293a606083018a612851565b61294760a0830189612870565b86516101008301526020870151610120830152604087015160ff166101408301526001600160401b0386166101608301526001600160a01b038516610180830152835161ffff9081166101a0840152602085015181166101c084015260408501516101e08401526060850151166102008301528215156102208301529b9a5050505050505050505050565b6020808252600f908201526e496e76616c6964206f7574636f6d6560881b604082015260600190565b634e487b7160e01b5f52601160045260245ffd5b80820180821115612a2257612a226129fb565b92915050565b5f82612a4257634e487b7160e01b5f52601260045260245ffd5b500490565b8082028115828204841417612a2257612a226129fb565b600181811c90821680612a7257607f821691505b60208210810361075557634e487b7160e01b5f52602260045260245ffd5b601f82111561138c57805f5260205f20601f840160051c81016020851015612ab55750805b601f840160051c820191505b81811015612ad4575f8155600101612ac1565b5050505050565b81516001600160401b03811115612af457612af4612350565b612b0881612b028454612a5e565b84612a90565b6020601f821160018114612b3a575f8315612b235750848201515b5f19600385901b1c1916600184901b178455612ad4565b5f84815260208120601f198516915b82811015612b695787850151825560209485019460019092019101612b49565b5084821015612b8657868401515f19600387901b60f8161c191681555b50505050600190811b01905550565b60208082526010908201526f105b1c9958591e481c995cdbdb1d995960821b604082015260600190565b81810381811115612a2257612a226129fb565b5f60208284031215612be2575f5ffd5b505191905056fea26469706673582212203d453da065e8e7609217fd6b96fc7957dac6951c7484351080fdc2140dd100d864736f6c634300081c0033","linkReferences":{}},"methodIdentifiers":{"BPS_DIVISOR()":"191fe1ed","FEE_BPS()":"bf333f2c","MAX_POSITION_BPS()":"98f55334","MIN_LIQUIDITY_BPS()":"75f0c2f0","MIN_TRADE_AMOUNT()":"31b7d413","PRECISION()":"aaf5eb68","buyShares(uint8,uint256,uint256)":"ac0bd1fb","claim()":"4e71d92d","claimed(address)":"c884ef83","config()":"79502c55","creator()":"02d05d3f","creatorFeeShareBps()":"29827826","cutoffTime()":"62107e8d","factory()":"c45a0155","feesDistributed()":"a317f2d6","getAmountIn(uint8,uint256)":"c33748dc","getAmountOut(uint8,uint256)":"af2ba65c","getOutcomePrice(uint8)":"41018641","getSpotPrice()":"dc76fabc","ingestResolution(uint8,bytes32)":"a5f74a5f","initialLiquidity()":"40702adc","initialize((string,string,(uint8,bytes32,string,uint8),(uint8,int256),(uint8,uint64,uint64),(bytes32,bytes32,uint8),uint64,address,(uint16,uint16,uint256,uint16),bool),address,address,address,address,uint256,uint256)":"49447633","initialized()":"158ef93e","oracle()":"7dc0d1d0","params()":"cff0ab96","paused()":"5c975abb","reserveNO()":"b76162d7","reserveYES()":"da9e7088","resolutionDataHash()":"7d071d4f","resolveTime()":"05ed76c4","resolved()":"3f6fa655","sellShares(uint8,uint256,uint256)":"6ffde0d7","setPaused(bool)":"16c38b3c","sharesNO(address)":"b49c3089","sharesYES(address)":"10d6bb75","stakeToken()":"51ed6a30","totalFeesCollected()":"60c6d8ae","totalPool()":"ecfb49a3","treasury()":"61d027b3","userInfo(address)":"1959a002","winningOutcome()":"9b34ae03"},"id":32}