{"abi":[{"type":"function","name":"BPS_DIVISOR","inputs":[],"outputs":[{"name":"","type":"uint256","internalType":"uint256"}],"stateMutability":"view"},{"type":"function","name":"FEE_BPS","inputs":[],"outputs":[{"name":"","type":"uint256","internalType":"uint256"}],"stateMutability":"view"},{"type":"function","name":"MAX_POSITION_BPS","inputs":[],"outputs":[{"name":"","type":"uint256","internalType":"uint256"}],"stateMutability":"view"},{"type":"function","name":"MIN_LIQUIDITY_BPS","inputs":[],"outputs":[{"name":"","type":"uint256","internalType":"uint256"}],"stateMutability":"view"},{"type":"function","name":"MIN_TOTAL_LIQUIDITY","inputs":[],"outputs":[{"name":"","type":"uint256","internalType":"uint256"}],"stateMutability":"view"},{"type":"function","name":"MIN_TRADE_AMOUNT","inputs":[],"outputs":[{"name":"","type":"uint256","internalType":"uint256"}],"stateMutability":"view"},{"type":"function","name":"PRECISION","inputs":[],"outputs":[{"name":"","type":"uint256","internalType":"uint256"}],"stateMutability":"view"},{"type":"function","name":"buyShares","inputs":[{"name":"outcome","type":"uint8","internalType":"uint8"},{"name":"amountIn","type":"uint256","internalType":"uint256"},{"name":"minSharesOut","type":"uint256","internalType":"uint256"}],"outputs":[],"stateMutability":"nonpayable"},{"type":"function","name":"claim","inputs":[],"outputs":[],"stateMutability":"nonpayable"},{"type":"function","name":"claimed","inputs":[{"name":"","type":"address","internalType":"address"}],"outputs":[{"name":"","type":"bool","internalType":"bool"}],"stateMutability":"view"},{"type":"function","name":"config","inputs":[],"outputs":[{"name":"cutoffTime","type":"uint64","internalType":"uint64"},{"name":"resolveTime","type":"uint64","internalType":"uint64"},{"name":"creatorFeeShareBps","type":"uint16","internalType":"uint16"},{"name":"winningOutcome","type":"uint8","internalType":"uint8"},{"name":"initialized","type":"bool","internalType":"bool"},{"name":"resolved","type":"bool","internalType":"bool"},{"name":"feesDistributed","type":"bool","internalType":"bool"}],"stateMutability":"view"},{"type":"function","name":"creator","inputs":[],"outputs":[{"name":"","type":"address","internalType":"address"}],"stateMutability":"view"},{"type":"function","name":"creatorFeeShareBps","inputs":[],"outputs":[{"name":"","type":"uint16","internalType":"uint16"}],"stateMutability":"view"},{"type":"function","name":"cutoffTime","inputs":[],"outputs":[{"name":"","type":"uint64","internalType":"uint64"}],"stateMutability":"view"},{"type":"function","name":"factory","inputs":[],"outputs":[{"name":"","type":"address","internalType":"address"}],"stateMutability":"view"},{"type":"function","name":"feesDistributed","inputs":[],"outputs":[{"name":"","type":"bool","internalType":"bool"}],"stateMutability":"view"},{"type":"function","name":"getAmountIn","inputs":[{"name":"outcome","type":"uint8","internalType":"uint8"},{"name":"sharesOut","type":"uint256","internalType":"uint256"}],"outputs":[{"name":"amountIn","type":"uint256","internalType":"uint256"}],"stateMutability":"view"},{"type":"function","name":"getAmountOut","inputs":[{"name":"outcome","type":"uint8","internalType":"uint8"},{"name":"amountIn","type":"uint256","internalType":"uint256"}],"outputs":[{"name":"sharesOut","type":"uint256","internalType":"uint256"},{"name":"feeAmount","type":"uint256","internalType":"uint256"}],"stateMutability":"view"},{"type":"function","name":"getOutcomePrice","inputs":[{"name":"outcome","type":"uint8","internalType":"uint8"}],"outputs":[{"name":"","type":"uint256","internalType":"uint256"}],"stateMutability":"view"},{"type":"function","name":"getSpotPrice","inputs":[],"outputs":[{"name":"","type":"uint256","internalType":"uint256"}],"stateMutability":"view"},{"type":"function","name":"ingestResolution","inputs":[{"name":"outcome","type":"uint8","internalType":"uint8"},{"name":"dataHash","type":"bytes32","internalType":"bytes32"}],"outputs":[],"stateMutability":"nonpayable"},{"type":"function","name":"initialLiquidity","inputs":[],"outputs":[{"name":"","type":"uint256","internalType":"uint256"}],"stateMutability":"view"},{"type":"function","name":"initialize","inputs":[{"name":"_params","type":"tuple","internalType":"struct MarketTypes.MarketParams","components":[{"name":"title","type":"string","internalType":"string"},{"name":"description","type":"string","internalType":"string"},{"name":"subject","type":"tuple","internalType":"struct MarketTypes.SubjectParams","components":[{"name":"kind","type":"uint8","internalType":"enum MarketTypes.SubjectKind"},{"name":"metricId","type":"bytes32","internalType":"bytes32"},{"name":"token","type":"address","internalType":"address"},{"name":"valueDecimals","type":"uint8","internalType":"uint8"}]},{"name":"predicate","type":"tuple","internalType":"struct MarketTypes.PredicateParams","components":[{"name":"op","type":"uint8","internalType":"enum MarketTypes.PredicateOp"},{"name":"threshold","type":"int256","internalType":"int256"}]},{"name":"window","type":"tuple","internalType":"struct MarketTypes.WindowParams","components":[{"name":"kind","type":"uint8","internalType":"enum MarketTypes.WindowKind"},{"name":"tStart","type":"uint64","internalType":"uint64"},{"name":"tEnd","type":"uint64","internalType":"uint64"}]},{"name":"oracle","type":"tuple","internalType":"struct MarketTypes.OracleSpec","components":[{"name":"primarySourceId","type":"bytes32","internalType":"bytes32"},{"name":"fallbackSourceId","type":"bytes32","internalType":"bytes32"},{"name":"roundingDecimals","type":"uint8","internalType":"uint8"}]},{"name":"cutoffTime","type":"uint64","internalType":"uint64"},{"name":"creator","type":"address","internalType":"address"},{"name":"econ","type":"tuple","internalType":"struct MarketTypes.Economics","components":[{"name":"feeBps","type":"uint16","internalType":"uint16"},{"name":"creatorFeeShareBps","type":"uint16","internalType":"uint16"},{"name":"maxTotalPool","type":"uint256","internalType":"uint256"},{"name":"timeDecayBps","type":"uint16","internalType":"uint16"}]},{"name":"isProtocolMarket","type":"bool","internalType":"bool"}]},{"name":"_stakeToken","type":"address","internalType":"address"},{"name":"_treasury","type":"address","internalType":"address"},{"name":"_oracle","type":"address","internalType":"address"},{"name":"_factory","type":"address","internalType":"address"},{"name":"_liquidityAmount","type":"uint256","internalType":"uint256"}],"outputs":[],"stateMutability":"nonpayable"},{"type":"function","name":"initialized","inputs":[],"outputs":[{"name":"","type":"bool","internalType":"bool"}],"stateMutability":"view"},{"type":"function","name":"oracle","inputs":[],"outputs":[{"name":"","type":"address","internalType":"address"}],"stateMutability":"view"},{"type":"function","name":"params","inputs":[],"outputs":[{"name":"title","type":"string","internalType":"string"},{"name":"description","type":"string","internalType":"string"},{"name":"subject","type":"tuple","internalType":"struct MarketTypes.SubjectParams","components":[{"name":"kind","type":"uint8","internalType":"enum MarketTypes.SubjectKind"},{"name":"metricId","type":"bytes32","internalType":"bytes32"},{"name":"token","type":"address","internalType":"address"},{"name":"valueDecimals","type":"uint8","internalType":"uint8"}]},{"name":"predicate","type":"tuple","internalType":"struct MarketTypes.PredicateParams","components":[{"name":"op","type":"uint8","internalType":"enum MarketTypes.PredicateOp"},{"name":"threshold","type":"int256","internalType":"int256"}]},{"name":"window","type":"tuple","internalType":"struct MarketTypes.WindowParams","components":[{"name":"kind","type":"uint8","internalType":"enum MarketTypes.WindowKind"},{"name":"tStart","type":"uint64","internalType":"uint64"},{"name":"tEnd","type":"uint64","internalType":"uint64"}]},{"name":"oracle","type":"tuple","internalType":"struct MarketTypes.OracleSpec","components":[{"name":"primarySourceId","type":"bytes32","internalType":"bytes32"},{"name":"fallbackSourceId","type":"bytes32","internalType":"bytes32"},{"name":"roundingDecimals","type":"uint8","internalType":"uint8"}]},{"name":"cutoffTime","type":"uint64","internalType":"uint64"},{"name":"creator","type":"address","internalType":"address"},{"name":"econ","type":"tuple","internalType":"struct MarketTypes.Economics","components":[{"name":"feeBps","type":"uint16","internalType":"uint16"},{"name":"creatorFeeShareBps","type":"uint16","internalType":"uint16"},{"name":"maxTotalPool","type":"uint256","internalType":"uint256"},{"name":"timeDecayBps","type":"uint16","internalType":"uint16"}]},{"name":"isProtocolMarket","type":"bool","internalType":"bool"}],"stateMutability":"view"},{"type":"function","name":"paused","inputs":[],"outputs":[{"name":"","type":"bool","internalType":"bool"}],"stateMutability":"view"},{"type":"function","name":"reserveNO","inputs":[],"outputs":[{"name":"","type":"uint256","internalType":"uint256"}],"stateMutability":"view"},{"type":"function","name":"reserveYES","inputs":[],"outputs":[{"name":"","type":"uint256","internalType":"uint256"}],"stateMutability":"view"},{"type":"function","name":"resolutionDataHash","inputs":[],"outputs":[{"name":"","type":"bytes32","internalType":"bytes32"}],"stateMutability":"view"},{"type":"function","name":"resolveTime","inputs":[],"outputs":[{"name":"","type":"uint64","internalType":"uint64"}],"stateMutability":"view"},{"type":"function","name":"resolved","inputs":[],"outputs":[{"name":"","type":"bool","internalType":"bool"}],"stateMutability":"view"},{"type":"function","name":"sellShares","inputs":[{"name":"outcome","type":"uint8","internalType":"uint8"},{"name":"sharesIn","type":"uint256","internalType":"uint256"},{"name":"minAmountOut","type":"uint256","internalType":"uint256"}],"outputs":[],"stateMutability":"nonpayable"},{"type":"function","name":"setPaused","inputs":[{"name":"_paused","type":"bool","internalType":"bool"}],"outputs":[],"stateMutability":"nonpayable"},{"type":"function","name":"sharesNO","inputs":[{"name":"","type":"address","internalType":"address"}],"outputs":[{"name":"","type":"uint256","internalType":"uint256"}],"stateMutability":"view"},{"type":"function","name":"sharesYES","inputs":[{"name":"","type":"address","internalType":"address"}],"outputs":[{"name":"","type":"uint256","internalType":"uint256"}],"stateMutability":"view"},{"type":"function","name":"stakeToken","inputs":[],"outputs":[{"name":"","type":"address","internalType":"contract IERC20"}],"stateMutability":"view"},{"type":"function","name":"totalFeesCollected","inputs":[],"outputs":[{"name":"","type":"uint256","internalType":"uint256"}],"stateMutability":"view"},{"type":"function","name":"totalPool","inputs":[],"outputs":[{"name":"","type":"uint256","internalType":"uint256"}],"stateMutability":"view"},{"type":"function","name":"treasury","inputs":[],"outputs":[{"name":"","type":"address","internalType":"address"}],"stateMutability":"view"},{"type":"function","name":"userInfo","inputs":[{"name":"user","type":"address","internalType":"address"}],"outputs":[{"name":"yesShares","type":"uint256","internalType":"uint256"},{"name":"noShares","type":"uint256","internalType":"uint256"},{"name":"hasClaimed","type":"bool","internalType":"bool"}],"stateMutability":"view"},{"type":"function","name":"winningOutcome","inputs":[],"outputs":[{"name":"","type":"uint8","internalType":"uint8"}],"stateMutability":"view"},{"type":"event","name":"Claimed","inputs":[{"name":"user","type":"address","indexed":true,"internalType":"address"},{"name":"payout","type":"uint256","indexed":false,"internalType":"uint256"}],"anonymous":false},{"type":"event","name":"FeesDistributed","inputs":[{"name":"treasury","type":"address","indexed":false,"internalType":"address"},{"name":"creator","type":"address","indexed":false,"internalType":"address"},{"name":"treasuryFee","type":"uint256","indexed":false,"internalType":"uint256"},{"name":"creatorFee","type":"uint256","indexed":false,"internalType":"uint256"}],"anonymous":false},{"type":"event","name":"MarketInitialized","inputs":[{"name":"creator","type":"address","indexed":true,"internalType":"address"},{"name":"liquidityAmount","type":"uint256","indexed":false,"internalType":"uint256"},{"name":"cutoffTime","type":"uint64","indexed":false,"internalType":"uint64"},{"name":"resolveTime","type":"uint64","indexed":false,"internalType":"uint64"}],"anonymous":false},{"type":"event","name":"Paused","inputs":[{"name":"account","type":"address","indexed":false,"internalType":"address"}],"anonymous":false},{"type":"event","name":"Resolved","inputs":[{"name":"winningOutcome","type":"uint8","indexed":false,"internalType":"uint8"},{"name":"dataHash","type":"bytes32","indexed":false,"internalType":"bytes32"}],"anonymous":false},{"type":"event","name":"SharesPurchased","inputs":[{"name":"buyer","type":"address","indexed":true,"internalType":"address"},{"name":"outcome","type":"uint8","indexed":false,"internalType":"uint8"},{"name":"amountIn","type":"uint256","indexed":false,"internalType":"uint256"},{"name":"sharesOut","type":"uint256","indexed":false,"internalType":"uint256"},{"name":"feeAmount","type":"uint256","indexed":false,"internalType":"uint256"},{"name":"newPrice","type":"uint256","indexed":false,"internalType":"uint256"}],"anonymous":false},{"type":"event","name":"SharesSold","inputs":[{"name":"seller","type":"address","indexed":true,"internalType":"address"},{"name":"outcome","type":"uint8","indexed":false,"internalType":"uint8"},{"name":"sharesIn","type":"uint256","indexed":false,"internalType":"uint256"},{"name":"amountOut","type":"uint256","indexed":false,"internalType":"uint256"},{"name":"feeAmount","type":"uint256","indexed":false,"internalType":"uint256"},{"name":"newPrice","type":"uint256","indexed":false,"internalType":"uint256"}],"anonymous":false},{"type":"event","name":"Unpaused","inputs":[{"name":"account","type":"address","indexed":false,"internalType":"address"}],"anonymous":false},{"type":"error","name":"EnforcedPause","inputs":[]},{"type":"error","name":"ExpectedPause","inputs":[]},{"type":"error","name":"ReentrancyGuardReentrantCall","inputs":[]},{"type":"error","name":"SafeERC20FailedOperation","inputs":[{"name":"token","type":"address","internalType":"address"}]}],"bytecode":{"object":"0x6080604052348015600e575f5ffd5b5060015f55612b97806100205f395ff3fe608060405234801561000f575f5ffd5b5060043610610255575f3560e01c806379502c5511610140578063b49c3089116100bf578063c884ef8311610084578063c884ef8314610607578063cff0ab9614610629578063da9e708814610647578063dc76fabc14610650578063ecfb49a314610658578063f08aca1914610660575f5ffd5b8063b49c3089146105b0578063b76162d7146105cf578063bf333f2c146105d8578063c33748dc146105e1578063c45a0155146105f4575f5ffd5b8063a317f2d611610105578063a317f2d614610541578063a5f74a5f14610553578063aaf5eb6814610566578063ac0bd1fb14610575578063af2ba65c14610588575f5ffd5b806379502c55146104595780637d071d4f146104fd5780637dc0d1d01461050657806398f55334146105195780639b34ae0314610522575f5ffd5b80633f6fa655116101d75780635c975abb1161019c5780635c975abb1461040557806360c6d8ae1461041057806361d027b31461041957806362107e8d1461042c5780636ffde0d71461043d57806375f0c2f014610450575f5ffd5b80633f6fa655146103bc57806340702adc146103ce57806341018641146103d75780634e71d92d146103ea57806351ed6a30146103f2575f5ffd5b8063191fe1ed1161021d578063191fe1ed146103155780631959a0021461031e578063298278261461037d57806331b7d4131461039e578063389665ca146103ac575f5ffd5b806302d05d3f1461025957806305ed76c41461028957806310d6bb75146102b5578063158ef93e146102e257806316c38b3c14610300575b5f5ffd5b60085461026c906001600160a01b031681565b6040516001600160a01b0390911681526020015b60405180910390f35b600c54600160401b90046001600160401b03165b6040516001600160401b039091168152602001610280565b6102d46102c33660046122a8565b600d6020525f908152604090205481565b604051908152602001610280565b600c54600160981b900460ff165b6040519015158152602001610280565b61031361030e3660046122d0565b610673565b005b6102d461271081565b61036061032c3660046122a8565b6001600160a01b03165f908152600d6020908152604080832054600e835281842054600f9093529220549192909160ff1690565b604080519384526020840192909252151590820152606001610280565b600c54600160801b900461ffff1660405161ffff9091168152602001610280565b6102d466038d7ea4c6800081565b6102d4683635c9adc5dea0000081565b600c54600160a01b900460ff166102f0565b6102d460045481565b6102d46103e53660046122f9565b6106d8565b61031361077a565b60065461026c906001600160a01b031681565b60015460ff166102f0565b6102d460055481565b60075461026c906001600160a01b031681565b600c546001600160401b031661029d565b61031361044b366004612312565b610936565b6102d46103e881565b600c546104ae906001600160401b0380821691600160401b81049091169061ffff600160801b8204169060ff600160901b8204811691600160981b8104821691600160a01b8204811691600160a81b90041687565b604080516001600160401b03988916815297909616602088015261ffff9094169486019490945260ff90911660608501521515608084015290151560a0830152151560c082015260e001610280565b6102d4600b5481565b60095461026c906001600160a01b031681565b6102d46109c481565b600c54600160901b900460ff1660405160ff9091168152602001610280565b600c54600160a81b900460ff166102f0565b610313610561366004612342565b610d13565b6102d4670de0b6b3a764000081565b610313610583366004612312565b610e6a565b61059b610596366004612342565b61114a565b60408051928352602083019190915201610280565b6102d46105be3660046122a8565b600e6020525f908152604090205481565b6102d460035481565b6102d461012c81565b6102d46105ef366004612342565b61127d565b600a5461026c906001600160a01b031681565b6102f06106153660046122a8565b600f6020525f908152604090205460ff1681565b6106316113ad565b6040516102809a9998979695949392919061240b565b6102d460025481565b6102d4611682565b6102d46116e0565b61031361066e3660046127d4565b61174a565b6007546001600160a01b031633146106bf5760405162461bcd60e51b815260206004820152600a60248201526927b7363c9037bbb732b960b11b60448201526064015b60405180910390fd5b80156106d0576106cd611e00565b50565b6106cd611e54565b5f60018260ff1611156106fd5760405162461bcd60e51b81526004016106b69061294a565b5f60035460025461070e9190612987565b9050805f036107315761072a6002670de0b6b3a76400006129a0565b9392505050565b8260ff1660010361075d5780670de0b6b3a764000060025461075391906129bf565b61072a91906129a0565b80670de0b6b3a764000060035461075391906129bf565b50919050565b610782611e8d565b600c54600160a01b900460ff166107ca5760405162461bcd60e51b815260206004820152600c60248201526b139bdd081c995cdbdb1d995960a21b60448201526064016106b6565b335f908152600f602052604090205460ff161561081b5760405162461bcd60e51b815260206004820152600f60248201526e105b1c9958591e4818db185a5b5959608a1b60448201526064016106b6565b600c545f90600160901b900460ff166001036108465750335f908152600d6020526040902054610857565b50335f908152600e60205260409020545b5f811161089a5760405162461bcd60e51b81526020600482015260116024820152704e6f2077696e6e696e672073686172657360781b60448201526064016106b6565b335f908152600f60205260409020805460ff19166001179055600c54600160a81b900460ff161580156108ce57505f600554115b156108db576108db611eb5565b60065481906108f4906001600160a01b03163383611fc1565b60405181815233907fd8138f8a3f377c5259ca548e70e4c2de94f129f5a11036a15b69513cba2b426a9060200160405180910390a2505061093460015f55565b565b61093e611e8d565b610946612020565b600c546001600160401b031642106109915760405162461bcd60e51b815260206004820152600e60248201526d151c98591a5b99c818db1bdcd95960921b60448201526064016106b6565b600c54600160a01b900460ff16156109bb5760405162461bcd60e51b81526004016106b6906129d6565b60018360ff1611156109df5760405162461bcd60e51b81526004016106b69061294a565b5f8211610a1c5760405162461bcd60e51b815260206004820152600b60248201526a5a65726f2073686172657360a81b60448201526064016106b6565b8260ff16600103610a8a57335f908152600d6020526040902054821115610a855760405162461bcd60e51b815260206004820152601760248201527f496e73756666696369656e74205945532073686172657300000000000000000060448201526064016106b6565b610ae1565b335f908152600e6020526040902054821115610ae15760405162461bcd60e51b8152602060048201526016602482015275496e73756666696369656e74204e4f2073686172657360501b60448201526064016106b6565b5f5f8460ff16600103610afb575050600254600354610b04565b50506003546002545b5f610b0f8584612987565b610b1986846129bf565b610b2391906129a0565b90505f612710610b3561012c846129bf565b610b3f91906129a0565b90505f610b4c8284612a00565b905085811015610b925760405162461bcd60e51b815260206004820152601160248201527014db1a5c1c1859d948195e18d959591959607a1b60448201526064016106b6565b8760ff16600103610bf657335f908152600d602052604081208054899290610bbb908490612a00565b925050819055508660035f828254610bd39190612987565b925050819055508260025f828254610beb9190612a00565b90915550610c4a9050565b335f908152600e602052604081208054899290610c14908490612a00565b925050819055508660025f828254610c2c9190612987565b925050819055508260035f828254610c449190612a00565b90915550505b8160055f828254610c5b9190612987565b9091555050600654610c77906001600160a01b03163383611fc1565b5f600354600254610c889190612987565b670de0b6b3a7640000600254610c9e91906129bf565b610ca891906129a0565b6040805160ff8c168152602081018b9052908101849052606081018590526080810182905290915033907f6d835bea46ecd12f05be073365ff4c4d35c1ff63fc4e86ef7f00c353f575d8ce9060a00160405180910390a2505050505050610d0e60015f55565b505050565b6009546001600160a01b03163314610d5b5760405162461bcd60e51b815260206004820152600b60248201526a4f6e6c79206f7261636c6560a81b60448201526064016106b6565b600c54600160401b90046001600160401b0316421015610da95760405162461bcd60e51b8152602060048201526009602482015268546f6f206561726c7960b81b60448201526064016106b6565b600c54600160a01b900460ff1615610dd35760405162461bcd60e51b81526004016106b6906129d6565b60018260ff161115610df75760405162461bcd60e51b81526004016106b69061294a565b600c805460ff8416600160901b0262ff00ff60901b1990911617600160a01b179055600b8190556040517fa22a153b3aaea5b4815053e6f9dd68769c041ac2588276b05574e15495ff1ea890610e5e908490849060ff929092168252602082015260400190565b60405180910390a15050565b610e72611e8d565b610e7a612020565b600c546001600160401b03164210610ec55760405162461bcd60e51b815260206004820152600e60248201526d151c98591a5b99c818db1bdcd95960921b60448201526064016106b6565b600c54600160a01b900460ff1615610eef5760405162461bcd60e51b81526004016106b6906129d6565b60018360ff161115610f135760405162461bcd60e51b81526004016106b69061294a565b66038d7ea4c68000821015610f5a5760405162461bcd60e51b815260206004820152600d60248201526c42656c6f77206d696e696d756d60981b60448201526064016106b6565b5f5f610f66858561114a565b9150915082821015610fae5760405162461bcd60e51b815260206004820152601160248201527014db1a5c1c1859d948195e18d959591959607a1b60448201526064016106b6565b610fb9338684612044565b610fc4858383612119565b600654610fdc906001600160a01b03163330876121bf565b8460ff16600103611046578360025f828254610ff89190612987565b9091555061100890508183612987565b60035f8282546110189190612a00565b9091555050335f908152600d60205260408120805484929061103b908490612987565b909155506110a09050565b8360035f8282546110579190612987565b9091555061106790508183612987565b60025f8282546110779190612a00565b9091555050335f908152600e60205260408120805484929061109a908490612987565b90915550505b8060055f8282546110b19190612987565b90915550506003546002545f916110c791612987565b670de0b6b3a76400006002546110dd91906129bf565b6110e791906129a0565b6040805160ff8916815260208101889052908101859052606081018490526080810182905290915033907f435e83f150b2d380baf7500cfbc6f61706ca2cb05603af7dbbaa5572fa3ec6d09060a00160405180910390a2505050610d0e60015f55565b5f5f60018460ff1611156111705760405162461bcd60e51b81526004016106b69061294a565b5f83116111ac5760405162461bcd60e51b815260206004820152600a60248201526916995c9bc81a5b9c1d5d60b21b60448201526064016106b6565b5f5f8560ff166001036111c65750506003546002546111cf565b50506002546003545b5f6111da8684612987565b6111e487846129bf565b6111ee91906129a0565b90506127106111ff61012c836129bf565b61120991906129a0565b93506112158482612a00565b9450600a6112248360096129bf565b61122e91906129a0565b85106112735760405162461bcd60e51b815260206004820152601460248201527345786365656473206d617820736c69707061676560601b60448201526064016106b6565b5050509250929050565b5f60018360ff1611156112a25760405162461bcd60e51b81526004016106b69061294a565b5f82116112df5760405162461bcd60e51b815260206004820152600b60248201526a16995c9bc81bdd5d1c1d5d60aa1b60448201526064016106b6565b5f5f8460ff166001036112f9575050600354600254611302565b50506002546003545b5f61131161012c612710612a00565b61131d612710876129bf565b61132791906129a0565b9050600a6113368360096129bf565b61134091906129a0565b81106113855760405162461bcd60e51b815260206004820152601460248201527345786365656473206d617820736c69707061676560601b60448201526064016106b6565b61138f8183612a00565b61139982856129bf565b6113a391906129a0565b9695505050505050565b6010805481906113bc90612a13565b80601f01602080910402602001604051908101604052809291908181526020018280546113e890612a13565b80156114335780601f1061140a57610100808354040283529160200191611433565b820191905f5260205f20905b81548152906001019060200180831161141657829003601f168201915b50505050509080600101805461144890612a13565b80601f016020809104026020016040519081016040528092919081815260200182805461147490612a13565b80156114bf5780601f10611496576101008083540402835291602001916114bf565b820191905f5260205f20905b8154815290600101906020018083116114a257829003601f168201915b50506040805160808101909152600286018054959695919450925083915060ff1660018111156114f1576114f1612398565b600181111561150257611502612398565b8152600182015460208201526002909101546001600160a01b03811660408084019190915260ff600160a01b909204821660609093019290925281518083019092526005840180549394939091839116600381111561156357611563612398565b600381111561157457611574612398565b8152600191909101546020909101526040805160608101909152600783018054929392829060ff1660028111156115ad576115ad612398565b60028111156115be576115be612398565b8152905461010081046001600160401b039081166020808501919091526901000000000000000000909204811660409384015282516060808201855260088701548252600987015482850152600a87015460ff90811683870152600b8801548651608081018852600c8a015461ffff808216835262010000909104811697820197909752600d8a015497810197909752600e89015490951691860191909152600f909601549495909491831693600160401b9093046001600160a01b03169291168a565b5f6002545f14806116935750600354155b156116b0576116ab6002670de0b6b3a76400006129a0565b905090565b6003546002546116c09190612987565b670de0b6b3a76400006002546116d691906129bf565b6116ab91906129a0565b6006546040516370a0823160e01b81523060048201525f916001600160a01b0316906370a0823190602401602060405180830381865afa158015611726573d5f5f3e3d5ffd5b505050506040513d601f19601f820116820180604052508101906116ab9190612a45565b600c54600160981b900460ff161561179a5760405162461bcd60e51b8152602060048201526013602482015272105b1c9958591e481a5b9a5d1a585b1a5e9959606a1b60448201526064016106b6565b683635c9adc5dea000008110156117ec5760405162461bcd60e51b8152602060048201526016602482015275496e73756666696369656e74206c697175696469747960501b60448201526064016106b6565b428660800151604001516001600160401b0316116118435760405162461bcd60e51b8152602060048201526014602482015273496e76616c6964207265736f6c76652074696d6560601b60448201526064016106b6565b428660c001516001600160401b0316116118955760405162461bcd60e51b8152602060048201526013602482015272496e76616c6964206375746f66662074696d6560681b60448201526064016106b6565b8560800151604001516001600160401b03168660c001516001600160401b031611156118fa5760405162461bcd60e51b81526020600482015260146024820152734375746f6666206166746572207265736f6c766560601b60448201526064016106b6565b600a80546001600160a01b03199081166001600160a01b038581169190911790925560068054821688841617905560078054821687841617905560e08801516008805483169184169190911790556009805490911691851691909117905585518690601090819061196b9082612aa7565b50602082015160018201906119809082612aa7565b5060408201518051600283018054909190829060ff1916600183818111156119aa576119aa612398565b0217905550602082015160018083019190915560408301516002909201805460609485015160ff16600160a01b026001600160a81b03199091166001600160a01b03909416939093179290921790915590830151805160058401805492939092839160ff1990911690836003811115611a2557611a25612398565b0217905550602091909101516001918201556080830151805160078401805492939092839160ff1990911690836002811115611a6357611a63612398565b02179055506020820151815f0160016101000a8154816001600160401b0302191690836001600160401b031602179055506040820151815f0160096101000a8154816001600160401b0302191690836001600160401b03160217905550505060a0820151816008015f820151815f0155602082015181600101556040820151816002015f6101000a81548160ff021916908360ff160217905550505060c082015181600b015f6101000a8154816001600160401b0302191690836001600160401b0316021790555060e082015181600b0160086101000a8154816001600160a01b0302191690836001600160a01b0316021790555061010082015181600c015f820151815f015f6101000a81548161ffff021916908361ffff1602179055506020820151815f0160026101000a81548161ffff021916908361ffff160217905550604082015181600101556060820151816002015f6101000a81548161ffff021916908361ffff160217905550505061012082015181600f015f6101000a81548160ff0219169083151502179055509050506040518060e001604052808760c001516001600160401b031681526020018760800151604001516001600160401b031681526020018761010001516020015161ffff1681526020015f60ff1681526020016001151581526020015f151581526020015f1515815250600c5f820151815f015f6101000a8154816001600160401b0302191690836001600160401b031602179055506020820151815f0160086101000a8154816001600160401b0302191690836001600160401b031602179055506040820151815f0160106101000a81548161ffff021916908361ffff1602179055506060820151815f0160126101000a81548160ff021916908360ff1602179055506080820151815f0160136101000a81548160ff02191690831515021790555060a0820151815f0160146101000a81548160ff02191690831515021790555060c0820151815f0160156101000a81548160ff02191690831515021790555090505080600481905550600281611d6b91906129a0565b6002908155611d7a90826129a0565b600355600654611d95906001600160a01b03168330846121bf565b600854600c54604080518481526001600160401b038084166020830152600160401b90930490921682820152516001600160a01b03909216917faf77c2b0a23728ca7ca7c7e7306c7112db8040d7ed550aafc88f19b20ae4119d9181900360600190a2505050505050565b611e08612020565b6001805460ff1916811790557f62e78cea01bee320cd4e420270b5ea74000d11b0c9f74754ebdbfc544b05a258335b6040516001600160a01b03909116815260200160405180910390a1565b611e5c6121fe565b6001805460ff191690557f5db9ee0a495bf2e6ff9c91a7834c1ba4fdd244a5e8aa4e537bd38aeae4b073aa33611e37565b60025f5403611eaf57604051633ee5aeb560e01b815260040160405180910390fd5b60025f55565b600c54600160a81b900460ff1680611ecd5750600554155b15611ed457565b600c546005545f9161271091611ef591600160801b900461ffff16906129bf565b611eff91906129a0565b90505f81600554611f109190612a00565b600c805460ff60a81b1916600160a81b17905590508015611f4857600754600654611f48916001600160a01b03918216911683611fc1565b8115611f6b57600854600654611f6b916001600160a01b03918216911684611fc1565b600754600854604080516001600160a01b0393841681529290911660208301528101829052606081018390527ff227c93b6b816f85ef75ee32431495d61932665acd4193a40431a42f1502701a90608001610e5e565b6040516001600160a01b03838116602483015260448201839052610d0e91859182169063a9059cbb906064015b604051602081830303815290604052915060e01b6020820180516001600160e01b038381831617835250505050612221565b60015460ff16156109345760405163d93c066560e01b815260040160405180910390fd5b5f8260ff1660011461206d576001600160a01b0384165f908152600e6020526040902054612086565b6001600160a01b0384165f908152600d60205260409020545b90505f6120938383612987565b90505f6127106109c460026004546120ab91906129a0565b6120b591906129bf565b6120bf91906129a0565b9050808211156121115760405162461bcd60e51b815260206004820152601760248201527f506f736974696f6e206c696d697420657863656564656400000000000000000060448201526064016106b6565b505050505050565b5f6127106103e8600260045461212f91906129a0565b61213991906129bf565b61214391906129a0565b90505f8460ff166001146121595760025461215d565b6003545b90505f61216a8486612987565b6121749083612a00565b9050828110156121115760405162461bcd60e51b8152602060048201526016602482015275496e73756666696369656e74206c697175696469747960501b60448201526064016106b6565b6040516001600160a01b0384811660248301528381166044830152606482018390526121f89186918216906323b872dd90608401611fee565b50505050565b60015460ff1661093457604051638dfc202b60e01b815260040160405180910390fd5b5f5f60205f8451602086015f885af180612240576040513d5f823e3d81fd5b50505f513d91508115612257578060011415612264565b6001600160a01b0384163b155b156121f857604051635274afe760e01b81526001600160a01b03851660048201526024016106b6565b80356001600160a01b03811681146122a3575f5ffd5b919050565b5f602082840312156122b8575f5ffd5b61072a8261228d565b803580151581146122a3575f5ffd5b5f602082840312156122e0575f5ffd5b61072a826122c1565b803560ff811681146122a3575f5ffd5b5f60208284031215612309575f5ffd5b61072a826122e9565b5f5f5f60608486031215612324575f5ffd5b61232d846122e9565b95602085013595506040909401359392505050565b5f5f60408385031215612353575f5ffd5b61235c836122e9565b946020939093013593505050565b5f81518084528060208401602086015e5f602082860101526020601f19601f83011685010191505092915050565b634e487b7160e01b5f52602160045260245ffd5b8051600481106123be576123be612398565b8252602090810151910152565b8051600381106123dd576123dd612398565b808352506001600160401b0360208201511660208301526001600160401b0360408201511660408301525050565b6102a081525f61241f6102a083018d61236a565b8281036020840152612431818d61236a565b91505089516002811061244657612446612398565b8060408401525060208a0151606083015260018060a01b0360408b015116608083015260ff60608b01511660a083015261248360c083018a6123ac565b6124916101008301896123cb565b86516101608301526020870151610180830152604087015160ff166101a08301526001600160401b0386166101c08301526001600160a01b0385166101e0830152835161ffff9081166102008401526020850151811661022084015260408501516102408401526060850151166102608301528215156102808301529b9a5050505050505050505050565b634e487b7160e01b5f52604160045260245ffd5b604051608081016001600160401b03811182821017156125525761255261251c565b60405290565b604051606081016001600160401b03811182821017156125525761255261251c565b60405161014081016001600160401b03811182821017156125525761255261251c565b5f82601f8301126125ac575f5ffd5b81356001600160401b038111156125c5576125c561251c565b604051601f8201601f19908116603f011681016001600160401b03811182821017156125f3576125f361251c565b60405281815283820160200185101561260a575f5ffd5b816020850160208301375f918101602001919091529392505050565b5f60808284031215612636575f5ffd5b61263e612530565b905081356002811061264e575f5ffd5b8152602082810135908201526126666040830161228d565b6040820152612677606083016122e9565b606082015292915050565b5f60408284031215612692575f5ffd5b604080519081016001600160401b03811182821017156126b4576126b461251c565b6040529050808235600481106126c8575f5ffd5b8152602092830135920191909152919050565b80356001600160401b03811681146122a3575f5ffd5b5f60608284031215612701575f5ffd5b612709612558565b9050813560038110612719575f5ffd5b8152612727602083016126db565b6020820152612738604083016126db565b604082015292915050565b5f60608284031215612753575f5ffd5b61275b612558565b82358152602080840135908201529050612738604083016122e9565b803561ffff811681146122a3575f5ffd5b5f60808284031215612798575f5ffd5b6127a0612530565b90506127ab82612777565b81526127b960208301612777565b60208201526040828101359082015261267760608301612777565b5f5f5f5f5f5f60c087890312156127e9575f5ffd5b86356001600160401b038111156127fe575f5ffd5b87016102a0818a031215612810575f5ffd5b61281861257a565b81356001600160401b0381111561282d575f5ffd5b6128398b82850161259d565b82525060208201356001600160401b03811115612854575f5ffd5b6128608b82850161259d565b6020830152506128738a60408401612626565b60408201526128858a60c08401612682565b60608201526128988a61010084016126f1565b60808201526128ab8a6101608401612743565b60a08201526128bd6101c083016126db565b60c08201526128cf6101e0830161228d565b60e08201526128e28a6102008401612788565b6101008201526128f561028083016122c1565b610120820152965061290b90506020880161228d565b94506129196040880161228d565b93506129276060880161228d565b92506129356080880161228d565b9598949750929591949360a090920135925050565b6020808252600f908201526e496e76616c6964206f7574636f6d6560881b604082015260600190565b634e487b7160e01b5f52601160045260245ffd5b8082018082111561299a5761299a612973565b92915050565b5f826129ba57634e487b7160e01b5f52601260045260245ffd5b500490565b808202811582820484141761299a5761299a612973565b60208082526010908201526f105b1c9958591e481c995cdbdb1d995960821b604082015260600190565b8181038181111561299a5761299a612973565b600181811c90821680612a2757607f821691505b60208210810361077457634e487b7160e01b5f52602260045260245ffd5b5f60208284031215612a55575f5ffd5b5051919050565b601f821115610d0e57805f5260205f20601f840160051c81016020851015612a815750805b601f840160051c820191505b81811015612aa0575f8155600101612a8d565b5050505050565b81516001600160401b03811115612ac057612ac061251c565b612ad481612ace8454612a13565b84612a5c565b6020601f821160018114612b06575f8315612aef5750848201515b5f19600385901b1c1916600184901b178455612aa0565b5f84815260208120601f198516915b82811015612b355787850151825560209485019460019092019101612b15565b5084821015612b5257868401515f19600387901b60f8161c191681555b50505050600190811b0190555056fea26469706673582212209c5b2736d301636ee92a8da422d9c4e188c6d1d07d11ab370868db3bcebe93f064736f6c634300081c0033","linkReferences":{}},"methodIdentifiers":{"BPS_DIVISOR()":"191fe1ed","FEE_BPS()":"bf333f2c","MAX_POSITION_BPS()":"98f55334","MIN_LIQUIDITY_BPS()":"75f0c2f0","MIN_TOTAL_LIQUIDITY()":"389665ca","MIN_TRADE_AMOUNT()":"31b7d413","PRECISION()":"aaf5eb68","buyShares(uint8,uint256,uint256)":"ac0bd1fb","claim()":"4e71d92d","claimed(address)":"c884ef83","config()":"79502c55","creator()":"02d05d3f","creatorFeeShareBps()":"29827826","cutoffTime()":"62107e8d","factory()":"c45a0155","feesDistributed()":"a317f2d6","getAmountIn(uint8,uint256)":"c33748dc","getAmountOut(uint8,uint256)":"af2ba65c","getOutcomePrice(uint8)":"41018641","getSpotPrice()":"dc76fabc","ingestResolution(uint8,bytes32)":"a5f74a5f","initialLiquidity()":"40702adc","initialize((string,string,(uint8,bytes32,address,uint8),(uint8,int256),(uint8,uint64,uint64),(bytes32,bytes32,uint8),uint64,address,(uint16,uint16,uint256,uint16),bool),address,address,address,address,uint256)":"f08aca19","initialized()":"158ef93e","oracle()":"7dc0d1d0","params()":"cff0ab96","paused()":"5c975abb","reserveNO()":"b76162d7","reserveYES()":"da9e7088","resolutionDataHash()":"7d071d4f","resolveTime()":"05ed76c4","resolved()":"3f6fa655","sellShares(uint8,uint256,uint256)":"6ffde0d7","setPaused(bool)":"16c38b3c","sharesNO(address)":"b49c3089","sharesYES(address)":"10d6bb75","stakeToken()":"51ed6a30","totalFeesCollected()":"60c6d8ae","totalPool()":"ecfb49a3","treasury()":"61d027b3","userInfo(address)":"1959a002","winningOutcome()":"9b34ae03"},"id":37}