{"abi":[{"type":"constructor","inputs":[{"name":"_stakeToken","type":"address","internalType":"address"},{"name":"_stHYPE","type":"address","internalType":"address"},{"name":"_treasury","type":"address","internalType":"address"},{"name":"_oracle","type":"address","internalType":"address"}],"stateMutability":"nonpayable"},{"type":"function","name":"STAKE_PER_MARKET","inputs":[],"outputs":[{"name":"","type":"uint256","internalType":"uint256"}],"stateMutability":"view"},{"type":"function","name":"createMarket","inputs":[{"name":"p","type":"tuple","internalType":"struct MarketTypes.MarketParams","components":[{"name":"title","type":"string","internalType":"string"},{"name":"description","type":"string","internalType":"string"},{"name":"subject","type":"tuple","internalType":"struct MarketTypes.SubjectParams","components":[{"name":"kind","type":"uint8","internalType":"enum MarketTypes.SubjectKind"},{"name":"metricId","type":"bytes32","internalType":"bytes32"},{"name":"token","type":"address","internalType":"address"},{"name":"valueDecimals","type":"uint8","internalType":"uint8"}]},{"name":"predicate","type":"tuple","internalType":"struct MarketTypes.PredicateParams","components":[{"name":"op","type":"uint8","internalType":"enum MarketTypes.PredicateOp"},{"name":"threshold","type":"int256","internalType":"int256"}]},{"name":"window","type":"tuple","internalType":"struct MarketTypes.WindowParams","components":[{"name":"kind","type":"uint8","internalType":"enum MarketTypes.WindowKind"},{"name":"tStart","type":"uint64","internalType":"uint64"},{"name":"tEnd","type":"uint64","internalType":"uint64"}]},{"name":"oracle","type":"tuple","internalType":"struct MarketTypes.OracleSpec","components":[{"name":"primarySourceId","type":"bytes32","internalType":"bytes32"},{"name":"fallbackSourceId","type":"bytes32","internalType":"bytes32"},{"name":"roundingDecimals","type":"uint8","internalType":"uint8"}]},{"name":"cutoffTime","type":"uint64","internalType":"uint64"},{"name":"creator","type":"address","internalType":"address"},{"name":"econ","type":"tuple","internalType":"struct MarketTypes.Economics","components":[{"name":"feeBps","type":"uint16","internalType":"uint16"},{"name":"creatorFeeShareBps","type":"uint16","internalType":"uint16"},{"name":"maxTotalPool","type":"uint256","internalType":"uint256"},{"name":"timeDecayBps","type":"uint16","internalType":"uint16"}]},{"name":"isProtocolMarket","type":"bool","internalType":"bool"}]}],"outputs":[{"name":"","type":"address","internalType":"address"}],"stateMutability":"nonpayable"},{"type":"function","name":"createMarketWithPermit","inputs":[{"name":"p","type":"tuple","internalType":"struct MarketTypes.MarketParams","components":[{"name":"title","type":"string","internalType":"string"},{"name":"description","type":"string","internalType":"string"},{"name":"subject","type":"tuple","internalType":"struct MarketTypes.SubjectParams","components":[{"name":"kind","type":"uint8","internalType":"enum MarketTypes.SubjectKind"},{"name":"metricId","type":"bytes32","internalType":"bytes32"},{"name":"token","type":"address","internalType":"address"},{"name":"valueDecimals","type":"uint8","internalType":"uint8"}]},{"name":"predicate","type":"tuple","internalType":"struct MarketTypes.PredicateParams","components":[{"name":"op","type":"uint8","internalType":"enum MarketTypes.PredicateOp"},{"name":"threshold","type":"int256","internalType":"int256"}]},{"name":"window","type":"tuple","internalType":"struct MarketTypes.WindowParams","components":[{"name":"kind","type":"uint8","internalType":"enum MarketTypes.WindowKind"},{"name":"tStart","type":"uint64","internalType":"uint64"},{"name":"tEnd","type":"uint64","internalType":"uint64"}]},{"name":"oracle","type":"tuple","internalType":"struct MarketTypes.OracleSpec","components":[{"name":"primarySourceId","type":"bytes32","internalType":"bytes32"},{"name":"fallbackSourceId","type":"bytes32","internalType":"bytes32"},{"name":"roundingDecimals","type":"uint8","internalType":"uint8"}]},{"name":"cutoffTime","type":"uint64","internalType":"uint64"},{"name":"creator","type":"address","internalType":"address"},{"name":"econ","type":"tuple","internalType":"struct MarketTypes.Economics","components":[{"name":"feeBps","type":"uint16","internalType":"uint16"},{"name":"creatorFeeShareBps","type":"uint16","internalType":"uint16"},{"name":"maxTotalPool","type":"uint256","internalType":"uint256"},{"name":"timeDecayBps","type":"uint16","internalType":"uint16"}]},{"name":"isProtocolMarket","type":"bool","internalType":"bool"}]},{"name":"deadline","type":"uint256","internalType":"uint256"},{"name":"v","type":"uint8","internalType":"uint8"},{"name":"r","type":"bytes32","internalType":"bytes32"},{"name":"s","type":"bytes32","internalType":"bytes32"}],"outputs":[{"name":"","type":"address","internalType":"address"}],"stateMutability":"nonpayable"},{"type":"function","name":"createProtocolMarket","inputs":[{"name":"p","type":"tuple","internalType":"struct MarketTypes.MarketParams","components":[{"name":"title","type":"string","internalType":"string"},{"name":"description","type":"string","internalType":"string"},{"name":"subject","type":"tuple","internalType":"struct MarketTypes.SubjectParams","components":[{"name":"kind","type":"uint8","internalType":"enum MarketTypes.SubjectKind"},{"name":"metricId","type":"bytes32","internalType":"bytes32"},{"name":"token","type":"address","internalType":"address"},{"name":"valueDecimals","type":"uint8","internalType":"uint8"}]},{"name":"predicate","type":"tuple","internalType":"struct MarketTypes.PredicateParams","components":[{"name":"op","type":"uint8","internalType":"enum MarketTypes.PredicateOp"},{"name":"threshold","type":"int256","internalType":"int256"}]},{"name":"window","type":"tuple","internalType":"struct MarketTypes.WindowParams","components":[{"name":"kind","type":"uint8","internalType":"enum MarketTypes.WindowKind"},{"name":"tStart","type":"uint64","internalType":"uint64"},{"name":"tEnd","type":"uint64","internalType":"uint64"}]},{"name":"oracle","type":"tuple","internalType":"struct MarketTypes.OracleSpec","components":[{"name":"primarySourceId","type":"bytes32","internalType":"bytes32"},{"name":"fallbackSourceId","type":"bytes32","internalType":"bytes32"},{"name":"roundingDecimals","type":"uint8","internalType":"uint8"}]},{"name":"cutoffTime","type":"uint64","internalType":"uint64"},{"name":"creator","type":"address","internalType":"address"},{"name":"econ","type":"tuple","internalType":"struct MarketTypes.Economics","components":[{"name":"feeBps","type":"uint16","internalType":"uint16"},{"name":"creatorFeeShareBps","type":"uint16","internalType":"uint16"},{"name":"maxTotalPool","type":"uint256","internalType":"uint256"},{"name":"timeDecayBps","type":"uint16","internalType":"uint16"}]},{"name":"isProtocolMarket","type":"bool","internalType":"bool"}]}],"outputs":[{"name":"","type":"address","internalType":"address"}],"stateMutability":"nonpayable"},{"type":"function","name":"creatorLockedStake","inputs":[{"name":"","type":"address","internalType":"address"}],"outputs":[{"name":"","type":"uint256","internalType":"uint256"}],"stateMutability":"view"},{"type":"function","name":"implementation","inputs":[],"outputs":[{"name":"","type":"address","internalType":"address"}],"stateMutability":"view"},{"type":"function","name":"marketCreator","inputs":[{"name":"","type":"address","internalType":"address"}],"outputs":[{"name":"","type":"address","internalType":"address"}],"stateMutability":"view"},{"type":"function","name":"oracle","inputs":[],"outputs":[{"name":"","type":"address","internalType":"address"}],"stateMutability":"view"},{"type":"function","name":"owner","inputs":[],"outputs":[{"name":"","type":"address","internalType":"address"}],"stateMutability":"view"},{"type":"function","name":"protocolMarkets","inputs":[{"name":"","type":"address","internalType":"address"}],"outputs":[{"name":"","type":"bool","internalType":"bool"}],"stateMutability":"view"},{"type":"function","name":"releaseStake","inputs":[{"name":"market","type":"address","internalType":"address"}],"outputs":[],"stateMutability":"nonpayable"},{"type":"function","name":"renounceOwnership","inputs":[],"outputs":[],"stateMutability":"nonpayable"},{"type":"function","name":"setImplementation","inputs":[{"name":"_implementation","type":"address","internalType":"address"}],"outputs":[],"stateMutability":"nonpayable"},{"type":"function","name":"setOracle","inputs":[{"name":"_oracle","type":"address","internalType":"address"}],"outputs":[],"stateMutability":"nonpayable"},{"type":"function","name":"setTreasury","inputs":[{"name":"_treasury","type":"address","internalType":"address"}],"outputs":[],"stateMutability":"nonpayable"},{"type":"function","name":"stHYPE","inputs":[],"outputs":[{"name":"","type":"address","internalType":"contract IstHYPE"}],"stateMutability":"view"},{"type":"function","name":"stakeToken","inputs":[],"outputs":[{"name":"","type":"address","internalType":"contract IERC20"}],"stateMutability":"view"},{"type":"function","name":"transferOwnership","inputs":[{"name":"newOwner","type":"address","internalType":"address"}],"outputs":[],"stateMutability":"nonpayable"},{"type":"function","name":"treasury","inputs":[],"outputs":[{"name":"","type":"address","internalType":"address"}],"stateMutability":"view"},{"type":"event","name":"MarketCreated","inputs":[{"name":"market","type":"address","indexed":true,"internalType":"address"},{"name":"creator","type":"address","indexed":true,"internalType":"address"},{"name":"subject","type":"bytes32","indexed":false,"internalType":"bytes32"},{"name":"predicate","type":"bytes32","indexed":false,"internalType":"bytes32"},{"name":"windowSpec","type":"bytes32","indexed":false,"internalType":"bytes32"},{"name":"isProtocolMarket","type":"bool","indexed":false,"internalType":"bool"}],"anonymous":false},{"type":"event","name":"OwnershipTransferred","inputs":[{"name":"previousOwner","type":"address","indexed":true,"internalType":"address"},{"name":"newOwner","type":"address","indexed":true,"internalType":"address"}],"anonymous":false},{"type":"event","name":"StakeLocked","inputs":[{"name":"creator","type":"address","indexed":true,"internalType":"address"},{"name":"market","type":"address","indexed":true,"internalType":"address"},{"name":"amount","type":"uint256","indexed":false,"internalType":"uint256"}],"anonymous":false},{"type":"event","name":"StakeReleased","inputs":[{"name":"creator","type":"address","indexed":true,"internalType":"address"},{"name":"market","type":"address","indexed":true,"internalType":"address"},{"name":"amount","type":"uint256","indexed":false,"internalType":"uint256"}],"anonymous":false},{"type":"error","name":"FailedDeployment","inputs":[]},{"type":"error","name":"InsufficientBalance","inputs":[{"name":"balance","type":"uint256","internalType":"uint256"},{"name":"needed","type":"uint256","internalType":"uint256"}]},{"type":"error","name":"OwnableInvalidOwner","inputs":[{"name":"owner","type":"address","internalType":"address"}]},{"type":"error","name":"OwnableUnauthorizedAccount","inputs":[{"name":"account","type":"address","internalType":"address"}]},{"type":"error","name":"SafeERC20FailedOperation","inputs":[{"name":"token","type":"address","internalType":"address"}]}],"bytecode":{"object":"0x608060405234801561000f575f5ffd5b506040516119e93803806119e983398101604081905261002e9161011a565b338061005357604051631e4fbdf760e01b81525f600482015260240160405180910390fd5b61005c816100b0565b50600180546001600160a01b039586166001600160a01b031991821617909155600280549486169482169490941790935560038054928516928416929092179091556004805491909316911617905561016b565b5f80546001600160a01b038381166001600160a01b0319831681178455604051919092169283917f8be0079c531659141344cd1fd0a4f28419497f9722a3daafe3b4186f6b6457e09190a35050565b80516001600160a01b0381168114610115575f5ffd5b919050565b5f5f5f5f6080858703121561012d575f5ffd5b610136856100ff565b9350610144602086016100ff565b9250610152604086016100ff565b9150610160606086016100ff565b905092959194509250565b611871806101785f395ff3fe608060405234801561000f575f5ffd5b506004361061011c575f3560e01c80637dc0d1d0116100a9578063cd02751f1161006e578063cd02751f14610286578063d784d42614610299578063dc58479c146102ac578063f0f44260146102bf578063f2fde38b146102d2575f5ffd5b80637dc0d1d0146102135780638da5cb5b14610226578063b6b1769a14610236578063c2c5f5d514610249578063c4b1d93514610276575f5ffd5b80635c60da1b116100ef5780635c60da1b146101bf57806361d027b3146101d2578063715018a6146101e55780637a521dfc146101ed5780637adbf97314610200575f5ffd5b80631252b4af146101205780633edfef9e14610157578063490740e81461019757806351ed6a30146101ac575b5f5ffd5b61014261012e3660046111af565b60086020525f908152604090205460ff1681565b60405190151581526020015b60405180910390f35b61017f6101653660046111af565b60066020525f90815260409020546001600160a01b031681565b6040516001600160a01b03909116815260200161014e565b6101aa6101a53660046111af565b6102e5565b005b60015461017f906001600160a01b031681565b60055461017f906001600160a01b031681565b60035461017f906001600160a01b031681565b6101aa6105ca565b61017f6101fb3660046115b3565b6105dd565b6101aa61020e3660046111af565b610aff565b60045461017f906001600160a01b031681565b5f546001600160a01b031661017f565b61017f6102443660046115ec565b610b29565b6102686102573660046111af565b60076020525f908152604090205481565b60405190815260200161014e565b610268683635c9adc5dea0000081565b60025461017f906001600160a01b031681565b6101aa6102a73660046111af565b610bc7565b61017f6102ba3660046115b3565b610bf1565b6101aa6102cd3660046111af565b610f03565b6101aa6102e03660046111af565b610f2d565b6001600160a01b038181165f90815260066020526040902054166103435760405162461bcd60e51b815260206004820152601060248201526f13585c9ad95d081b9bdd08199bdd5b9960821b60448201526064015b60405180910390fd5b6001600160a01b0381165f9081526008602052604090205460ff16156103ab5760405162461bcd60e51b815260206004820152601c60248201527f50726f746f636f6c206d61726b657420686173206e6f207374616b6500000000604482015260640161033a565b6001600160a01b038082165f90815260066020526040902054163381146104095760405162461bcd60e51b81526020600482015260126024820152712737ba1036b0b935b2ba1031b932b0ba37b960711b604482015260640161033a565b816001600160a01b0316633f6fa6556040518163ffffffff1660e01b8152600401602060405180830381865afa158015610445573d5f5f3e3d5ffd5b505050506040513d601f19601f82011682018060405250810190610469919061164f565b6104ab5760405162461bcd60e51b815260206004820152601360248201527213585c9ad95d081b9bdd081c995cdbdb1d9959606a1b604482015260640161033a565b6001600160a01b0381165f90815260076020526040902054683635c9adc5dea000009081111561051d5760405162461bcd60e51b815260206004820152601960248201527f496e73756666696369656e74206c6f636b6564207374616b6500000000000000604482015260640161033a565b6001600160a01b0382165f908152600760205260408120805483929061054490849061167e565b9091555050600254610560906001600160a01b03168383610f6a565b6001600160a01b038084165f818152600660205260409081902080546001600160a01b03191690555190918416907fe7d48da3e0f5708add7ea1dc70e975e6451ad87b109a1f3b90616478fe436854906105bd9085815260200190565b60405180910390a3505050565b6105d2610fce565b6105db5f610ffa565b565b6005545f906001600160a01b03166106305760405162461bcd60e51b8152602060048201526016602482015275125b5c1b195b595b9d185d1a5bdb881b9bdd081cd95d60521b604482015260640161033a565b6113888261010001516060015161ffff1611156106855760405162461bcd60e51b81526020600482015260136024820152720a8d2daca40c8cac6c2f240e8dede40d0d2ced606b1b604482015260640161033a565b6002546040516370a0823160e01b8152336004820152683635c9adc5dea00000916001600160a01b0316906370a0823190602401602060405180830381865afa1580156106d4573d5f5f3e3d5ffd5b505050506040513d601f19601f820116820180604052508101906106f89190611691565b10156107465760405162461bcd60e51b815260206004820152601b60248201527f496e73756666696369656e74207374485950452062616c616e63650000000000604482015260640161033a565b600254604051636eb1769f60e11b8152336004820152306024820152683635c9adc5dea00000916001600160a01b03169063dd62ed3e90604401602060405180830381865afa15801561079b573d5f5f3e3d5ffd5b505050506040513d601f19601f820116820180604052508101906107bf9190611691565b101561080d5760405162461bcd60e51b815260206004820152601d60248201527f496e73756666696369656e742073744859504520616c6c6f77616e6365000000604482015260640161033a565b60025461082e906001600160a01b03163330683635c9adc5dea00000611049565b6005545f90610845906001600160a01b0316611088565b60015460035460e086015160045460c0880151608089015160208101516040909101519697506001600160a01b038089169763d171350997821696821695949091169291610892916116a8565b8a60c001516108a191906116c7565b8a6101000151604001518b6101000151606001518c604001516040516020016108ca91906116fa565b604051602081830303815290604052805190602001208d606001516040516020016108f59190611744565b604051602081830303815290604052805190602001208e60800151604051602001610920919061176f565b604051602081830303815290604052805190602001206040518c63ffffffff1660e01b815260040161095c9b9a999897969594939291906117b6565b5f604051808303815f87803b158015610973575f5ffd5b505af1158015610985573d5f5f3e3d5ffd5b505050506001600160a01b0381165f90815260066020908152604080832080546001600160a01b031916339081179091558352600790915281208054683635c9adc5dea0000092906109d8908490611828565b9091555050604080840151905133916001600160a01b038416917f07f1df6740c13c2675040bb4b91805874358dbfe0f86cc2bec314d803aa5df9d91610a20916020016116fa565b604051602081830303815290604052805190602001208660600151604051602001610a4b9190611744565b604051602081830303815290604052805190602001208760800151604051602001610a76919061176f565b60408051601f198184030181528282528051602091820120948352820192909252908101919091525f606082015260800160405180910390a3604051683635c9adc5dea0000081526001600160a01b0382169033907f82358c8f3a8a41c7cae8a1196ae5106f7b58ce60eb38b7bc6fe3086d079d2a4e906020015b60405180910390a392915050565b610b07610fce565b600480546001600160a01b0319166001600160a01b0392909216919091179055565b60025460405163d505accf60e01b8152336004820152306024820152683635c9adc5dea0000060448201526064810186905260ff8516608482015260a4810184905260c481018390525f916001600160a01b03169063d505accf9060e4015f604051808303815f87803b158015610b9e575f5ffd5b505af1158015610bb0573d5f5f3e3d5ffd5b50505050610bbd866105dd565b9695505050505050565b610bcf610fce565b600580546001600160a01b0319166001600160a01b0392909216919091179055565b5f610bfa610fce565b6005546001600160a01b0316610c4b5760405162461bcd60e51b8152602060048201526016602482015275125b5c1b195b595b9d185d1a5bdb881b9bdd081cd95d60521b604482015260640161033a565b6113888261010001516060015161ffff161115610ca05760405162461bcd60e51b81526020600482015260136024820152720a8d2daca40c8cac6c2f240e8dede40d0d2ced606b1b604482015260640161033a565b6005545f90610cb7906001600160a01b0316611088565b60015460035460e086015160045460c0880151608089015160208101516040909101519697506001600160a01b038089169763d171350997821696821695949091169291610d04916116a8565b8a60c00151610d1391906116c7565b8a6101000151604001518b6101000151606001518c60400151604051602001610d3c91906116fa565b604051602081830303815290604052805190602001208d60600151604051602001610d679190611744565b604051602081830303815290604052805190602001208e60800151604051602001610d92919061176f565b604051602081830303815290604052805190602001206040518c63ffffffff1660e01b8152600401610dce9b9a999897969594939291906117b6565b5f604051808303815f87803b158015610de5575f5ffd5b505af1158015610df7573d5f5f3e3d5ffd5b5050506001600160a01b0382165f818152600860209081526040808320805460ff19166001179055600682529182902080546001600160a01b031916339081179091558783015192519094507f07f1df6740c13c2675040bb4b91805874358dbfe0f86cc2bec314d803aa5df9d92610e71929091016116fa565b604051602081830303815290604052805190602001208660600151604051602001610e9c9190611744565b604051602081830303815290604052805190602001208760800151604051602001610ec7919061176f565b60408051601f1981840301815282825280516020918201209483528201929092529081019190915260016060820152608001610af1565b919050565b610f0b610fce565b600380546001600160a01b0319166001600160a01b0392909216919091179055565b610f35610fce565b6001600160a01b038116610f5e57604051631e4fbdf760e01b81525f600482015260240161033a565b610f6781610ffa565b50565b6040516001600160a01b03838116602483015260448201839052610fc991859182169063a9059cbb906064015b604051602081830303815290604052915060e01b6020820180516001600160e01b038381831617835250505050611099565b505050565b5f546001600160a01b031633146105db5760405163118cdaa760e01b815233600482015260240161033a565b5f80546001600160a01b038381166001600160a01b0319831681178455604051919092169283917f8be0079c531659141344cd1fd0a4f28419497f9722a3daafe3b4186f6b6457e09190a35050565b6040516001600160a01b0384811660248301528381166044830152606482018390526110829186918216906323b872dd90608401610f97565b50505050565b5f611093825f611105565b92915050565b5f5f60205f8451602086015f885af1806110b8576040513d5f823e3d81fd5b50505f513d915081156110cf5780600114156110dc565b6001600160a01b0384163b155b1561108257604051635274afe760e01b81526001600160a01b038516600482015260240161033a565b5f814710156111305760405163cf47918160e01b81524760048201526024810183905260440161033a565b763d602d80600a3d3981f3363d3d373d3d3d363d730000008360601b60e81c175f526e5af43d82803e903d91602b57fd5bf38360781b176020526037600983f090506001600160a01b0381166110935760405163b06ebf3d60e01b815260040160405180910390fd5b80356001600160a01b0381168114610efe575f5ffd5b5f602082840312156111bf575f5ffd5b6111c882611199565b9392505050565b634e487b7160e01b5f52604160045260245ffd5b604051608081016001600160401b0381118282101715611205576112056111cf565b60405290565b604051606081016001600160401b0381118282101715611205576112056111cf565b60405161014081016001600160401b0381118282101715611205576112056111cf565b5f82601f83011261125f575f5ffd5b81356001600160401b03811115611278576112786111cf565b604051601f8201601f19908116603f011681016001600160401b03811182821017156112a6576112a66111cf565b6040528181528382016020018510156112bd575f5ffd5b816020850160208301375f918101602001919091529392505050565b803560ff81168114610efe575f5ffd5b5f608082840312156112f9575f5ffd5b6113016111e3565b9050813560028110611311575f5ffd5b81526020828101359082015261132960408301611199565b604082015261133a606083016112d9565b606082015292915050565b5f60408284031215611355575f5ffd5b604080519081016001600160401b0381118282101715611377576113776111cf565b60405290508082356004811061138b575f5ffd5b8152602092830135920191909152919050565b80356001600160401b0381168114610efe575f5ffd5b5f606082840312156113c4575f5ffd5b6113cc61120b565b90508135600381106113dc575f5ffd5b81526113ea6020830161139e565b60208201526113fb6040830161139e565b604082015292915050565b5f60608284031215611416575f5ffd5b61141e61120b565b823581526020808401359082015290506113fb604083016112d9565b803561ffff81168114610efe575f5ffd5b5f6080828403121561145b575f5ffd5b6114636111e3565b905061146e8261143a565b815261147c6020830161143a565b60208201526040828101359082015261133a6060830161143a565b8015158114610f67575f5ffd5b8035610efe81611497565b5f6102a082840312156114c0575f5ffd5b6114c861122d565b905081356001600160401b038111156114df575f5ffd5b6114eb84828501611250565b82525060208201356001600160401b03811115611506575f5ffd5b61151284828501611250565b60208301525061152583604084016112e9565b60408201526115378360c08401611345565b606082015261154a8361010084016113b4565b608082015261155d836101608401611406565b60a082015261156f6101c0830161139e565b60c08201526115816101e08301611199565b60e082015261159483610200840161144b565b6101008201526115a761028083016114a4565b61012082015292915050565b5f602082840312156115c3575f5ffd5b81356001600160401b038111156115d8575f5ffd5b6115e4848285016114af565b949350505050565b5f5f5f5f5f60a08688031215611600575f5ffd5b85356001600160401b03811115611615575f5ffd5b611621888289016114af565b95505060208601359350611637604087016112d9565b94979396509394606081013594506080013592915050565b5f6020828403121561165f575f5ffd5b81516111c881611497565b634e487b7160e01b5f52601160045260245ffd5b818103818111156110935761109361166a565b5f602082840312156116a1575f5ffd5b5051919050565b6001600160401b0382811682821603908111156110935761109361166a565b6001600160401b0381811683821601908111156110935761109361166a565b634e487b7160e01b5f52602160045260245ffd5b8151608082019060028110611711576117116116e6565b8252602083810151908301526040808401516001600160a01b03169083015260609283015160ff16929091019190915290565b815160408201906004811061175b5761175b6116e6565b808352506020830151602083015292915050565b8151606082019060038110611786576117866116e6565b808352506001600160401b0360208401511660208301526001600160401b03604084015116604083015292915050565b6001600160a01b039b8c168152998b1660208b0152978a1660408a01529590981660608801526001600160401b0393841660808801529190921660a086015260c085019190915261ffff1660e08401526101008301939093526101208201929092526101408101919091526101600190565b808201808211156110935761109361166a56fea2646970667358221220abf8ac46ec6ed10cb3d6871d0a3c2edced4cc329a9ca9fd231dbf9868e1c3fa664736f6c634300081c0033","linkReferences":{}},"methodIdentifiers":{"STAKE_PER_MARKET()":"c4b1d935","createMarket((string,string,(uint8,bytes32,address,uint8),(uint8,int256),(uint8,uint64,uint64),(bytes32,bytes32,uint8),uint64,address,(uint16,uint16,uint256,uint16),bool))":"7a521dfc","createMarketWithPermit((string,string,(uint8,bytes32,address,uint8),(uint8,int256),(uint8,uint64,uint64),(bytes32,bytes32,uint8),uint64,address,(uint16,uint16,uint256,uint16),bool),uint256,uint8,bytes32,bytes32)":"b6b1769a","createProtocolMarket((string,string,(uint8,bytes32,address,uint8),(uint8,int256),(uint8,uint64,uint64),(bytes32,bytes32,uint8),uint64,address,(uint16,uint16,uint256,uint16),bool))":"dc58479c","creatorLockedStake(address)":"c2c5f5d5","implementation()":"5c60da1b","marketCreator(address)":"3edfef9e","oracle()":"7dc0d1d0","owner()":"8da5cb5b","protocolMarkets(address)":"1252b4af","releaseStake(address)":"490740e8","renounceOwnership()":"715018a6","setImplementation(address)":"d784d426","setOracle(address)":"7adbf973","setTreasury(address)":"f0f44260","stHYPE()":"cd02751f","stakeToken()":"51ed6a30","transferOwnership(address)":"f2fde38b","treasury()":"61d027b3"},"id":62}