{"abi":[{"type":"constructor","inputs":[{"name":"_stakeToken","type":"address","internalType":"address"},{"name":"_stHYPE","type":"address","internalType":"address"},{"name":"_treasury","type":"address","internalType":"address"},{"name":"_oracle","type":"address","internalType":"address"}],"stateMutability":"nonpayable"},{"type":"function","name":"STAKE_PER_MARKET","inputs":[],"outputs":[{"name":"","type":"uint256","internalType":"uint256"}],"stateMutability":"view"},{"type":"function","name":"cpmmImplementation","inputs":[],"outputs":[{"name":"","type":"address","internalType":"address"}],"stateMutability":"view"},{"type":"function","name":"createCPMMMarket","inputs":[{"name":"p","type":"tuple","internalType":"struct MarketTypes.MarketParams","components":[{"name":"title","type":"string","internalType":"string"},{"name":"description","type":"string","internalType":"string"},{"name":"subject","type":"tuple","internalType":"struct MarketTypes.SubjectParams","components":[{"name":"kind","type":"uint8","internalType":"enum MarketTypes.SubjectKind"},{"name":"metricId","type":"bytes32","internalType":"bytes32"},{"name":"token","type":"address","internalType":"address"},{"name":"valueDecimals","type":"uint8","internalType":"uint8"}]},{"name":"predicate","type":"tuple","internalType":"struct MarketTypes.PredicateParams","components":[{"name":"op","type":"uint8","internalType":"enum MarketTypes.PredicateOp"},{"name":"threshold","type":"int256","internalType":"int256"}]},{"name":"window","type":"tuple","internalType":"struct MarketTypes.WindowParams","components":[{"name":"kind","type":"uint8","internalType":"enum MarketTypes.WindowKind"},{"name":"tStart","type":"uint64","internalType":"uint64"},{"name":"tEnd","type":"uint64","internalType":"uint64"}]},{"name":"oracle","type":"tuple","internalType":"struct MarketTypes.OracleSpec","components":[{"name":"primarySourceId","type":"bytes32","internalType":"bytes32"},{"name":"fallbackSourceId","type":"bytes32","internalType":"bytes32"},{"name":"roundingDecimals","type":"uint8","internalType":"uint8"}]},{"name":"cutoffTime","type":"uint64","internalType":"uint64"},{"name":"creator","type":"address","internalType":"address"},{"name":"econ","type":"tuple","internalType":"struct MarketTypes.Economics","components":[{"name":"feeBps","type":"uint16","internalType":"uint16"},{"name":"creatorFeeShareBps","type":"uint16","internalType":"uint16"},{"name":"maxTotalPool","type":"uint256","internalType":"uint256"},{"name":"timeDecayBps","type":"uint16","internalType":"uint16"}]},{"name":"isProtocolMarket","type":"bool","internalType":"bool"}]},{"name":"liquidityAmount","type":"uint256","internalType":"uint256"}],"outputs":[{"name":"","type":"address","internalType":"address"}],"stateMutability":"nonpayable"},{"type":"function","name":"createMarket","inputs":[{"name":"p","type":"tuple","internalType":"struct MarketTypes.MarketParams","components":[{"name":"title","type":"string","internalType":"string"},{"name":"description","type":"string","internalType":"string"},{"name":"subject","type":"tuple","internalType":"struct MarketTypes.SubjectParams","components":[{"name":"kind","type":"uint8","internalType":"enum MarketTypes.SubjectKind"},{"name":"metricId","type":"bytes32","internalType":"bytes32"},{"name":"token","type":"address","internalType":"address"},{"name":"valueDecimals","type":"uint8","internalType":"uint8"}]},{"name":"predicate","type":"tuple","internalType":"struct MarketTypes.PredicateParams","components":[{"name":"op","type":"uint8","internalType":"enum MarketTypes.PredicateOp"},{"name":"threshold","type":"int256","internalType":"int256"}]},{"name":"window","type":"tuple","internalType":"struct MarketTypes.WindowParams","components":[{"name":"kind","type":"uint8","internalType":"enum MarketTypes.WindowKind"},{"name":"tStart","type":"uint64","internalType":"uint64"},{"name":"tEnd","type":"uint64","internalType":"uint64"}]},{"name":"oracle","type":"tuple","internalType":"struct MarketTypes.OracleSpec","components":[{"name":"primarySourceId","type":"bytes32","internalType":"bytes32"},{"name":"fallbackSourceId","type":"bytes32","internalType":"bytes32"},{"name":"roundingDecimals","type":"uint8","internalType":"uint8"}]},{"name":"cutoffTime","type":"uint64","internalType":"uint64"},{"name":"creator","type":"address","internalType":"address"},{"name":"econ","type":"tuple","internalType":"struct MarketTypes.Economics","components":[{"name":"feeBps","type":"uint16","internalType":"uint16"},{"name":"creatorFeeShareBps","type":"uint16","internalType":"uint16"},{"name":"maxTotalPool","type":"uint256","internalType":"uint256"},{"name":"timeDecayBps","type":"uint16","internalType":"uint16"}]},{"name":"isProtocolMarket","type":"bool","internalType":"bool"}]},{"name":"_marketType","type":"uint8","internalType":"enum MarketFactory.MarketType"},{"name":"liquidityAmount","type":"uint256","internalType":"uint256"}],"outputs":[{"name":"","type":"address","internalType":"address"}],"stateMutability":"nonpayable"},{"type":"function","name":"createMarketWithPermit","inputs":[{"name":"p","type":"tuple","internalType":"struct MarketTypes.MarketParams","components":[{"name":"title","type":"string","internalType":"string"},{"name":"description","type":"string","internalType":"string"},{"name":"subject","type":"tuple","internalType":"struct MarketTypes.SubjectParams","components":[{"name":"kind","type":"uint8","internalType":"enum MarketTypes.SubjectKind"},{"name":"metricId","type":"bytes32","internalType":"bytes32"},{"name":"token","type":"address","internalType":"address"},{"name":"valueDecimals","type":"uint8","internalType":"uint8"}]},{"name":"predicate","type":"tuple","internalType":"struct MarketTypes.PredicateParams","components":[{"name":"op","type":"uint8","internalType":"enum MarketTypes.PredicateOp"},{"name":"threshold","type":"int256","internalType":"int256"}]},{"name":"window","type":"tuple","internalType":"struct MarketTypes.WindowParams","components":[{"name":"kind","type":"uint8","internalType":"enum MarketTypes.WindowKind"},{"name":"tStart","type":"uint64","internalType":"uint64"},{"name":"tEnd","type":"uint64","internalType":"uint64"}]},{"name":"oracle","type":"tuple","internalType":"struct MarketTypes.OracleSpec","components":[{"name":"primarySourceId","type":"bytes32","internalType":"bytes32"},{"name":"fallbackSourceId","type":"bytes32","internalType":"bytes32"},{"name":"roundingDecimals","type":"uint8","internalType":"uint8"}]},{"name":"cutoffTime","type":"uint64","internalType":"uint64"},{"name":"creator","type":"address","internalType":"address"},{"name":"econ","type":"tuple","internalType":"struct MarketTypes.Economics","components":[{"name":"feeBps","type":"uint16","internalType":"uint16"},{"name":"creatorFeeShareBps","type":"uint16","internalType":"uint16"},{"name":"maxTotalPool","type":"uint256","internalType":"uint256"},{"name":"timeDecayBps","type":"uint16","internalType":"uint16"}]},{"name":"isProtocolMarket","type":"bool","internalType":"bool"}]},{"name":"_marketType","type":"uint8","internalType":"enum MarketFactory.MarketType"},{"name":"liquidityAmount","type":"uint256","internalType":"uint256"},{"name":"deadline","type":"uint256","internalType":"uint256"},{"name":"v","type":"uint8","internalType":"uint8"},{"name":"r","type":"bytes32","internalType":"bytes32"},{"name":"s","type":"bytes32","internalType":"bytes32"}],"outputs":[{"name":"","type":"address","internalType":"address"}],"stateMutability":"nonpayable"},{"type":"function","name":"createParimutuelMarket","inputs":[{"name":"p","type":"tuple","internalType":"struct MarketTypes.MarketParams","components":[{"name":"title","type":"string","internalType":"string"},{"name":"description","type":"string","internalType":"string"},{"name":"subject","type":"tuple","internalType":"struct MarketTypes.SubjectParams","components":[{"name":"kind","type":"uint8","internalType":"enum MarketTypes.SubjectKind"},{"name":"metricId","type":"bytes32","internalType":"bytes32"},{"name":"token","type":"address","internalType":"address"},{"name":"valueDecimals","type":"uint8","internalType":"uint8"}]},{"name":"predicate","type":"tuple","internalType":"struct MarketTypes.PredicateParams","components":[{"name":"op","type":"uint8","internalType":"enum MarketTypes.PredicateOp"},{"name":"threshold","type":"int256","internalType":"int256"}]},{"name":"window","type":"tuple","internalType":"struct MarketTypes.WindowParams","components":[{"name":"kind","type":"uint8","internalType":"enum MarketTypes.WindowKind"},{"name":"tStart","type":"uint64","internalType":"uint64"},{"name":"tEnd","type":"uint64","internalType":"uint64"}]},{"name":"oracle","type":"tuple","internalType":"struct MarketTypes.OracleSpec","components":[{"name":"primarySourceId","type":"bytes32","internalType":"bytes32"},{"name":"fallbackSourceId","type":"bytes32","internalType":"bytes32"},{"name":"roundingDecimals","type":"uint8","internalType":"uint8"}]},{"name":"cutoffTime","type":"uint64","internalType":"uint64"},{"name":"creator","type":"address","internalType":"address"},{"name":"econ","type":"tuple","internalType":"struct MarketTypes.Economics","components":[{"name":"feeBps","type":"uint16","internalType":"uint16"},{"name":"creatorFeeShareBps","type":"uint16","internalType":"uint16"},{"name":"maxTotalPool","type":"uint256","internalType":"uint256"},{"name":"timeDecayBps","type":"uint16","internalType":"uint16"}]},{"name":"isProtocolMarket","type":"bool","internalType":"bool"}]}],"outputs":[{"name":"","type":"address","internalType":"address"}],"stateMutability":"nonpayable"},{"type":"function","name":"createProtocolMarket","inputs":[{"name":"p","type":"tuple","internalType":"struct MarketTypes.MarketParams","components":[{"name":"title","type":"string","internalType":"string"},{"name":"description","type":"string","internalType":"string"},{"name":"subject","type":"tuple","internalType":"struct MarketTypes.SubjectParams","components":[{"name":"kind","type":"uint8","internalType":"enum MarketTypes.SubjectKind"},{"name":"metricId","type":"bytes32","internalType":"bytes32"},{"name":"token","type":"address","internalType":"address"},{"name":"valueDecimals","type":"uint8","internalType":"uint8"}]},{"name":"predicate","type":"tuple","internalType":"struct MarketTypes.PredicateParams","components":[{"name":"op","type":"uint8","internalType":"enum MarketTypes.PredicateOp"},{"name":"threshold","type":"int256","internalType":"int256"}]},{"name":"window","type":"tuple","internalType":"struct MarketTypes.WindowParams","components":[{"name":"kind","type":"uint8","internalType":"enum MarketTypes.WindowKind"},{"name":"tStart","type":"uint64","internalType":"uint64"},{"name":"tEnd","type":"uint64","internalType":"uint64"}]},{"name":"oracle","type":"tuple","internalType":"struct MarketTypes.OracleSpec","components":[{"name":"primarySourceId","type":"bytes32","internalType":"bytes32"},{"name":"fallbackSourceId","type":"bytes32","internalType":"bytes32"},{"name":"roundingDecimals","type":"uint8","internalType":"uint8"}]},{"name":"cutoffTime","type":"uint64","internalType":"uint64"},{"name":"creator","type":"address","internalType":"address"},{"name":"econ","type":"tuple","internalType":"struct MarketTypes.Economics","components":[{"name":"feeBps","type":"uint16","internalType":"uint16"},{"name":"creatorFeeShareBps","type":"uint16","internalType":"uint16"},{"name":"maxTotalPool","type":"uint256","internalType":"uint256"},{"name":"timeDecayBps","type":"uint16","internalType":"uint16"}]},{"name":"isProtocolMarket","type":"bool","internalType":"bool"}]},{"name":"_marketType","type":"uint8","internalType":"enum MarketFactory.MarketType"},{"name":"liquidityAmount","type":"uint256","internalType":"uint256"}],"outputs":[{"name":"","type":"address","internalType":"address"}],"stateMutability":"nonpayable"},{"type":"function","name":"creatorLockedStake","inputs":[{"name":"","type":"address","internalType":"address"}],"outputs":[{"name":"","type":"uint256","internalType":"uint256"}],"stateMutability":"view"},{"type":"function","name":"marketCreator","inputs":[{"name":"","type":"address","internalType":"address"}],"outputs":[{"name":"","type":"address","internalType":"address"}],"stateMutability":"view"},{"type":"function","name":"marketType","inputs":[{"name":"","type":"address","internalType":"address"}],"outputs":[{"name":"","type":"uint8","internalType":"enum MarketFactory.MarketType"}],"stateMutability":"view"},{"type":"function","name":"oracle","inputs":[],"outputs":[{"name":"","type":"address","internalType":"address"}],"stateMutability":"view"},{"type":"function","name":"owner","inputs":[],"outputs":[{"name":"","type":"address","internalType":"address"}],"stateMutability":"view"},{"type":"function","name":"parimutuelImplementation","inputs":[],"outputs":[{"name":"","type":"address","internalType":"address"}],"stateMutability":"view"},{"type":"function","name":"protocolMarkets","inputs":[{"name":"","type":"address","internalType":"address"}],"outputs":[{"name":"","type":"bool","internalType":"bool"}],"stateMutability":"view"},{"type":"function","name":"releaseStake","inputs":[{"name":"market","type":"address","internalType":"address"}],"outputs":[],"stateMutability":"nonpayable"},{"type":"function","name":"renounceOwnership","inputs":[],"outputs":[],"stateMutability":"nonpayable"},{"type":"function","name":"setCPMMImplementation","inputs":[{"name":"_implementation","type":"address","internalType":"address"}],"outputs":[],"stateMutability":"nonpayable"},{"type":"function","name":"setImplementation","inputs":[{"name":"_implementation","type":"address","internalType":"address"}],"outputs":[],"stateMutability":"nonpayable"},{"type":"function","name":"setOracle","inputs":[{"name":"_oracle","type":"address","internalType":"address"}],"outputs":[],"stateMutability":"nonpayable"},{"type":"function","name":"setParimutuelImplementation","inputs":[{"name":"_implementation","type":"address","internalType":"address"}],"outputs":[],"stateMutability":"nonpayable"},{"type":"function","name":"setTreasury","inputs":[{"name":"_treasury","type":"address","internalType":"address"}],"outputs":[],"stateMutability":"nonpayable"},{"type":"function","name":"stHYPE","inputs":[],"outputs":[{"name":"","type":"address","internalType":"contract IstHYPE"}],"stateMutability":"view"},{"type":"function","name":"stakeToken","inputs":[],"outputs":[{"name":"","type":"address","internalType":"contract IERC20"}],"stateMutability":"view"},{"type":"function","name":"transferOwnership","inputs":[{"name":"newOwner","type":"address","internalType":"address"}],"outputs":[],"stateMutability":"nonpayable"},{"type":"function","name":"treasury","inputs":[],"outputs":[{"name":"","type":"address","internalType":"address"}],"stateMutability":"view"},{"type":"event","name":"MarketCreated","inputs":[{"name":"market","type":"address","indexed":true,"internalType":"address"},{"name":"creator","type":"address","indexed":true,"internalType":"address"},{"name":"marketType","type":"uint8","indexed":true,"internalType":"enum MarketFactory.MarketType"},{"name":"params","type":"tuple","indexed":false,"internalType":"struct MarketTypes.MarketParams","components":[{"name":"title","type":"string","internalType":"string"},{"name":"description","type":"string","internalType":"string"},{"name":"subject","type":"tuple","internalType":"struct MarketTypes.SubjectParams","components":[{"name":"kind","type":"uint8","internalType":"enum MarketTypes.SubjectKind"},{"name":"metricId","type":"bytes32","internalType":"bytes32"},{"name":"token","type":"address","internalType":"address"},{"name":"valueDecimals","type":"uint8","internalType":"uint8"}]},{"name":"predicate","type":"tuple","internalType":"struct MarketTypes.PredicateParams","components":[{"name":"op","type":"uint8","internalType":"enum MarketTypes.PredicateOp"},{"name":"threshold","type":"int256","internalType":"int256"}]},{"name":"window","type":"tuple","internalType":"struct MarketTypes.WindowParams","components":[{"name":"kind","type":"uint8","internalType":"enum MarketTypes.WindowKind"},{"name":"tStart","type":"uint64","internalType":"uint64"},{"name":"tEnd","type":"uint64","internalType":"uint64"}]},{"name":"oracle","type":"tuple","internalType":"struct MarketTypes.OracleSpec","components":[{"name":"primarySourceId","type":"bytes32","internalType":"bytes32"},{"name":"fallbackSourceId","type":"bytes32","internalType":"bytes32"},{"name":"roundingDecimals","type":"uint8","internalType":"uint8"}]},{"name":"cutoffTime","type":"uint64","internalType":"uint64"},{"name":"creator","type":"address","internalType":"address"},{"name":"econ","type":"tuple","internalType":"struct MarketTypes.Economics","components":[{"name":"feeBps","type":"uint16","internalType":"uint16"},{"name":"creatorFeeShareBps","type":"uint16","internalType":"uint16"},{"name":"maxTotalPool","type":"uint256","internalType":"uint256"},{"name":"timeDecayBps","type":"uint16","internalType":"uint16"}]},{"name":"isProtocolMarket","type":"bool","internalType":"bool"}]}],"anonymous":false},{"type":"event","name":"OwnershipTransferred","inputs":[{"name":"previousOwner","type":"address","indexed":true,"internalType":"address"},{"name":"newOwner","type":"address","indexed":true,"internalType":"address"}],"anonymous":false},{"type":"event","name":"StakeLocked","inputs":[{"name":"creator","type":"address","indexed":true,"internalType":"address"},{"name":"market","type":"address","indexed":true,"internalType":"address"},{"name":"amount","type":"uint256","indexed":false,"internalType":"uint256"}],"anonymous":false},{"type":"event","name":"StakeReleased","inputs":[{"name":"creator","type":"address","indexed":true,"internalType":"address"},{"name":"market","type":"address","indexed":true,"internalType":"address"},{"name":"amount","type":"uint256","indexed":false,"internalType":"uint256"}],"anonymous":false},{"type":"error","name":"FailedDeployment","inputs":[]},{"type":"error","name":"InsufficientBalance","inputs":[{"name":"balance","type":"uint256","internalType":"uint256"},{"name":"needed","type":"uint256","internalType":"uint256"}]},{"type":"error","name":"OwnableInvalidOwner","inputs":[{"name":"owner","type":"address","internalType":"address"}]},{"type":"error","name":"OwnableUnauthorizedAccount","inputs":[{"name":"account","type":"address","internalType":"address"}]},{"type":"error","name":"SafeERC20FailedOperation","inputs":[{"name":"token","type":"address","internalType":"address"}]}],"bytecode":{"object":"0x608060405234801561000f575f5ffd5b506040516121c43803806121c483398101604081905261002e9161011a565b338061005357604051631e4fbdf760e01b81525f600482015260240160405180910390fd5b61005c816100b0565b50600180546001600160a01b039586166001600160a01b031991821617909155600280549486169482169490941790935560038054928516928416929092179091556004805491909316911617905561016b565b5f80546001600160a01b038381166001600160a01b0319831681178455604051919092169283917f8be0079c531659141344cd1fd0a4f28419497f9722a3daafe3b4186f6b6457e09190a35050565b80516001600160a01b0381168114610115575f5ffd5b919050565b5f5f5f5f6080858703121561012d575f5ffd5b610136856100ff565b9350610144602086016100ff565b9250610152604086016100ff565b9150610160606086016100ff565b905092959194509250565b61204c806101785f395ff3fe608060405234801561000f575f5ffd5b506004361061016d575f3560e01c80637dc0d1d0116100d9578063cd02751f11610093578063d784d4261161006e578063d784d426146102c0578063de0e248214610378578063f0f442601461038b578063f2fde38b1461039e575f5ffd5b8063cd02751f1461033f578063cd744b1714610352578063d317f0d214610365575f5ffd5b80637dc0d1d01461029d5780638da5cb5b146102b0578063a394f6f3146102c0578063b00c0c64146102d3578063c2c5f5d514610302578063c4b1d9351461032f575f5ffd5b80634b93d45f1161012a5780634b93d45f146102365780634d0e7f021461024957806351ed6a301461025c57806361d027b31461026f578063715018a6146102825780637adbf9731461028a575f5ffd5b80630bf603f8146101715780631252b4af1461018657806329f02d52146101bd5780633cb9f5aa146101e85780633edfef9e146101fb578063490740e814610223575b5f5ffd5b61018461017f3660046116da565b6103b1565b005b6101a86101943660046116da565b60096020525f908152604090205460ff1681565b60405190151581526020015b60405180910390f35b6101d06101cb366004611ae0565b6103db565b6040516001600160a01b0390911681526020016101b4565b6101d06101f6366004611ae0565b6104e5565b6101d06102093660046116da565b60076020525f90815260409020546001600160a01b031681565b6101846102313660046116da565b610661565b6101d0610244366004611b35565b6109cc565b6005546101d0906001600160a01b031681565b6001546101d0906001600160a01b031681565b6003546101d0906001600160a01b031681565b6101846109de565b6101846102983660046116da565b6109f1565b6004546101d0906001600160a01b031681565b5f546001600160a01b03166101d0565b6101846102ce3660046116da565b610a1b565b6102f56102e13660046116da565b600a6020525f908152604090205460ff1681565b6040516101b49190611b92565b6103216103103660046116da565b60086020525f908152604090205481565b6040519081526020016101b4565b610321683635c9adc5dea0000081565b6002546101d0906001600160a01b031681565b6101d0610360366004611ba5565b610a45565b6101d0610373366004611be6565b610a59565b6006546101d0906001600160a01b031681565b6101846103993660046116da565b610b15565b6101846103ac3660046116da565b610b3f565b6103b9610b7c565b600680546001600160a01b0319166001600160a01b0392909216919091179055565b5f6103e4610b7c565b5f808460018111156103f8576103f8611b6e565b0361040d5761040685610ba8565b905061041a565b6104178584610d30565b90505b6001600160a01b0381165f908152600960209081526040808320805460ff1990811660019081179092556007845282852080546001600160a01b03191633179055600a90935292208054879391921690838181111561047b5761047b611b6e565b021790555083600181111561049257610492611b6e565b336001600160a01b0316826001600160a01b03167fdb5eef098c51248969d371b15b1da31072e02d1b8289c96aa3291ab5a0d901da886040516104d59190611e37565b60405180910390a4949350505050565b5f808360018111156104f9576104f9611b6e565b03610534576005546001600160a01b031661052f5760405162461bcd60e51b815260040161052690611e49565b60405180910390fd5b6105de565b6006546001600160a01b031661058c5760405162461bcd60e51b815260206004820152601b60248201527f43504d4d20696d706c656d656e746174696f6e206e6f742073657400000000006044820152606401610526565b683635c9adc5dea000008210156105de5760405162461bcd60e51b8152602060048201526016602482015275496e73756666696369656e74206c697175696469747960501b6044820152606401610526565b5f808460018111156105f2576105f2611b6e565b036106075761060085610fb0565b9050610614565b6106118584611331565b90505b6001600160a01b0381165f90815260076020908152604080832080546001600160a01b03191633179055600a9091529020805485919060ff19166001838181111561047b5761047b611b6e565b6001600160a01b038181165f90815260076020526040902054166106ba5760405162461bcd60e51b815260206004820152601060248201526f13585c9ad95d081b9bdd08199bdd5b9960821b6044820152606401610526565b6001600160a01b0381165f9081526009602052604090205460ff16156107225760405162461bcd60e51b815260206004820152601c60248201527f50726f746f636f6c206d61726b657420686173206e6f207374616b65000000006044820152606401610526565b6001600160a01b0381165f908152600a602052604081205460ff16600181111561074e5761074e611b6e565b146107ad5760405162461bcd60e51b815260206004820152602960248201527f4f6e6c7920706172696d757475656c206d61726b657473206861766520737448604482015268595045207374616b6560b81b6064820152608401610526565b6001600160a01b038082165f908152600760205260409020541633811461080b5760405162461bcd60e51b81526020600482015260126024820152712737ba1036b0b935b2ba1031b932b0ba37b960711b6044820152606401610526565b816001600160a01b0316633f6fa6556040518163ffffffff1660e01b8152600401602060405180830381865afa158015610847573d5f5f3e3d5ffd5b505050506040513d601f19601f8201168201806040525081019061086b9190611e8a565b6108ad5760405162461bcd60e51b815260206004820152601360248201527213585c9ad95d081b9bdd081c995cdbdb1d9959606a1b6044820152606401610526565b6001600160a01b0381165f90815260086020526040902054683635c9adc5dea000009081111561091f5760405162461bcd60e51b815260206004820152601960248201527f496e73756666696369656e74206c6f636b6564207374616b65000000000000006044820152606401610526565b6001600160a01b0382165f9081526008602052604081208054839290610946908490611eb9565b9091555050600254610962906001600160a01b031683836114c2565b6001600160a01b038084165f818152600760205260409081902080546001600160a01b03191690555190918416907fe7d48da3e0f5708add7ea1dc70e975e6451ad87b109a1f3b90616478fe436854906109bf9085815260200190565b60405180910390a3505050565b5f6109d8825f5f6104e5565b92915050565b6109e6610b7c565b6109ef5f611526565b565b6109f9610b7c565b600480546001600160a01b0319166001600160a01b0392909216919091179055565b610a23610b7c565b600580546001600160a01b0319166001600160a01b0392909216919091179055565b5f610a52836001846104e5565b9392505050565b5f80876001811115610a6d57610a6d611b6e565b03610afe5760025460405163d505accf60e01b8152336004820152306024820152683635c9adc5dea0000060448201526064810187905260ff8616608482015260a4810185905260c481018490526001600160a01b039091169063d505accf9060e4015f604051808303815f87803b158015610ae7575f5ffd5b505af1158015610af9573d5f5f3e3d5ffd5b505050505b610b098888886104e5565b98975050505050505050565b610b1d610b7c565b600380546001600160a01b0319166001600160a01b0392909216919091179055565b610b47610b7c565b6001600160a01b038116610b7057604051631e4fbdf760e01b81525f6004820152602401610526565b610b7981611526565b50565b5f546001600160a01b031633146109ef5760405163118cdaa760e01b8152336004820152602401610526565b6005545f906001600160a01b0316610bd25760405162461bcd60e51b815260040161052690611e49565b600554610be7906001600160a01b0316611575565b60015460035460e085015160045460c0870151608088015160208101516040909101519697506001600160a01b038089169763d171350997821696821695949091169291610c3491611ecc565b8960c00151610c439190611eeb565b896101000151604001518a6101000151606001518b60400151604051602001610c6c9190611f0a565b604051602081830303815290604052805190602001208c60600151604051602001610c979190611f18565b604051602081830303815290604052805190602001208d60800151604051602001610cc29190611f26565b604051602081830303815290604052805190602001206040518c63ffffffff1660e01b8152600401610cfe9b9a99989796959493929190611f34565b5f604051808303815f87803b158015610d15575f5ffd5b505af1158015610d27573d5f5f3e3d5ffd5b50505050919050565b6006545f906001600160a01b0316610d8a5760405162461bcd60e51b815260206004820152601b60248201527f43504d4d20696d706c656d656e746174696f6e206e6f742073657400000000006044820152606401610526565b683635c9adc5dea00000821015610ddc5760405162461bcd60e51b8152602060048201526016602482015275496e73756666696369656e74206c697175696469747960501b6044820152606401610526565b6001546040516370a0823160e01b815233600482015283916001600160a01b0316906370a0823190602401602060405180830381865afa158015610e22573d5f5f3e3d5ffd5b505050506040513d601f19601f82011682018060405250810190610e469190611fa6565b1015610e945760405162461bcd60e51b815260206004820152601d60248201527f496e73756666696369656e742070726f746f636f6c2062616c616e63650000006044820152606401610526565b600154610eac906001600160a01b0316333085611580565b600654610ec1906001600160a01b0316611575565b60015460405163095ea7b360e01b81526001600160a01b0380841660048301526024820186905292935091169063095ea7b3906044016020604051808303815f875af1158015610f13573d5f5f3e3d5ffd5b505050506040513d601f19601f82011682018060405250810190610f379190611e8a565b506001546003546004805460405163f08aca1960e01b81526001600160a01b038681169563f08aca1995610f7d958b9592841694918416939092169130918b9101611fbd565b5f604051808303815f87803b158015610f94575f5ffd5b505af1158015610fa6573d5f5f3e3d5ffd5b5050505092915050565b6002546040516370a0823160e01b81523360048201525f91683635c9adc5dea00000916001600160a01b03909116906370a0823190602401602060405180830381865afa158015611003573d5f5f3e3d5ffd5b505050506040513d601f19601f820116820180604052508101906110279190611fa6565b10156110755760405162461bcd60e51b815260206004820152601b60248201527f496e73756666696369656e74207374485950452062616c616e636500000000006044820152606401610526565b600254604051636eb1769f60e11b8152336004820152306024820152683635c9adc5dea00000916001600160a01b03169063dd62ed3e90604401602060405180830381865afa1580156110ca573d5f5f3e3d5ffd5b505050506040513d601f19601f820116820180604052508101906110ee9190611fa6565b101561113c5760405162461bcd60e51b815260206004820152601d60248201527f496e73756666696369656e742073744859504520616c6c6f77616e63650000006044820152606401610526565b60025461115d906001600160a01b03163330683635c9adc5dea00000611580565b600554611172906001600160a01b0316611575565b60015460035460e085015160045460c0870151608088015160208101516040909101519697506001600160a01b038089169763d1713509978216968216959490911692916111bf91611ecc565b8960c001516111ce9190611eeb565b896101000151604001518a6101000151606001518b604001516040516020016111f79190611f0a565b604051602081830303815290604052805190602001208c606001516040516020016112229190611f18565b604051602081830303815290604052805190602001208d6080015160405160200161124d9190611f26565b604051602081830303815290604052805190602001206040518c63ffffffff1660e01b81526004016112899b9a99989796959493929190611f34565b5f604051808303815f87803b1580156112a0575f5ffd5b505af11580156112b2573d5f5f3e3d5ffd5b5050335f9081526008602052604081208054683635c9adc5dea0000094509092506112de908490612003565b9091555050604051683635c9adc5dea0000081526001600160a01b0382169033907f82358c8f3a8a41c7cae8a1196ae5106f7b58ce60eb38b7bc6fe3086d079d2a4e9060200160405180910390a3919050565b6001546040516370a0823160e01b81523360048201525f9183916001600160a01b03909116906370a0823190602401602060405180830381865afa15801561137b573d5f5f3e3d5ffd5b505050506040513d601f19601f8201168201806040525081019061139f9190611fa6565b10156113f85760405162461bcd60e51b815260206004820152602260248201527f496e73756666696369656e742062616c616e636520666f72206c697175696469604482015261747960f01b6064820152608401610526565b600154604051636eb1769f60e11b815233600482015230602482015283916001600160a01b03169063dd62ed3e90604401602060405180830381865afa158015611444573d5f5f3e3d5ffd5b505050506040513d601f19601f820116820180604052508101906114689190611fa6565b1015610e945760405162461bcd60e51b8152602060048201526024808201527f496e73756666696369656e7420616c6c6f77616e636520666f72206c697175696044820152636469747960e01b6064820152608401610526565b6040516001600160a01b0383811660248301526044820183905261152191859182169063a9059cbb906064015b604051602081830303815290604052915060e01b6020820180516001600160e01b0383818316178352505050506115bf565b505050565b5f80546001600160a01b038381166001600160a01b0319831681178455604051919092169283917f8be0079c531659141344cd1fd0a4f28419497f9722a3daafe3b4186f6b6457e09190a35050565b5f6109d8825f61162b565b6040516001600160a01b0384811660248301528381166044830152606482018390526115b99186918216906323b872dd906084016114ef565b50505050565b5f5f60205f8451602086015f885af1806115de576040513d5f823e3d81fd5b50505f513d915081156115f5578060011415611602565b6001600160a01b0384163b155b156115b957604051635274afe760e01b81526001600160a01b0385166004820152602401610526565b5f814710156116565760405163cf47918160e01b815247600482015260248101839052604401610526565b763d602d80600a3d3981f3363d3d373d3d3d363d730000008360601b60e81c175f526e5af43d82803e903d91602b57fd5bf38360781b176020526037600983f090506001600160a01b0381166109d85760405163b06ebf3d60e01b815260040160405180910390fd5b80356001600160a01b03811681146116d5575f5ffd5b919050565b5f602082840312156116ea575f5ffd5b610a52826116bf565b634e487b7160e01b5f52604160045260245ffd5b604051608081016001600160401b0381118282101715611729576117296116f3565b60405290565b604051606081016001600160401b0381118282101715611729576117296116f3565b60405161014081016001600160401b0381118282101715611729576117296116f3565b5f82601f830112611783575f5ffd5b81356001600160401b0381111561179c5761179c6116f3565b604051601f8201601f19908116603f011681016001600160401b03811182821017156117ca576117ca6116f3565b6040528181528382016020018510156117e1575f5ffd5b816020850160208301375f918101602001919091529392505050565b60028110610b79575f5ffd5b803560ff811681146116d5575f5ffd5b5f60808284031215611829575f5ffd5b611831611707565b9050813561183e816117fd565b815260208281013590820152611856604083016116bf565b604082015261186760608301611809565b606082015292915050565b5f60408284031215611882575f5ffd5b604080519081016001600160401b03811182821017156118a4576118a46116f3565b6040529050808235600481106118b8575f5ffd5b8152602092830135920191909152919050565b80356001600160401b03811681146116d5575f5ffd5b5f606082840312156118f1575f5ffd5b6118f961172f565b9050813560038110611909575f5ffd5b8152611917602083016118cb565b6020820152611928604083016118cb565b604082015292915050565b5f60608284031215611943575f5ffd5b61194b61172f565b8235815260208084013590820152905061192860408301611809565b803561ffff811681146116d5575f5ffd5b5f60808284031215611988575f5ffd5b611990611707565b905061199b82611967565b81526119a960208301611967565b60208201526040828101359082015261186760608301611967565b8015158114610b79575f5ffd5b80356116d5816119c4565b5f6102a082840312156119ed575f5ffd5b6119f5611751565b905081356001600160401b03811115611a0c575f5ffd5b611a1884828501611774565b82525060208201356001600160401b03811115611a33575f5ffd5b611a3f84828501611774565b602083015250611a528360408401611819565b6040820152611a648360c08401611872565b6060820152611a778361010084016118e1565b6080820152611a8a836101608401611933565b60a0820152611a9c6101c083016118cb565b60c0820152611aae6101e083016116bf565b60e0820152611ac1836102008401611978565b610100820152611ad461028083016119d1565b61012082015292915050565b5f5f5f60608486031215611af2575f5ffd5b83356001600160401b03811115611b07575f5ffd5b611b13868287016119dc565b9350506020840135611b24816117fd565b929592945050506040919091013590565b5f60208284031215611b45575f5ffd5b81356001600160401b03811115611b5a575f5ffd5b611b66848285016119dc565b949350505050565b634e487b7160e01b5f52602160045260245ffd5b60028110610b7957610b79611b6e565b60208101611b9f83611b82565b91905290565b5f5f60408385031215611bb6575f5ffd5b82356001600160401b03811115611bcb575f5ffd5b611bd7858286016119dc565b95602094909401359450505050565b5f5f5f5f5f5f5f60e0888a031215611bfc575f5ffd5b87356001600160401b03811115611c11575f5ffd5b611c1d8a828b016119dc565b9750506020880135611c2e816117fd565b95506040880135945060608801359350611c4a60808901611809565b9699959850939692959460a0840135945060c09093013592915050565b5f81518084528060208401602086015e5f602082860101526020601f19601f83011685010191505092915050565b8051611ca081611b82565b8252602081810151908301526040808201516001600160a01b03169083015260609081015160ff16910152565b805160048110611cdf57611cdf611b6e565b8252602090810151910152565b805160038110611cfe57611cfe611b6e565b808352506001600160401b0360208201511660208301526001600160401b0360408201511660408301525050565b5f81516102a08452611d426102a0850182611c67565b905060208301518482036020860152611d5b8282611c67565b9150506040830151611d706040860182611c95565b506060830151611d8360c0860182611ccd565b506080830151611d97610100860182611cec565b5060a0830151805161016086015260208082015161018087015260409182015160ff166101a087015260c08501516001600160401b03166101c087015260e08501516001600160a01b03166101e0870152610100850151805161ffff908116610200890152918101518216610220880152918201516102408701526060909101511661026085015261012090920151151561028090930192909252919050565b602081525f610a526020830184611d2c565b60208082526021908201527f506172696d757475656c20696d706c656d656e746174696f6e206e6f742073656040820152601d60fa1b606082015260800190565b5f60208284031215611e9a575f5ffd5b8151610a52816119c4565b634e487b7160e01b5f52601160045260245ffd5b818103818111156109d8576109d8611ea5565b6001600160401b0382811682821603908111156109d8576109d8611ea5565b6001600160401b0381811683821601908111156109d8576109d8611ea5565b608081016109d88284611c95565b604081016109d88284611ccd565b606081016109d88284611cec565b6001600160a01b039b8c168152998b1660208b0152978a1660408a01529590981660608801526001600160401b0393841660808801529190921660a086015260c085019190915261ffff1660e08401526101008301939093526101208201929092526101408101919091526101600190565b5f60208284031215611fb6575f5ffd5b5051919050565b60c081525f611fcf60c0830189611d2c565b6001600160a01b03978816602084015295871660408301525092851660608401529316608082015260a00191909152919050565b808201808211156109d8576109d8611ea556fea2646970667358221220e97f315fd4444478f6619cb89f4c016f65948f665c93c2ff30d92041d175edf464736f6c634300081c0033","linkReferences":{}},"methodIdentifiers":{"STAKE_PER_MARKET()":"c4b1d935","cpmmImplementation()":"de0e2482","createCPMMMarket((string,string,(uint8,bytes32,address,uint8),(uint8,int256),(uint8,uint64,uint64),(bytes32,bytes32,uint8),uint64,address,(uint16,uint16,uint256,uint16),bool),uint256)":"cd744b17","createMarket((string,string,(uint8,bytes32,address,uint8),(uint8,int256),(uint8,uint64,uint64),(bytes32,bytes32,uint8),uint64,address,(uint16,uint16,uint256,uint16),bool),uint8,uint256)":"3cb9f5aa","createMarketWithPermit((string,string,(uint8,bytes32,address,uint8),(uint8,int256),(uint8,uint64,uint64),(bytes32,bytes32,uint8),uint64,address,(uint16,uint16,uint256,uint16),bool),uint8,uint256,uint256,uint8,bytes32,bytes32)":"d317f0d2","createParimutuelMarket((string,string,(uint8,bytes32,address,uint8),(uint8,int256),(uint8,uint64,uint64),(bytes32,bytes32,uint8),uint64,address,(uint16,uint16,uint256,uint16),bool))":"4b93d45f","createProtocolMarket((string,string,(uint8,bytes32,address,uint8),(uint8,int256),(uint8,uint64,uint64),(bytes32,bytes32,uint8),uint64,address,(uint16,uint16,uint256,uint16),bool),uint8,uint256)":"29f02d52","creatorLockedStake(address)":"c2c5f5d5","marketCreator(address)":"3edfef9e","marketType(address)":"b00c0c64","oracle()":"7dc0d1d0","owner()":"8da5cb5b","parimutuelImplementation()":"4d0e7f02","protocolMarkets(address)":"1252b4af","releaseStake(address)":"490740e8","renounceOwnership()":"715018a6","setCPMMImplementation(address)":"0bf603f8","setImplementation(address)":"d784d426","setOracle(address)":"7adbf973","setParimutuelImplementation(address)":"a394f6f3","setTreasury(address)":"f0f44260","stHYPE()":"cd02751f","stakeToken()":"51ed6a30","transferOwnership(address)":"f2fde38b","treasury()":"61d027b3"},"id":38}