{"abi":[{"type":"constructor","inputs":[{"name":"_stakeToken","type":"address","internalType":"address"},{"name":"_stHYPE","type":"address","internalType":"address"},{"name":"_treasury","type":"address","internalType":"address"},{"name":"_oracle","type":"address","internalType":"address"}],"stateMutability":"nonpayable"},{"type":"function","name":"STAKE_PER_MARKET","inputs":[],"outputs":[{"name":"","type":"uint256","internalType":"uint256"}],"stateMutability":"view"},{"type":"function","name":"cpmmImplementation","inputs":[],"outputs":[{"name":"","type":"address","internalType":"address"}],"stateMutability":"view"},{"type":"function","name":"createCPMMMarket","inputs":[{"name":"p","type":"tuple","internalType":"struct MarketTypes.MarketParams","components":[{"name":"title","type":"string","internalType":"string"},{"name":"description","type":"string","internalType":"string"},{"name":"subject","type":"tuple","internalType":"struct MarketTypes.SubjectParams","components":[{"name":"kind","type":"uint8","internalType":"enum MarketTypes.SubjectKind"},{"name":"metricId","type":"bytes32","internalType":"bytes32"},{"name":"tokenIdentifier","type":"string","internalType":"string"},{"name":"valueDecimals","type":"uint8","internalType":"uint8"}]},{"name":"predicate","type":"tuple","internalType":"struct MarketTypes.PredicateParams","components":[{"name":"op","type":"uint8","internalType":"enum MarketTypes.PredicateOp"},{"name":"threshold","type":"int256","internalType":"int256"}]},{"name":"window","type":"tuple","internalType":"struct MarketTypes.WindowParams","components":[{"name":"kind","type":"uint8","internalType":"enum MarketTypes.WindowKind"},{"name":"tStart","type":"uint64","internalType":"uint64"},{"name":"tEnd","type":"uint64","internalType":"uint64"}]},{"name":"oracle","type":"tuple","internalType":"struct MarketTypes.OracleSpec","components":[{"name":"primarySourceId","type":"bytes32","internalType":"bytes32"},{"name":"fallbackSourceId","type":"bytes32","internalType":"bytes32"},{"name":"roundingDecimals","type":"uint8","internalType":"uint8"}]},{"name":"cutoffTime","type":"uint64","internalType":"uint64"},{"name":"creator","type":"address","internalType":"address"},{"name":"econ","type":"tuple","internalType":"struct MarketTypes.Economics","components":[{"name":"feeBps","type":"uint16","internalType":"uint16"},{"name":"creatorFeeShareBps","type":"uint16","internalType":"uint16"},{"name":"maxTotalPool","type":"uint256","internalType":"uint256"},{"name":"timeDecayBps","type":"uint16","internalType":"uint16"}]},{"name":"isProtocolMarket","type":"bool","internalType":"bool"}]},{"name":"liquidityAmount","type":"uint256","internalType":"uint256"}],"outputs":[{"name":"","type":"address","internalType":"address"}],"stateMutability":"nonpayable"},{"type":"function","name":"createMarket","inputs":[{"name":"p","type":"tuple","internalType":"struct MarketTypes.MarketParams","components":[{"name":"title","type":"string","internalType":"string"},{"name":"description","type":"string","internalType":"string"},{"name":"subject","type":"tuple","internalType":"struct MarketTypes.SubjectParams","components":[{"name":"kind","type":"uint8","internalType":"enum MarketTypes.SubjectKind"},{"name":"metricId","type":"bytes32","internalType":"bytes32"},{"name":"tokenIdentifier","type":"string","internalType":"string"},{"name":"valueDecimals","type":"uint8","internalType":"uint8"}]},{"name":"predicate","type":"tuple","internalType":"struct MarketTypes.PredicateParams","components":[{"name":"op","type":"uint8","internalType":"enum MarketTypes.PredicateOp"},{"name":"threshold","type":"int256","internalType":"int256"}]},{"name":"window","type":"tuple","internalType":"struct MarketTypes.WindowParams","components":[{"name":"kind","type":"uint8","internalType":"enum MarketTypes.WindowKind"},{"name":"tStart","type":"uint64","internalType":"uint64"},{"name":"tEnd","type":"uint64","internalType":"uint64"}]},{"name":"oracle","type":"tuple","internalType":"struct MarketTypes.OracleSpec","components":[{"name":"primarySourceId","type":"bytes32","internalType":"bytes32"},{"name":"fallbackSourceId","type":"bytes32","internalType":"bytes32"},{"name":"roundingDecimals","type":"uint8","internalType":"uint8"}]},{"name":"cutoffTime","type":"uint64","internalType":"uint64"},{"name":"creator","type":"address","internalType":"address"},{"name":"econ","type":"tuple","internalType":"struct MarketTypes.Economics","components":[{"name":"feeBps","type":"uint16","internalType":"uint16"},{"name":"creatorFeeShareBps","type":"uint16","internalType":"uint16"},{"name":"maxTotalPool","type":"uint256","internalType":"uint256"},{"name":"timeDecayBps","type":"uint16","internalType":"uint16"}]},{"name":"isProtocolMarket","type":"bool","internalType":"bool"}]},{"name":"_marketType","type":"uint8","internalType":"enum MarketFactory.MarketType"},{"name":"liquidityAmount","type":"uint256","internalType":"uint256"}],"outputs":[{"name":"","type":"address","internalType":"address"}],"stateMutability":"nonpayable"},{"type":"function","name":"createMarketWithPermit","inputs":[{"name":"p","type":"tuple","internalType":"struct MarketTypes.MarketParams","components":[{"name":"title","type":"string","internalType":"string"},{"name":"description","type":"string","internalType":"string"},{"name":"subject","type":"tuple","internalType":"struct MarketTypes.SubjectParams","components":[{"name":"kind","type":"uint8","internalType":"enum MarketTypes.SubjectKind"},{"name":"metricId","type":"bytes32","internalType":"bytes32"},{"name":"tokenIdentifier","type":"string","internalType":"string"},{"name":"valueDecimals","type":"uint8","internalType":"uint8"}]},{"name":"predicate","type":"tuple","internalType":"struct MarketTypes.PredicateParams","components":[{"name":"op","type":"uint8","internalType":"enum MarketTypes.PredicateOp"},{"name":"threshold","type":"int256","internalType":"int256"}]},{"name":"window","type":"tuple","internalType":"struct MarketTypes.WindowParams","components":[{"name":"kind","type":"uint8","internalType":"enum MarketTypes.WindowKind"},{"name":"tStart","type":"uint64","internalType":"uint64"},{"name":"tEnd","type":"uint64","internalType":"uint64"}]},{"name":"oracle","type":"tuple","internalType":"struct MarketTypes.OracleSpec","components":[{"name":"primarySourceId","type":"bytes32","internalType":"bytes32"},{"name":"fallbackSourceId","type":"bytes32","internalType":"bytes32"},{"name":"roundingDecimals","type":"uint8","internalType":"uint8"}]},{"name":"cutoffTime","type":"uint64","internalType":"uint64"},{"name":"creator","type":"address","internalType":"address"},{"name":"econ","type":"tuple","internalType":"struct MarketTypes.Economics","components":[{"name":"feeBps","type":"uint16","internalType":"uint16"},{"name":"creatorFeeShareBps","type":"uint16","internalType":"uint16"},{"name":"maxTotalPool","type":"uint256","internalType":"uint256"},{"name":"timeDecayBps","type":"uint16","internalType":"uint16"}]},{"name":"isProtocolMarket","type":"bool","internalType":"bool"}]},{"name":"_marketType","type":"uint8","internalType":"enum MarketFactory.MarketType"},{"name":"liquidityAmount","type":"uint256","internalType":"uint256"},{"name":"deadline","type":"uint256","internalType":"uint256"},{"name":"v","type":"uint8","internalType":"uint8"},{"name":"r","type":"bytes32","internalType":"bytes32"},{"name":"s","type":"bytes32","internalType":"bytes32"}],"outputs":[{"name":"","type":"address","internalType":"address"}],"stateMutability":"nonpayable"},{"type":"function","name":"createParimutuelMarket","inputs":[{"name":"p","type":"tuple","internalType":"struct MarketTypes.MarketParams","components":[{"name":"title","type":"string","internalType":"string"},{"name":"description","type":"string","internalType":"string"},{"name":"subject","type":"tuple","internalType":"struct MarketTypes.SubjectParams","components":[{"name":"kind","type":"uint8","internalType":"enum MarketTypes.SubjectKind"},{"name":"metricId","type":"bytes32","internalType":"bytes32"},{"name":"tokenIdentifier","type":"string","internalType":"string"},{"name":"valueDecimals","type":"uint8","internalType":"uint8"}]},{"name":"predicate","type":"tuple","internalType":"struct MarketTypes.PredicateParams","components":[{"name":"op","type":"uint8","internalType":"enum MarketTypes.PredicateOp"},{"name":"threshold","type":"int256","internalType":"int256"}]},{"name":"window","type":"tuple","internalType":"struct MarketTypes.WindowParams","components":[{"name":"kind","type":"uint8","internalType":"enum MarketTypes.WindowKind"},{"name":"tStart","type":"uint64","internalType":"uint64"},{"name":"tEnd","type":"uint64","internalType":"uint64"}]},{"name":"oracle","type":"tuple","internalType":"struct MarketTypes.OracleSpec","components":[{"name":"primarySourceId","type":"bytes32","internalType":"bytes32"},{"name":"fallbackSourceId","type":"bytes32","internalType":"bytes32"},{"name":"roundingDecimals","type":"uint8","internalType":"uint8"}]},{"name":"cutoffTime","type":"uint64","internalType":"uint64"},{"name":"creator","type":"address","internalType":"address"},{"name":"econ","type":"tuple","internalType":"struct MarketTypes.Economics","components":[{"name":"feeBps","type":"uint16","internalType":"uint16"},{"name":"creatorFeeShareBps","type":"uint16","internalType":"uint16"},{"name":"maxTotalPool","type":"uint256","internalType":"uint256"},{"name":"timeDecayBps","type":"uint16","internalType":"uint16"}]},{"name":"isProtocolMarket","type":"bool","internalType":"bool"}]}],"outputs":[{"name":"","type":"address","internalType":"address"}],"stateMutability":"nonpayable"},{"type":"function","name":"createProtocolMarket","inputs":[{"name":"p","type":"tuple","internalType":"struct MarketTypes.MarketParams","components":[{"name":"title","type":"string","internalType":"string"},{"name":"description","type":"string","internalType":"string"},{"name":"subject","type":"tuple","internalType":"struct MarketTypes.SubjectParams","components":[{"name":"kind","type":"uint8","internalType":"enum MarketTypes.SubjectKind"},{"name":"metricId","type":"bytes32","internalType":"bytes32"},{"name":"tokenIdentifier","type":"string","internalType":"string"},{"name":"valueDecimals","type":"uint8","internalType":"uint8"}]},{"name":"predicate","type":"tuple","internalType":"struct MarketTypes.PredicateParams","components":[{"name":"op","type":"uint8","internalType":"enum MarketTypes.PredicateOp"},{"name":"threshold","type":"int256","internalType":"int256"}]},{"name":"window","type":"tuple","internalType":"struct MarketTypes.WindowParams","components":[{"name":"kind","type":"uint8","internalType":"enum MarketTypes.WindowKind"},{"name":"tStart","type":"uint64","internalType":"uint64"},{"name":"tEnd","type":"uint64","internalType":"uint64"}]},{"name":"oracle","type":"tuple","internalType":"struct MarketTypes.OracleSpec","components":[{"name":"primarySourceId","type":"bytes32","internalType":"bytes32"},{"name":"fallbackSourceId","type":"bytes32","internalType":"bytes32"},{"name":"roundingDecimals","type":"uint8","internalType":"uint8"}]},{"name":"cutoffTime","type":"uint64","internalType":"uint64"},{"name":"creator","type":"address","internalType":"address"},{"name":"econ","type":"tuple","internalType":"struct MarketTypes.Economics","components":[{"name":"feeBps","type":"uint16","internalType":"uint16"},{"name":"creatorFeeShareBps","type":"uint16","internalType":"uint16"},{"name":"maxTotalPool","type":"uint256","internalType":"uint256"},{"name":"timeDecayBps","type":"uint16","internalType":"uint16"}]},{"name":"isProtocolMarket","type":"bool","internalType":"bool"}]},{"name":"_marketType","type":"uint8","internalType":"enum MarketFactory.MarketType"},{"name":"liquidityAmount","type":"uint256","internalType":"uint256"}],"outputs":[{"name":"","type":"address","internalType":"address"}],"stateMutability":"nonpayable"},{"type":"function","name":"creatorLockedStake","inputs":[{"name":"","type":"address","internalType":"address"}],"outputs":[{"name":"","type":"uint256","internalType":"uint256"}],"stateMutability":"view"},{"type":"function","name":"marketCreator","inputs":[{"name":"","type":"address","internalType":"address"}],"outputs":[{"name":"","type":"address","internalType":"address"}],"stateMutability":"view"},{"type":"function","name":"marketType","inputs":[{"name":"","type":"address","internalType":"address"}],"outputs":[{"name":"","type":"uint8","internalType":"enum MarketFactory.MarketType"}],"stateMutability":"view"},{"type":"function","name":"minCPMMLiquidity","inputs":[],"outputs":[{"name":"","type":"uint256","internalType":"uint256"}],"stateMutability":"view"},{"type":"function","name":"oracle","inputs":[],"outputs":[{"name":"","type":"address","internalType":"address"}],"stateMutability":"view"},{"type":"function","name":"owner","inputs":[],"outputs":[{"name":"","type":"address","internalType":"address"}],"stateMutability":"view"},{"type":"function","name":"parimutuelImplementation","inputs":[],"outputs":[{"name":"","type":"address","internalType":"address"}],"stateMutability":"view"},{"type":"function","name":"protocolMarkets","inputs":[{"name":"","type":"address","internalType":"address"}],"outputs":[{"name":"","type":"bool","internalType":"bool"}],"stateMutability":"view"},{"type":"function","name":"releaseStake","inputs":[{"name":"market","type":"address","internalType":"address"}],"outputs":[],"stateMutability":"nonpayable"},{"type":"function","name":"renounceOwnership","inputs":[],"outputs":[],"stateMutability":"nonpayable"},{"type":"function","name":"setCPMMImplementation","inputs":[{"name":"_implementation","type":"address","internalType":"address"}],"outputs":[],"stateMutability":"nonpayable"},{"type":"function","name":"setImplementation","inputs":[{"name":"_implementation","type":"address","internalType":"address"}],"outputs":[],"stateMutability":"nonpayable"},{"type":"function","name":"setMinCPMMLiquidity","inputs":[{"name":"_minLiquidity","type":"uint256","internalType":"uint256"}],"outputs":[],"stateMutability":"nonpayable"},{"type":"function","name":"setOracle","inputs":[{"name":"_oracle","type":"address","internalType":"address"}],"outputs":[],"stateMutability":"nonpayable"},{"type":"function","name":"setParimutuelImplementation","inputs":[{"name":"_implementation","type":"address","internalType":"address"}],"outputs":[],"stateMutability":"nonpayable"},{"type":"function","name":"setTreasury","inputs":[{"name":"_treasury","type":"address","internalType":"address"}],"outputs":[],"stateMutability":"nonpayable"},{"type":"function","name":"stHYPE","inputs":[],"outputs":[{"name":"","type":"address","internalType":"contract IstHYPE"}],"stateMutability":"view"},{"type":"function","name":"stakeToken","inputs":[],"outputs":[{"name":"","type":"address","internalType":"contract IERC20"}],"stateMutability":"view"},{"type":"function","name":"transferOwnership","inputs":[{"name":"newOwner","type":"address","internalType":"address"}],"outputs":[],"stateMutability":"nonpayable"},{"type":"function","name":"treasury","inputs":[],"outputs":[{"name":"","type":"address","internalType":"address"}],"stateMutability":"view"},{"type":"event","name":"MarketCreated","inputs":[{"name":"market","type":"address","indexed":true,"internalType":"address"},{"name":"creator","type":"address","indexed":true,"internalType":"address"},{"name":"marketType","type":"uint8","indexed":true,"internalType":"enum MarketFactory.MarketType"},{"name":"params","type":"tuple","indexed":false,"internalType":"struct MarketTypes.MarketParams","components":[{"name":"title","type":"string","internalType":"string"},{"name":"description","type":"string","internalType":"string"},{"name":"subject","type":"tuple","internalType":"struct MarketTypes.SubjectParams","components":[{"name":"kind","type":"uint8","internalType":"enum MarketTypes.SubjectKind"},{"name":"metricId","type":"bytes32","internalType":"bytes32"},{"name":"tokenIdentifier","type":"string","internalType":"string"},{"name":"valueDecimals","type":"uint8","internalType":"uint8"}]},{"name":"predicate","type":"tuple","internalType":"struct MarketTypes.PredicateParams","components":[{"name":"op","type":"uint8","internalType":"enum MarketTypes.PredicateOp"},{"name":"threshold","type":"int256","internalType":"int256"}]},{"name":"window","type":"tuple","internalType":"struct MarketTypes.WindowParams","components":[{"name":"kind","type":"uint8","internalType":"enum MarketTypes.WindowKind"},{"name":"tStart","type":"uint64","internalType":"uint64"},{"name":"tEnd","type":"uint64","internalType":"uint64"}]},{"name":"oracle","type":"tuple","internalType":"struct MarketTypes.OracleSpec","components":[{"name":"primarySourceId","type":"bytes32","internalType":"bytes32"},{"name":"fallbackSourceId","type":"bytes32","internalType":"bytes32"},{"name":"roundingDecimals","type":"uint8","internalType":"uint8"}]},{"name":"cutoffTime","type":"uint64","internalType":"uint64"},{"name":"creator","type":"address","internalType":"address"},{"name":"econ","type":"tuple","internalType":"struct MarketTypes.Economics","components":[{"name":"feeBps","type":"uint16","internalType":"uint16"},{"name":"creatorFeeShareBps","type":"uint16","internalType":"uint16"},{"name":"maxTotalPool","type":"uint256","internalType":"uint256"},{"name":"timeDecayBps","type":"uint16","internalType":"uint16"}]},{"name":"isProtocolMarket","type":"bool","internalType":"bool"}]}],"anonymous":false},{"type":"event","name":"MinCPMMLiquidityUpdated","inputs":[{"name":"newMinLiquidity","type":"uint256","indexed":false,"internalType":"uint256"}],"anonymous":false},{"type":"event","name":"OwnershipTransferred","inputs":[{"name":"previousOwner","type":"address","indexed":true,"internalType":"address"},{"name":"newOwner","type":"address","indexed":true,"internalType":"address"}],"anonymous":false},{"type":"event","name":"StakeLocked","inputs":[{"name":"creator","type":"address","indexed":true,"internalType":"address"},{"name":"market","type":"address","indexed":true,"internalType":"address"},{"name":"amount","type":"uint256","indexed":false,"internalType":"uint256"}],"anonymous":false},{"type":"event","name":"StakeReleased","inputs":[{"name":"creator","type":"address","indexed":true,"internalType":"address"},{"name":"market","type":"address","indexed":true,"internalType":"address"},{"name":"amount","type":"uint256","indexed":false,"internalType":"uint256"}],"anonymous":false},{"type":"error","name":"FailedDeployment","inputs":[]},{"type":"error","name":"InsufficientBalance","inputs":[{"name":"balance","type":"uint256","internalType":"uint256"},{"name":"needed","type":"uint256","internalType":"uint256"}]},{"type":"error","name":"OwnableInvalidOwner","inputs":[{"name":"owner","type":"address","internalType":"address"}]},{"type":"error","name":"OwnableUnauthorizedAccount","inputs":[{"name":"account","type":"address","internalType":"address"}]},{"type":"error","name":"SafeERC20FailedOperation","inputs":[{"name":"token","type":"address","internalType":"address"}]}],"bytecode":{"object":"0x6080604052633b9aca00600755348015610017575f5ffd5b5060405161232238038061232283398101604081905261003691610122565b338061005b57604051631e4fbdf760e01b81525f600482015260240160405180910390fd5b610064816100b8565b50600180546001600160a01b039586166001600160a01b0319918216179091556002805494861694821694909417909355600380549285169284169290921790915560048054919093169116179055610173565b5f80546001600160a01b038381166001600160a01b0319831681178455604051919092169283917f8be0079c531659141344cd1fd0a4f28419497f9722a3daafe3b4186f6b6457e09190a35050565b80516001600160a01b038116811461011d575f5ffd5b919050565b5f5f5f5f60808587031215610135575f5ffd5b61013e85610107565b935061014c60208601610107565b925061015a60408601610107565b915061016860608601610107565b905092959194509250565b6121a2806101805f395ff3fe608060405234801561000f575f5ffd5b50600436106101a1575f3560e01c806379bc8944116100f3578063c2c5f5d511610093578063d784d4261161006e578063d784d42614610331578063de0e2482146103c8578063f0f44260146103db578063f2fde38b146103ee575f5ffd5b8063c2c5f5d514610386578063c4b1d935146103a5578063cd02751f146103b5575f5ffd5b80638da5cb5b116100ce5780638da5cb5b14610321578063a394f6f314610331578063b00c0c6414610344578063c2616a4014610373575f5ffd5b806379bc8944146102e85780637adbf973146102fb5780637dc0d1d01461030e575f5ffd5b8063490740e81161015e5780635c1f6580116101395780635c1f6580146102a357806361d027b3146102b65780636a3e8c87146102c9578063715018a6146102e0575f5ffd5b8063490740e81461026a5780634d0e7f021461027d57806351ed6a3014610290575f5ffd5b8063013beb71146101a55780630555bf97146101d55780630bf603f8146101ea5780631252b4af146101fd57806332d2e0001461022f5780633edfef9e14610242575b5f5ffd5b6101b86101b3366004611bdc565b610401565b6040516001600160a01b0390911681526020015b60405180910390f35b6101e86101e3366004611c31565b61050b565b005b6101e86101f8366004611c48565b6105b2565b61021f61020b366004611c48565b600a6020525f908152604090205460ff1681565b60405190151581526020016101cc565b6101b861023d366004611c61565b6105dc565b6101b8610250366004611c48565b60086020525f90815260409020546001600160a01b031681565b6101e8610278366004611c48565b6105ee565b6005546101b8906001600160a01b031681565b6001546101b8906001600160a01b031681565b6101b86102b1366004611c9a565b610959565b6003546101b8906001600160a01b031681565b6102d260075481565b6040519081526020016101cc565b6101e861096d565b6101b86102f6366004611cdb565b610980565b6101e8610309366004611c48565b610a3c565b6004546101b8906001600160a01b031681565b5f546001600160a01b03166101b8565b6101e861033f366004611c48565b610a66565b610366610352366004611c48565b600b6020525f908152604090205460ff1681565b6040516101cc9190611d80565b6101b8610381366004611bdc565b610a90565b6102d2610394366004611c48565b60096020525f908152604090205481565b6102d2683635c9adc5dea0000081565b6002546101b8906001600160a01b031681565b6006546101b8906001600160a01b031681565b6101e86103e9366004611c48565b610bfc565b6101e86103fc366004611c48565b610c26565b5f61040a610c63565b5f8084600181111561041e5761041e611d5c565b036104335761042c85610c8f565b9050610440565b61043d8584610e17565b90505b6001600160a01b0381165f908152600a60209081526040808320805460ff1990811660019081179092556008845282852080546001600160a01b03191633179055600b9093529220805487939192169083818111156104a1576104a1611d5c565b02179055508360018111156104b8576104b8611d5c565b336001600160a01b0316826001600160a01b03167f42aef77cc0e09470c12f8efcfff13b28d804964ef7ee333f04c14e4e08d6c791886040516104fb9190611f7f565b60405180910390a4949350505050565b610513610c63565b5f81116105775760405162461bcd60e51b815260206004820152602760248201527f4d696e206c6971756964697479206d7573742062652067726561746572207468604482015266616e207a65726f60c81b60648201526084015b60405180910390fd5b60078190556040518181527ff15f1e9da67c79bfcb29756c2ed987b51853d29a6521bced9443c9e828175e219060200160405180910390a150565b6105ba610c63565b600680546001600160a01b0319166001600160a01b0392909216919091179055565b5f6105e8825f5f610a90565b92915050565b6001600160a01b038181165f90815260086020526040902054166106475760405162461bcd60e51b815260206004820152601060248201526f13585c9ad95d081b9bdd08199bdd5b9960821b604482015260640161056e565b6001600160a01b0381165f908152600a602052604090205460ff16156106af5760405162461bcd60e51b815260206004820152601c60248201527f50726f746f636f6c206d61726b657420686173206e6f207374616b6500000000604482015260640161056e565b6001600160a01b0381165f908152600b602052604081205460ff1660018111156106db576106db611d5c565b1461073a5760405162461bcd60e51b815260206004820152602960248201527f4f6e6c7920706172696d757475656c206d61726b657473206861766520737448604482015268595045207374616b6560b81b606482015260840161056e565b6001600160a01b038082165f90815260086020526040902054163381146107985760405162461bcd60e51b81526020600482015260126024820152712737ba1036b0b935b2ba1031b932b0ba37b960711b604482015260640161056e565b816001600160a01b0316633f6fa6556040518163ffffffff1660e01b8152600401602060405180830381865afa1580156107d4573d5f5f3e3d5ffd5b505050506040513d601f19601f820116820180604052508101906107f89190611f91565b61083a5760405162461bcd60e51b815260206004820152601360248201527213585c9ad95d081b9bdd081c995cdbdb1d9959606a1b604482015260640161056e565b6001600160a01b0381165f90815260096020526040902054683635c9adc5dea00000908111156108ac5760405162461bcd60e51b815260206004820152601960248201527f496e73756666696369656e74206c6f636b6564207374616b6500000000000000604482015260640161056e565b6001600160a01b0382165f90815260096020526040812080548392906108d3908490611fc0565b90915550506002546108ef906001600160a01b03168383611095565b6001600160a01b038084165f818152600860205260409081902080546001600160a01b03191690555190918416907fe7d48da3e0f5708add7ea1dc70e975e6451ad87b109a1f3b90616478fe4368549061094c9085815260200190565b60405180910390a3505050565b5f61096683600184610a90565b9392505050565b610975610c63565b61097e5f6110f9565b565b5f8087600181111561099457610994611d5c565b03610a255760025460405163d505accf60e01b8152336004820152306024820152683635c9adc5dea0000060448201526064810187905260ff8616608482015260a4810185905260c481018490526001600160a01b039091169063d505accf9060e4015f604051808303815f87803b158015610a0e575f5ffd5b505af1158015610a20573d5f5f3e3d5ffd5b505050505b610a30888888610a90565b98975050505050505050565b610a44610c63565b600480546001600160a01b0319166001600160a01b0392909216919091179055565b610a6e610c63565b600580546001600160a01b0319166001600160a01b0392909216919091179055565b5f80836001811115610aa457610aa4611d5c565b03610ad6576005546001600160a01b0316610ad15760405162461bcd60e51b815260040161056e90611fd3565b610b79565b6006546001600160a01b0316610b2e5760405162461bcd60e51b815260206004820152601b60248201527f43504d4d20696d706c656d656e746174696f6e206e6f74207365740000000000604482015260640161056e565b600754821015610b795760405162461bcd60e51b8152602060048201526016602482015275496e73756666696369656e74206c697175696469747960501b604482015260640161056e565b5f80846001811115610b8d57610b8d611d5c565b03610ba257610b9b85611148565b9050610baf565b610bac85846114c9565b90505b6001600160a01b0381165f90815260086020908152604080832080546001600160a01b03191633179055600b9091529020805485919060ff1916600183818111156104a1576104a1611d5c565b610c04610c63565b600380546001600160a01b0319166001600160a01b0392909216919091179055565b610c2e610c63565b6001600160a01b038116610c5757604051631e4fbdf760e01b81525f600482015260240161056e565b610c60816110f9565b50565b5f546001600160a01b0316331461097e5760405163118cdaa760e01b815233600482015260240161056e565b6005545f906001600160a01b0316610cb95760405162461bcd60e51b815260040161056e90611fd3565b600554610cce906001600160a01b031661165a565b60015460035460e085015160045460c0870151608088015160208101516040909101519697506001600160a01b038089169763d171350997821696821695949091169291610d1b91612014565b8960c00151610d2a9190612033565b896101000151604001518a6101000151606001518b60400151604051602001610d539190612052565b604051602081830303815290604052805190602001208c60600151604051602001610d7e9190612064565b604051602081830303815290604052805190602001208d60800151604051602001610da99190612072565b604051602081830303815290604052805190602001206040518c63ffffffff1660e01b8152600401610de59b9a99989796959493929190612080565b5f604051808303815f87803b158015610dfc575f5ffd5b505af1158015610e0e573d5f5f3e3d5ffd5b50505050919050565b6006545f906001600160a01b0316610e715760405162461bcd60e51b815260206004820152601b60248201527f43504d4d20696d706c656d656e746174696f6e206e6f74207365740000000000604482015260640161056e565b600754821015610ebc5760405162461bcd60e51b8152602060048201526016602482015275496e73756666696369656e74206c697175696469747960501b604482015260640161056e565b6001546040516370a0823160e01b815233600482015283916001600160a01b0316906370a0823190602401602060405180830381865afa158015610f02573d5f5f3e3d5ffd5b505050506040513d601f19601f82011682018060405250810190610f2691906120f2565b1015610f745760405162461bcd60e51b815260206004820152601d60248201527f496e73756666696369656e742070726f746f636f6c2062616c616e6365000000604482015260640161056e565b600154610f8c906001600160a01b0316333085611665565b600654610fa1906001600160a01b031661165a565b60015460405163095ea7b360e01b81526001600160a01b0380841660048301526024820186905292935091169063095ea7b3906044016020604051808303815f875af1158015610ff3573d5f5f3e3d5ffd5b505050506040513d601f19601f820116820180604052508101906110179190611f91565b5060015460035460048054600754604051634944763360e01b81526001600160a01b0380881696634944763396611062968c969284169591841694929093169230928c929101612109565b5f604051808303815f87803b158015611079575f5ffd5b505af115801561108b573d5f5f3e3d5ffd5b5050505092915050565b6040516001600160a01b038381166024830152604482018390526110f491859182169063a9059cbb906064015b604051602081830303815290604052915060e01b6020820180516001600160e01b0383818316178352505050506116a4565b505050565b5f80546001600160a01b038381166001600160a01b0319831681178455604051919092169283917f8be0079c531659141344cd1fd0a4f28419497f9722a3daafe3b4186f6b6457e09190a35050565b6002546040516370a0823160e01b81523360048201525f91683635c9adc5dea00000916001600160a01b03909116906370a0823190602401602060405180830381865afa15801561119b573d5f5f3e3d5ffd5b505050506040513d601f19601f820116820180604052508101906111bf91906120f2565b101561120d5760405162461bcd60e51b815260206004820152601b60248201527f496e73756666696369656e74207374485950452062616c616e63650000000000604482015260640161056e565b600254604051636eb1769f60e11b8152336004820152306024820152683635c9adc5dea00000916001600160a01b03169063dd62ed3e90604401602060405180830381865afa158015611262573d5f5f3e3d5ffd5b505050506040513d601f19601f8201168201806040525081019061128691906120f2565b10156112d45760405162461bcd60e51b815260206004820152601d60248201527f496e73756666696369656e742073744859504520616c6c6f77616e6365000000604482015260640161056e565b6002546112f5906001600160a01b03163330683635c9adc5dea00000611665565b60055461130a906001600160a01b031661165a565b60015460035460e085015160045460c0870151608088015160208101516040909101519697506001600160a01b038089169763d17135099782169682169594909116929161135791612014565b8960c001516113669190612033565b896101000151604001518a6101000151606001518b6040015160405160200161138f9190612052565b604051602081830303815290604052805190602001208c606001516040516020016113ba9190612064565b604051602081830303815290604052805190602001208d608001516040516020016113e59190612072565b604051602081830303815290604052805190602001206040518c63ffffffff1660e01b81526004016114219b9a99989796959493929190612080565b5f604051808303815f87803b158015611438575f5ffd5b505af115801561144a573d5f5f3e3d5ffd5b5050335f9081526009602052604081208054683635c9adc5dea000009450909250611476908490612159565b9091555050604051683635c9adc5dea0000081526001600160a01b0382169033907f82358c8f3a8a41c7cae8a1196ae5106f7b58ce60eb38b7bc6fe3086d079d2a4e9060200160405180910390a3919050565b6001546040516370a0823160e01b81523360048201525f9183916001600160a01b03909116906370a0823190602401602060405180830381865afa158015611513573d5f5f3e3d5ffd5b505050506040513d601f19601f8201168201806040525081019061153791906120f2565b10156115905760405162461bcd60e51b815260206004820152602260248201527f496e73756666696369656e742062616c616e636520666f72206c697175696469604482015261747960f01b606482015260840161056e565b600154604051636eb1769f60e11b815233600482015230602482015283916001600160a01b03169063dd62ed3e90604401602060405180830381865afa1580156115dc573d5f5f3e3d5ffd5b505050506040513d601f19601f8201168201806040525081019061160091906120f2565b1015610f745760405162461bcd60e51b8152602060048201526024808201527f496e73756666696369656e7420616c6c6f77616e636520666f72206c697175696044820152636469747960e01b606482015260840161056e565b5f6105e8825f611710565b6040516001600160a01b03848116602483015283811660448301526064820183905261169e9186918216906323b872dd906084016110c2565b50505050565b5f5f60205f8451602086015f885af1806116c3576040513d5f823e3d81fd5b50505f513d915081156116da5780600114156116e7565b6001600160a01b0384163b155b1561169e57604051635274afe760e01b81526001600160a01b038516600482015260240161056e565b5f8147101561173b5760405163cf47918160e01b81524760048201526024810183905260440161056e565b763d602d80600a3d3981f3363d3d373d3d3d363d730000008360601b60e81c175f526e5af43d82803e903d91602b57fd5bf38360781b176020526037600983f090506001600160a01b0381166105e85760405163b06ebf3d60e01b815260040160405180910390fd5b634e487b7160e01b5f52604160045260245ffd5b604051608081016001600160401b03811182821017156117da576117da6117a4565b60405290565b604051606081016001600160401b03811182821017156117da576117da6117a4565b60405161014081016001600160401b03811182821017156117da576117da6117a4565b5f82601f830112611834575f5ffd5b81356001600160401b0381111561184d5761184d6117a4565b604051601f8201601f19908116603f011681016001600160401b038111828210171561187b5761187b6117a4565b604052818152838201602001851015611892575f5ffd5b816020850160208301375f918101602001919091529392505050565b60028110610c60575f5ffd5b803560ff811681146118ca575f5ffd5b919050565b5f608082840312156118df575f5ffd5b6118e76117b8565b905081356118f4816118ae565b81526020828101359082015260408201356001600160401b03811115611918575f5ffd5b61192484828501611825565b604083015250611936606083016118ba565b606082015292915050565b5f60408284031215611951575f5ffd5b604080519081016001600160401b0381118282101715611973576119736117a4565b604052905080823560048110611987575f5ffd5b8152602092830135920191909152919050565b80356001600160401b03811681146118ca575f5ffd5b5f606082840312156119c0575f5ffd5b6119c86117e0565b90508135600381106119d8575f5ffd5b81526119e66020830161199a565b60208201526119f76040830161199a565b604082015292915050565b5f60608284031215611a12575f5ffd5b611a1a6117e0565b823581526020808401359082015290506119f7604083016118ba565b80356001600160a01b03811681146118ca575f5ffd5b803561ffff811681146118ca575f5ffd5b5f60808284031215611a6d575f5ffd5b611a756117b8565b9050611a8082611a4c565b8152611a8e60208301611a4c565b60208201526040828101359082015261193660608301611a4c565b8015158114610c60575f5ffd5b80356118ca81611aa9565b5f6102408284031215611ad2575f5ffd5b611ada611802565b905081356001600160401b03811115611af1575f5ffd5b611afd84828501611825565b82525060208201356001600160401b03811115611b18575f5ffd5b611b2484828501611825565b60208301525060408201356001600160401b03811115611b42575f5ffd5b611b4e848285016118cf565b604083015250611b618360608401611941565b6060820152611b738360a084016119b0565b6080820152611b86836101008401611a02565b60a0820152611b98610160830161199a565b60c0820152611baa6101808301611a36565b60e0820152611bbd836101a08401611a5d565b610100820152611bd06102208301611ab6565b61012082015292915050565b5f5f5f60608486031215611bee575f5ffd5b83356001600160401b03811115611c03575f5ffd5b611c0f86828701611ac1565b9350506020840135611c20816118ae565b929592945050506040919091013590565b5f60208284031215611c41575f5ffd5b5035919050565b5f60208284031215611c58575f5ffd5b61096682611a36565b5f60208284031215611c71575f5ffd5b81356001600160401b03811115611c86575f5ffd5b611c9284828501611ac1565b949350505050565b5f5f60408385031215611cab575f5ffd5b82356001600160401b03811115611cc0575f5ffd5b611ccc85828601611ac1565b95602094909401359450505050565b5f5f5f5f5f5f5f60e0888a031215611cf1575f5ffd5b87356001600160401b03811115611d06575f5ffd5b611d128a828b01611ac1565b9750506020880135611d23816118ae565b95506040880135945060608801359350611d3f608089016118ba565b9699959850939692959460a0840135945060c09093013592915050565b634e487b7160e01b5f52602160045260245ffd5b60028110610c6057610c60611d5c565b60208101611d8d83611d70565b91905290565b5f81518084528060208401602086015e5f602082860101526020601f19601f83011685010191505092915050565b5f8151611dcd81611d70565b8084525060208201516020840152604082015160806040850152611df46080850182611d93565b60609384015160ff16949093019390935250919050565b805160048110611e1d57611e1d611d5c565b8252602090810151910152565b805160038110611e3c57611e3c611d5c565b808352506001600160401b0360208201511660208301526001600160401b0360408201511660408301525050565b5f81516102408452611e80610240850182611d93565b905060208301518482036020860152611e998282611d93565b91505060408301518482036040860152611eb38282611dc1565b9150506060830151611ec86060860182611e0b565b506080830151611edb60a0860182611e2a565b5060a083015180516101008601526020810151610120860152604081015160ff166101408601525060c08301516001600160401b0381166101608601525060e08301516001600160a01b03811661018086015250610100830151805161ffff9081166101a0870152602082015181166101c087015260408201516101e087015260608201511661020086015250610120830151801515610220860152509392505050565b602081525f6109666020830184611e6a565b5f60208284031215611fa1575f5ffd5b815161096681611aa9565b634e487b7160e01b5f52601160045260245ffd5b818103818111156105e8576105e8611fac565b60208082526021908201527f506172696d757475656c20696d706c656d656e746174696f6e206e6f742073656040820152601d60fa1b606082015260800190565b6001600160401b0382811682821603908111156105e8576105e8611fac565b6001600160401b0381811683821601908111156105e8576105e8611fac565b602081525f6109666020830184611dc1565b604081016105e88284611e0b565b606081016105e88284611e2a565b6001600160a01b039b8c168152998b1660208b0152978a1660408a01529590981660608801526001600160401b0393841660808801529190921660a086015260c085019190915261ffff1660e08401526101008301939093526101208201929092526101408101919091526101600190565b5f60208284031215612102575f5ffd5b5051919050565b60e081525f61211b60e083018a611e6a565b6001600160a01b039889166020840152968816604083015250938616606085015291909416608083015260a082019390935260c00191909152919050565b808201808211156105e8576105e8611fac56fea26469706673582212204ac046e269faa21ef269e887b9bbe4b23f773cc269d60e2ff55e665d0c32195464736f6c634300081c0033","linkReferences":{}},"methodIdentifiers":{"STAKE_PER_MARKET()":"c4b1d935","cpmmImplementation()":"de0e2482","createCPMMMarket((string,string,(uint8,bytes32,string,uint8),(uint8,int256),(uint8,uint64,uint64),(bytes32,bytes32,uint8),uint64,address,(uint16,uint16,uint256,uint16),bool),uint256)":"5c1f6580","createMarket((string,string,(uint8,bytes32,string,uint8),(uint8,int256),(uint8,uint64,uint64),(bytes32,bytes32,uint8),uint64,address,(uint16,uint16,uint256,uint16),bool),uint8,uint256)":"c2616a40","createMarketWithPermit((string,string,(uint8,bytes32,string,uint8),(uint8,int256),(uint8,uint64,uint64),(bytes32,bytes32,uint8),uint64,address,(uint16,uint16,uint256,uint16),bool),uint8,uint256,uint256,uint8,bytes32,bytes32)":"79bc8944","createParimutuelMarket((string,string,(uint8,bytes32,string,uint8),(uint8,int256),(uint8,uint64,uint64),(bytes32,bytes32,uint8),uint64,address,(uint16,uint16,uint256,uint16),bool))":"32d2e000","createProtocolMarket((string,string,(uint8,bytes32,string,uint8),(uint8,int256),(uint8,uint64,uint64),(bytes32,bytes32,uint8),uint64,address,(uint16,uint16,uint256,uint16),bool),uint8,uint256)":"013beb71","creatorLockedStake(address)":"c2c5f5d5","marketCreator(address)":"3edfef9e","marketType(address)":"b00c0c64","minCPMMLiquidity()":"6a3e8c87","oracle()":"7dc0d1d0","owner()":"8da5cb5b","parimutuelImplementation()":"4d0e7f02","protocolMarkets(address)":"1252b4af","releaseStake(address)":"490740e8","renounceOwnership()":"715018a6","setCPMMImplementation(address)":"0bf603f8","setImplementation(address)":"d784d426","setMinCPMMLiquidity(uint256)":"0555bf97","setOracle(address)":"7adbf973","setParimutuelImplementation(address)":"a394f6f3","setTreasury(address)":"f0f44260","stHYPE()":"cd02751f","stakeToken()":"51ed6a30","transferOwnership(address)":"f2fde38b","treasury()":"61d027b3"},"id":33}