{"abi":[{"type":"constructor","inputs":[{"name":"_stakeToken","type":"address","internalType":"address"},{"name":"_stHYPE","type":"address","internalType":"address"},{"name":"_treasury","type":"address","internalType":"address"},{"name":"_oracle","type":"address","internalType":"address"}],"stateMutability":"nonpayable"},{"type":"function","name":"STAKE_PER_MARKET","inputs":[],"outputs":[{"name":"","type":"uint256","internalType":"uint256"}],"stateMutability":"view"},{"type":"function","name":"createMarket","inputs":[{"name":"p","type":"tuple","internalType":"struct MarketTypes.MarketParams","components":[{"name":"title","type":"string","internalType":"string"},{"name":"description","type":"string","internalType":"string"},{"name":"subject","type":"tuple","internalType":"struct MarketTypes.SubjectParams","components":[{"name":"kind","type":"uint8","internalType":"enum MarketTypes.SubjectKind"},{"name":"metricId","type":"bytes32","internalType":"bytes32"},{"name":"token","type":"address","internalType":"address"},{"name":"valueDecimals","type":"uint8","internalType":"uint8"}]},{"name":"predicate","type":"tuple","internalType":"struct MarketTypes.PredicateParams","components":[{"name":"op","type":"uint8","internalType":"enum MarketTypes.PredicateOp"},{"name":"threshold","type":"int256","internalType":"int256"}]},{"name":"window","type":"tuple","internalType":"struct MarketTypes.WindowParams","components":[{"name":"kind","type":"uint8","internalType":"enum MarketTypes.WindowKind"},{"name":"tStart","type":"uint64","internalType":"uint64"},{"name":"tEnd","type":"uint64","internalType":"uint64"}]},{"name":"oracle","type":"tuple","internalType":"struct MarketTypes.OracleSpec","components":[{"name":"primarySourceId","type":"bytes32","internalType":"bytes32"},{"name":"fallbackSourceId","type":"bytes32","internalType":"bytes32"},{"name":"roundingDecimals","type":"uint8","internalType":"uint8"}]},{"name":"cutoffTime","type":"uint64","internalType":"uint64"},{"name":"creator","type":"address","internalType":"address"},{"name":"econ","type":"tuple","internalType":"struct MarketTypes.Economics","components":[{"name":"feeBps","type":"uint16","internalType":"uint16"},{"name":"creatorFeeShareBps","type":"uint16","internalType":"uint16"},{"name":"maxTotalPool","type":"uint256","internalType":"uint256"}]},{"name":"isProtocolMarket","type":"bool","internalType":"bool"}]}],"outputs":[{"name":"","type":"address","internalType":"address"}],"stateMutability":"nonpayable"},{"type":"function","name":"createMarketWithPermit","inputs":[{"name":"p","type":"tuple","internalType":"struct MarketTypes.MarketParams","components":[{"name":"title","type":"string","internalType":"string"},{"name":"description","type":"string","internalType":"string"},{"name":"subject","type":"tuple","internalType":"struct MarketTypes.SubjectParams","components":[{"name":"kind","type":"uint8","internalType":"enum MarketTypes.SubjectKind"},{"name":"metricId","type":"bytes32","internalType":"bytes32"},{"name":"token","type":"address","internalType":"address"},{"name":"valueDecimals","type":"uint8","internalType":"uint8"}]},{"name":"predicate","type":"tuple","internalType":"struct MarketTypes.PredicateParams","components":[{"name":"op","type":"uint8","internalType":"enum MarketTypes.PredicateOp"},{"name":"threshold","type":"int256","internalType":"int256"}]},{"name":"window","type":"tuple","internalType":"struct MarketTypes.WindowParams","components":[{"name":"kind","type":"uint8","internalType":"enum MarketTypes.WindowKind"},{"name":"tStart","type":"uint64","internalType":"uint64"},{"name":"tEnd","type":"uint64","internalType":"uint64"}]},{"name":"oracle","type":"tuple","internalType":"struct MarketTypes.OracleSpec","components":[{"name":"primarySourceId","type":"bytes32","internalType":"bytes32"},{"name":"fallbackSourceId","type":"bytes32","internalType":"bytes32"},{"name":"roundingDecimals","type":"uint8","internalType":"uint8"}]},{"name":"cutoffTime","type":"uint64","internalType":"uint64"},{"name":"creator","type":"address","internalType":"address"},{"name":"econ","type":"tuple","internalType":"struct MarketTypes.Economics","components":[{"name":"feeBps","type":"uint16","internalType":"uint16"},{"name":"creatorFeeShareBps","type":"uint16","internalType":"uint16"},{"name":"maxTotalPool","type":"uint256","internalType":"uint256"}]},{"name":"isProtocolMarket","type":"bool","internalType":"bool"}]},{"name":"deadline","type":"uint256","internalType":"uint256"},{"name":"v","type":"uint8","internalType":"uint8"},{"name":"r","type":"bytes32","internalType":"bytes32"},{"name":"s","type":"bytes32","internalType":"bytes32"}],"outputs":[{"name":"","type":"address","internalType":"address"}],"stateMutability":"nonpayable"},{"type":"function","name":"createProtocolMarket","inputs":[{"name":"p","type":"tuple","internalType":"struct MarketTypes.MarketParams","components":[{"name":"title","type":"string","internalType":"string"},{"name":"description","type":"string","internalType":"string"},{"name":"subject","type":"tuple","internalType":"struct MarketTypes.SubjectParams","components":[{"name":"kind","type":"uint8","internalType":"enum MarketTypes.SubjectKind"},{"name":"metricId","type":"bytes32","internalType":"bytes32"},{"name":"token","type":"address","internalType":"address"},{"name":"valueDecimals","type":"uint8","internalType":"uint8"}]},{"name":"predicate","type":"tuple","internalType":"struct MarketTypes.PredicateParams","components":[{"name":"op","type":"uint8","internalType":"enum MarketTypes.PredicateOp"},{"name":"threshold","type":"int256","internalType":"int256"}]},{"name":"window","type":"tuple","internalType":"struct MarketTypes.WindowParams","components":[{"name":"kind","type":"uint8","internalType":"enum MarketTypes.WindowKind"},{"name":"tStart","type":"uint64","internalType":"uint64"},{"name":"tEnd","type":"uint64","internalType":"uint64"}]},{"name":"oracle","type":"tuple","internalType":"struct MarketTypes.OracleSpec","components":[{"name":"primarySourceId","type":"bytes32","internalType":"bytes32"},{"name":"fallbackSourceId","type":"bytes32","internalType":"bytes32"},{"name":"roundingDecimals","type":"uint8","internalType":"uint8"}]},{"name":"cutoffTime","type":"uint64","internalType":"uint64"},{"name":"creator","type":"address","internalType":"address"},{"name":"econ","type":"tuple","internalType":"struct MarketTypes.Economics","components":[{"name":"feeBps","type":"uint16","internalType":"uint16"},{"name":"creatorFeeShareBps","type":"uint16","internalType":"uint16"},{"name":"maxTotalPool","type":"uint256","internalType":"uint256"}]},{"name":"isProtocolMarket","type":"bool","internalType":"bool"}]}],"outputs":[{"name":"","type":"address","internalType":"address"}],"stateMutability":"nonpayable"},{"type":"function","name":"creatorLockedStake","inputs":[{"name":"","type":"address","internalType":"address"}],"outputs":[{"name":"","type":"uint256","internalType":"uint256"}],"stateMutability":"view"},{"type":"function","name":"implementation","inputs":[],"outputs":[{"name":"","type":"address","internalType":"address"}],"stateMutability":"view"},{"type":"function","name":"marketCreator","inputs":[{"name":"","type":"address","internalType":"address"}],"outputs":[{"name":"","type":"address","internalType":"address"}],"stateMutability":"view"},{"type":"function","name":"oracle","inputs":[],"outputs":[{"name":"","type":"address","internalType":"address"}],"stateMutability":"view"},{"type":"function","name":"owner","inputs":[],"outputs":[{"name":"","type":"address","internalType":"address"}],"stateMutability":"view"},{"type":"function","name":"protocolMarkets","inputs":[{"name":"","type":"address","internalType":"address"}],"outputs":[{"name":"","type":"bool","internalType":"bool"}],"stateMutability":"view"},{"type":"function","name":"releaseStake","inputs":[{"name":"market","type":"address","internalType":"address"}],"outputs":[],"stateMutability":"nonpayable"},{"type":"function","name":"renounceOwnership","inputs":[],"outputs":[],"stateMutability":"nonpayable"},{"type":"function","name":"setImplementation","inputs":[{"name":"_implementation","type":"address","internalType":"address"}],"outputs":[],"stateMutability":"nonpayable"},{"type":"function","name":"setOracle","inputs":[{"name":"_oracle","type":"address","internalType":"address"}],"outputs":[],"stateMutability":"nonpayable"},{"type":"function","name":"setTreasury","inputs":[{"name":"_treasury","type":"address","internalType":"address"}],"outputs":[],"stateMutability":"nonpayable"},{"type":"function","name":"stHYPE","inputs":[],"outputs":[{"name":"","type":"address","internalType":"contract IstHYPE"}],"stateMutability":"view"},{"type":"function","name":"stakeToken","inputs":[],"outputs":[{"name":"","type":"address","internalType":"contract IERC20"}],"stateMutability":"view"},{"type":"function","name":"transferOwnership","inputs":[{"name":"newOwner","type":"address","internalType":"address"}],"outputs":[],"stateMutability":"nonpayable"},{"type":"function","name":"treasury","inputs":[],"outputs":[{"name":"","type":"address","internalType":"address"}],"stateMutability":"view"},{"type":"event","name":"MarketCreated","inputs":[{"name":"market","type":"address","indexed":true,"internalType":"address"},{"name":"creator","type":"address","indexed":true,"internalType":"address"},{"name":"subject","type":"bytes32","indexed":false,"internalType":"bytes32"},{"name":"predicate","type":"bytes32","indexed":false,"internalType":"bytes32"},{"name":"windowSpec","type":"bytes32","indexed":false,"internalType":"bytes32"},{"name":"isProtocolMarket","type":"bool","indexed":false,"internalType":"bool"}],"anonymous":false},{"type":"event","name":"OwnershipTransferred","inputs":[{"name":"previousOwner","type":"address","indexed":true,"internalType":"address"},{"name":"newOwner","type":"address","indexed":true,"internalType":"address"}],"anonymous":false},{"type":"event","name":"StakeLocked","inputs":[{"name":"creator","type":"address","indexed":true,"internalType":"address"},{"name":"market","type":"address","indexed":true,"internalType":"address"},{"name":"amount","type":"uint256","indexed":false,"internalType":"uint256"}],"anonymous":false},{"type":"event","name":"StakeReleased","inputs":[{"name":"creator","type":"address","indexed":true,"internalType":"address"},{"name":"market","type":"address","indexed":true,"internalType":"address"},{"name":"amount","type":"uint256","indexed":false,"internalType":"uint256"}],"anonymous":false},{"type":"error","name":"FailedDeployment","inputs":[]},{"type":"error","name":"InsufficientBalance","inputs":[{"name":"balance","type":"uint256","internalType":"uint256"},{"name":"needed","type":"uint256","internalType":"uint256"}]},{"type":"error","name":"OwnableInvalidOwner","inputs":[{"name":"owner","type":"address","internalType":"address"}]},{"type":"error","name":"OwnableUnauthorizedAccount","inputs":[{"name":"account","type":"address","internalType":"address"}]},{"type":"error","name":"SafeERC20FailedOperation","inputs":[{"name":"token","type":"address","internalType":"address"}]}],"bytecode":{"object":"0x608060405234801561000f575f5ffd5b5060405161191038038061191083398101604081905261002e9161011a565b338061005357604051631e4fbdf760e01b81525f600482015260240160405180910390fd5b61005c816100b0565b50600180546001600160a01b039586166001600160a01b031991821617909155600280549486169482169490941790935560038054928516928416929092179091556004805491909316911617905561016b565b5f80546001600160a01b038381166001600160a01b0319831681178455604051919092169283917f8be0079c531659141344cd1fd0a4f28419497f9722a3daafe3b4186f6b6457e09190a35050565b80516001600160a01b0381168114610115575f5ffd5b919050565b5f5f5f5f6080858703121561012d575f5ffd5b610136856100ff565b9350610144602086016100ff565b9250610152604086016100ff565b9150610160606086016100ff565b905092959194509250565b611798806101785f395ff3fe608060405234801561000f575f5ffd5b506004361061011c575f3560e01c80637dc0d1d0116100a9578063c4b1d9351161006e578063c4b1d93514610289578063cd02751f14610299578063d784d426146102ac578063f0f44260146102bf578063f2fde38b146102d2575f5ffd5b80637dc0d1d0146102135780638da5cb5b14610226578063af49acad14610236578063af746a2c14610249578063c2c5f5d51461025c575f5ffd5b80635c60da1b116100ef5780635c60da1b146101bf5780635d9b24ab146101d257806361d027b3146101e5578063715018a6146101f85780637adbf97314610200575f5ffd5b80631252b4af146101205780633edfef9e14610157578063490740e81461019757806351ed6a30146101ac575b5f5ffd5b61014261012e3660046110ec565b60086020525f908152604090205460ff1681565b60405190151581526020015b60405180910390f35b61017f6101653660046110ec565b60066020525f90815260409020546001600160a01b031681565b6040516001600160a01b03909116815260200161014e565b6101aa6101a53660046110ec565b6102e5565b005b60015461017f906001600160a01b031681565b60055461017f906001600160a01b031681565b61017f6101e03660046114e9565b6105ca565b60035461017f906001600160a01b031681565b6101aa610883565b6101aa61020e3660046110ec565b610896565b60045461017f906001600160a01b031681565b5f546001600160a01b031661017f565b61017f6102443660046114e9565b6108c0565b61017f610257366004611522565b610d78565b61027b61026a3660046110ec565b60076020525f908152604090205481565b60405190815260200161014e565b61027b683635c9adc5dea0000081565b60025461017f906001600160a01b031681565b6101aa6102ba3660046110ec565b610e16565b6101aa6102cd3660046110ec565b610e40565b6101aa6102e03660046110ec565b610e6a565b6001600160a01b038181165f90815260066020526040902054166103435760405162461bcd60e51b815260206004820152601060248201526f13585c9ad95d081b9bdd08199bdd5b9960821b60448201526064015b60405180910390fd5b6001600160a01b0381165f9081526008602052604090205460ff16156103ab5760405162461bcd60e51b815260206004820152601c60248201527f50726f746f636f6c206d61726b657420686173206e6f207374616b6500000000604482015260640161033a565b6001600160a01b038082165f90815260066020526040902054163381146104095760405162461bcd60e51b81526020600482015260126024820152712737ba1036b0b935b2ba1031b932b0ba37b960711b604482015260640161033a565b816001600160a01b0316633f6fa6556040518163ffffffff1660e01b8152600401602060405180830381865afa158015610445573d5f5f3e3d5ffd5b505050506040513d601f19601f820116820180604052508101906104699190611585565b6104ab5760405162461bcd60e51b815260206004820152601360248201527213585c9ad95d081b9bdd081c995cdbdb1d9959606a1b604482015260640161033a565b6001600160a01b0381165f90815260076020526040902054683635c9adc5dea000009081111561051d5760405162461bcd60e51b815260206004820152601960248201527f496e73756666696369656e74206c6f636b6564207374616b6500000000000000604482015260640161033a565b6001600160a01b0382165f90815260076020526040812080548392906105449084906115b4565b9091555050600254610560906001600160a01b03168383610ea7565b6001600160a01b038084165f818152600660205260409081902080546001600160a01b03191690555190918416907fe7d48da3e0f5708add7ea1dc70e975e6451ad87b109a1f3b90616478fe436854906105bd9085815260200190565b60405180910390a3505050565b5f6105d3610f0b565b6005546001600160a01b03166106245760405162461bcd60e51b8152602060048201526016602482015275125b5c1b195b595b9d185d1a5bdb881b9bdd081cd95d60521b604482015260640161033a565b6005545f9061063b906001600160a01b0316610f37565b60015460035460e086015160045460c0880151608089015160208101516040909101519697506001600160a01b038089169763576e635097821696821695949091169291610688916115c7565b8a60c0015161069791906115e6565b8a6101000151604001518b604001516040516020016106b69190611619565b604051602081830303815290604052805190602001208c606001516040516020016106e19190611663565b604051602081830303815290604052805190602001208d6080015160405160200161070c919061168e565b604051602081830303815290604052805190602001206040518b63ffffffff1660e01b81526004016107479a999897969594939291906116d5565b5f604051808303815f87803b15801561075e575f5ffd5b505af1158015610770573d5f5f3e3d5ffd5b5050506001600160a01b0382165f818152600860209081526040808320805460ff19166001179055600682529182902080546001600160a01b031916339081179091558783015192519094507f07f1df6740c13c2675040bb4b91805874358dbfe0f86cc2bec314d803aa5df9d926107ea92909101611619565b6040516020818303038152906040528051906020012086606001516040516020016108159190611663565b604051602081830303815290604052805190602001208760800151604051602001610840919061168e565b60408051601f19818403018152828252805160209182012094835282019290925290810191909152600160608201526080015b60405180910390a390505b919050565b61088b610f0b565b6108945f610f48565b565b61089e610f0b565b600480546001600160a01b0319166001600160a01b0392909216919091179055565b6005545f906001600160a01b03166109135760405162461bcd60e51b8152602060048201526016602482015275125b5c1b195b595b9d185d1a5bdb881b9bdd081cd95d60521b604482015260640161033a565b6002546040516370a0823160e01b8152336004820152683635c9adc5dea00000916001600160a01b0316906370a0823190602401602060405180830381865afa158015610962573d5f5f3e3d5ffd5b505050506040513d601f19601f820116820180604052508101906109869190611738565b10156109d45760405162461bcd60e51b815260206004820152601b60248201527f496e73756666696369656e74207374485950452062616c616e63650000000000604482015260640161033a565b600254604051636eb1769f60e11b8152336004820152306024820152683635c9adc5dea00000916001600160a01b03169063dd62ed3e90604401602060405180830381865afa158015610a29573d5f5f3e3d5ffd5b505050506040513d601f19601f82011682018060405250810190610a4d9190611738565b1015610a9b5760405162461bcd60e51b815260206004820152601d60248201527f496e73756666696369656e742073744859504520616c6c6f77616e6365000000604482015260640161033a565b600254610abc906001600160a01b03163330683635c9adc5dea00000610f97565b6005545f90610ad3906001600160a01b0316610f37565b60015460035460e086015160045460c0880151608089015160208101516040909101519697506001600160a01b038089169763576e635097821696821695949091169291610b20916115c7565b8a60c00151610b2f91906115e6565b8a6101000151604001518b60400151604051602001610b4e9190611619565b604051602081830303815290604052805190602001208c60600151604051602001610b799190611663565b604051602081830303815290604052805190602001208d60800151604051602001610ba4919061168e565b604051602081830303815290604052805190602001206040518b63ffffffff1660e01b8152600401610bdf9a999897969594939291906116d5565b5f604051808303815f87803b158015610bf6575f5ffd5b505af1158015610c08573d5f5f3e3d5ffd5b505050506001600160a01b0381165f90815260066020908152604080832080546001600160a01b031916339081179091558352600790915281208054683635c9adc5dea000009290610c5b90849061174f565b9091555050604080840151905133916001600160a01b038416917f07f1df6740c13c2675040bb4b91805874358dbfe0f86cc2bec314d803aa5df9d91610ca391602001611619565b604051602081830303815290604052805190602001208660600151604051602001610cce9190611663565b604051602081830303815290604052805190602001208760800151604051602001610cf9919061168e565b60408051601f198184030181528282528051602091820120948352820192909252908101919091525f606082015260800160405180910390a3604051683635c9adc5dea0000081526001600160a01b0382169033907f82358c8f3a8a41c7cae8a1196ae5106f7b58ce60eb38b7bc6fe3086d079d2a4e90602001610873565b60025460405163d505accf60e01b8152336004820152306024820152683635c9adc5dea0000060448201526064810186905260ff8516608482015260a4810184905260c481018390525f916001600160a01b03169063d505accf9060e4015f604051808303815f87803b158015610ded575f5ffd5b505af1158015610dff573d5f5f3e3d5ffd5b50505050610e0c866108c0565b9695505050505050565b610e1e610f0b565b600580546001600160a01b0319166001600160a01b0392909216919091179055565b610e48610f0b565b600380546001600160a01b0319166001600160a01b0392909216919091179055565b610e72610f0b565b6001600160a01b038116610e9b57604051631e4fbdf760e01b81525f600482015260240161033a565b610ea481610f48565b50565b6040516001600160a01b03838116602483015260448201839052610f0691859182169063a9059cbb906064015b604051602081830303815290604052915060e01b6020820180516001600160e01b038381831617835250505050610fd6565b505050565b5f546001600160a01b031633146108945760405163118cdaa760e01b815233600482015260240161033a565b5f610f42825f611042565b92915050565b5f80546001600160a01b038381166001600160a01b0319831681178455604051919092169283917f8be0079c531659141344cd1fd0a4f28419497f9722a3daafe3b4186f6b6457e09190a35050565b6040516001600160a01b038481166024830152838116604483015260648201839052610fd09186918216906323b872dd90608401610ed4565b50505050565b5f5f60205f8451602086015f885af180610ff5576040513d5f823e3d81fd5b50505f513d9150811561100c578060011415611019565b6001600160a01b0384163b155b15610fd057604051635274afe760e01b81526001600160a01b038516600482015260240161033a565b5f8147101561106d5760405163cf47918160e01b81524760048201526024810183905260440161033a565b763d602d80600a3d3981f3363d3d373d3d3d363d730000008360601b60e81c175f526e5af43d82803e903d91602b57fd5bf38360781b176020526037600983f090506001600160a01b038116610f425760405163b06ebf3d60e01b815260040160405180910390fd5b80356001600160a01b038116811461087e575f5ffd5b5f602082840312156110fc575f5ffd5b611105826110d6565b9392505050565b634e487b7160e01b5f52604160045260245ffd5b604051606081016001600160401b03811182821017156111425761114261110c565b60405290565b60405161014081016001600160401b03811182821017156111425761114261110c565b5f82601f83011261117a575f5ffd5b81356001600160401b038111156111935761119361110c565b604051601f8201601f19908116603f011681016001600160401b03811182821017156111c1576111c161110c565b6040528181528382016020018510156111d8575f5ffd5b816020850160208301375f918101602001919091529392505050565b803560ff8116811461087e575f5ffd5b5f60808284031215611214575f5ffd5b604051608081016001600160401b03811182821017156112365761123661110c565b60405290508082356002811061124a575f5ffd5b815260208381013590820152611262604084016110d6565b6040820152611273606084016111f4565b60608201525092915050565b5f6040828403121561128f575f5ffd5b604080519081016001600160401b03811182821017156112b1576112b161110c565b6040529050808235600481106112c5575f5ffd5b8152602092830135920191909152919050565b80356001600160401b038116811461087e575f5ffd5b5f606082840312156112fe575f5ffd5b611306611120565b9050813560038110611316575f5ffd5b8152611324602083016112d8565b6020820152611335604083016112d8565b604082015292915050565b5f60608284031215611350575f5ffd5b611358611120565b82358152602080840135908201529050611335604083016111f4565b803561ffff8116811461087e575f5ffd5b5f60608284031215611395575f5ffd5b61139d611120565b90506113a882611374565b81526113b660208301611374565b602082015260409182013591810191909152919050565b8015158114610ea4575f5ffd5b803561087e816113cd565b5f61028082840312156113f6575f5ffd5b6113fe611148565b905081356001600160401b03811115611415575f5ffd5b6114218482850161116b565b82525060208201356001600160401b0381111561143c575f5ffd5b6114488482850161116b565b60208301525061145b8360408401611204565b604082015261146d8360c0840161127f565b60608201526114808361010084016112ee565b6080820152611493836101608401611340565b60a08201526114a56101c083016112d8565b60c08201526114b76101e083016110d6565b60e08201526114ca836102008401611385565b6101008201526114dd61026083016113da565b61012082015292915050565b5f602082840312156114f9575f5ffd5b81356001600160401b0381111561150e575f5ffd5b61151a848285016113e5565b949350505050565b5f5f5f5f5f60a08688031215611536575f5ffd5b85356001600160401b0381111561154b575f5ffd5b611557888289016113e5565b9550506020860135935061156d604087016111f4565b94979396509394606081013594506080013592915050565b5f60208284031215611595575f5ffd5b8151611105816113cd565b634e487b7160e01b5f52601160045260245ffd5b81810381811115610f4257610f426115a0565b6001600160401b038281168282160390811115610f4257610f426115a0565b6001600160401b038181168382160190811115610f4257610f426115a0565b634e487b7160e01b5f52602160045260245ffd5b815160808201906002811061163057611630611605565b8252602083810151908301526040808401516001600160a01b03169083015260609283015160ff16929091019190915290565b815160408201906004811061167a5761167a611605565b808352506020830151602083015292915050565b81516060820190600381106116a5576116a5611605565b808352506001600160401b0360208401511660208301526001600160401b03604084015116604083015292915050565b6001600160a01b039a8b168152988a1660208a015296891660408901529490971660608701526001600160401b039283166080870152911660a085015260c084015260e08301939093526101008201929092526101208101919091526101400190565b5f60208284031215611748575f5ffd5b5051919050565b80820180821115610f4257610f426115a056fea264697066735822122049ad32d99dbe342592da55a620adff6aec98b402ce2b1924cea8081b8e0d05e364736f6c634300081c0033","linkReferences":{}},"methodIdentifiers":{"STAKE_PER_MARKET()":"c4b1d935","createMarket((string,string,(uint8,bytes32,address,uint8),(uint8,int256),(uint8,uint64,uint64),(bytes32,bytes32,uint8),uint64,address,(uint16,uint16,uint256),bool))":"af49acad","createMarketWithPermit((string,string,(uint8,bytes32,address,uint8),(uint8,int256),(uint8,uint64,uint64),(bytes32,bytes32,uint8),uint64,address,(uint16,uint16,uint256),bool),uint256,uint8,bytes32,bytes32)":"af746a2c","createProtocolMarket((string,string,(uint8,bytes32,address,uint8),(uint8,int256),(uint8,uint64,uint64),(bytes32,bytes32,uint8),uint64,address,(uint16,uint16,uint256),bool))":"5d9b24ab","creatorLockedStake(address)":"c2c5f5d5","implementation()":"5c60da1b","marketCreator(address)":"3edfef9e","oracle()":"7dc0d1d0","owner()":"8da5cb5b","protocolMarkets(address)":"1252b4af","releaseStake(address)":"490740e8","renounceOwnership()":"715018a6","setImplementation(address)":"d784d426","setOracle(address)":"7adbf973","setTreasury(address)":"f0f44260","stHYPE()":"cd02751f","stakeToken()":"51ed6a30","transferOwnership(address)":"f2fde38b","treasury()":"61d027b3"},"id":59}