{"abi":[{"type":"function","name":"claimFromMarket","inputs":[{"name":"market","type":"address","internalType":"address"}],"outputs":[],"stateMutability":"nonpayable"},{"type":"function","name":"claimFromMultiple","inputs":[{"name":"markets","type":"address[]","internalType":"address[]"}],"outputs":[],"stateMutability":"nonpayable"},{"type":"function","name":"depositMultipleWithPermit","inputs":[{"name":"deposits","type":"tuple[]","internalType":"struct MarketRouter.DepositParams[]","components":[{"name":"market","type":"address","internalType":"address"},{"name":"outcome","type":"uint8","internalType":"uint8"},{"name":"amount","type":"uint256","internalType":"uint256"}]},{"name":"totalAmount","type":"uint256","internalType":"uint256"},{"name":"deadline","type":"uint256","internalType":"uint256"},{"name":"v","type":"uint8","internalType":"uint8"},{"name":"r","type":"bytes32","internalType":"bytes32"},{"name":"s","type":"bytes32","internalType":"bytes32"}],"outputs":[],"stateMutability":"nonpayable"},{"type":"function","name":"depositToMarket","inputs":[{"name":"market","type":"address","internalType":"address"},{"name":"outcome","type":"uint8","internalType":"uint8"},{"name":"amount","type":"uint256","internalType":"uint256"}],"outputs":[],"stateMutability":"nonpayable"},{"type":"function","name":"depositToMultiple","inputs":[{"name":"deposits","type":"tuple[]","internalType":"struct MarketRouter.DepositParams[]","components":[{"name":"market","type":"address","internalType":"address"},{"name":"outcome","type":"uint8","internalType":"uint8"},{"name":"amount","type":"uint256","internalType":"uint256"}]}],"outputs":[],"stateMutability":"nonpayable"},{"type":"function","name":"depositWithPermit","inputs":[{"name":"market","type":"address","internalType":"address"},{"name":"outcome","type":"uint8","internalType":"uint8"},{"name":"amount","type":"uint256","internalType":"uint256"},{"name":"deadline","type":"uint256","internalType":"uint256"},{"name":"v","type":"uint8","internalType":"uint8"},{"name":"r","type":"bytes32","internalType":"bytes32"},{"name":"s","type":"bytes32","internalType":"bytes32"}],"outputs":[],"stateMutability":"nonpayable"},{"type":"function","name":"rescueToken","inputs":[{"name":"token","type":"address","internalType":"address"},{"name":"to","type":"address","internalType":"address"},{"name":"amount","type":"uint256","internalType":"uint256"}],"outputs":[],"stateMutability":"nonpayable"},{"type":"event","name":"RouterClaim","inputs":[{"name":"user","type":"address","indexed":true,"internalType":"address"},{"name":"market","type":"address","indexed":true,"internalType":"address"},{"name":"payout","type":"uint256","indexed":false,"internalType":"uint256"}],"anonymous":false},{"type":"event","name":"RouterDeposit","inputs":[{"name":"user","type":"address","indexed":true,"internalType":"address"},{"name":"market","type":"address","indexed":true,"internalType":"address"},{"name":"outcome","type":"uint8","indexed":false,"internalType":"uint8"},{"name":"amount","type":"uint256","indexed":false,"internalType":"uint256"}],"anonymous":false},{"type":"error","name":"SafeERC20FailedOperation","inputs":[{"name":"token","type":"address","internalType":"address"}]}],"bytecode":{"object":"0x6080604052348015600e575f5ffd5b50610e2b8061001c5f395ff3fe608060405234801561000f575f5ffd5b506004361061007a575f3560e01c806386982b1b1161005857806386982b1b146100b9578063c072bcf3146100cc578063e5711e8b146100df578063f824af2f146100f2575f5ffd5b80632bdf6e8b1461007e5780633a888bec14610093578063695ba51e146100a6575b5f5ffd5b61009161008c366004610ada565b610105565b005b6100916100a1366004610b2d565b610192565b6100916100b4366004610b64565b61019e565b6100916100c7366004610bd9565b610356565b6100916100da366004610c15565b610361565b6100916100ed366004610c7d565b61043f565b610091610100366004610caa565b6104ab565b5f5b8181101561018d5761018583838381811061012457610124610d1b565b61013a9260206060909202019081019150610b2d565b84848481811061014c5761014c610d1b565b90506060020160200160208101906101649190610d2f565b85858581811061017657610176610d1b565b905060600201604001356104ec565b600101610107565b505050565b61019b8161062b565b50565b856101e15760405162461bcd60e51b815260206004820152600e60248201526d456d707479206465706f7369747360901b60448201526064015b60405180910390fd5b5f87875f8181106101f4576101f4610d1b565b61020a9260206060909202019081019150610b2d565b6001600160a01b03166351ed6a306040518163ffffffff1660e01b8152600401602060405180830381865afa158015610245573d5f5f3e3d5ffd5b505050506040513d601f19601f820116820180604052508101906102699190610d48565b60405163d505accf60e01b81529091506001600160a01b0382169063d505accf906102a490339030908b908b908b908b908b90600401610d63565b5f604051808303815f87803b1580156102bb575f5ffd5b505af11580156102cd573d5f5f3e3d5ffd5b505f925050505b8781101561034b576103438989838181106102f1576102f1610d1b565b6103079260206060909202019081019150610b2d565b8a8a8481811061031957610319610d1b565b90506060020160200160208101906103319190610d2f565b8b8b8581811061017657610176610d1b565b6001016102d4565b505050505050505050565b61018d8383836104ec565b5f876001600160a01b03166351ed6a306040518163ffffffff1660e01b8152600401602060405180830381865afa15801561039e573d5f5f3e3d5ffd5b505050506040513d601f19601f820116820180604052508101906103c29190610d48565b60405163d505accf60e01b81529091506001600160a01b0382169063d505accf906103fd90339030908b908b908b908b908b90600401610d63565b5f604051808303815f87803b158015610414575f5ffd5b505af1158015610426573d5f5f3e3d5ffd5b505050506104358888886104ec565b5050505050505050565b336001600160a01b038316146104975760405162461bcd60e51b815260206004820152601760248201527f43616e206f6e6c792072657363756520746f2073656c6600000000000000000060448201526064016101d8565b61018d6001600160a01b0384168383610827565b5f5b8181101561018d576104e48383838181106104ca576104ca610d1b565b90506020020160208101906104df9190610b2d565b61062b565b6001016104ad565b5f836001600160a01b03166351ed6a306040518163ffffffff1660e01b8152600401602060405180830381865afa158015610529573d5f5f3e3d5ffd5b505050506040513d601f19601f8201168201806040525081019061054d9190610d48565b90506105646001600160a01b038216333085610886565b6105786001600160a01b03821685846108c5565b6040516306e3834d60e51b815233600482015260ff84166024820152604481018390526001600160a01b0385169063dc7069a0906064015f604051808303815f87803b1580156105c6575f5ffd5b505af11580156105d8573d5f5f3e3d5ffd5b50506040805160ff87168152602081018690526001600160a01b03881693503392507f1ead5fd2001b53026155b6c3c4e8933d55c81d4332ccb2ea234f684efec9f2bf910160405180910390a350505050565b5f816001600160a01b03166351ed6a306040518163ffffffff1660e01b8152600401602060405180830381865afa158015610668573d5f5f3e3d5ffd5b505050506040513d601f19601f8201168201806040525081019061068c9190610d48565b6040516370a0823160e01b81523060048201529091505f906001600160a01b038316906370a0823190602401602060405180830381865afa1580156106d3573d5f5f3e3d5ffd5b505050506040513d601f19601f820116820180604052508101906106f79190610da4565b60405163ddeae03360e01b81523360048201529091506001600160a01b0384169063ddeae033906024015f604051808303815f87803b158015610738575f5ffd5b505af115801561074a573d5f5f3e3d5ffd5b50506040516370a0823160e01b81523060048201525f92506001600160a01b03851691506370a0823190602401602060405180830381865afa158015610792573d5f5f3e3d5ffd5b505050506040513d601f19601f820116820180604052508101906107b69190610da4565b90505f6107c38383610dcf565b90508015610820576107df6001600160a01b0385163383610827565b6040518181526001600160a01b0386169033907fbacdfac815296c94b90abec1fa4edc0867a908a091d5f2d4b7ca6bc1b5f870db9060200160405180910390a35b5050505050565b6040516001600160a01b0383811660248301526044820183905261018d91859182169063a9059cbb906064015b604051602081830303815290604052915060e01b6020820180516001600160e01b03838183161783525050505061094c565b6040516001600160a01b0384811660248301528381166044830152606482018390526108bf9186918216906323b872dd90608401610854565b50505050565b604051636eb1769f60e11b81523060048201526001600160a01b0383811660248301525f919085169063dd62ed3e90604401602060405180830381865afa158015610912573d5f5f3e3d5ffd5b505050506040513d601f19601f820116820180604052508101906109369190610da4565b90506108bf84846109478585610de2565b6109b8565b5f5f60205f8451602086015f885af18061096b576040513d5f823e3d81fd5b50505f513d9150811561098257806001141561098f565b6001600160a01b0384163b155b156108bf57604051635274afe760e01b81526001600160a01b03851660048201526024016101d8565b604080516001600160a01b038416602482015260448082018490528251808303909101815260649091019091526020810180516001600160e01b031663095ea7b360e01b179052610a098482610a47565b6108bf576040516001600160a01b0384811660248301525f6044830152610a3d91869182169063095ea7b390606401610854565b6108bf848261094c565b5f5f5f5f60205f8651602088015f8a5af192503d91505f519050828015610a8657508115610a785780600114610a86565b5f866001600160a01b03163b115b93505050505b92915050565b5f5f83601f840112610aa2575f5ffd5b50813567ffffffffffffffff811115610ab9575f5ffd5b602083019150836020606083028501011115610ad3575f5ffd5b9250929050565b5f5f60208385031215610aeb575f5ffd5b823567ffffffffffffffff811115610b01575f5ffd5b610b0d85828601610a92565b90969095509350505050565b6001600160a01b038116811461019b575f5ffd5b5f60208284031215610b3d575f5ffd5b8135610b4881610b19565b9392505050565b803560ff81168114610b5f575f5ffd5b919050565b5f5f5f5f5f5f5f60c0888a031215610b7a575f5ffd5b873567ffffffffffffffff811115610b90575f5ffd5b610b9c8a828b01610a92565b9098509650506020880135945060408801359350610bbc60608901610b4f565b969995985093969295946080840135945060a09093013592915050565b5f5f5f60608486031215610beb575f5ffd5b8335610bf681610b19565b9250610c0460208501610b4f565b929592945050506040919091013590565b5f5f5f5f5f5f5f60e0888a031215610c2b575f5ffd5b8735610c3681610b19565b9650610c4460208901610b4f565b95506040880135945060608801359350610c6060808901610b4f565b9699959850939692959460a0840135945060c09093013592915050565b5f5f5f60608486031215610c8f575f5ffd5b8335610c9a81610b19565b92506020840135610c0481610b19565b5f5f60208385031215610cbb575f5ffd5b823567ffffffffffffffff811115610cd1575f5ffd5b8301601f81018513610ce1575f5ffd5b803567ffffffffffffffff811115610cf7575f5ffd5b8560208260051b8401011115610d0b575f5ffd5b6020919091019590945092505050565b634e487b7160e01b5f52603260045260245ffd5b5f60208284031215610d3f575f5ffd5b610b4882610b4f565b5f60208284031215610d58575f5ffd5b8151610b4881610b19565b6001600160a01b0397881681529590961660208601526040850193909352606084019190915260ff16608083015260a082015260c081019190915260e00190565b5f60208284031215610db4575f5ffd5b5051919050565b634e487b7160e01b5f52601160045260245ffd5b81810381811115610a8c57610a8c610dbb565b80820180821115610a8c57610a8c610dbb56fea2646970667358221220901bb2a8600afce79bac842be1f80c0e03d48f3e92924f7147c6c297270cea9f64736f6c634300081c0033","linkReferences":{}},"methodIdentifiers":{"claimFromMarket(address)":"3a888bec","claimFromMultiple(address[])":"f824af2f","depositMultipleWithPermit((address,uint8,uint256)[],uint256,uint256,uint8,bytes32,bytes32)":"695ba51e","depositToMarket(address,uint8,uint256)":"86982b1b","depositToMultiple((address,uint8,uint256)[])":"2bdf6e8b","depositWithPermit(address,uint8,uint256,uint256,uint8,bytes32,bytes32)":"c072bcf3","rescueToken(address,address,uint256)":"e5711e8b"},"id":49}