{"abi":[{"type":"constructor","inputs":[{"name":"_stakeToken","type":"address","internalType":"address"},{"name":"_stHYPE","type":"address","internalType":"address"},{"name":"_treasury","type":"address","internalType":"address"},{"name":"_oracle","type":"address","internalType":"address"}],"stateMutability":"nonpayable"},{"type":"function","name":"STAKE_PER_MARKET","inputs":[],"outputs":[{"name":"","type":"uint256","internalType":"uint256"}],"stateMutability":"view"},{"type":"function","name":"cpmmImplementation","inputs":[],"outputs":[{"name":"","type":"address","internalType":"address"}],"stateMutability":"view"},{"type":"function","name":"createCPMMMarket","inputs":[{"name":"p","type":"tuple","internalType":"struct MarketTypes.MarketParams","components":[{"name":"title","type":"string","internalType":"string"},{"name":"description","type":"string","internalType":"string"},{"name":"subject","type":"tuple","internalType":"struct MarketTypes.SubjectParams","components":[{"name":"kind","type":"uint8","internalType":"enum MarketTypes.SubjectKind"},{"name":"metricId","type":"bytes32","internalType":"bytes32"},{"name":"tokenIdentifier","type":"string","internalType":"string"},{"name":"valueDecimals","type":"uint8","internalType":"uint8"}]},{"name":"predicate","type":"tuple","internalType":"struct MarketTypes.PredicateParams","components":[{"name":"op","type":"uint8","internalType":"enum MarketTypes.PredicateOp"},{"name":"threshold","type":"int256","internalType":"int256"}]},{"name":"window","type":"tuple","internalType":"struct MarketTypes.WindowParams","components":[{"name":"kind","type":"uint8","internalType":"enum MarketTypes.WindowKind"},{"name":"tStart","type":"uint64","internalType":"uint64"},{"name":"tEnd","type":"uint64","internalType":"uint64"}]},{"name":"oracle","type":"tuple","internalType":"struct MarketTypes.OracleSpec","components":[{"name":"primarySourceId","type":"bytes32","internalType":"bytes32"},{"name":"fallbackSourceId","type":"bytes32","internalType":"bytes32"},{"name":"roundingDecimals","type":"uint8","internalType":"uint8"}]},{"name":"cutoffTime","type":"uint64","internalType":"uint64"},{"name":"creator","type":"address","internalType":"address"},{"name":"econ","type":"tuple","internalType":"struct MarketTypes.Economics","components":[{"name":"feeBps","type":"uint16","internalType":"uint16"},{"name":"creatorFeeShareBps","type":"uint16","internalType":"uint16"},{"name":"maxTotalPool","type":"uint256","internalType":"uint256"},{"name":"timeDecayBps","type":"uint16","internalType":"uint16"}]},{"name":"isProtocolMarket","type":"bool","internalType":"bool"}]},{"name":"liquidityAmount","type":"uint256","internalType":"uint256"}],"outputs":[{"name":"","type":"address","internalType":"address"}],"stateMutability":"nonpayable"},{"type":"function","name":"createMarket","inputs":[{"name":"p","type":"tuple","internalType":"struct MarketTypes.MarketParams","components":[{"name":"title","type":"string","internalType":"string"},{"name":"description","type":"string","internalType":"string"},{"name":"subject","type":"tuple","internalType":"struct MarketTypes.SubjectParams","components":[{"name":"kind","type":"uint8","internalType":"enum MarketTypes.SubjectKind"},{"name":"metricId","type":"bytes32","internalType":"bytes32"},{"name":"tokenIdentifier","type":"string","internalType":"string"},{"name":"valueDecimals","type":"uint8","internalType":"uint8"}]},{"name":"predicate","type":"tuple","internalType":"struct MarketTypes.PredicateParams","components":[{"name":"op","type":"uint8","internalType":"enum MarketTypes.PredicateOp"},{"name":"threshold","type":"int256","internalType":"int256"}]},{"name":"window","type":"tuple","internalType":"struct MarketTypes.WindowParams","components":[{"name":"kind","type":"uint8","internalType":"enum MarketTypes.WindowKind"},{"name":"tStart","type":"uint64","internalType":"uint64"},{"name":"tEnd","type":"uint64","internalType":"uint64"}]},{"name":"oracle","type":"tuple","internalType":"struct MarketTypes.OracleSpec","components":[{"name":"primarySourceId","type":"bytes32","internalType":"bytes32"},{"name":"fallbackSourceId","type":"bytes32","internalType":"bytes32"},{"name":"roundingDecimals","type":"uint8","internalType":"uint8"}]},{"name":"cutoffTime","type":"uint64","internalType":"uint64"},{"name":"creator","type":"address","internalType":"address"},{"name":"econ","type":"tuple","internalType":"struct MarketTypes.Economics","components":[{"name":"feeBps","type":"uint16","internalType":"uint16"},{"name":"creatorFeeShareBps","type":"uint16","internalType":"uint16"},{"name":"maxTotalPool","type":"uint256","internalType":"uint256"},{"name":"timeDecayBps","type":"uint16","internalType":"uint16"}]},{"name":"isProtocolMarket","type":"bool","internalType":"bool"}]},{"name":"_marketType","type":"uint8","internalType":"enum MarketFactory.MarketType"},{"name":"liquidityAmount","type":"uint256","internalType":"uint256"}],"outputs":[{"name":"","type":"address","internalType":"address"}],"stateMutability":"nonpayable"},{"type":"function","name":"createMarketWithPermit","inputs":[{"name":"p","type":"tuple","internalType":"struct MarketTypes.MarketParams","components":[{"name":"title","type":"string","internalType":"string"},{"name":"description","type":"string","internalType":"string"},{"name":"subject","type":"tuple","internalType":"struct MarketTypes.SubjectParams","components":[{"name":"kind","type":"uint8","internalType":"enum MarketTypes.SubjectKind"},{"name":"metricId","type":"bytes32","internalType":"bytes32"},{"name":"tokenIdentifier","type":"string","internalType":"string"},{"name":"valueDecimals","type":"uint8","internalType":"uint8"}]},{"name":"predicate","type":"tuple","internalType":"struct MarketTypes.PredicateParams","components":[{"name":"op","type":"uint8","internalType":"enum MarketTypes.PredicateOp"},{"name":"threshold","type":"int256","internalType":"int256"}]},{"name":"window","type":"tuple","internalType":"struct MarketTypes.WindowParams","components":[{"name":"kind","type":"uint8","internalType":"enum MarketTypes.WindowKind"},{"name":"tStart","type":"uint64","internalType":"uint64"},{"name":"tEnd","type":"uint64","internalType":"uint64"}]},{"name":"oracle","type":"tuple","internalType":"struct MarketTypes.OracleSpec","components":[{"name":"primarySourceId","type":"bytes32","internalType":"bytes32"},{"name":"fallbackSourceId","type":"bytes32","internalType":"bytes32"},{"name":"roundingDecimals","type":"uint8","internalType":"uint8"}]},{"name":"cutoffTime","type":"uint64","internalType":"uint64"},{"name":"creator","type":"address","internalType":"address"},{"name":"econ","type":"tuple","internalType":"struct MarketTypes.Economics","components":[{"name":"feeBps","type":"uint16","internalType":"uint16"},{"name":"creatorFeeShareBps","type":"uint16","internalType":"uint16"},{"name":"maxTotalPool","type":"uint256","internalType":"uint256"},{"name":"timeDecayBps","type":"uint16","internalType":"uint16"}]},{"name":"isProtocolMarket","type":"bool","internalType":"bool"}]},{"name":"_marketType","type":"uint8","internalType":"enum MarketFactory.MarketType"},{"name":"liquidityAmount","type":"uint256","internalType":"uint256"},{"name":"deadline","type":"uint256","internalType":"uint256"},{"name":"v","type":"uint8","internalType":"uint8"},{"name":"r","type":"bytes32","internalType":"bytes32"},{"name":"s","type":"bytes32","internalType":"bytes32"}],"outputs":[{"name":"","type":"address","internalType":"address"}],"stateMutability":"nonpayable"},{"type":"function","name":"createParimutuelMarket","inputs":[{"name":"p","type":"tuple","internalType":"struct MarketTypes.MarketParams","components":[{"name":"title","type":"string","internalType":"string"},{"name":"description","type":"string","internalType":"string"},{"name":"subject","type":"tuple","internalType":"struct MarketTypes.SubjectParams","components":[{"name":"kind","type":"uint8","internalType":"enum MarketTypes.SubjectKind"},{"name":"metricId","type":"bytes32","internalType":"bytes32"},{"name":"tokenIdentifier","type":"string","internalType":"string"},{"name":"valueDecimals","type":"uint8","internalType":"uint8"}]},{"name":"predicate","type":"tuple","internalType":"struct MarketTypes.PredicateParams","components":[{"name":"op","type":"uint8","internalType":"enum MarketTypes.PredicateOp"},{"name":"threshold","type":"int256","internalType":"int256"}]},{"name":"window","type":"tuple","internalType":"struct MarketTypes.WindowParams","components":[{"name":"kind","type":"uint8","internalType":"enum MarketTypes.WindowKind"},{"name":"tStart","type":"uint64","internalType":"uint64"},{"name":"tEnd","type":"uint64","internalType":"uint64"}]},{"name":"oracle","type":"tuple","internalType":"struct MarketTypes.OracleSpec","components":[{"name":"primarySourceId","type":"bytes32","internalType":"bytes32"},{"name":"fallbackSourceId","type":"bytes32","internalType":"bytes32"},{"name":"roundingDecimals","type":"uint8","internalType":"uint8"}]},{"name":"cutoffTime","type":"uint64","internalType":"uint64"},{"name":"creator","type":"address","internalType":"address"},{"name":"econ","type":"tuple","internalType":"struct MarketTypes.Economics","components":[{"name":"feeBps","type":"uint16","internalType":"uint16"},{"name":"creatorFeeShareBps","type":"uint16","internalType":"uint16"},{"name":"maxTotalPool","type":"uint256","internalType":"uint256"},{"name":"timeDecayBps","type":"uint16","internalType":"uint16"}]},{"name":"isProtocolMarket","type":"bool","internalType":"bool"}]}],"outputs":[{"name":"","type":"address","internalType":"address"}],"stateMutability":"nonpayable"},{"type":"function","name":"createProtocolMarket","inputs":[{"name":"p","type":"tuple","internalType":"struct MarketTypes.MarketParams","components":[{"name":"title","type":"string","internalType":"string"},{"name":"description","type":"string","internalType":"string"},{"name":"subject","type":"tuple","internalType":"struct MarketTypes.SubjectParams","components":[{"name":"kind","type":"uint8","internalType":"enum MarketTypes.SubjectKind"},{"name":"metricId","type":"bytes32","internalType":"bytes32"},{"name":"tokenIdentifier","type":"string","internalType":"string"},{"name":"valueDecimals","type":"uint8","internalType":"uint8"}]},{"name":"predicate","type":"tuple","internalType":"struct MarketTypes.PredicateParams","components":[{"name":"op","type":"uint8","internalType":"enum MarketTypes.PredicateOp"},{"name":"threshold","type":"int256","internalType":"int256"}]},{"name":"window","type":"tuple","internalType":"struct MarketTypes.WindowParams","components":[{"name":"kind","type":"uint8","internalType":"enum MarketTypes.WindowKind"},{"name":"tStart","type":"uint64","internalType":"uint64"},{"name":"tEnd","type":"uint64","internalType":"uint64"}]},{"name":"oracle","type":"tuple","internalType":"struct MarketTypes.OracleSpec","components":[{"name":"primarySourceId","type":"bytes32","internalType":"bytes32"},{"name":"fallbackSourceId","type":"bytes32","internalType":"bytes32"},{"name":"roundingDecimals","type":"uint8","internalType":"uint8"}]},{"name":"cutoffTime","type":"uint64","internalType":"uint64"},{"name":"creator","type":"address","internalType":"address"},{"name":"econ","type":"tuple","internalType":"struct MarketTypes.Economics","components":[{"name":"feeBps","type":"uint16","internalType":"uint16"},{"name":"creatorFeeShareBps","type":"uint16","internalType":"uint16"},{"name":"maxTotalPool","type":"uint256","internalType":"uint256"},{"name":"timeDecayBps","type":"uint16","internalType":"uint16"}]},{"name":"isProtocolMarket","type":"bool","internalType":"bool"}]},{"name":"_marketType","type":"uint8","internalType":"enum MarketFactory.MarketType"},{"name":"liquidityAmount","type":"uint256","internalType":"uint256"}],"outputs":[{"name":"","type":"address","internalType":"address"}],"stateMutability":"nonpayable"},{"type":"function","name":"creatorLockedStake","inputs":[{"name":"","type":"address","internalType":"address"}],"outputs":[{"name":"","type":"uint256","internalType":"uint256"}],"stateMutability":"view"},{"type":"function","name":"marketCreator","inputs":[{"name":"","type":"address","internalType":"address"}],"outputs":[{"name":"","type":"address","internalType":"address"}],"stateMutability":"view"},{"type":"function","name":"marketType","inputs":[{"name":"","type":"address","internalType":"address"}],"outputs":[{"name":"","type":"uint8","internalType":"enum MarketFactory.MarketType"}],"stateMutability":"view"},{"type":"function","name":"oracle","inputs":[],"outputs":[{"name":"","type":"address","internalType":"address"}],"stateMutability":"view"},{"type":"function","name":"owner","inputs":[],"outputs":[{"name":"","type":"address","internalType":"address"}],"stateMutability":"view"},{"type":"function","name":"parimutuelImplementation","inputs":[],"outputs":[{"name":"","type":"address","internalType":"address"}],"stateMutability":"view"},{"type":"function","name":"protocolMarkets","inputs":[{"name":"","type":"address","internalType":"address"}],"outputs":[{"name":"","type":"bool","internalType":"bool"}],"stateMutability":"view"},{"type":"function","name":"releaseStake","inputs":[{"name":"market","type":"address","internalType":"address"}],"outputs":[],"stateMutability":"nonpayable"},{"type":"function","name":"renounceOwnership","inputs":[],"outputs":[],"stateMutability":"nonpayable"},{"type":"function","name":"setCPMMImplementation","inputs":[{"name":"_implementation","type":"address","internalType":"address"}],"outputs":[],"stateMutability":"nonpayable"},{"type":"function","name":"setImplementation","inputs":[{"name":"_implementation","type":"address","internalType":"address"}],"outputs":[],"stateMutability":"nonpayable"},{"type":"function","name":"setOracle","inputs":[{"name":"_oracle","type":"address","internalType":"address"}],"outputs":[],"stateMutability":"nonpayable"},{"type":"function","name":"setParimutuelImplementation","inputs":[{"name":"_implementation","type":"address","internalType":"address"}],"outputs":[],"stateMutability":"nonpayable"},{"type":"function","name":"setTreasury","inputs":[{"name":"_treasury","type":"address","internalType":"address"}],"outputs":[],"stateMutability":"nonpayable"},{"type":"function","name":"stHYPE","inputs":[],"outputs":[{"name":"","type":"address","internalType":"contract IstHYPE"}],"stateMutability":"view"},{"type":"function","name":"stakeToken","inputs":[],"outputs":[{"name":"","type":"address","internalType":"contract IERC20"}],"stateMutability":"view"},{"type":"function","name":"transferOwnership","inputs":[{"name":"newOwner","type":"address","internalType":"address"}],"outputs":[],"stateMutability":"nonpayable"},{"type":"function","name":"treasury","inputs":[],"outputs":[{"name":"","type":"address","internalType":"address"}],"stateMutability":"view"},{"type":"event","name":"MarketCreated","inputs":[{"name":"market","type":"address","indexed":true,"internalType":"address"},{"name":"creator","type":"address","indexed":true,"internalType":"address"},{"name":"marketType","type":"uint8","indexed":true,"internalType":"enum MarketFactory.MarketType"},{"name":"params","type":"tuple","indexed":false,"internalType":"struct MarketTypes.MarketParams","components":[{"name":"title","type":"string","internalType":"string"},{"name":"description","type":"string","internalType":"string"},{"name":"subject","type":"tuple","internalType":"struct MarketTypes.SubjectParams","components":[{"name":"kind","type":"uint8","internalType":"enum MarketTypes.SubjectKind"},{"name":"metricId","type":"bytes32","internalType":"bytes32"},{"name":"tokenIdentifier","type":"string","internalType":"string"},{"name":"valueDecimals","type":"uint8","internalType":"uint8"}]},{"name":"predicate","type":"tuple","internalType":"struct MarketTypes.PredicateParams","components":[{"name":"op","type":"uint8","internalType":"enum MarketTypes.PredicateOp"},{"name":"threshold","type":"int256","internalType":"int256"}]},{"name":"window","type":"tuple","internalType":"struct MarketTypes.WindowParams","components":[{"name":"kind","type":"uint8","internalType":"enum MarketTypes.WindowKind"},{"name":"tStart","type":"uint64","internalType":"uint64"},{"name":"tEnd","type":"uint64","internalType":"uint64"}]},{"name":"oracle","type":"tuple","internalType":"struct MarketTypes.OracleSpec","components":[{"name":"primarySourceId","type":"bytes32","internalType":"bytes32"},{"name":"fallbackSourceId","type":"bytes32","internalType":"bytes32"},{"name":"roundingDecimals","type":"uint8","internalType":"uint8"}]},{"name":"cutoffTime","type":"uint64","internalType":"uint64"},{"name":"creator","type":"address","internalType":"address"},{"name":"econ","type":"tuple","internalType":"struct MarketTypes.Economics","components":[{"name":"feeBps","type":"uint16","internalType":"uint16"},{"name":"creatorFeeShareBps","type":"uint16","internalType":"uint16"},{"name":"maxTotalPool","type":"uint256","internalType":"uint256"},{"name":"timeDecayBps","type":"uint16","internalType":"uint16"}]},{"name":"isProtocolMarket","type":"bool","internalType":"bool"}]}],"anonymous":false},{"type":"event","name":"OwnershipTransferred","inputs":[{"name":"previousOwner","type":"address","indexed":true,"internalType":"address"},{"name":"newOwner","type":"address","indexed":true,"internalType":"address"}],"anonymous":false},{"type":"event","name":"StakeLocked","inputs":[{"name":"creator","type":"address","indexed":true,"internalType":"address"},{"name":"market","type":"address","indexed":true,"internalType":"address"},{"name":"amount","type":"uint256","indexed":false,"internalType":"uint256"}],"anonymous":false},{"type":"event","name":"StakeReleased","inputs":[{"name":"creator","type":"address","indexed":true,"internalType":"address"},{"name":"market","type":"address","indexed":true,"internalType":"address"},{"name":"amount","type":"uint256","indexed":false,"internalType":"uint256"}],"anonymous":false},{"type":"error","name":"FailedDeployment","inputs":[]},{"type":"error","name":"InsufficientBalance","inputs":[{"name":"balance","type":"uint256","internalType":"uint256"},{"name":"needed","type":"uint256","internalType":"uint256"}]},{"type":"error","name":"OwnableInvalidOwner","inputs":[{"name":"owner","type":"address","internalType":"address"}]},{"type":"error","name":"OwnableUnauthorizedAccount","inputs":[{"name":"account","type":"address","internalType":"address"}]},{"type":"error","name":"SafeERC20FailedOperation","inputs":[{"name":"token","type":"address","internalType":"address"}]}],"bytecode":{"object":"0x608060405234801561000f575f5ffd5b5060405161221038038061221083398101604081905261002e9161011a565b338061005357604051631e4fbdf760e01b81525f600482015260240160405180910390fd5b61005c816100b0565b50600180546001600160a01b039586166001600160a01b031991821617909155600280549486169482169490941790935560038054928516928416929092179091556004805491909316911617905561016b565b5f80546001600160a01b038381166001600160a01b0319831681178455604051919092169283917f8be0079c531659141344cd1fd0a4f28419497f9722a3daafe3b4186f6b6457e09190a35050565b80516001600160a01b0381168114610115575f5ffd5b919050565b5f5f5f5f6080858703121561012d575f5ffd5b610136856100ff565b9350610144602086016100ff565b9250610152604086016100ff565b9150610160606086016100ff565b905092959194509250565b612098806101785f395ff3fe608060405234801561000f575f5ffd5b506004361061016d575f3560e01c80637adbf973116100d9578063c2c5f5d511610093578063d784d4261161006e578063d784d426146102d3578063de0e248214610378578063f0f442601461038b578063f2fde38b1461039e575f5ffd5b8063c2c5f5d514610328578063c4b1d93514610355578063cd02751f14610365575f5ffd5b80637adbf9731461029d5780637dc0d1d0146102b05780638da5cb5b146102c3578063a394f6f3146102d3578063b00c0c64146102e6578063c2616a4014610315575f5ffd5b80634d0e7f021161012a5780634d0e7f021461023657806351ed6a30146102495780635c1f65801461025c57806361d027b31461026f578063715018a61461028257806379bc89441461028a575f5ffd5b8063013beb71146101715780630bf603f8146101a15780631252b4af146101b657806332d2e000146101e85780633edfef9e146101fb578063490740e814610223575b5f5ffd5b61018461017f366004611af3565b6103b1565b6040516001600160a01b0390911681526020015b60405180910390f35b6101b46101af366004611b48565b6104bb565b005b6101d86101c4366004611b48565b60096020525f908152604090205460ff1681565b6040519015158152602001610198565b6101846101f6366004611b61565b6104e5565b610184610209366004611b48565b60076020525f90815260409020546001600160a01b031681565b6101b4610231366004611b48565b6104f7565b600554610184906001600160a01b031681565b600154610184906001600160a01b031681565b61018461026a366004611b9a565b610867565b600354610184906001600160a01b031681565b6101b461087b565b610184610298366004611bdb565b61088e565b6101b46102ab366004611b48565b61094a565b600454610184906001600160a01b031681565b5f546001600160a01b0316610184565b6101b46102e1366004611b48565b610974565b6103086102f4366004611b48565b600a6020525f908152604090205460ff1681565b6040516101989190611c80565b610184610323366004611af3565b61099e565b610347610336366004611b48565b60086020525f908152604090205481565b604051908152602001610198565b610347683635c9adc5dea0000081565b600254610184906001600160a01b031681565b600654610184906001600160a01b031681565b6101b4610399366004611b48565b610b11565b6101b46103ac366004611b48565b610b3b565b5f6103ba610b78565b5f808460018111156103ce576103ce611c5c565b036103e3576103dc85610ba4565b90506103f0565b6103ed8584610d2c565b90505b6001600160a01b0381165f908152600960209081526040808320805460ff1990811660019081179092556007845282852080546001600160a01b03191633179055600a90935292208054879391921690838181111561045157610451611c5c565b021790555083600181111561046857610468611c5c565b336001600160a01b0316826001600160a01b03167f42aef77cc0e09470c12f8efcfff13b28d804964ef7ee333f04c14e4e08d6c791886040516104ab9190611e7f565b60405180910390a4949350505050565b6104c3610b78565b600680546001600160a01b0319166001600160a01b0392909216919091179055565b5f6104f1825f5f61099e565b92915050565b6001600160a01b038181165f90815260076020526040902054166105555760405162461bcd60e51b815260206004820152601060248201526f13585c9ad95d081b9bdd08199bdd5b9960821b60448201526064015b60405180910390fd5b6001600160a01b0381165f9081526009602052604090205460ff16156105bd5760405162461bcd60e51b815260206004820152601c60248201527f50726f746f636f6c206d61726b657420686173206e6f207374616b6500000000604482015260640161054c565b6001600160a01b0381165f908152600a602052604081205460ff1660018111156105e9576105e9611c5c565b146106485760405162461bcd60e51b815260206004820152602960248201527f4f6e6c7920706172696d757475656c206d61726b657473206861766520737448604482015268595045207374616b6560b81b606482015260840161054c565b6001600160a01b038082165f90815260076020526040902054163381146106a65760405162461bcd60e51b81526020600482015260126024820152712737ba1036b0b935b2ba1031b932b0ba37b960711b604482015260640161054c565b816001600160a01b0316633f6fa6556040518163ffffffff1660e01b8152600401602060405180830381865afa1580156106e2573d5f5f3e3d5ffd5b505050506040513d601f19601f820116820180604052508101906107069190611e91565b6107485760405162461bcd60e51b815260206004820152601360248201527213585c9ad95d081b9bdd081c995cdbdb1d9959606a1b604482015260640161054c565b6001600160a01b0381165f90815260086020526040902054683635c9adc5dea00000908111156107ba5760405162461bcd60e51b815260206004820152601960248201527f496e73756666696369656e74206c6f636b6564207374616b6500000000000000604482015260640161054c565b6001600160a01b0382165f90815260086020526040812080548392906107e1908490611ec0565b90915550506002546107fd906001600160a01b03168383610fac565b6001600160a01b038084165f818152600760205260409081902080546001600160a01b03191690555190918416907fe7d48da3e0f5708add7ea1dc70e975e6451ad87b109a1f3b90616478fe4368549061085a9085815260200190565b60405180910390a3505050565b5f6108748360018461099e565b9392505050565b610883610b78565b61088c5f611010565b565b5f808760018111156108a2576108a2611c5c565b036109335760025460405163d505accf60e01b8152336004820152306024820152683635c9adc5dea0000060448201526064810187905260ff8616608482015260a4810185905260c481018490526001600160a01b039091169063d505accf9060e4015f604051808303815f87803b15801561091c575f5ffd5b505af115801561092e573d5f5f3e3d5ffd5b505050505b61093e88888861099e565b98975050505050505050565b610952610b78565b600480546001600160a01b0319166001600160a01b0392909216919091179055565b61097c610b78565b600580546001600160a01b0319166001600160a01b0392909216919091179055565b5f808360018111156109b2576109b2611c5c565b036109e4576005546001600160a01b03166109df5760405162461bcd60e51b815260040161054c90611ed3565b610a8e565b6006546001600160a01b0316610a3c5760405162461bcd60e51b815260206004820152601b60248201527f43504d4d20696d706c656d656e746174696f6e206e6f74207365740000000000604482015260640161054c565b683635c9adc5dea00000821015610a8e5760405162461bcd60e51b8152602060048201526016602482015275496e73756666696369656e74206c697175696469747960501b604482015260640161054c565b5f80846001811115610aa257610aa2611c5c565b03610ab757610ab08561105f565b9050610ac4565b610ac185846113e0565b90505b6001600160a01b0381165f90815260076020908152604080832080546001600160a01b03191633179055600a9091529020805485919060ff19166001838181111561045157610451611c5c565b610b19610b78565b600380546001600160a01b0319166001600160a01b0392909216919091179055565b610b43610b78565b6001600160a01b038116610b6c57604051631e4fbdf760e01b81525f600482015260240161054c565b610b7581611010565b50565b5f546001600160a01b0316331461088c5760405163118cdaa760e01b815233600482015260240161054c565b6005545f906001600160a01b0316610bce5760405162461bcd60e51b815260040161054c90611ed3565b600554610be3906001600160a01b0316611571565b60015460035460e085015160045460c0870151608088015160208101516040909101519697506001600160a01b038089169763d171350997821696821695949091169291610c3091611f14565b8960c00151610c3f9190611f33565b896101000151604001518a6101000151606001518b60400151604051602001610c689190611f52565b604051602081830303815290604052805190602001208c60600151604051602001610c939190611f64565b604051602081830303815290604052805190602001208d60800151604051602001610cbe9190611f72565b604051602081830303815290604052805190602001206040518c63ffffffff1660e01b8152600401610cfa9b9a99989796959493929190611f80565b5f604051808303815f87803b158015610d11575f5ffd5b505af1158015610d23573d5f5f3e3d5ffd5b50505050919050565b6006545f906001600160a01b0316610d865760405162461bcd60e51b815260206004820152601b60248201527f43504d4d20696d706c656d656e746174696f6e206e6f74207365740000000000604482015260640161054c565b683635c9adc5dea00000821015610dd85760405162461bcd60e51b8152602060048201526016602482015275496e73756666696369656e74206c697175696469747960501b604482015260640161054c565b6001546040516370a0823160e01b815233600482015283916001600160a01b0316906370a0823190602401602060405180830381865afa158015610e1e573d5f5f3e3d5ffd5b505050506040513d601f19601f82011682018060405250810190610e429190611ff2565b1015610e905760405162461bcd60e51b815260206004820152601d60248201527f496e73756666696369656e742070726f746f636f6c2062616c616e6365000000604482015260640161054c565b600154610ea8906001600160a01b031633308561157c565b600654610ebd906001600160a01b0316611571565b60015460405163095ea7b360e01b81526001600160a01b0380841660048301526024820186905292935091169063095ea7b3906044016020604051808303815f875af1158015610f0f573d5f5f3e3d5ffd5b505050506040513d601f19601f82011682018060405250810190610f339190611e91565b506001546003546004805460405163f355082d60e01b81526001600160a01b038681169563f355082d95610f79958b9592841694918416939092169130918b9101612009565b5f604051808303815f87803b158015610f90575f5ffd5b505af1158015610fa2573d5f5f3e3d5ffd5b5050505092915050565b6040516001600160a01b0383811660248301526044820183905261100b91859182169063a9059cbb906064015b604051602081830303815290604052915060e01b6020820180516001600160e01b0383818316178352505050506115bb565b505050565b5f80546001600160a01b038381166001600160a01b0319831681178455604051919092169283917f8be0079c531659141344cd1fd0a4f28419497f9722a3daafe3b4186f6b6457e09190a35050565b6002546040516370a0823160e01b81523360048201525f91683635c9adc5dea00000916001600160a01b03909116906370a0823190602401602060405180830381865afa1580156110b2573d5f5f3e3d5ffd5b505050506040513d601f19601f820116820180604052508101906110d69190611ff2565b10156111245760405162461bcd60e51b815260206004820152601b60248201527f496e73756666696369656e74207374485950452062616c616e63650000000000604482015260640161054c565b600254604051636eb1769f60e11b8152336004820152306024820152683635c9adc5dea00000916001600160a01b03169063dd62ed3e90604401602060405180830381865afa158015611179573d5f5f3e3d5ffd5b505050506040513d601f19601f8201168201806040525081019061119d9190611ff2565b10156111eb5760405162461bcd60e51b815260206004820152601d60248201527f496e73756666696369656e742073744859504520616c6c6f77616e6365000000604482015260640161054c565b60025461120c906001600160a01b03163330683635c9adc5dea0000061157c565b600554611221906001600160a01b0316611571565b60015460035460e085015160045460c0870151608088015160208101516040909101519697506001600160a01b038089169763d17135099782169682169594909116929161126e91611f14565b8960c0015161127d9190611f33565b896101000151604001518a6101000151606001518b604001516040516020016112a69190611f52565b604051602081830303815290604052805190602001208c606001516040516020016112d19190611f64565b604051602081830303815290604052805190602001208d608001516040516020016112fc9190611f72565b604051602081830303815290604052805190602001206040518c63ffffffff1660e01b81526004016113389b9a99989796959493929190611f80565b5f604051808303815f87803b15801561134f575f5ffd5b505af1158015611361573d5f5f3e3d5ffd5b5050335f9081526008602052604081208054683635c9adc5dea00000945090925061138d90849061204f565b9091555050604051683635c9adc5dea0000081526001600160a01b0382169033907f82358c8f3a8a41c7cae8a1196ae5106f7b58ce60eb38b7bc6fe3086d079d2a4e9060200160405180910390a3919050565b6001546040516370a0823160e01b81523360048201525f9183916001600160a01b03909116906370a0823190602401602060405180830381865afa15801561142a573d5f5f3e3d5ffd5b505050506040513d601f19601f8201168201806040525081019061144e9190611ff2565b10156114a75760405162461bcd60e51b815260206004820152602260248201527f496e73756666696369656e742062616c616e636520666f72206c697175696469604482015261747960f01b606482015260840161054c565b600154604051636eb1769f60e11b815233600482015230602482015283916001600160a01b03169063dd62ed3e90604401602060405180830381865afa1580156114f3573d5f5f3e3d5ffd5b505050506040513d601f19601f820116820180604052508101906115179190611ff2565b1015610e905760405162461bcd60e51b8152602060048201526024808201527f496e73756666696369656e7420616c6c6f77616e636520666f72206c697175696044820152636469747960e01b606482015260840161054c565b5f6104f1825f611627565b6040516001600160a01b0384811660248301528381166044830152606482018390526115b59186918216906323b872dd90608401610fd9565b50505050565b5f5f60205f8451602086015f885af1806115da576040513d5f823e3d81fd5b50505f513d915081156115f15780600114156115fe565b6001600160a01b0384163b155b156115b557604051635274afe760e01b81526001600160a01b038516600482015260240161054c565b5f814710156116525760405163cf47918160e01b81524760048201526024810183905260440161054c565b763d602d80600a3d3981f3363d3d373d3d3d363d730000008360601b60e81c175f526e5af43d82803e903d91602b57fd5bf38360781b176020526037600983f090506001600160a01b0381166104f15760405163b06ebf3d60e01b815260040160405180910390fd5b634e487b7160e01b5f52604160045260245ffd5b604051608081016001600160401b03811182821017156116f1576116f16116bb565b60405290565b604051606081016001600160401b03811182821017156116f1576116f16116bb565b60405161014081016001600160401b03811182821017156116f1576116f16116bb565b5f82601f83011261174b575f5ffd5b81356001600160401b03811115611764576117646116bb565b604051601f8201601f19908116603f011681016001600160401b0381118282101715611792576117926116bb565b6040528181528382016020018510156117a9575f5ffd5b816020850160208301375f918101602001919091529392505050565b60028110610b75575f5ffd5b803560ff811681146117e1575f5ffd5b919050565b5f608082840312156117f6575f5ffd5b6117fe6116cf565b9050813561180b816117c5565b81526020828101359082015260408201356001600160401b0381111561182f575f5ffd5b61183b8482850161173c565b60408301525061184d606083016117d1565b606082015292915050565b5f60408284031215611868575f5ffd5b604080519081016001600160401b038111828210171561188a5761188a6116bb565b60405290508082356004811061189e575f5ffd5b8152602092830135920191909152919050565b80356001600160401b03811681146117e1575f5ffd5b5f606082840312156118d7575f5ffd5b6118df6116f7565b90508135600381106118ef575f5ffd5b81526118fd602083016118b1565b602082015261190e604083016118b1565b604082015292915050565b5f60608284031215611929575f5ffd5b6119316116f7565b8235815260208084013590820152905061190e604083016117d1565b80356001600160a01b03811681146117e1575f5ffd5b803561ffff811681146117e1575f5ffd5b5f60808284031215611984575f5ffd5b61198c6116cf565b905061199782611963565b81526119a560208301611963565b60208201526040828101359082015261184d60608301611963565b8015158114610b75575f5ffd5b80356117e1816119c0565b5f61024082840312156119e9575f5ffd5b6119f1611719565b905081356001600160401b03811115611a08575f5ffd5b611a148482850161173c565b82525060208201356001600160401b03811115611a2f575f5ffd5b611a3b8482850161173c565b60208301525060408201356001600160401b03811115611a59575f5ffd5b611a65848285016117e6565b604083015250611a788360608401611858565b6060820152611a8a8360a084016118c7565b6080820152611a9d836101008401611919565b60a0820152611aaf61016083016118b1565b60c0820152611ac1610180830161194d565b60e0820152611ad4836101a08401611974565b610100820152611ae761022083016119cd565b61012082015292915050565b5f5f5f60608486031215611b05575f5ffd5b83356001600160401b03811115611b1a575f5ffd5b611b26868287016119d8565b9350506020840135611b37816117c5565b929592945050506040919091013590565b5f60208284031215611b58575f5ffd5b6108748261194d565b5f60208284031215611b71575f5ffd5b81356001600160401b03811115611b86575f5ffd5b611b92848285016119d8565b949350505050565b5f5f60408385031215611bab575f5ffd5b82356001600160401b03811115611bc0575f5ffd5b611bcc858286016119d8565b95602094909401359450505050565b5f5f5f5f5f5f5f60e0888a031215611bf1575f5ffd5b87356001600160401b03811115611c06575f5ffd5b611c128a828b016119d8565b9750506020880135611c23816117c5565b95506040880135945060608801359350611c3f608089016117d1565b9699959850939692959460a0840135945060c09093013592915050565b634e487b7160e01b5f52602160045260245ffd5b60028110610b7557610b75611c5c565b60208101611c8d83611c70565b91905290565b5f81518084528060208401602086015e5f602082860101526020601f19601f83011685010191505092915050565b5f8151611ccd81611c70565b8084525060208201516020840152604082015160806040850152611cf46080850182611c93565b60609384015160ff16949093019390935250919050565b805160048110611d1d57611d1d611c5c565b8252602090810151910152565b805160038110611d3c57611d3c611c5c565b808352506001600160401b0360208201511660208301526001600160401b0360408201511660408301525050565b5f81516102408452611d80610240850182611c93565b905060208301518482036020860152611d998282611c93565b91505060408301518482036040860152611db38282611cc1565b9150506060830151611dc86060860182611d0b565b506080830151611ddb60a0860182611d2a565b5060a083015180516101008601526020810151610120860152604081015160ff166101408601525060c08301516001600160401b0381166101608601525060e08301516001600160a01b03811661018086015250610100830151805161ffff9081166101a0870152602082015181166101c087015260408201516101e087015260608201511661020086015250610120830151801515610220860152509392505050565b602081525f6108746020830184611d6a565b5f60208284031215611ea1575f5ffd5b8151610874816119c0565b634e487b7160e01b5f52601160045260245ffd5b818103818111156104f1576104f1611eac565b60208082526021908201527f506172696d757475656c20696d706c656d656e746174696f6e206e6f742073656040820152601d60fa1b606082015260800190565b6001600160401b0382811682821603908111156104f1576104f1611eac565b6001600160401b0381811683821601908111156104f1576104f1611eac565b602081525f6108746020830184611cc1565b604081016104f18284611d0b565b606081016104f18284611d2a565b6001600160a01b039b8c168152998b1660208b0152978a1660408a01529590981660608801526001600160401b0393841660808801529190921660a086015260c085019190915261ffff1660e08401526101008301939093526101208201929092526101408101919091526101600190565b5f60208284031215612002575f5ffd5b5051919050565b60c081525f61201b60c0830189611d6a565b6001600160a01b03978816602084015295871660408301525092851660608401529316608082015260a00191909152919050565b808201808211156104f1576104f1611eac56fea26469706673582212207a66b18c3cff2fc43dfbc5c92148dd9dab1e25409bf8aea54e2bae8e0ca504cc64736f6c634300081c0033","linkReferences":{}},"methodIdentifiers":{"STAKE_PER_MARKET()":"c4b1d935","cpmmImplementation()":"de0e2482","createCPMMMarket((string,string,(uint8,bytes32,string,uint8),(uint8,int256),(uint8,uint64,uint64),(bytes32,bytes32,uint8),uint64,address,(uint16,uint16,uint256,uint16),bool),uint256)":"5c1f6580","createMarket((string,string,(uint8,bytes32,string,uint8),(uint8,int256),(uint8,uint64,uint64),(bytes32,bytes32,uint8),uint64,address,(uint16,uint16,uint256,uint16),bool),uint8,uint256)":"c2616a40","createMarketWithPermit((string,string,(uint8,bytes32,string,uint8),(uint8,int256),(uint8,uint64,uint64),(bytes32,bytes32,uint8),uint64,address,(uint16,uint16,uint256,uint16),bool),uint8,uint256,uint256,uint8,bytes32,bytes32)":"79bc8944","createParimutuelMarket((string,string,(uint8,bytes32,string,uint8),(uint8,int256),(uint8,uint64,uint64),(bytes32,bytes32,uint8),uint64,address,(uint16,uint16,uint256,uint16),bool))":"32d2e000","createProtocolMarket((string,string,(uint8,bytes32,string,uint8),(uint8,int256),(uint8,uint64,uint64),(bytes32,bytes32,uint8),uint64,address,(uint16,uint16,uint256,uint16),bool),uint8,uint256)":"013beb71","creatorLockedStake(address)":"c2c5f5d5","marketCreator(address)":"3edfef9e","marketType(address)":"b00c0c64","oracle()":"7dc0d1d0","owner()":"8da5cb5b","parimutuelImplementation()":"4d0e7f02","protocolMarkets(address)":"1252b4af","releaseStake(address)":"490740e8","renounceOwnership()":"715018a6","setCPMMImplementation(address)":"0bf603f8","setImplementation(address)":"d784d426","setOracle(address)":"7adbf973","setParimutuelImplementation(address)":"a394f6f3","setTreasury(address)":"f0f44260","stHYPE()":"cd02751f","stakeToken()":"51ed6a30","transferOwnership(address)":"f2fde38b","treasury()":"61d027b3"},"id":63}