{"abi":[{"type":"constructor","inputs":[],"stateMutability":"nonpayable"},{"type":"function","name":"cancelAndRefund","inputs":[],"outputs":[],"stateMutability":"nonpayable"},{"type":"function","name":"claim","inputs":[],"outputs":[],"stateMutability":"nonpayable"},{"type":"function","name":"claimed","inputs":[{"name":"","type":"address","internalType":"address"}],"outputs":[{"name":"","type":"bool","internalType":"bool"}],"stateMutability":"view"},{"type":"function","name":"creator","inputs":[],"outputs":[{"name":"","type":"address","internalType":"address"}],"stateMutability":"view"},{"type":"function","name":"creatorFeeShareBps","inputs":[],"outputs":[{"name":"","type":"uint16","internalType":"uint16"}],"stateMutability":"view"},{"type":"function","name":"cutoffTime","inputs":[],"outputs":[{"name":"","type":"uint64","internalType":"uint64"}],"stateMutability":"view"},{"type":"function","name":"deposit","inputs":[{"name":"outcome","type":"uint8","internalType":"uint8"},{"name":"amount","type":"uint256","internalType":"uint256"}],"outputs":[],"stateMutability":"nonpayable"},{"type":"function","name":"emergencyClaim","inputs":[],"outputs":[],"stateMutability":"nonpayable"},{"type":"function","name":"feeBps","inputs":[],"outputs":[{"name":"","type":"uint16","internalType":"uint16"}],"stateMutability":"view"},{"type":"function","name":"feeCollected","inputs":[],"outputs":[{"name":"","type":"uint256","internalType":"uint256"}],"stateMutability":"view"},{"type":"function","name":"ingestResolution","inputs":[{"name":"outcome","type":"uint8","internalType":"uint8"},{"name":"dataHash","type":"bytes32","internalType":"bytes32"}],"outputs":[],"stateMutability":"nonpayable"},{"type":"function","name":"initialize","inputs":[{"name":"_stakeToken","type":"address","internalType":"address"},{"name":"_treasury","type":"address","internalType":"address"},{"name":"_creator","type":"address","internalType":"address"},{"name":"_oracle","type":"address","internalType":"address"},{"name":"_cutoffTime","type":"uint64","internalType":"uint64"},{"name":"_resolveTime","type":"uint64","internalType":"uint64"},{"name":"_maxTotalPool","type":"uint256","internalType":"uint256"},{"name":"_subject","type":"bytes32","internalType":"bytes32"},{"name":"_predicate","type":"bytes32","internalType":"bytes32"},{"name":"_windowSpec","type":"bytes32","internalType":"bytes32"}],"outputs":[],"stateMutability":"nonpayable"},{"type":"function","name":"maxTotalPool","inputs":[],"outputs":[{"name":"","type":"uint256","internalType":"uint256"}],"stateMutability":"view"},{"type":"function","name":"oracle","inputs":[],"outputs":[{"name":"","type":"address","internalType":"address"}],"stateMutability":"view"},{"type":"function","name":"owner","inputs":[],"outputs":[{"name":"","type":"address","internalType":"address"}],"stateMutability":"view"},{"type":"function","name":"pause","inputs":[],"outputs":[],"stateMutability":"nonpayable"},{"type":"function","name":"paused","inputs":[],"outputs":[{"name":"","type":"bool","internalType":"bool"}],"stateMutability":"view"},{"type":"function","name":"pool","inputs":[{"name":"","type":"uint256","internalType":"uint256"}],"outputs":[{"name":"","type":"uint256","internalType":"uint256"}],"stateMutability":"view"},{"type":"function","name":"predicate","inputs":[],"outputs":[{"name":"","type":"bytes32","internalType":"bytes32"}],"stateMutability":"view"},{"type":"function","name":"renounceOwnership","inputs":[],"outputs":[],"stateMutability":"nonpayable"},{"type":"function","name":"resolutionDataHash","inputs":[],"outputs":[{"name":"","type":"bytes32","internalType":"bytes32"}],"stateMutability":"view"},{"type":"function","name":"resolveTime","inputs":[],"outputs":[{"name":"","type":"uint64","internalType":"uint64"}],"stateMutability":"view"},{"type":"function","name":"resolved","inputs":[],"outputs":[{"name":"","type":"bool","internalType":"bool"}],"stateMutability":"view"},{"type":"function","name":"stakeOf","inputs":[{"name":"","type":"address","internalType":"address"},{"name":"","type":"uint256","internalType":"uint256"}],"outputs":[{"name":"","type":"uint256","internalType":"uint256"}],"stateMutability":"view"},{"type":"function","name":"stakeToken","inputs":[],"outputs":[{"name":"","type":"address","internalType":"contract IERC20"}],"stateMutability":"view"},{"type":"function","name":"subject","inputs":[],"outputs":[{"name":"","type":"bytes32","internalType":"bytes32"}],"stateMutability":"view"},{"type":"function","name":"totalPool","inputs":[],"outputs":[{"name":"","type":"uint256","internalType":"uint256"}],"stateMutability":"view"},{"type":"function","name":"transferOwnership","inputs":[{"name":"newOwner","type":"address","internalType":"address"}],"outputs":[],"stateMutability":"nonpayable"},{"type":"function","name":"treasury","inputs":[],"outputs":[{"name":"","type":"address","internalType":"address"}],"stateMutability":"view"},{"type":"function","name":"unpause","inputs":[],"outputs":[],"stateMutability":"nonpayable"},{"type":"function","name":"userInfo","inputs":[{"name":"user","type":"address","internalType":"address"}],"outputs":[{"name":"","type":"uint256[2]","internalType":"uint256[2]"}],"stateMutability":"view"},{"type":"function","name":"windowSpec","inputs":[],"outputs":[{"name":"","type":"bytes32","internalType":"bytes32"}],"stateMutability":"view"},{"type":"function","name":"winningOutcome","inputs":[],"outputs":[{"name":"","type":"uint8","internalType":"uint8"}],"stateMutability":"view"},{"type":"event","name":"Claimed","inputs":[{"name":"user","type":"address","indexed":true,"internalType":"address"},{"name":"payout","type":"uint256","indexed":false,"internalType":"uint256"}],"anonymous":false},{"type":"event","name":"Deposited","inputs":[{"name":"user","type":"address","indexed":true,"internalType":"address"},{"name":"outcome","type":"uint8","indexed":false,"internalType":"uint8"},{"name":"amount","type":"uint256","indexed":false,"internalType":"uint256"}],"anonymous":false},{"type":"event","name":"OwnershipTransferred","inputs":[{"name":"previousOwner","type":"address","indexed":true,"internalType":"address"},{"name":"newOwner","type":"address","indexed":true,"internalType":"address"}],"anonymous":false},{"type":"event","name":"Paused","inputs":[{"name":"account","type":"address","indexed":false,"internalType":"address"}],"anonymous":false},{"type":"event","name":"Resolved","inputs":[{"name":"winningOutcome","type":"uint8","indexed":false,"internalType":"uint8"},{"name":"dataHash","type":"bytes32","indexed":false,"internalType":"bytes32"}],"anonymous":false},{"type":"event","name":"Skimmed","inputs":[{"name":"treasury","type":"address","indexed":false,"internalType":"address"},{"name":"creator","type":"address","indexed":false,"internalType":"address"},{"name":"treasuryFee","type":"uint256","indexed":false,"internalType":"uint256"},{"name":"creatorFee","type":"uint256","indexed":false,"internalType":"uint256"}],"anonymous":false},{"type":"event","name":"Unpaused","inputs":[{"name":"account","type":"address","indexed":false,"internalType":"address"}],"anonymous":false},{"type":"error","name":"EnforcedPause","inputs":[]},{"type":"error","name":"ExpectedPause","inputs":[]},{"type":"error","name":"OwnableInvalidOwner","inputs":[{"name":"owner","type":"address","internalType":"address"}]},{"type":"error","name":"OwnableUnauthorizedAccount","inputs":[{"name":"account","type":"address","internalType":"address"}]},{"type":"error","name":"ReentrancyGuardReentrantCall","inputs":[]},{"type":"error","name":"SafeERC20FailedOperation","inputs":[{"name":"token","type":"address","internalType":"address"}]}],"bytecode":{"object":"0x6080604052348015600e575f5ffd5b503380603357604051631e4fbdf760e01b81525f600482015260240160405180910390fd5b603a816043565b50600180556092565b5f80546001600160a01b038381166001600160a01b0319831681178455604051919092169283917f8be0079c531659141344cd1fd0a4f28419497f9722a3daafe3b4186f6b6457e09190a35050565b6116948061009f5f395ff3fe608060405234801561000f575f5ffd5b50600436106101f2575f3560e01c806362107e8d11610114578063a5f74a5f116100a9578063ed87169c11610079578063ed87169c14610423578063f0be8e5b14610436578063f2fde38b1461043f578063f4d4c9d714610452578063fe31311214610465575f5ffd5b8063a5f74a5f146103dd578063c884ef83146103f0578063e619870514610412578063ecfb49a31461041b575f5ffd5b80637dc0d1d0116100e45780637dc0d1d01461038e5780638456cb59146103a15780638da5cb5b146103a95780639b34ae03146103b9575f5ffd5b806362107e8d146103595780636ca7f95c14610374578063715018a61461037d5780637d071d4f14610385575f5ffd5b80632b8278ca1161018a57806351ed6a301161015a57806351ed6a301461030f578063576e6350146103225780635c975abb1461033557806361d027b314610346575f5ffd5b80632b8278ca146102da5780633f4ba83a146102e25780633f6fa655146102ea5780634e71d92d14610307575f5ffd5b80632009dc65116101c55780632009dc651461028a57806324a9d8531461029457806329827826146102bc5780632a761bd6146102d1575f5ffd5b806302d05d3f146101f657806305ed76c4146102265780630a59a98c146102535780631959a0021461026a575b5f5ffd5b600454610209906001600160a01b031681565b6040516001600160a01b0390911681526020015b60405180910390f35b60065461023a9067ffffffffffffffff1681565b60405167ffffffffffffffff909116815260200161021d565b61025c60085481565b60405190815260200161021d565b61027d610278366004611453565b610478565b60405161021d9190611473565b6102926104c8565b005b6006546102a990600160401b900461ffff1681565b60405161ffff909116815260200161021d565b6006546102a990600160501b900461ffff1681565b61025c60075481565b610292610534565b6102926106b6565b600e546102f79060ff1681565b604051901515815260200161021d565b6102926106c6565b600254610209906001600160a01b031681565b6102926103303660046114ba565b6109fb565b5f54600160a01b900460ff166102f7565b600354610209906001600160a01b031681565b60055461023a90600160a01b900467ffffffffffffffff1681565b61025c60105481565b610292610d28565b61025c600f5481565b600554610209906001600160a01b031681565b610292610d39565b5f546001600160a01b0316610209565b600e546103cb90610100900460ff1681565b60405160ff909116815260200161021d565b6102926103eb366004611562565b610d49565b6102f76103fe366004611453565b60116020525f908152604090205460ff1681565b61025c60095481565b61025c610eda565b61025c61043136600461158a565b610ef0565b61025c600a5481565b61029261044d366004611453565b610f12565b610292610460366004611562565b610f4f565b61025c6104733660046115a4565b611163565b61048061141a565b6001600160a01b0382165f908152600d6020526040908190208151808301928390529160029082845b8154815260200190600101908083116104a95750505050509050919050565b6104d0611179565b600e5460ff161561051b5760405162461bcd60e51b815260206004820152601060248201526f105b1c9958591e481c995cdbdb1d995960821b60448201526064015b60405180910390fd5b600e805461ffff19166102011790556105326111a5565b565b61053c611204565b600e5460ff1680156105585750600e54610100900460ff166002145b6105945760405162461bcd60e51b815260206004820152600d60248201526c139bdd0818d85b98d95b1b1959609a1b6044820152606401610512565b335f9081526011602052604090205460ff16156105e55760405162461bcd60e51b815260206004820152600f60248201526e105b1c9958591e4818db185a5b5959608a1b6044820152606401610512565b335f908152601160209081526040808320805460ff19166001908117909155600d909252822090810154905461061b91906115e3565b90505f81116106605760405162461bcd60e51b8152602060048201526011602482015270139bdd1a1a5b99c81d1bc81c99599d5b99607a1b6044820152606401610512565b600254610677906001600160a01b0316338361122e565b60405181815233907fd8138f8a3f377c5259ca548e70e4c2de94f129f5a11036a15b69513cba2b426a9060200160405180910390a25061053260018055565b6106be611179565b610532611292565b6106ce611204565b600e5460ff1661070f5760405162461bcd60e51b815260206004820152600c60248201526b139bdd081c995cdbdb1d995960a21b6044820152606401610512565b335f9081526011602052604090205460ff16156107605760405162461bcd60e51b815260206004820152600f60248201526e105b1c9958591e4818db185a5b5959608a1b6044820152606401610512565b335f908152600d60205260408120600e54610100900460ff1660028110610789576107896115bb565b015490505f81116107cf5760405162461bcd60e51b815260206004820152601060248201526f4e6f2077696e6e696e67207374616b6560801b6044820152606401610512565b335f908152601160205260408120805460ff19166001179055600e54600b90610100900460ff1660028110610806576108066115bb565b0154600e549091505f90600b9061082690610100900460ff1660016115fc565b60ff1660028110610839576108396115bb565b015490506010545f14801561084d57505f81115b1561095b576006546127109061086e90600160401b900461ffff1683611615565b610878919061162c565b60108190556006545f916127109161089c91600160501b90910461ffff1690611615565b6108a6919061162c565b90505f816010546108b7919061164b565b905080156108dc576003546002546108dc916001600160a01b0391821691168361122e565b81156108ff576004546002546108ff916001600160a01b0391821691168461122e565b600354600454604080516001600160a01b0393841681529290911660208301528101829052606081018390527fddf0efacceac2f6f698db2c43f4ec7f93fd1fffc6a6cbe8f2e56b56e17f5314f9060800160405180910390a150505b5f815f0361096a5750826109a2565b5f60105483610979919061164b565b90505f846109878784611615565b610991919061162c565b905061099d81876115e3565b925050505b6002546109b9906001600160a01b0316338361122e565b60405181815233907fd8138f8a3f377c5259ca548e70e4c2de94f129f5a11036a15b69513cba2b426a9060200160405180910390a25050505061053260018055565b60125460ff1615610a445760405162461bcd60e51b8152602060048201526013602482015272105b1c9958591e481a5b9a5d1a585b1a5e9959606a1b6044820152606401610512565b6001600160a01b038a16610a905760405162461bcd60e51b815260206004820152601360248201527224b73b30b634b21039ba30b5b2903a37b5b2b760691b6044820152606401610512565b6001600160a01b038916610ad95760405162461bcd60e51b815260206004820152601060248201526f496e76616c696420747265617375727960801b6044820152606401610512565b6001600160a01b038816610b215760405162461bcd60e51b815260206004820152600f60248201526e24b73b30b634b21031b932b0ba37b960891b6044820152606401610512565b6001600160a01b038716610b685760405162461bcd60e51b815260206004820152600e60248201526d496e76616c6964206f7261636c6560901b6044820152606401610512565b428667ffffffffffffffff1611610bb75760405162461bcd60e51b815260206004820152601360248201527210dd5d1bd999881d1a5b59481a5b881c185cdd606a1b6044820152606401610512565b8567ffffffffffffffff168567ffffffffffffffff1611610c1a5760405162461bcd60e51b815260206004820152601a60248201527f5265736f6c76652074696d65206265666f7265206375746f66660000000000006044820152606401610512565b5f8411610c5c5760405162461bcd60e51b815260206004820152601060248201526f125b9d985b1a59081b585e081c1bdbdb60821b6044820152606401610512565b60128054600160ff19909116179055600280546001600160a01b03199081166001600160a01b039c8d16179091556003805482169a8c169a909a1790995560048054909916978a169790971790975560058054959098166001600160e01b031990951694909417600160a01b67ffffffffffffffff948516021790965560068054600797909755600893909355600994909455600a92909255911669ffffffffffffffffffff19909216919091176901f400000000000000001761ffff60501b1916607d60531b179055565b610d30611179565b6105325f6112cd565b610d41611179565b6105326111a5565b6005546001600160a01b03163314610d915760405162461bcd60e51b815260206004820152600b60248201526a4f6e6c79206f7261636c6560a81b6044820152606401610512565b60065467ffffffffffffffff16421015610de45760405162461bcd60e51b8152602060048201526014602482015273546f6f206561726c7920746f207265736f6c766560601b6044820152606401610512565b600e5460ff1615610e2a5760405162461bcd60e51b815260206004820152601060248201526f105b1c9958591e481c995cdbdb1d995960821b6044820152606401610512565b60018260ff161115610e705760405162461bcd60e51b815260206004820152600f60248201526e496e76616c6964206f7574636f6d6560881b6044820152606401610512565b600e805460ff84166101000261ffff19909116176001179055600f8190556040517fa22a153b3aaea5b4815053e6f9dd68769c041ac2588276b05574e15495ff1ea890610ece908490849060ff929092168252602082015260400190565b60405180910390a15050565b600c54600b545f91610eeb916115e3565b905090565b600d602052815f5260405f208160028110610f09575f80fd5b01549150829050565b610f1a611179565b6001600160a01b038116610f4357604051631e4fbdf760e01b81525f6004820152602401610512565b610f4c816112cd565b50565b610f5761131c565b610f5f611204565b600554600160a01b900467ffffffffffffffff164210610fb35760405162461bcd60e51b815260206004820152600f60248201526e11195c1bdcda5d1cc818db1bdcd959608a1b6044820152606401610512565b60018260ff161115610ff95760405162461bcd60e51b815260206004820152600f60248201526e496e76616c6964206f7574636f6d6560881b6044820152606401610512565b5f81116110365760405162461bcd60e51b815260206004820152600b60248201526a16995c9bc8185b5bdd5b9d60aa1b6044820152606401610512565b600c54600b545f91839161104a91906115e3565b61105491906115e3565b905060075481111561109c5760405162461bcd60e51b8152602060048201526011602482015270141bdbdb0818d85c08195e18d959591959607a1b6044820152606401610512565b6002546110b4906001600160a01b0316333085611346565b81600b8460ff16600281106110cb576110cb6115bb565b015f8282546110da91906115e3565b9091555050335f908152600d60205260409020829060ff851660028110611103576111036115bb565b015f82825461111291906115e3565b90915550506040805160ff851681526020810184905233917f1d0787aee899a49ef81d0b11da9aca5455b46aefed042a41bd398d74619cab00910160405180910390a25061115f60018055565b5050565b600b8160028110611172575f80fd5b0154905081565b5f546001600160a01b031633146105325760405163118cdaa760e01b8152336004820152602401610512565b6111ad61131c565b5f805460ff60a01b1916600160a01b1790557f62e78cea01bee320cd4e420270b5ea74000d11b0c9f74754ebdbfc544b05a2586111e73390565b6040516001600160a01b03909116815260200160405180910390a1565b60026001540361122757604051633ee5aeb560e01b815260040160405180910390fd5b6002600155565b6040516001600160a01b0383811660248301526044820183905261128d91859182169063a9059cbb906064015b604051602081830303815290604052915060e01b6020820180516001600160e01b038381831617835250505050611385565b505050565b61129a6113f1565b5f805460ff60a01b191690557f5db9ee0a495bf2e6ff9c91a7834c1ba4fdd244a5e8aa4e537bd38aeae4b073aa336111e7565b5f80546001600160a01b038381166001600160a01b0319831681178455604051919092169283917f8be0079c531659141344cd1fd0a4f28419497f9722a3daafe3b4186f6b6457e09190a35050565b5f54600160a01b900460ff16156105325760405163d93c066560e01b815260040160405180910390fd5b6040516001600160a01b03848116602483015283811660448301526064820183905261137f9186918216906323b872dd9060840161125b565b50505050565b5f5f60205f8451602086015f885af1806113a4576040513d5f823e3d81fd5b50505f513d915081156113bb5780600114156113c8565b6001600160a01b0384163b155b1561137f57604051635274afe760e01b81526001600160a01b0385166004820152602401610512565b5f54600160a01b900460ff1661053257604051638dfc202b60e01b815260040160405180910390fd5b60405180604001604052806002906020820280368337509192915050565b80356001600160a01b038116811461144e575f5ffd5b919050565b5f60208284031215611463575f5ffd5b61146c82611438565b9392505050565b6040810181835f5b600281101561149a57815183526020928301929091019060010161147b565b50505092915050565b803567ffffffffffffffff8116811461144e575f5ffd5b5f5f5f5f5f5f5f5f5f5f6101408b8d0312156114d4575f5ffd5b6114dd8b611438565b99506114eb60208c01611438565b98506114f960408c01611438565b975061150760608c01611438565b965061151560808c016114a3565b955061152360a08c016114a3565b999c989b5096999598949794965050505060c08301359260e08101359261010082013592506101209091013590565b803560ff8116811461144e575f5ffd5b5f5f60408385031215611573575f5ffd5b61157c83611552565b946020939093013593505050565b5f5f6040838503121561159b575f5ffd5b61157c83611438565b5f602082840312156115b4575f5ffd5b5035919050565b634e487b7160e01b5f52603260045260245ffd5b634e487b7160e01b5f52601160045260245ffd5b808201808211156115f6576115f66115cf565b92915050565b60ff82811682821603908111156115f6576115f66115cf565b80820281158282048414176115f6576115f66115cf565b5f8261164657634e487b7160e01b5f52601260045260245ffd5b500490565b818103818111156115f6576115f66115cf56fea264697066735822122041329969408ee632464b79ae8e72f49e6e396025cdbdf0eb947b6ee42756f36a64736f6c634300081c0033","linkReferences":{}},"methodIdentifiers":{"cancelAndRefund()":"2009dc65","claim()":"4e71d92d","claimed(address)":"c884ef83","creator()":"02d05d3f","creatorFeeShareBps()":"29827826","cutoffTime()":"62107e8d","deposit(uint8,uint256)":"f4d4c9d7","emergencyClaim()":"2b8278ca","feeBps()":"24a9d853","feeCollected()":"6ca7f95c","ingestResolution(uint8,bytes32)":"a5f74a5f","initialize(address,address,address,address,uint64,uint64,uint256,bytes32,bytes32,bytes32)":"576e6350","maxTotalPool()":"2a761bd6","oracle()":"7dc0d1d0","owner()":"8da5cb5b","pause()":"8456cb59","paused()":"5c975abb","pool(uint256)":"fe313112","predicate()":"e6198705","renounceOwnership()":"715018a6","resolutionDataHash()":"7d071d4f","resolveTime()":"05ed76c4","resolved()":"3f6fa655","stakeOf(address,uint256)":"ed87169c","stakeToken()":"51ed6a30","subject()":"0a59a98c","totalPool()":"ecfb49a3","transferOwnership(address)":"f2fde38b","treasury()":"61d027b3","unpause()":"3f4ba83a","userInfo(address)":"1959a002","windowSpec()":"f0be8e5b","winningOutcome()":"9b34ae03"},"id":60}