{"abi":[{"type":"constructor","inputs":[],"stateMutability":"nonpayable"},{"type":"function","name":"cancelAndRefund","inputs":[],"outputs":[],"stateMutability":"nonpayable"},{"type":"function","name":"claim","inputs":[],"outputs":[],"stateMutability":"nonpayable"},{"type":"function","name":"claimFor","inputs":[{"name":"user","type":"address","internalType":"address"}],"outputs":[],"stateMutability":"nonpayable"},{"type":"function","name":"claimed","inputs":[{"name":"","type":"address","internalType":"address"}],"outputs":[{"name":"","type":"bool","internalType":"bool"}],"stateMutability":"view"},{"type":"function","name":"createdAt","inputs":[],"outputs":[{"name":"","type":"uint64","internalType":"uint64"}],"stateMutability":"view"},{"type":"function","name":"creator","inputs":[],"outputs":[{"name":"","type":"address","internalType":"address"}],"stateMutability":"view"},{"type":"function","name":"creatorFeeShareBps","inputs":[],"outputs":[{"name":"","type":"uint16","internalType":"uint16"}],"stateMutability":"view"},{"type":"function","name":"cutoffTime","inputs":[],"outputs":[{"name":"","type":"uint64","internalType":"uint64"}],"stateMutability":"view"},{"type":"function","name":"deposit","inputs":[{"name":"outcome","type":"uint8","internalType":"uint8"},{"name":"amount","type":"uint256","internalType":"uint256"}],"outputs":[],"stateMutability":"nonpayable"},{"type":"function","name":"depositFor","inputs":[{"name":"user","type":"address","internalType":"address"},{"name":"outcome","type":"uint8","internalType":"uint8"},{"name":"amount","type":"uint256","internalType":"uint256"}],"outputs":[],"stateMutability":"nonpayable"},{"type":"function","name":"emergencyClaim","inputs":[],"outputs":[],"stateMutability":"nonpayable"},{"type":"function","name":"feeBps","inputs":[],"outputs":[{"name":"","type":"uint16","internalType":"uint16"}],"stateMutability":"view"},{"type":"function","name":"feeCollected","inputs":[],"outputs":[{"name":"","type":"uint256","internalType":"uint256"}],"stateMutability":"view"},{"type":"function","name":"getTimeMultiplier","inputs":[],"outputs":[{"name":"","type":"uint256","internalType":"uint256"}],"stateMutability":"view"},{"type":"function","name":"ingestResolution","inputs":[{"name":"outcome","type":"uint8","internalType":"uint8"},{"name":"dataHash","type":"bytes32","internalType":"bytes32"}],"outputs":[],"stateMutability":"nonpayable"},{"type":"function","name":"initialize","inputs":[{"name":"_stakeToken","type":"address","internalType":"address"},{"name":"_treasury","type":"address","internalType":"address"},{"name":"_creator","type":"address","internalType":"address"},{"name":"_oracle","type":"address","internalType":"address"},{"name":"_cutoffTime","type":"uint64","internalType":"uint64"},{"name":"_resolveTime","type":"uint64","internalType":"uint64"},{"name":"_maxTotalPool","type":"uint256","internalType":"uint256"},{"name":"_timeDecayBps","type":"uint16","internalType":"uint16"},{"name":"_subject","type":"bytes32","internalType":"bytes32"},{"name":"_predicate","type":"bytes32","internalType":"bytes32"},{"name":"_windowSpec","type":"bytes32","internalType":"bytes32"}],"outputs":[],"stateMutability":"nonpayable"},{"type":"function","name":"maxTotalPool","inputs":[],"outputs":[{"name":"","type":"uint256","internalType":"uint256"}],"stateMutability":"view"},{"type":"function","name":"oracle","inputs":[],"outputs":[{"name":"","type":"address","internalType":"address"}],"stateMutability":"view"},{"type":"function","name":"owner","inputs":[],"outputs":[{"name":"","type":"address","internalType":"address"}],"stateMutability":"view"},{"type":"function","name":"pause","inputs":[],"outputs":[],"stateMutability":"nonpayable"},{"type":"function","name":"paused","inputs":[],"outputs":[{"name":"","type":"bool","internalType":"bool"}],"stateMutability":"view"},{"type":"function","name":"pool","inputs":[{"name":"","type":"uint256","internalType":"uint256"}],"outputs":[{"name":"","type":"uint256","internalType":"uint256"}],"stateMutability":"view"},{"type":"function","name":"predicate","inputs":[],"outputs":[{"name":"","type":"bytes32","internalType":"bytes32"}],"stateMutability":"view"},{"type":"function","name":"renounceOwnership","inputs":[],"outputs":[],"stateMutability":"nonpayable"},{"type":"function","name":"resolutionDataHash","inputs":[],"outputs":[{"name":"","type":"bytes32","internalType":"bytes32"}],"stateMutability":"view"},{"type":"function","name":"resolveTime","inputs":[],"outputs":[{"name":"","type":"uint64","internalType":"uint64"}],"stateMutability":"view"},{"type":"function","name":"resolved","inputs":[],"outputs":[{"name":"","type":"bool","internalType":"bool"}],"stateMutability":"view"},{"type":"function","name":"stakeOf","inputs":[{"name":"","type":"address","internalType":"address"},{"name":"","type":"uint256","internalType":"uint256"}],"outputs":[{"name":"","type":"uint256","internalType":"uint256"}],"stateMutability":"view"},{"type":"function","name":"stakeToken","inputs":[],"outputs":[{"name":"","type":"address","internalType":"contract IERC20"}],"stateMutability":"view"},{"type":"function","name":"subject","inputs":[],"outputs":[{"name":"","type":"bytes32","internalType":"bytes32"}],"stateMutability":"view"},{"type":"function","name":"timeDecayBps","inputs":[],"outputs":[{"name":"","type":"uint16","internalType":"uint16"}],"stateMutability":"view"},{"type":"function","name":"totalEffectiveStakes","inputs":[{"name":"","type":"uint256","internalType":"uint256"}],"outputs":[{"name":"","type":"uint256","internalType":"uint256"}],"stateMutability":"view"},{"type":"function","name":"totalPool","inputs":[],"outputs":[{"name":"","type":"uint256","internalType":"uint256"}],"stateMutability":"view"},{"type":"function","name":"transferOwnership","inputs":[{"name":"newOwner","type":"address","internalType":"address"}],"outputs":[],"stateMutability":"nonpayable"},{"type":"function","name":"treasury","inputs":[],"outputs":[{"name":"","type":"address","internalType":"address"}],"stateMutability":"view"},{"type":"function","name":"unpause","inputs":[],"outputs":[],"stateMutability":"nonpayable"},{"type":"function","name":"userEffectiveInfo","inputs":[{"name":"user","type":"address","internalType":"address"}],"outputs":[{"name":"","type":"uint256[2]","internalType":"uint256[2]"}],"stateMutability":"view"},{"type":"function","name":"userEffectiveStakes","inputs":[{"name":"","type":"address","internalType":"address"},{"name":"","type":"uint256","internalType":"uint256"}],"outputs":[{"name":"","type":"uint256","internalType":"uint256"}],"stateMutability":"view"},{"type":"function","name":"userInfo","inputs":[{"name":"user","type":"address","internalType":"address"}],"outputs":[{"name":"","type":"uint256[2]","internalType":"uint256[2]"}],"stateMutability":"view"},{"type":"function","name":"windowSpec","inputs":[],"outputs":[{"name":"","type":"bytes32","internalType":"bytes32"}],"stateMutability":"view"},{"type":"function","name":"winningOutcome","inputs":[],"outputs":[{"name":"","type":"uint8","internalType":"uint8"}],"stateMutability":"view"},{"type":"event","name":"Claimed","inputs":[{"name":"user","type":"address","indexed":true,"internalType":"address"},{"name":"payout","type":"uint256","indexed":false,"internalType":"uint256"}],"anonymous":false},{"type":"event","name":"Deposited","inputs":[{"name":"user","type":"address","indexed":true,"internalType":"address"},{"name":"outcome","type":"uint8","indexed":false,"internalType":"uint8"},{"name":"amount","type":"uint256","indexed":false,"internalType":"uint256"}],"anonymous":false},{"type":"event","name":"OwnershipTransferred","inputs":[{"name":"previousOwner","type":"address","indexed":true,"internalType":"address"},{"name":"newOwner","type":"address","indexed":true,"internalType":"address"}],"anonymous":false},{"type":"event","name":"Paused","inputs":[{"name":"account","type":"address","indexed":false,"internalType":"address"}],"anonymous":false},{"type":"event","name":"Resolved","inputs":[{"name":"winningOutcome","type":"uint8","indexed":false,"internalType":"uint8"},{"name":"dataHash","type":"bytes32","indexed":false,"internalType":"bytes32"}],"anonymous":false},{"type":"event","name":"Skimmed","inputs":[{"name":"treasury","type":"address","indexed":false,"internalType":"address"},{"name":"creator","type":"address","indexed":false,"internalType":"address"},{"name":"treasuryFee","type":"uint256","indexed":false,"internalType":"uint256"},{"name":"creatorFee","type":"uint256","indexed":false,"internalType":"uint256"}],"anonymous":false},{"type":"event","name":"Unpaused","inputs":[{"name":"account","type":"address","indexed":false,"internalType":"address"}],"anonymous":false},{"type":"error","name":"EnforcedPause","inputs":[]},{"type":"error","name":"ExpectedPause","inputs":[]},{"type":"error","name":"OwnableInvalidOwner","inputs":[{"name":"owner","type":"address","internalType":"address"}]},{"type":"error","name":"OwnableUnauthorizedAccount","inputs":[{"name":"account","type":"address","internalType":"address"}]},{"type":"error","name":"ReentrancyGuardReentrantCall","inputs":[]},{"type":"error","name":"SafeERC20FailedOperation","inputs":[{"name":"token","type":"address","internalType":"address"}]}],"bytecode":{"object":"0x6080604052348015600e575f5ffd5b503380603357604051631e4fbdf760e01b81525f600482015260240160405180910390fd5b603a816043565b50600180556092565b5f80546001600160a01b038381166001600160a01b0319831681178455604051919092169283917f8be0079c531659141344cd1fd0a4f28419497f9722a3daafe3b4186f6b6457e09190a35050565b611b138061009f5f395ff3fe608060405234801561000f575f5ffd5b506004361061024a575f3560e01c80637d071d4f11610140578063ddeae033116100bf578063f2fde38b11610084578063f2fde38b146104fa578063f3f6c6241461050d578063f4d4c9d714610515578063f58e135414610528578063fe3131121461053b578063fe44b64f1461054e575f5ffd5b8063ddeae033146104ba578063e6198705146104cd578063ecfb49a3146104d6578063ed87169c146104de578063f0be8e5b146104f1575f5ffd5b8063a5f74a5f11610105578063a5f74a5f14610445578063c884ef8314610458578063cf09e0d01461047a578063d171350914610494578063dc7069a0146104a7575f5ffd5b80637d071d4f146103ed5780637dc0d1d0146103f65780638456cb59146104095780638da5cb5b146104115780639b34ae0314610421575f5ffd5b80633f4ba83a116101cc57806361d027b31161019157806361d027b31461039c57806362107e8d146103af57806365729ab0146103c95780636ca7f95c146103dc578063715018a6146103e5575f5ffd5b80633f4ba83a1461034b5780633f6fa655146103535780634e71d92d1461037057806351ed6a30146103785780635c975abb1461038b575f5ffd5b80632009dc65116102125780632009dc65146102f357806324a9d853146102fd57806329827826146103255780632a761bd61461033a5780632b8278ca14610343575f5ffd5b806302d05d3f1461024e57806305ed76c41461027e5780630a59a98c146102a95780630f38c543146102c05780631959a002146102d3575b5f5ffd5b600454610261906001600160a01b031681565b6040516001600160a01b0390911681526020015b60405180910390f35b600654610291906001600160401b031681565b6040516001600160401b039091168152602001610275565b6102b260095481565b604051908152602001610275565b6102b26102ce366004611819565b61055c565b6102e66102e136600461184b565b610572565b604051610275919061186b565b6102fb6105c2565b005b60065461031290600160801b900461ffff1681565b60405161ffff9091168152602001610275565b60065461031290600160901b900461ffff1681565b6102b260075481565b6102fb61062e565b6102fb6107b0565b6012546103609060ff1681565b6040519015158152602001610275565b6102fb6107c0565b600254610261906001600160a01b031681565b5f54600160a01b900460ff16610360565b600354610261906001600160a01b031681565b60055461029190600160a01b90046001600160401b031681565b6102e66103d736600461184b565b6107da565b6102b260145481565b6102fb61082d565b6102b260135481565b600554610261906001600160a01b031681565b6102fb61083e565b5f546001600160a01b0316610261565b60125461043390610100900460ff1681565b60405160ff9091168152602001610275565b6102fb6104533660046118ab565b61084e565b61036061046636600461184b565b60156020525f908152604090205460ff1681565b60065461029190600160401b90046001600160401b031681565b6102fb6104a23660046118e9565b6109de565b6102fb6104b536600461199c565b610d57565b6102fb6104c836600461184b565b610d80565b6102b2600a5481565b6102b2610d9d565b6102b26104ec3660046119d6565b610db3565b6102b2600b5481565b6102fb61050836600461184b565b610dd5565b6102b2610e0f565b6102fb6105233660046118ab565b610e18565b6102b26105363660046119d6565b610e40565b6102b2610549366004611819565b610e59565b6008546103129061ffff1681565b600e816002811061056b575f80fd5b0154905081565b61057a6117fb565b6001600160a01b0382165f90815260106020526040908190208151808301928390529160029082845b8154815260200190600101908083116105a35750505050509050919050565b6105ca610e68565b60125460ff16156106155760405162461bcd60e51b815260206004820152601060248201526f105b1c9958591e481c995cdbdb1d995960821b60448201526064015b60405180910390fd5b6012805461ffff191661020117905561062c610e94565b565b610636610ef3565b60125460ff1680156106525750601254610100900460ff166002145b61068e5760405162461bcd60e51b815260206004820152600d60248201526c139bdd0818d85b98d95b1b1959609a1b604482015260640161060c565b335f9081526015602052604090205460ff16156106df5760405162461bcd60e51b815260206004820152600f60248201526e105b1c9958591e4818db185a5b5959608a1b604482015260640161060c565b335f908152601560209081526040808320805460ff19166001908117909155601090925282209081015490546107159190611a18565b90505f811161075a5760405162461bcd60e51b8152602060048201526011602482015270139bdd1a1a5b99c81d1bc81c99599d5b99607a1b604482015260640161060c565b600254610771906001600160a01b03163383610f1d565b60405181815233907fd8138f8a3f377c5259ca548e70e4c2de94f129f5a11036a15b69513cba2b426a9060200160405180910390a25061062c60018055565b6107b8610e68565b61062c610f7c565b6107c8610ef3565b6107d133610fb7565b61062c60018055565b6107e26117fb565b6001600160a01b0382165f9081526011602052604090819020815180830190925260028282826020028201918154815260200190600101908083116105a35750505050509050919050565b610835610e68565b61062c5f611352565b610846610e68565b61062c610e94565b6005546001600160a01b031633146108965760405162461bcd60e51b815260206004820152600b60248201526a4f6e6c79206f7261636c6560a81b604482015260640161060c565b6006546001600160401b03164210156108e85760405162461bcd60e51b8152602060048201526014602482015273546f6f206561726c7920746f207265736f6c766560601b604482015260640161060c565b60125460ff161561092e5760405162461bcd60e51b815260206004820152601060248201526f105b1c9958591e481c995cdbdb1d995960821b604482015260640161060c565b60018260ff1611156109745760405162461bcd60e51b815260206004820152600f60248201526e496e76616c6964206f7574636f6d6560881b604482015260640161060c565b6012805460ff84166101000261ffff1990911617600117905560138190556040517fa22a153b3aaea5b4815053e6f9dd68769c041ac2588276b05574e15495ff1ea8906109d2908490849060ff929092168252602082015260400190565b60405180910390a15050565b60165460ff1615610a275760405162461bcd60e51b8152602060048201526013602482015272105b1c9958591e481a5b9a5d1a585b1a5e9959606a1b604482015260640161060c565b6001600160a01b038b16610a735760405162461bcd60e51b815260206004820152601360248201527224b73b30b634b21039ba30b5b2903a37b5b2b760691b604482015260640161060c565b6001600160a01b038a16610abc5760405162461bcd60e51b815260206004820152601060248201526f496e76616c696420747265617375727960801b604482015260640161060c565b6001600160a01b038916610b045760405162461bcd60e51b815260206004820152600f60248201526e24b73b30b634b21031b932b0ba37b960891b604482015260640161060c565b6001600160a01b038816610b4b5760405162461bcd60e51b815260206004820152600e60248201526d496e76616c6964206f7261636c6560901b604482015260640161060c565b42876001600160401b031611610b995760405162461bcd60e51b815260206004820152601360248201527210dd5d1bd999881d1a5b59481a5b881c185cdd606a1b604482015260640161060c565b866001600160401b0316866001600160401b031611610bfa5760405162461bcd60e51b815260206004820152601a60248201527f5265736f6c76652074696d65206265666f7265206375746f6666000000000000604482015260640161060c565b6113888461ffff161115610c465760405162461bcd60e51b81526020600482015260136024820152720a8d2daca40c8cac6c2f240e8dede40d0d2ced606b1b604482015260640161060c565b6016805460ff1916600117905560068054600280546001600160a01b039e8f166001600160a01b031991821617909155600380549d8f169d82169d909d17909c55600480549b8e169b909c169a909a17909a55600580546001600160401b03988916600160a01b026001600160e01b031990911699909c16989098179a909a179096556007929092556008805461ffff90921661ffff19909216919091179055600955600a92909255600b94909455607d60931b61ffff60901b19607d60821b71ffff0000000000000000ffffffffffffffff19428816600160401b021671ffffffffffffffffffffffffffffffffffff199095169490941792909516919091179190911792909216919091179055565b610d5f6113a1565b610d67610ef3565b610d728383836113cb565b610d7b60018055565b505050565b610d88610ef3565b610d9181610fb7565b610d9a60018055565b50565b600d54600c545f91610dae91611a18565b905090565b6010602052815f5260405f208160028110610dcc575f80fd5b01549150829050565b610ddd610e68565b6001600160a01b038116610e0657604051631e4fbdf760e01b81525f600482015260240161060c565b610d9a81611352565b5f610dae611605565b610e206113a1565b610e28610ef3565b610e333383836113cb565b610e3c60018055565b5050565b6011602052815f5260405f208160028110610dcc575f80fd5b600c816002811061056b575f80fd5b5f546001600160a01b0316331461062c5760405163118cdaa760e01b815233600482015260240161060c565b610e9c6113a1565b5f805460ff60a01b1916600160a01b1790557f62e78cea01bee320cd4e420270b5ea74000d11b0c9f74754ebdbfc544b05a258610ed63390565b6040516001600160a01b03909116815260200160405180910390a1565b600260015403610f1657604051633ee5aeb560e01b815260040160405180910390fd5b6002600155565b6040516001600160a01b03838116602483015260448201839052610d7b91859182169063a9059cbb906064015b604051602081830303815290604052915060e01b6020820180516001600160e01b038381831617835250505050611727565b610f84611799565b5f805460ff60a01b191690557f5db9ee0a495bf2e6ff9c91a7834c1ba4fdd244a5e8aa4e537bd38aeae4b073aa33610ed6565b60125460ff16610ff85760405162461bcd60e51b815260206004820152600c60248201526b139bdd081c995cdbdb1d995960a21b604482015260640161060c565b6001600160a01b0381165f9081526015602052604090205460ff16156110525760405162461bcd60e51b815260206004820152600f60248201526e105b1c9958591e4818db185a5b5959608a1b604482015260640161060c565b6001600160a01b0381165f908152601160205260408120601254610100900460ff1660028110611084576110846119f0565b015490505f81116110ca5760405162461bcd60e51b815260206004820152601060248201526f4e6f2077696e6e696e67207374616b6560801b604482015260640161060c565b6001600160a01b0382165f908152601560205260408120805460ff19166001908117909155601254600c9161110791610100900460ff1690611a31565b60ff166002811061111a5761111a6119f0565b01546012549091505f90600e90610100900460ff166002811061113f5761113f6119f0565b015490506014545f14801561115357505f82115b15611261576006546127109061117490600160801b900461ffff1684611a4a565b61117e9190611a75565b60148190556006545f91612710916111a291600160901b90910461ffff1690611a4a565b6111ac9190611a75565b90505f816014546111bd9190611a88565b905080156111e2576003546002546111e2916001600160a01b03918216911683610f1d565b811561120557600454600254611205916001600160a01b03918216911684610f1d565b600354600454604080516001600160a01b0393841681529290911660208301528101829052606081018390527fddf0efacceac2f6f698db2c43f4ec7f93fd1fffc6a6cbe8f2e56b56e17f5314f9060800160405180910390a150505b6001600160a01b0384165f908152601060205260408120601254829190610100900460ff1660028110611296576112966119f0565b01549050835f036112a9578091506112f0565b825f036112b8578091506112f0565b5f601454856112c79190611a88565b90505f846112d58884611a4a565b6112df9190611a75565b90506112eb8184611a18565b935050505b600254611307906001600160a01b03163384610f1d565b856001600160a01b03167fd8138f8a3f377c5259ca548e70e4c2de94f129f5a11036a15b69513cba2b426a8360405161134291815260200190565b60405180910390a2505050505050565b5f80546001600160a01b038381166001600160a01b0319831681178455604051919092169283917f8be0079c531659141344cd1fd0a4f28419497f9722a3daafe3b4186f6b6457e09190a35050565b5f54600160a01b900460ff161561062c5760405163d93c066560e01b815260040160405180910390fd5b600554600160a01b90046001600160401b0316421061141e5760405162461bcd60e51b815260206004820152600f60248201526e11195c1bdcda5d1cc818db1bdcd959608a1b604482015260640161060c565b60018260ff1611156114645760405162461bcd60e51b815260206004820152600f60248201526e496e76616c6964206f7574636f6d6560881b604482015260640161060c565b5f81116114a15760405162461bcd60e51b815260206004820152600b60248201526a16995c9bc8185b5bdd5b9d60aa1b604482015260640161060c565b6002546114b9906001600160a01b03163330846117c2565b5f6114c2611605565b90505f6127106114d28385611a4a565b6114dc9190611a75565b905082600c8560ff16600281106114f5576114f56119f0565b015f8282546115049190611a18565b90915550506001600160a01b0385165f908152601060205260409020839060ff861660028110611536576115366119f0565b015f8282546115459190611a18565b90915550819050600e60ff861660028110611562576115626119f0565b015f8282546115719190611a18565b90915550506001600160a01b0385165f908152601160205260409020819060ff8616600281106115a3576115a36119f0565b015f8282546115b29190611a18565b90915550506040805160ff86168152602081018590526001600160a01b038716917f1d0787aee899a49ef81d0b11da9aca5455b46aefed042a41bd398d74619cab00910160405180910390a25050505050565b6008545f9061ffff16810361161b575061271090565b6005545f9042600160a01b9091046001600160401b03161161163d575f61165b565b60055461165b904290600160a01b90046001600160401b0316611a88565b6006546005549192505f9161168a916001600160401b03600160401b909104811691600160a01b900416611a9b565b6001600160401b03169050805f036116a6576127109250505090565b5f816116b484612710611a4a565b6116be9190611a75565b90506127108111156116cf57506127105b6008545f906116e49060029061ffff16611aba565b60085461ffff9182169250612710916116fe911684611a4a565b6117089190611a75565b61171482612710611a88565b61171e9190611a18565b94505050505090565b5f5f60205f8451602086015f885af180611746576040513d5f823e3d81fd5b50505f513d9150811561175d57806001141561176a565b6001600160a01b0384163b155b1561179357604051635274afe760e01b81526001600160a01b038516600482015260240161060c565b50505050565b5f54600160a01b900460ff1661062c57604051638dfc202b60e01b815260040160405180910390fd5b6040516001600160a01b0384811660248301528381166044830152606482018390526117939186918216906323b872dd90608401610f4a565b60405180604001604052806002906020820280368337509192915050565b5f60208284031215611829575f5ffd5b5035919050565b80356001600160a01b0381168114611846575f5ffd5b919050565b5f6020828403121561185b575f5ffd5b61186482611830565b9392505050565b6040810181835f5b6002811015611892578151835260209283019290910190600101611873565b50505092915050565b803560ff81168114611846575f5ffd5b5f5f604083850312156118bc575f5ffd5b6118c58361189b565b946020939093013593505050565b80356001600160401b0381168114611846575f5ffd5b5f5f5f5f5f5f5f5f5f5f5f6101608c8e031215611904575f5ffd5b61190d8c611830565b9a5061191b60208d01611830565b995061192960408d01611830565b985061193760608d01611830565b975061194560808d016118d3565b965061195360a08d016118d3565b955060c08c0135945060e08c013561ffff81168114611970575f5ffd5b9a9d999c50979a9699959894975092956101008101359461012082013594506101409091013592509050565b5f5f5f606084860312156119ae575f5ffd5b6119b784611830565b92506119c56020850161189b565b929592945050506040919091013590565b5f5f604083850312156119e7575f5ffd5b6118c583611830565b634e487b7160e01b5f52603260045260245ffd5b634e487b7160e01b5f52601160045260245ffd5b80820180821115611a2b57611a2b611a04565b92915050565b60ff8281168282160390811115611a2b57611a2b611a04565b8082028115828204841417611a2b57611a2b611a04565b634e487b7160e01b5f52601260045260245ffd5b5f82611a8357611a83611a61565b500490565b81810381811115611a2b57611a2b611a04565b6001600160401b038281168282160390811115611a2b57611a2b611a04565b5f61ffff831680611acd57611acd611a61565b8061ffff8416049150509291505056fea2646970667358221220022d80759f8c57aa9ef943a006e1dbda5c533a8df8428f39b4a253f5762b7f4864736f6c634300081c0033","linkReferences":{}},"methodIdentifiers":{"cancelAndRefund()":"2009dc65","claim()":"4e71d92d","claimFor(address)":"ddeae033","claimed(address)":"c884ef83","createdAt()":"cf09e0d0","creator()":"02d05d3f","creatorFeeShareBps()":"29827826","cutoffTime()":"62107e8d","deposit(uint8,uint256)":"f4d4c9d7","depositFor(address,uint8,uint256)":"dc7069a0","emergencyClaim()":"2b8278ca","feeBps()":"24a9d853","feeCollected()":"6ca7f95c","getTimeMultiplier()":"f3f6c624","ingestResolution(uint8,bytes32)":"a5f74a5f","initialize(address,address,address,address,uint64,uint64,uint256,uint16,bytes32,bytes32,bytes32)":"d1713509","maxTotalPool()":"2a761bd6","oracle()":"7dc0d1d0","owner()":"8da5cb5b","pause()":"8456cb59","paused()":"5c975abb","pool(uint256)":"fe313112","predicate()":"e6198705","renounceOwnership()":"715018a6","resolutionDataHash()":"7d071d4f","resolveTime()":"05ed76c4","resolved()":"3f6fa655","stakeOf(address,uint256)":"ed87169c","stakeToken()":"51ed6a30","subject()":"0a59a98c","timeDecayBps()":"fe44b64f","totalEffectiveStakes(uint256)":"0f38c543","totalPool()":"ecfb49a3","transferOwnership(address)":"f2fde38b","treasury()":"61d027b3","unpause()":"3f4ba83a","userEffectiveInfo(address)":"65729ab0","userEffectiveStakes(address,uint256)":"f58e1354","userInfo(address)":"1959a002","windowSpec()":"f0be8e5b","winningOutcome()":"9b34ae03"},"id":53}