{"abi":[{"type":"constructor","inputs":[],"stateMutability":"nonpayable"},{"type":"function","name":"cancelAndRefund","inputs":[],"outputs":[],"stateMutability":"nonpayable"},{"type":"function","name":"claim","inputs":[],"outputs":[],"stateMutability":"nonpayable"},{"type":"function","name":"claimed","inputs":[{"name":"","type":"address","internalType":"address"}],"outputs":[{"name":"","type":"bool","internalType":"bool"}],"stateMutability":"view"},{"type":"function","name":"createdAt","inputs":[],"outputs":[{"name":"","type":"uint64","internalType":"uint64"}],"stateMutability":"view"},{"type":"function","name":"creator","inputs":[],"outputs":[{"name":"","type":"address","internalType":"address"}],"stateMutability":"view"},{"type":"function","name":"creatorFeeShareBps","inputs":[],"outputs":[{"name":"","type":"uint16","internalType":"uint16"}],"stateMutability":"view"},{"type":"function","name":"cutoffTime","inputs":[],"outputs":[{"name":"","type":"uint64","internalType":"uint64"}],"stateMutability":"view"},{"type":"function","name":"deposit","inputs":[{"name":"outcome","type":"uint8","internalType":"uint8"},{"name":"amount","type":"uint256","internalType":"uint256"}],"outputs":[],"stateMutability":"nonpayable"},{"type":"function","name":"emergencyClaim","inputs":[],"outputs":[],"stateMutability":"nonpayable"},{"type":"function","name":"feeBps","inputs":[],"outputs":[{"name":"","type":"uint16","internalType":"uint16"}],"stateMutability":"view"},{"type":"function","name":"feeCollected","inputs":[],"outputs":[{"name":"","type":"uint256","internalType":"uint256"}],"stateMutability":"view"},{"type":"function","name":"getTimeMultiplier","inputs":[],"outputs":[{"name":"","type":"uint256","internalType":"uint256"}],"stateMutability":"view"},{"type":"function","name":"ingestResolution","inputs":[{"name":"outcome","type":"uint8","internalType":"uint8"},{"name":"dataHash","type":"bytes32","internalType":"bytes32"}],"outputs":[],"stateMutability":"nonpayable"},{"type":"function","name":"initialize","inputs":[{"name":"_stakeToken","type":"address","internalType":"address"},{"name":"_treasury","type":"address","internalType":"address"},{"name":"_creator","type":"address","internalType":"address"},{"name":"_oracle","type":"address","internalType":"address"},{"name":"_cutoffTime","type":"uint64","internalType":"uint64"},{"name":"_resolveTime","type":"uint64","internalType":"uint64"},{"name":"_maxTotalPool","type":"uint256","internalType":"uint256"},{"name":"_timeDecayBps","type":"uint16","internalType":"uint16"},{"name":"_subject","type":"bytes32","internalType":"bytes32"},{"name":"_predicate","type":"bytes32","internalType":"bytes32"},{"name":"_windowSpec","type":"bytes32","internalType":"bytes32"}],"outputs":[],"stateMutability":"nonpayable"},{"type":"function","name":"maxTotalPool","inputs":[],"outputs":[{"name":"","type":"uint256","internalType":"uint256"}],"stateMutability":"view"},{"type":"function","name":"oracle","inputs":[],"outputs":[{"name":"","type":"address","internalType":"address"}],"stateMutability":"view"},{"type":"function","name":"owner","inputs":[],"outputs":[{"name":"","type":"address","internalType":"address"}],"stateMutability":"view"},{"type":"function","name":"pause","inputs":[],"outputs":[],"stateMutability":"nonpayable"},{"type":"function","name":"paused","inputs":[],"outputs":[{"name":"","type":"bool","internalType":"bool"}],"stateMutability":"view"},{"type":"function","name":"pool","inputs":[{"name":"","type":"uint256","internalType":"uint256"}],"outputs":[{"name":"","type":"uint256","internalType":"uint256"}],"stateMutability":"view"},{"type":"function","name":"predicate","inputs":[],"outputs":[{"name":"","type":"bytes32","internalType":"bytes32"}],"stateMutability":"view"},{"type":"function","name":"renounceOwnership","inputs":[],"outputs":[],"stateMutability":"nonpayable"},{"type":"function","name":"resolutionDataHash","inputs":[],"outputs":[{"name":"","type":"bytes32","internalType":"bytes32"}],"stateMutability":"view"},{"type":"function","name":"resolveTime","inputs":[],"outputs":[{"name":"","type":"uint64","internalType":"uint64"}],"stateMutability":"view"},{"type":"function","name":"resolved","inputs":[],"outputs":[{"name":"","type":"bool","internalType":"bool"}],"stateMutability":"view"},{"type":"function","name":"stakeOf","inputs":[{"name":"","type":"address","internalType":"address"},{"name":"","type":"uint256","internalType":"uint256"}],"outputs":[{"name":"","type":"uint256","internalType":"uint256"}],"stateMutability":"view"},{"type":"function","name":"stakeToken","inputs":[],"outputs":[{"name":"","type":"address","internalType":"contract IERC20"}],"stateMutability":"view"},{"type":"function","name":"subject","inputs":[],"outputs":[{"name":"","type":"bytes32","internalType":"bytes32"}],"stateMutability":"view"},{"type":"function","name":"timeDecayBps","inputs":[],"outputs":[{"name":"","type":"uint16","internalType":"uint16"}],"stateMutability":"view"},{"type":"function","name":"totalEffectiveStakes","inputs":[{"name":"","type":"uint256","internalType":"uint256"}],"outputs":[{"name":"","type":"uint256","internalType":"uint256"}],"stateMutability":"view"},{"type":"function","name":"totalPool","inputs":[],"outputs":[{"name":"","type":"uint256","internalType":"uint256"}],"stateMutability":"view"},{"type":"function","name":"transferOwnership","inputs":[{"name":"newOwner","type":"address","internalType":"address"}],"outputs":[],"stateMutability":"nonpayable"},{"type":"function","name":"treasury","inputs":[],"outputs":[{"name":"","type":"address","internalType":"address"}],"stateMutability":"view"},{"type":"function","name":"unpause","inputs":[],"outputs":[],"stateMutability":"nonpayable"},{"type":"function","name":"userEffectiveInfo","inputs":[{"name":"user","type":"address","internalType":"address"}],"outputs":[{"name":"","type":"uint256[2]","internalType":"uint256[2]"}],"stateMutability":"view"},{"type":"function","name":"userEffectiveStakes","inputs":[{"name":"","type":"address","internalType":"address"},{"name":"","type":"uint256","internalType":"uint256"}],"outputs":[{"name":"","type":"uint256","internalType":"uint256"}],"stateMutability":"view"},{"type":"function","name":"userInfo","inputs":[{"name":"user","type":"address","internalType":"address"}],"outputs":[{"name":"","type":"uint256[2]","internalType":"uint256[2]"}],"stateMutability":"view"},{"type":"function","name":"windowSpec","inputs":[],"outputs":[{"name":"","type":"bytes32","internalType":"bytes32"}],"stateMutability":"view"},{"type":"function","name":"winningOutcome","inputs":[],"outputs":[{"name":"","type":"uint8","internalType":"uint8"}],"stateMutability":"view"},{"type":"event","name":"Claimed","inputs":[{"name":"user","type":"address","indexed":true,"internalType":"address"},{"name":"payout","type":"uint256","indexed":false,"internalType":"uint256"}],"anonymous":false},{"type":"event","name":"Deposited","inputs":[{"name":"user","type":"address","indexed":true,"internalType":"address"},{"name":"outcome","type":"uint8","indexed":false,"internalType":"uint8"},{"name":"amount","type":"uint256","indexed":false,"internalType":"uint256"}],"anonymous":false},{"type":"event","name":"OwnershipTransferred","inputs":[{"name":"previousOwner","type":"address","indexed":true,"internalType":"address"},{"name":"newOwner","type":"address","indexed":true,"internalType":"address"}],"anonymous":false},{"type":"event","name":"Paused","inputs":[{"name":"account","type":"address","indexed":false,"internalType":"address"}],"anonymous":false},{"type":"event","name":"Resolved","inputs":[{"name":"winningOutcome","type":"uint8","indexed":false,"internalType":"uint8"},{"name":"dataHash","type":"bytes32","indexed":false,"internalType":"bytes32"}],"anonymous":false},{"type":"event","name":"Skimmed","inputs":[{"name":"treasury","type":"address","indexed":false,"internalType":"address"},{"name":"creator","type":"address","indexed":false,"internalType":"address"},{"name":"treasuryFee","type":"uint256","indexed":false,"internalType":"uint256"},{"name":"creatorFee","type":"uint256","indexed":false,"internalType":"uint256"}],"anonymous":false},{"type":"event","name":"Unpaused","inputs":[{"name":"account","type":"address","indexed":false,"internalType":"address"}],"anonymous":false},{"type":"error","name":"EnforcedPause","inputs":[]},{"type":"error","name":"ExpectedPause","inputs":[]},{"type":"error","name":"OwnableInvalidOwner","inputs":[{"name":"owner","type":"address","internalType":"address"}]},{"type":"error","name":"OwnableUnauthorizedAccount","inputs":[{"name":"account","type":"address","internalType":"address"}]},{"type":"error","name":"ReentrancyGuardReentrantCall","inputs":[]},{"type":"error","name":"SafeERC20FailedOperation","inputs":[{"name":"token","type":"address","internalType":"address"}]}],"bytecode":{"object":"0x6080604052348015600e575f5ffd5b503380603357604051631e4fbdf760e01b81525f600482015260240160405180910390fd5b603a816043565b50600180556092565b5f80546001600160a01b038381166001600160a01b0319831681178455604051919092169283917f8be0079c531659141344cd1fd0a4f28419497f9722a3daafe3b4186f6b6457e09190a35050565b611a9f8061009f5f395ff3fe608060405234801561000f575f5ffd5b5060043610610234575f3560e01c8063715018a611610135578063e6198705116100b4578063f3f6c62411610079578063f3f6c624146104d1578063f4d4c9d7146104d9578063f58e1354146104ec578063fe313112146104ff578063fe44b64f14610512575f5ffd5b8063e619870514610491578063ecfb49a31461049a578063ed87169c146104a2578063f0be8e5b146104b5578063f2fde38b146104be575f5ffd5b80639b34ae03116100fa5780639b34ae031461040b578063a5f74a5f1461042f578063c884ef8314610442578063cf09e0d014610464578063d17135091461047e575f5ffd5b8063715018a6146103cf5780637d071d4f146103d75780637dc0d1d0146103e05780638456cb59146103f35780638da5cb5b146103fb575f5ffd5b80632b8278ca116101c15780635c975abb116101865780635c975abb1461037557806361d027b31461038657806362107e8d1461039957806365729ab0146103b35780636ca7f95c146103c6575f5ffd5b80632b8278ca1461032d5780633f4ba83a146103355780633f6fa6551461033d5780634e71d92d1461035a57806351ed6a3014610362575f5ffd5b80631959a002116102075780631959a002146102bd5780632009dc65146102dd57806324a9d853146102e7578063298278261461030f5780632a761bd614610324575f5ffd5b806302d05d3f1461023857806305ed76c4146102685780630a59a98c146102935780630f38c543146102aa575b5f5ffd5b60045461024b906001600160a01b031681565b6040516001600160a01b0390911681526020015b60405180910390f35b60065461027b906001600160401b031681565b6040516001600160401b03909116815260200161025f565b61029c60095481565b60405190815260200161025f565b61029c6102b83660046117df565b610520565b6102d06102cb366004611811565b610536565b60405161025f9190611831565b6102e5610586565b005b6006546102fc90600160801b900461ffff1681565b60405161ffff909116815260200161025f565b6006546102fc90600160901b900461ffff1681565b61029c60075481565b6102e56105f2565b6102e5610774565b60125461034a9060ff1681565b604051901515815260200161025f565b6102e5610784565b60025461024b906001600160a01b031681565b5f54600160a01b900460ff1661034a565b60035461024b906001600160a01b031681565b60055461027b90600160a01b90046001600160401b031681565b6102d06103c1366004611811565b610afb565b61029c60145481565b6102e5610b4e565b61029c60135481565b60055461024b906001600160a01b031681565b6102e5610b5f565b5f546001600160a01b031661024b565b60125461041d90610100900460ff1681565b60405160ff909116815260200161025f565b6102e561043d366004611871565b610b6f565b61034a610450366004611811565b60156020525f908152604090205460ff1681565b60065461027b90600160401b90046001600160401b031681565b6102e561048c3660046118af565b610cff565b61029c600a5481565b61029c6110ba565b61029c6104b0366004611962565b6110d0565b61029c600b5481565b6102e56104cc366004611811565b6110f2565b61029c61112f565b6102e56104e7366004611871565b611138565b61029c6104fa366004611962565b6113d6565b61029c61050d3660046117df565b6113ef565b6008546102fc9061ffff1681565b600e816002811061052f575f80fd5b0154905081565b61053e6117c1565b6001600160a01b0382165f90815260106020526040908190208151808301928390529160029082845b8154815260200190600101908083116105675750505050509050919050565b61058e6113fe565b60125460ff16156105d95760405162461bcd60e51b815260206004820152601060248201526f105b1c9958591e481c995cdbdb1d995960821b60448201526064015b60405180910390fd5b6012805461ffff19166102011790556105f061142a565b565b6105fa611489565b60125460ff1680156106165750601254610100900460ff166002145b6106525760405162461bcd60e51b815260206004820152600d60248201526c139bdd0818d85b98d95b1b1959609a1b60448201526064016105d0565b335f9081526015602052604090205460ff16156106a35760405162461bcd60e51b815260206004820152600f60248201526e105b1c9958591e4818db185a5b5959608a1b60448201526064016105d0565b335f908152601560209081526040808320805460ff19166001908117909155601090925282209081015490546106d991906119a4565b90505f811161071e5760405162461bcd60e51b8152602060048201526011602482015270139bdd1a1a5b99c81d1bc81c99599d5b99607a1b60448201526064016105d0565b600254610735906001600160a01b031633836114b3565b60405181815233907fd8138f8a3f377c5259ca548e70e4c2de94f129f5a11036a15b69513cba2b426a9060200160405180910390a2506105f060018055565b61077c6113fe565b6105f0611517565b61078c611489565b60125460ff166107cd5760405162461bcd60e51b815260206004820152600c60248201526b139bdd081c995cdbdb1d995960a21b60448201526064016105d0565b335f9081526015602052604090205460ff161561081e5760405162461bcd60e51b815260206004820152600f60248201526e105b1c9958591e4818db185a5b5959608a1b60448201526064016105d0565b335f908152601160205260408120601254610100900460ff16600281106108475761084761197c565b015490505f811161088d5760405162461bcd60e51b815260206004820152601060248201526f4e6f2077696e6e696e67207374616b6560801b60448201526064016105d0565b335f908152601560205260408120805460ff19166001908117909155601254600c916108c191610100900460ff16906119bd565b60ff16600281106108d4576108d461197c565b01546012549091505f90600e90610100900460ff16600281106108f9576108f961197c565b015490506014545f14801561090d57505f82115b15610a1b576006546127109061092e90600160801b900461ffff16846119d6565b6109389190611a01565b60148190556006545f916127109161095c91600160901b90910461ffff16906119d6565b6109669190611a01565b90505f816014546109779190611a14565b9050801561099c5760035460025461099c916001600160a01b039182169116836114b3565b81156109bf576004546002546109bf916001600160a01b039182169116846114b3565b600354600454604080516001600160a01b0393841681529290911660208301528101829052606081018390527fddf0efacceac2f6f698db2c43f4ec7f93fd1fffc6a6cbe8f2e56b56e17f5314f9060800160405180910390a150505b335f908152601060205260408120601254829190610100900460ff1660028110610a4757610a4761197c565b01549050835f03610a5a57809150610aa1565b825f03610a6957809150610aa1565b5f60145485610a789190611a14565b90505f84610a8688846119d6565b610a909190611a01565b9050610a9c81846119a4565b935050505b600254610ab8906001600160a01b031633846114b3565b60405182815233907fd8138f8a3f377c5259ca548e70e4c2de94f129f5a11036a15b69513cba2b426a9060200160405180910390a250505050506105f060018055565b610b036117c1565b6001600160a01b0382165f9081526011602052604090819020815180830190925260028282826020028201918154815260200190600101908083116105675750505050509050919050565b610b566113fe565b6105f05f611552565b610b676113fe565b6105f061142a565b6005546001600160a01b03163314610bb75760405162461bcd60e51b815260206004820152600b60248201526a4f6e6c79206f7261636c6560a81b60448201526064016105d0565b6006546001600160401b0316421015610c095760405162461bcd60e51b8152602060048201526014602482015273546f6f206561726c7920746f207265736f6c766560601b60448201526064016105d0565b60125460ff1615610c4f5760405162461bcd60e51b815260206004820152601060248201526f105b1c9958591e481c995cdbdb1d995960821b60448201526064016105d0565b60018260ff161115610c955760405162461bcd60e51b815260206004820152600f60248201526e496e76616c6964206f7574636f6d6560881b60448201526064016105d0565b6012805460ff84166101000261ffff1990911617600117905560138190556040517fa22a153b3aaea5b4815053e6f9dd68769c041ac2588276b05574e15495ff1ea890610cf3908490849060ff929092168252602082015260400190565b60405180910390a15050565b60165460ff1615610d485760405162461bcd60e51b8152602060048201526013602482015272105b1c9958591e481a5b9a5d1a585b1a5e9959606a1b60448201526064016105d0565b6001600160a01b038b16610d945760405162461bcd60e51b815260206004820152601360248201527224b73b30b634b21039ba30b5b2903a37b5b2b760691b60448201526064016105d0565b6001600160a01b038a16610ddd5760405162461bcd60e51b815260206004820152601060248201526f496e76616c696420747265617375727960801b60448201526064016105d0565b6001600160a01b038916610e255760405162461bcd60e51b815260206004820152600f60248201526e24b73b30b634b21031b932b0ba37b960891b60448201526064016105d0565b6001600160a01b038816610e6c5760405162461bcd60e51b815260206004820152600e60248201526d496e76616c6964206f7261636c6560901b60448201526064016105d0565b42876001600160401b031611610eba5760405162461bcd60e51b815260206004820152601360248201527210dd5d1bd999881d1a5b59481a5b881c185cdd606a1b60448201526064016105d0565b866001600160401b0316866001600160401b031611610f1b5760405162461bcd60e51b815260206004820152601a60248201527f5265736f6c76652074696d65206265666f7265206375746f666600000000000060448201526064016105d0565b5f8511610f5d5760405162461bcd60e51b815260206004820152601060248201526f125b9d985b1a59081b585e081c1bdbdb60821b60448201526064016105d0565b6113888461ffff161115610fa95760405162461bcd60e51b81526020600482015260136024820152720a8d2daca40c8cac6c2f240e8dede40d0d2ced606b1b60448201526064016105d0565b6016805460ff1916600117905560068054600280546001600160a01b039e8f166001600160a01b031991821617909155600380549d8f169d82169d909d17909c55600480549b8e169b909c169a909a17909a55600580546001600160401b03988916600160a01b026001600160e01b031990911699909c16989098179a909a179096556007929092556008805461ffff90921661ffff19909216919091179055600955600a92909255600b94909455607d60931b61ffff60901b19607d60821b71ffff0000000000000000ffffffffffffffff19428816600160401b021671ffffffffffffffffffffffffffffffffffff199095169490941792909516919091179190911792909216919091179055565b600d54600c545f916110cb916119a4565b905090565b6010602052815f5260405f2081600281106110e9575f80fd5b01549150829050565b6110fa6113fe565b6001600160a01b03811661112357604051631e4fbdf760e01b81525f60048201526024016105d0565b61112c81611552565b50565b5f6110cb6115a1565b6111406116c3565b611148611489565b600554600160a01b90046001600160401b0316421061119b5760405162461bcd60e51b815260206004820152600f60248201526e11195c1bdcda5d1cc818db1bdcd959608a1b60448201526064016105d0565b60018260ff1611156111e15760405162461bcd60e51b815260206004820152600f60248201526e496e76616c6964206f7574636f6d6560881b60448201526064016105d0565b5f811161121e5760405162461bcd60e51b815260206004820152600b60248201526a16995c9bc8185b5bdd5b9d60aa1b60448201526064016105d0565b600d54600c545f91839161123291906119a4565b61123c91906119a4565b90506007548111156112845760405162461bcd60e51b8152602060048201526011602482015270141bdbdb0818d85c08195e18d959591959607a1b60448201526064016105d0565b60025461129c906001600160a01b03163330856116ed565b5f6112a56115a1565b90505f6127106112b583866119d6565b6112bf9190611a01565b905083600c8660ff16600281106112d8576112d861197c565b015f8282546112e791906119a4565b9091555050335f908152601060205260409020849060ff8716600281106113105761131061197c565b015f82825461131f91906119a4565b90915550819050600e60ff87166002811061133c5761133c61197c565b015f82825461134b91906119a4565b9091555050335f908152601160205260409020819060ff8716600281106113745761137461197c565b015f82825461138391906119a4565b90915550506040805160ff871681526020810186905233917f1d0787aee899a49ef81d0b11da9aca5455b46aefed042a41bd398d74619cab00910160405180910390a25050506113d260018055565b5050565b6011602052815f5260405f2081600281106110e9575f80fd5b600c816002811061052f575f80fd5b5f546001600160a01b031633146105f05760405163118cdaa760e01b81523360048201526024016105d0565b6114326116c3565b5f805460ff60a01b1916600160a01b1790557f62e78cea01bee320cd4e420270b5ea74000d11b0c9f74754ebdbfc544b05a25861146c3390565b6040516001600160a01b03909116815260200160405180910390a1565b6002600154036114ac57604051633ee5aeb560e01b815260040160405180910390fd5b6002600155565b6040516001600160a01b0383811660248301526044820183905261151291859182169063a9059cbb906064015b604051602081830303815290604052915060e01b6020820180516001600160e01b03838183161783525050505061172c565b505050565b61151f611798565b5f805460ff60a01b191690557f5db9ee0a495bf2e6ff9c91a7834c1ba4fdd244a5e8aa4e537bd38aeae4b073aa3361146c565b5f80546001600160a01b038381166001600160a01b0319831681178455604051919092169283917f8be0079c531659141344cd1fd0a4f28419497f9722a3daafe3b4186f6b6457e09190a35050565b6008545f9061ffff1681036115b7575061271090565b6005545f9042600160a01b9091046001600160401b0316116115d9575f6115f7565b6005546115f7904290600160a01b90046001600160401b0316611a14565b6006546005549192505f91611626916001600160401b03600160401b909104811691600160a01b900416611a27565b6001600160401b03169050805f03611642576127109250505090565b5f81611650846127106119d6565b61165a9190611a01565b905061271081111561166b57506127105b6008545f906116809060029061ffff16611a46565b60085461ffff91821692506127109161169a9116846119d6565b6116a49190611a01565b6116b082612710611a14565b6116ba91906119a4565b94505050505090565b5f54600160a01b900460ff16156105f05760405163d93c066560e01b815260040160405180910390fd5b6040516001600160a01b0384811660248301528381166044830152606482018390526117269186918216906323b872dd906084016114e0565b50505050565b5f5f60205f8451602086015f885af18061174b576040513d5f823e3d81fd5b50505f513d9150811561176257806001141561176f565b6001600160a01b0384163b155b1561172657604051635274afe760e01b81526001600160a01b03851660048201526024016105d0565b5f54600160a01b900460ff166105f057604051638dfc202b60e01b815260040160405180910390fd5b60405180604001604052806002906020820280368337509192915050565b5f602082840312156117ef575f5ffd5b5035919050565b80356001600160a01b038116811461180c575f5ffd5b919050565b5f60208284031215611821575f5ffd5b61182a826117f6565b9392505050565b6040810181835f5b6002811015611858578151835260209283019290910190600101611839565b50505092915050565b803560ff8116811461180c575f5ffd5b5f5f60408385031215611882575f5ffd5b61188b83611861565b946020939093013593505050565b80356001600160401b038116811461180c575f5ffd5b5f5f5f5f5f5f5f5f5f5f5f6101608c8e0312156118ca575f5ffd5b6118d38c6117f6565b9a506118e160208d016117f6565b99506118ef60408d016117f6565b98506118fd60608d016117f6565b975061190b60808d01611899565b965061191960a08d01611899565b955060c08c0135945060e08c013561ffff81168114611936575f5ffd5b9a9d999c50979a9699959894975092956101008101359461012082013594506101409091013592509050565b5f5f60408385031215611973575f5ffd5b61188b836117f6565b634e487b7160e01b5f52603260045260245ffd5b634e487b7160e01b5f52601160045260245ffd5b808201808211156119b7576119b7611990565b92915050565b60ff82811682821603908111156119b7576119b7611990565b80820281158282048414176119b7576119b7611990565b634e487b7160e01b5f52601260045260245ffd5b5f82611a0f57611a0f6119ed565b500490565b818103818111156119b7576119b7611990565b6001600160401b0382811682821603908111156119b7576119b7611990565b5f61ffff831680611a5957611a596119ed565b8061ffff8416049150509291505056fea2646970667358221220534df4130305d7bc7a2ca592e4abf03d342787a64bd4eb6670a44f96bed7dde864736f6c634300081c0033","linkReferences":{}},"methodIdentifiers":{"cancelAndRefund()":"2009dc65","claim()":"4e71d92d","claimed(address)":"c884ef83","createdAt()":"cf09e0d0","creator()":"02d05d3f","creatorFeeShareBps()":"29827826","cutoffTime()":"62107e8d","deposit(uint8,uint256)":"f4d4c9d7","emergencyClaim()":"2b8278ca","feeBps()":"24a9d853","feeCollected()":"6ca7f95c","getTimeMultiplier()":"f3f6c624","ingestResolution(uint8,bytes32)":"a5f74a5f","initialize(address,address,address,address,uint64,uint64,uint256,uint16,bytes32,bytes32,bytes32)":"d1713509","maxTotalPool()":"2a761bd6","oracle()":"7dc0d1d0","owner()":"8da5cb5b","pause()":"8456cb59","paused()":"5c975abb","pool(uint256)":"fe313112","predicate()":"e6198705","renounceOwnership()":"715018a6","resolutionDataHash()":"7d071d4f","resolveTime()":"05ed76c4","resolved()":"3f6fa655","stakeOf(address,uint256)":"ed87169c","stakeToken()":"51ed6a30","subject()":"0a59a98c","timeDecayBps()":"fe44b64f","totalEffectiveStakes(uint256)":"0f38c543","totalPool()":"ecfb49a3","transferOwnership(address)":"f2fde38b","treasury()":"61d027b3","unpause()":"3f4ba83a","userEffectiveInfo(address)":"65729ab0","userEffectiveStakes(address,uint256)":"f58e1354","userInfo(address)":"1959a002","windowSpec()":"f0be8e5b","winningOutcome()":"9b34ae03"},"id":63}