{"abi":[{"type":"constructor","inputs":[{"name":"_disputeWindow","type":"uint64","internalType":"uint64"}],"stateMutability":"nonpayable"},{"type":"function","name":"commit","inputs":[{"name":"market","type":"address","internalType":"address"},{"name":"outcome","type":"uint8","internalType":"uint8"},{"name":"dataHash","type":"bytes32","internalType":"bytes32"}],"outputs":[],"stateMutability":"nonpayable"},{"type":"function","name":"disputeWindow","inputs":[],"outputs":[{"name":"","type":"uint64","internalType":"uint64"}],"stateMutability":"view"},{"type":"function","name":"finalize","inputs":[{"name":"market","type":"address","internalType":"address"}],"outputs":[],"stateMutability":"nonpayable"},{"type":"function","name":"owner","inputs":[],"outputs":[{"name":"","type":"address","internalType":"address"}],"stateMutability":"view"},{"type":"function","name":"pending","inputs":[{"name":"","type":"address","internalType":"address"}],"outputs":[{"name":"outcome","type":"uint8","internalType":"uint8"},{"name":"dataHash","type":"bytes32","internalType":"bytes32"},{"name":"commitTime","type":"uint64","internalType":"uint64"},{"name":"committed","type":"bool","internalType":"bool"},{"name":"finalized","type":"bool","internalType":"bool"}],"stateMutability":"view"},{"type":"function","name":"renounceOwnership","inputs":[],"outputs":[],"stateMutability":"nonpayable"},{"type":"function","name":"resolvers","inputs":[{"name":"","type":"address","internalType":"address"}],"outputs":[{"name":"","type":"bool","internalType":"bool"}],"stateMutability":"view"},{"type":"function","name":"setResolver","inputs":[{"name":"resolver","type":"address","internalType":"address"},{"name":"authorized","type":"bool","internalType":"bool"}],"outputs":[],"stateMutability":"nonpayable"},{"type":"function","name":"transferOwnership","inputs":[{"name":"newOwner","type":"address","internalType":"address"}],"outputs":[],"stateMutability":"nonpayable"},{"type":"event","name":"Committed","inputs":[{"name":"market","type":"address","indexed":true,"internalType":"address"},{"name":"outcome","type":"uint8","indexed":false,"internalType":"uint8"},{"name":"dataHash","type":"bytes32","indexed":false,"internalType":"bytes32"},{"name":"commitTime","type":"uint64","indexed":false,"internalType":"uint64"}],"anonymous":false},{"type":"event","name":"Finalized","inputs":[{"name":"market","type":"address","indexed":true,"internalType":"address"},{"name":"outcome","type":"uint8","indexed":false,"internalType":"uint8"}],"anonymous":false},{"type":"event","name":"OwnershipTransferred","inputs":[{"name":"previousOwner","type":"address","indexed":true,"internalType":"address"},{"name":"newOwner","type":"address","indexed":true,"internalType":"address"}],"anonymous":false},{"type":"error","name":"OwnableInvalidOwner","inputs":[{"name":"owner","type":"address","internalType":"address"}]},{"type":"error","name":"OwnableUnauthorizedAccount","inputs":[{"name":"account","type":"address","internalType":"address"}]}],"bytecode":{"object":"0x608060405234801561000f575f5ffd5b5060405161092e38038061092e83398101604081905261002e916100d1565b338061005357604051631e4fbdf760e01b81525f600482015260240160405180910390fd5b61005c81610082565b50600280546001600160401b0319166001600160401b03929092169190911790556100fe565b5f80546001600160a01b038381166001600160a01b0319831681178455604051919092169283917f8be0079c531659141344cd1fd0a4f28419497f9722a3daafe3b4186f6b6457e09190a35050565b5f602082840312156100e1575f5ffd5b81516001600160401b03811681146100f7575f5ffd5b9392505050565b6108238061010b5f395ff3fe608060405234801561000f575f5ffd5b5060043610610090575f3560e01c80635eebea20116100635780635eebea2014610101578063715018a6146101905780638da5cb5b14610198578063b93793e9146101b2578063f2fde38b146101e4575f5ffd5b806309f26a4f14610094578063117f5f92146100a95780631da6ed7c146100db5780634ef39b75146100ee575b5f5ffd5b6100a76100a2366004610721565b6101f7565b005b6002546100bd9067ffffffffffffffff1681565b60405167ffffffffffffffff90911681526020015b60405180910390f35b6100a76100e9366004610762565b61041e565b6100a76100fc36600461079b565b610450565b61015361010f36600461079b565b600160208190525f918252604090912080549181015460029091015460ff9283169267ffffffffffffffff821691600160401b8104821691600160481b9091041685565b6040805160ff9096168652602086019490945267ffffffffffffffff9092169284019290925290151560608301521515608082015260a0016100d2565b6100a761063b565b5f546040516001600160a01b0390911681526020016100d2565b6101d46101c036600461079b565b60036020525f908152604090205460ff1681565b60405190151581526020016100d2565b6100a76101f236600461079b565b61064e565b335f9081526003602052604090205460ff168061021d57505f546001600160a01b031633145b61025f5760405162461bcd60e51b815260206004820152600e60248201526d139bdd08185d5d1a1bdc9a5e995960921b60448201526064015b60405180910390fd5b6001600160a01b0383165f90815260016020526040902060020154600160401b900460ff16156102c55760405162461bcd60e51b8152602060048201526011602482015270105b1c9958591e4818dbdb5b5a5d1d1959607a1b6044820152606401610256565b60018260ff16111561030b5760405162461bcd60e51b815260206004820152600f60248201526e496e76616c6964206f7574636f6d6560881b6044820152606401610256565b6040805160a08101825260ff8085168252602080830185815267ffffffffffffffff428181168688019081526001606088018181525f60808a018181526001600160a01b038f1680835298849052908b902099518a54991660ff199099169890981789559451908801555160029096018054935195511515600160481b0260ff60481b19961515600160401b0268ffffffffffffffffff199095169790931696909617929092179390931692909217909255915190917fff4a8f0750d3cb98267d328523efc09567f81219fc7ee51cb94f153cd2e423799161041191869186919060ff939093168352602083019190915267ffffffffffffffff16604082015260600190565b60405180910390a2505050565b61042661068b565b6001600160a01b03919091165f908152600360205260409020805460ff1916911515919091179055565b6001600160a01b0381165f9081526001602052604090206002810154600160401b900460ff166104b25760405162461bcd60e51b815260206004820152600d60248201526c139bdd0818dbdb5b5a5d1d1959609a1b6044820152606401610256565b6002810154600160481b900460ff16156105025760405162461bcd60e51b8152602060048201526011602482015270105b1c9958591e48199a5b985b1a5e9959607a1b6044820152606401610256565b60028054908201546105219167ffffffffffffffff90811691166107bb565b67ffffffffffffffff1642101561057a5760405162461bcd60e51b815260206004820152601a60248201527f446973707574652077696e646f77206e6f7420656c61707365640000000000006044820152606401610256565b60028101805460ff60481b1916600160481b1790558054600182015460405163a5f74a5f60e01b815260ff909216600483015260248201526001600160a01b0383169063a5f74a5f906044015f604051808303815f87803b1580156105dd575f5ffd5b505af11580156105ef573d5f5f3e3d5ffd5b5050825460405160ff90911681526001600160a01b03851692507f251a913b9509d81d7c0bf1032d3cbfc794041c71edc3d8e6ef416f45eb847e05915060200160405180910390a25050565b61064361068b565b61064c5f6106b7565b565b61065661068b565b6001600160a01b03811661067f57604051631e4fbdf760e01b81525f6004820152602401610256565b610688816106b7565b50565b5f546001600160a01b0316331461064c5760405163118cdaa760e01b8152336004820152602401610256565b5f80546001600160a01b038381166001600160a01b0319831681178455604051919092169283917f8be0079c531659141344cd1fd0a4f28419497f9722a3daafe3b4186f6b6457e09190a35050565b80356001600160a01b038116811461071c575f5ffd5b919050565b5f5f5f60608486031215610733575f5ffd5b61073c84610706565b9250602084013560ff81168114610751575f5ffd5b929592945050506040919091013590565b5f5f60408385031215610773575f5ffd5b61077c83610706565b915060208301358015158114610790575f5ffd5b809150509250929050565b5f602082840312156107ab575f5ffd5b6107b482610706565b9392505050565b67ffffffffffffffff81811683821601908111156107e757634e487b7160e01b5f52601160045260245ffd5b9291505056fea264697066735822122051500d481aadfab9683218ddb01c0a830386277bbfddacd042ec78dc29c0da2864736f6c634300081c0033","linkReferences":{}},"methodIdentifiers":{"commit(address,uint8,bytes32)":"09f26a4f","disputeWindow()":"117f5f92","finalize(address)":"4ef39b75","owner()":"8da5cb5b","pending(address)":"5eebea20","renounceOwnership()":"715018a6","resolvers(address)":"b93793e9","setResolver(address,bool)":"1da6ed7c","transferOwnership(address)":"f2fde38b"},"id":55}