{"abi":[{"type":"constructor","inputs":[{"name":"_whype","type":"address","internalType":"address"},{"name":"_hyperLiquidStaking","type":"address","internalType":"address"}],"stateMutability":"nonpayable"},{"type":"receive","stateMutability":"payable"},{"type":"function","name":"DOMAIN_SEPARATOR","inputs":[],"outputs":[{"name":"","type":"bytes32","internalType":"bytes32"}],"stateMutability":"view"},{"type":"function","name":"WHYPE_MAINNET","inputs":[],"outputs":[{"name":"","type":"address","internalType":"address"}],"stateMutability":"view"},{"type":"function","name":"allowance","inputs":[{"name":"owner","type":"address","internalType":"address"},{"name":"spender","type":"address","internalType":"address"}],"outputs":[{"name":"","type":"uint256","internalType":"uint256"}],"stateMutability":"view"},{"type":"function","name":"approve","inputs":[{"name":"spender","type":"address","internalType":"address"},{"name":"value","type":"uint256","internalType":"uint256"}],"outputs":[{"name":"","type":"bool","internalType":"bool"}],"stateMutability":"nonpayable"},{"type":"function","name":"asset","inputs":[],"outputs":[{"name":"","type":"address","internalType":"address"}],"stateMutability":"view"},{"type":"function","name":"balanceOf","inputs":[{"name":"account","type":"address","internalType":"address"}],"outputs":[{"name":"","type":"uint256","internalType":"uint256"}],"stateMutability":"view"},{"type":"function","name":"convertToAssets","inputs":[{"name":"shares","type":"uint256","internalType":"uint256"}],"outputs":[{"name":"","type":"uint256","internalType":"uint256"}],"stateMutability":"view"},{"type":"function","name":"convertToShares","inputs":[{"name":"assets","type":"uint256","internalType":"uint256"}],"outputs":[{"name":"","type":"uint256","internalType":"uint256"}],"stateMutability":"view"},{"type":"function","name":"decimals","inputs":[],"outputs":[{"name":"","type":"uint8","internalType":"uint8"}],"stateMutability":"view"},{"type":"function","name":"deposit","inputs":[{"name":"assets","type":"uint256","internalType":"uint256"},{"name":"receiver","type":"address","internalType":"address"}],"outputs":[{"name":"","type":"uint256","internalType":"uint256"}],"stateMutability":"nonpayable"},{"type":"function","name":"deposit","inputs":[{"name":"assets","type":"uint256","internalType":"uint256"}],"outputs":[{"name":"shares","type":"uint256","internalType":"uint256"}],"stateMutability":"nonpayable"},{"type":"function","name":"depositNative","inputs":[],"outputs":[{"name":"shares","type":"uint256","internalType":"uint256"}],"stateMutability":"payable"},{"type":"function","name":"eip712Domain","inputs":[],"outputs":[{"name":"fields","type":"bytes1","internalType":"bytes1"},{"name":"name","type":"string","internalType":"string"},{"name":"version","type":"string","internalType":"string"},{"name":"chainId","type":"uint256","internalType":"uint256"},{"name":"verifyingContract","type":"address","internalType":"address"},{"name":"salt","type":"bytes32","internalType":"bytes32"},{"name":"extensions","type":"uint256[]","internalType":"uint256[]"}],"stateMutability":"view"},{"type":"function","name":"exchangeRate","inputs":[],"outputs":[{"name":"","type":"uint256","internalType":"uint256"}],"stateMutability":"view"},{"type":"function","name":"hyperLiquidStaking","inputs":[],"outputs":[{"name":"","type":"address","internalType":"contract IHyperLiquidStaking"}],"stateMutability":"view"},{"type":"function","name":"maxDeposit","inputs":[{"name":"","type":"address","internalType":"address"}],"outputs":[{"name":"","type":"uint256","internalType":"uint256"}],"stateMutability":"view"},{"type":"function","name":"maxMint","inputs":[{"name":"","type":"address","internalType":"address"}],"outputs":[{"name":"","type":"uint256","internalType":"uint256"}],"stateMutability":"view"},{"type":"function","name":"maxRedeem","inputs":[{"name":"owner","type":"address","internalType":"address"}],"outputs":[{"name":"","type":"uint256","internalType":"uint256"}],"stateMutability":"view"},{"type":"function","name":"maxWithdraw","inputs":[{"name":"owner","type":"address","internalType":"address"}],"outputs":[{"name":"","type":"uint256","internalType":"uint256"}],"stateMutability":"view"},{"type":"function","name":"mint","inputs":[{"name":"shares","type":"uint256","internalType":"uint256"},{"name":"receiver","type":"address","internalType":"address"}],"outputs":[{"name":"","type":"uint256","internalType":"uint256"}],"stateMutability":"nonpayable"},{"type":"function","name":"name","inputs":[],"outputs":[{"name":"","type":"string","internalType":"string"}],"stateMutability":"view"},{"type":"function","name":"nonces","inputs":[{"name":"owner","type":"address","internalType":"address"}],"outputs":[{"name":"","type":"uint256","internalType":"uint256"}],"stateMutability":"view"},{"type":"function","name":"permit","inputs":[{"name":"owner","type":"address","internalType":"address"},{"name":"spender","type":"address","internalType":"address"},{"name":"value","type":"uint256","internalType":"uint256"},{"name":"deadline","type":"uint256","internalType":"uint256"},{"name":"v","type":"uint8","internalType":"uint8"},{"name":"r","type":"bytes32","internalType":"bytes32"},{"name":"s","type":"bytes32","internalType":"bytes32"}],"outputs":[],"stateMutability":"nonpayable"},{"type":"function","name":"previewDeposit","inputs":[{"name":"assets","type":"uint256","internalType":"uint256"}],"outputs":[{"name":"","type":"uint256","internalType":"uint256"}],"stateMutability":"view"},{"type":"function","name":"previewMint","inputs":[{"name":"shares","type":"uint256","internalType":"uint256"}],"outputs":[{"name":"","type":"uint256","internalType":"uint256"}],"stateMutability":"view"},{"type":"function","name":"previewRedeem","inputs":[{"name":"shares","type":"uint256","internalType":"uint256"}],"outputs":[{"name":"","type":"uint256","internalType":"uint256"}],"stateMutability":"view"},{"type":"function","name":"previewWithdraw","inputs":[{"name":"assets","type":"uint256","internalType":"uint256"}],"outputs":[{"name":"","type":"uint256","internalType":"uint256"}],"stateMutability":"view"},{"type":"function","name":"redeem","inputs":[{"name":"shares","type":"uint256","internalType":"uint256"},{"name":"receiver","type":"address","internalType":"address"},{"name":"owner","type":"address","internalType":"address"}],"outputs":[{"name":"","type":"uint256","internalType":"uint256"}],"stateMutability":"nonpayable"},{"type":"function","name":"symbol","inputs":[],"outputs":[{"name":"","type":"string","internalType":"string"}],"stateMutability":"view"},{"type":"function","name":"testnetMint","inputs":[{"name":"to","type":"address","internalType":"address"},{"name":"amount","type":"uint256","internalType":"uint256"}],"outputs":[],"stateMutability":"nonpayable"},{"type":"function","name":"totalAssets","inputs":[],"outputs":[{"name":"","type":"uint256","internalType":"uint256"}],"stateMutability":"view"},{"type":"function","name":"totalSupply","inputs":[],"outputs":[{"name":"","type":"uint256","internalType":"uint256"}],"stateMutability":"view"},{"type":"function","name":"transfer","inputs":[{"name":"to","type":"address","internalType":"address"},{"name":"value","type":"uint256","internalType":"uint256"}],"outputs":[{"name":"","type":"bool","internalType":"bool"}],"stateMutability":"nonpayable"},{"type":"function","name":"transferFrom","inputs":[{"name":"from","type":"address","internalType":"address"},{"name":"to","type":"address","internalType":"address"},{"name":"value","type":"uint256","internalType":"uint256"}],"outputs":[{"name":"","type":"bool","internalType":"bool"}],"stateMutability":"nonpayable"},{"type":"function","name":"whype","inputs":[],"outputs":[{"name":"","type":"address","internalType":"address"}],"stateMutability":"view"},{"type":"function","name":"withdraw","inputs":[{"name":"shares","type":"uint256","internalType":"uint256"}],"outputs":[{"name":"assets","type":"uint256","internalType":"uint256"}],"stateMutability":"nonpayable"},{"type":"function","name":"withdraw","inputs":[{"name":"assets","type":"uint256","internalType":"uint256"},{"name":"receiver","type":"address","internalType":"address"},{"name":"owner","type":"address","internalType":"address"}],"outputs":[{"name":"","type":"uint256","internalType":"uint256"}],"stateMutability":"nonpayable"},{"type":"function","name":"withdrawNative","inputs":[{"name":"shares","type":"uint256","internalType":"uint256"}],"outputs":[{"name":"assets","type":"uint256","internalType":"uint256"}],"stateMutability":"nonpayable"},{"type":"event","name":"Approval","inputs":[{"name":"owner","type":"address","indexed":true,"internalType":"address"},{"name":"spender","type":"address","indexed":true,"internalType":"address"},{"name":"value","type":"uint256","indexed":false,"internalType":"uint256"}],"anonymous":false},{"type":"event","name":"Deposit","inputs":[{"name":"sender","type":"address","indexed":true,"internalType":"address"},{"name":"owner","type":"address","indexed":true,"internalType":"address"},{"name":"assets","type":"uint256","indexed":false,"internalType":"uint256"},{"name":"shares","type":"uint256","indexed":false,"internalType":"uint256"}],"anonymous":false},{"type":"event","name":"EIP712DomainChanged","inputs":[],"anonymous":false},{"type":"event","name":"Transfer","inputs":[{"name":"from","type":"address","indexed":true,"internalType":"address"},{"name":"to","type":"address","indexed":true,"internalType":"address"},{"name":"value","type":"uint256","indexed":false,"internalType":"uint256"}],"anonymous":false},{"type":"event","name":"Withdraw","inputs":[{"name":"sender","type":"address","indexed":true,"internalType":"address"},{"name":"receiver","type":"address","indexed":true,"internalType":"address"},{"name":"owner","type":"address","indexed":true,"internalType":"address"},{"name":"assets","type":"uint256","indexed":false,"internalType":"uint256"},{"name":"shares","type":"uint256","indexed":false,"internalType":"uint256"}],"anonymous":false},{"type":"error","name":"ECDSAInvalidSignature","inputs":[]},{"type":"error","name":"ECDSAInvalidSignatureLength","inputs":[{"name":"length","type":"uint256","internalType":"uint256"}]},{"type":"error","name":"ECDSAInvalidSignatureS","inputs":[{"name":"s","type":"bytes32","internalType":"bytes32"}]},{"type":"error","name":"ERC20InsufficientAllowance","inputs":[{"name":"spender","type":"address","internalType":"address"},{"name":"allowance","type":"uint256","internalType":"uint256"},{"name":"needed","type":"uint256","internalType":"uint256"}]},{"type":"error","name":"ERC20InsufficientBalance","inputs":[{"name":"sender","type":"address","internalType":"address"},{"name":"balance","type":"uint256","internalType":"uint256"},{"name":"needed","type":"uint256","internalType":"uint256"}]},{"type":"error","name":"ERC20InvalidApprover","inputs":[{"name":"approver","type":"address","internalType":"address"}]},{"type":"error","name":"ERC20InvalidReceiver","inputs":[{"name":"receiver","type":"address","internalType":"address"}]},{"type":"error","name":"ERC20InvalidSender","inputs":[{"name":"sender","type":"address","internalType":"address"}]},{"type":"error","name":"ERC20InvalidSpender","inputs":[{"name":"spender","type":"address","internalType":"address"}]},{"type":"error","name":"ERC2612ExpiredSignature","inputs":[{"name":"deadline","type":"uint256","internalType":"uint256"}]},{"type":"error","name":"ERC2612InvalidSigner","inputs":[{"name":"signer","type":"address","internalType":"address"},{"name":"owner","type":"address","internalType":"address"}]},{"type":"error","name":"ERC4626ExceededMaxDeposit","inputs":[{"name":"receiver","type":"address","internalType":"address"},{"name":"assets","type":"uint256","internalType":"uint256"},{"name":"max","type":"uint256","internalType":"uint256"}]},{"type":"error","name":"ERC4626ExceededMaxMint","inputs":[{"name":"receiver","type":"address","internalType":"address"},{"name":"shares","type":"uint256","internalType":"uint256"},{"name":"max","type":"uint256","internalType":"uint256"}]},{"type":"error","name":"ERC4626ExceededMaxRedeem","inputs":[{"name":"owner","type":"address","internalType":"address"},{"name":"shares","type":"uint256","internalType":"uint256"},{"name":"max","type":"uint256","internalType":"uint256"}]},{"type":"error","name":"ERC4626ExceededMaxWithdraw","inputs":[{"name":"owner","type":"address","internalType":"address"},{"name":"assets","type":"uint256","internalType":"uint256"},{"name":"max","type":"uint256","internalType":"uint256"}]},{"type":"error","name":"InvalidAccountNonce","inputs":[{"name":"account","type":"address","internalType":"address"},{"name":"currentNonce","type":"uint256","internalType":"uint256"}]},{"type":"error","name":"InvalidShortString","inputs":[]},{"type":"error","name":"SafeERC20FailedOperation","inputs":[{"name":"token","type":"address","internalType":"address"}]},{"type":"error","name":"StringTooLong","inputs":[{"name":"str","type":"string","internalType":"string"}]},{"type":"error","name":"TransferFailed","inputs":[]},{"type":"error","name":"ZeroAmount","inputs":[]},{"type":"error","name":"ZeroShares","inputs":[]}],"bytecode":{"object":"0x6101e0604052348015610010575f5ffd5b506040516127f73803806127f783398101604081905261002f9161033d565b6040518060400160405280600b81526020016a5374616b6564204859504560a81b81525080604051806040016040528060018152602001603160f81b815250846040518060400160405280600b81526020016a5374616b6564204859504560a81b8152506040518060400160405280600681526020016573744859504560d01b81525081600390816100c19190610406565b5060046100ce8282610406565b5050505f5f6100e2836101d460201b60201c565b91509150816100f25760126100f4565b805b60ff1660a05250506001600160a01b03166080526101138260056102aa565b610160526101228160066102aa565b61018052815160208084019190912061012052815190820120610140524660e0526101b06101205161014051604080517f8b73c3c69bb8fe3d512ecc4cf759cc79239f7b179b0ffacaa9a75d522b39400f60208201529081019290925260608201524660808201523060a08201525f9060c00160405160208183030381529060405280519060200120905090565b60c05250503061010052506001600160a01b039182166101a052166101c052610545565b60408051600481526024810182526020810180516001600160e01b031663313ce56760e01b17905290515f918291829182916001600160a01b0387169161021a916104c0565b5f60405180830381855afa9150503d805f8114610252576040519150601f19603f3d011682016040523d82523d5f602084013e610257565b606091505b509150915081801561026b57506020815110155b1561029e575f8180602001905181019061028591906104d6565b905060ff811161029c576001969095509350505050565b505b505f9485945092505050565b5f6020835110156102c5576102be836102dc565b90506102d6565b816102d08482610406565b5060ff90505b92915050565b5f5f829050601f8151111561030f578260405163305a27a960e01b815260040161030691906104ed565b60405180910390fd5b805161031a82610522565b179392505050565b80516001600160a01b0381168114610338575f5ffd5b919050565b5f5f6040838503121561034e575f5ffd5b61035783610322565b915061036560208401610322565b90509250929050565b634e487b7160e01b5f52604160045260245ffd5b600181811c9082168061039657607f821691505b6020821081036103b457634e487b7160e01b5f52602260045260245ffd5b50919050565b601f82111561040157805f5260205f20601f840160051c810160208510156103df5750805b601f840160051c820191505b818110156103fe575f81556001016103eb565b50505b505050565b81516001600160401b0381111561041f5761041f61036e565b6104338161042d8454610382565b846103ba565b6020601f821160018114610465575f831561044e5750848201515b5f19600385901b1c1916600184901b1784556103fe565b5f84815260208120601f198516915b828110156104945787850151825560209485019460019092019101610474565b50848210156104b157868401515f19600387901b60f8161c191681555b50505050600190811b01905550565b5f82518060208501845e5f920191825250919050565b5f602082840312156104e6575f5ffd5b5051919050565b602081525f82518060208401528060208501604085015e5f604082850101526040601f19601f83011684010191505092915050565b805160208083015191908110156103b4575f1960209190910360031b1b16919050565b60805160a05160c05160e05161010051610120516101405161016051610180516101a0516101c0516121e56106125f395f818161049c015281816107030152818161078e015281816111eb015281816113a7015261144801525f81816103f701528181610a7c01528181610e2b0152818161117801526114c901525f61130601525f6112d901525f6110e601525f6110be01525f61101901525f61104301525f61106d01525f610fe901525f818161037a015281816107fc0152818161113b015261153f01526121e55ff3fe608060405260043610610220575f3560e01c806384276d811161011e578063ba087652116100a8578063d505accf1161006d578063d505accf14610658578063d905777e14610677578063db6b524614610696578063dd62ed3e1461069e578063ef8b30f7146105f3575f5ffd5b8063ba087652146105d4578063c63d75b6146103c6578063c6e6f592146105f3578063ccfba0ad14610612578063ce96cb7714610639575f5ffd5b8063a9059cbb116100ee578063a9059cbb14610537578063b023689f14610556578063b3d7f6b914610577578063b460af9414610596578063b6b55f25146105b5575f5ffd5b806384276d81146104be57806384b0196e146104dd57806394bf804d1461050457806395d89b4114610523575f5ffd5b80633644e515116101aa5780634cdad5061161016f5780634cdad506146102735780636e553f651461041957806370a08231146104385780637ecebe001461046c5780637f78c8481461048b575f5ffd5b80633644e5151461035857806338d52e0f1461036c5780633ba0b9a9146103b2578063402d267d146103c657806346e25312146103e6575f5ffd5b80630a28a477116101f05780630a28a477146102c157806318160ddd146102e057806323b872dd146102f45780632e1a7d4d14610313578063313ce56714610332575f5ffd5b806301e1d1141461022b57806306fdde031461025257806307a2d13a14610273578063095ea7b314610292575f5ffd5b3661022757005b5f5ffd5b348015610236575f5ffd5b5061023f6106e2565b6040519081526020015b60405180910390f35b34801561025d575f5ffd5b506102666108a2565b6040516102499190611d41565b34801561027e575f5ffd5b5061023f61028d366004611d53565b610932565b34801561029d575f5ffd5b506102b16102ac366004611d85565b610943565b6040519015158152602001610249565b3480156102cc575f5ffd5b5061023f6102db366004611d53565b61095a565b3480156102eb575f5ffd5b5060025461023f565b3480156102ff575f5ffd5b506102b161030e366004611dad565b610966565b34801561031e575f5ffd5b5061023f61032d366004611d53565b61098b565b34801561033d575f5ffd5b50610346610997565b60405160ff9091168152602001610249565b348015610363575f5ffd5b5061023f6109a5565b348015610377575f5ffd5b507f00000000000000000000000000000000000000000000000000000000000000005b6040516001600160a01b039091168152602001610249565b3480156103bd575f5ffd5b5061023f6109ae565b3480156103d1575f5ffd5b5061023f6103e0366004611de7565b505f1990565b3480156103f1575f5ffd5b5061039a7f000000000000000000000000000000000000000000000000000000000000000081565b348015610424575f5ffd5b5061023f610433366004611e00565b6109fc565b348015610443575f5ffd5b5061023f610452366004611de7565b6001600160a01b03165f9081526020819052604090205490565b348015610477575f5ffd5b5061023f610486366004611de7565b610a2d565b348015610496575f5ffd5b5061039a7f000000000000000000000000000000000000000000000000000000000000000081565b3480156104c9575f5ffd5b5061023f6104d8366004611d53565b610a37565b3480156104e8575f5ffd5b506104f1610b47565b6040516102499796959493929190611e2a565b34801561050f575f5ffd5b5061023f61051e366004611e00565b610b89565b34801561052e575f5ffd5b50610266610ba4565b348015610542575f5ffd5b506102b1610551366004611d85565b610bb3565b348015610561575f5ffd5b50610575610570366004611d85565b610bc0565b005b348015610582575f5ffd5b5061023f610591366004611d53565b610bce565b3480156105a1575f5ffd5b5061023f6105b0366004611ec0565b610bda565b3480156105c0575f5ffd5b5061023f6105cf366004611d53565b610c30565b3480156105df575f5ffd5b5061023f6105ee366004611ec0565b610c3b565b3480156105fe575f5ffd5b5061023f61060d366004611d53565b610c88565b34801561061d575f5ffd5b5061039a73555555555555555555555555555555555555555581565b348015610644575f5ffd5b5061023f610653366004611de7565b610c93565b348015610663575f5ffd5b50610575610672366004611ef9565b610cb5565b348015610682575f5ffd5b5061023f610691366004611de7565b610deb565b61023f610e08565b3480156106a9575f5ffd5b5061023f6106b8366004611f66565b6001600160a01b039182165f90815260016020908152604080832093909416825291909152205490565b6040516370a0823160e01b81523060048201525f9081906001600160a01b037f000000000000000000000000000000000000000000000000000000000000000016906370a0823190602401602060405180830381865afa158015610748573d5f5f3e3d5ffd5b505050506040513d601f19601f8201168201806040525081019061076c9190611f8e565b6040516379ee54f760e01b81523060048201529091505f906001600160a01b037f000000000000000000000000000000000000000000000000000000000000000016906379ee54f790602401602060405180830381865afa1580156107d3573d5f5f3e3d5ffd5b505050506040513d601f19601f820116820180604052508101906107f79190611f8e565b90505f7f00000000000000000000000000000000000000000000000000000000000000006040516370a0823160e01b81523060048201526001600160a01b0391909116906370a0823190602401602060405180830381865afa15801561085f573d5f5f3e3d5ffd5b505050506040513d601f19601f820116820180604052508101906108839190611f8e565b9050806108908385611fb9565b61089a9190611fb9565b935050505090565b6060600380546108b190611fcc565b80601f01602080910402602001604051908101604052809291908181526020018280546108dd90611fcc565b80156109285780601f106108ff57610100808354040283529160200191610928565b820191905f5260205f20905b81548152906001019060200180831161090b57829003601f168201915b5050505050905090565b5f61093d825f610ea3565b92915050565b5f33610950818585610edb565b5060019392505050565b5f61093d826001610eed565b5f33610973858285610f1c565b61097e858585610f85565b60019150505b9392505050565b5f61093d823333610c3b565b5f6109a0610fe2565b905090565b5f6109a061100d565b5f5f6109b960025490565b9050805f036109d157670de0b6b3a764000091505090565b806109da6106e2565b6109ec90670de0b6b3a7640000611ffe565b6109f69190612029565b91505090565b5f5f19610a0d565b60405180910390fd5b5f610a1785610c88565b9050610a2533858784611136565b949350505050565b5f61093d826112b5565b5f815f03610a5857604051639811e0c760e01b815260040160405180910390fd5b610a63823033610c3b565b604051632e1a7d4d60e01b8152600481018290529091507f00000000000000000000000000000000000000000000000000000000000000006001600160a01b031690632e1a7d4d906024015f604051808303815f87803b158015610ac5575f5ffd5b505af1158015610ad7573d5f5f3e3d5ffd5b50506040515f925033915083908381818185875af1925050503d805f8114610b1a576040519150601f19603f3d011682016040523d82523d5f602084013e610b1f565b606091505b5050905080610b41576040516312171d8360e31b815260040160405180910390fd5b50919050565b5f6060805f5f5f6060610b586112d2565b610b606112ff565b604080515f80825260208201909252600f60f81b9b939a50919850469750309650945092509050565b5f5f195f610b9685610bce565b9050610a2533858388611136565b6060600480546108b190611fcc565b5f33610950818585610f85565b610bca828261132c565b5050565b5f61093d826001610ea3565b5f5f610be583610c93565b905080851115610c0e57828582604051633fa733bb60e21b8152600401610a049392919061203c565b5f610c188661095a565b9050610c273386868985611360565b95945050505050565b5f61093d82336109fc565b5f5f610c4683610deb565b905080851115610c6f57828582604051632e52afbb60e21b8152600401610a049392919061203c565b5f610c7986610932565b9050610c27338686848a611360565b5f61093d825f610eed565b6001600160a01b0381165f9081526020819052604081205461093d905f610ea3565b83421115610cd95760405163313c898160e11b815260048101859052602401610a04565b5f7f6e71edae12b1b97f4d1f60370fef10105fa2faae0126114a169c64845d6126c9888888610d248c6001600160a01b03165f90815260076020526040902080546001810190915590565b6040805160208101969096526001600160a01b0394851690860152929091166060840152608083015260a082015260c0810186905260e0016040516020818303038152906040528051906020012090505f610d7e826115d4565b90505f610d8d82878787611600565b9050896001600160a01b0316816001600160a01b031614610dd4576040516325c0072360e11b81526001600160a01b0380831660048301528b166024820152604401610a04565b610ddf8a8a8a610edb565b50505050505050505050565b6001600160a01b0381165f9081526020819052604081205461093d565b5f345f03610e2957604051631f2a200560e01b815260040160405180910390fd5b7f00000000000000000000000000000000000000000000000000000000000000006001600160a01b031663d0e30db0346040518263ffffffff1660e01b81526004015f604051808303818588803b158015610e82575f5ffd5b505af1158015610e94573d5f5f3e3d5ffd5b50505050506109a034336109fc565b5f610984610eaf6106e2565b610eba906001611fb9565b610ec55f600a612140565b600254610ed29190611fb9565b8591908561162c565b610ee8838383600161166e565b505050565b5f610984610efc82600a612140565b600254610f099190611fb9565b610f116106e2565b610ed2906001611fb9565b6001600160a01b038381165f908152600160209081526040808320938616835292905220545f19811015610f7f5781811015610f7157828183604051637dc7a0d960e11b8152600401610a049392919061203c565b610f7f84848484035f61166e565b50505050565b6001600160a01b038316610fae57604051634b637e8f60e11b81525f6004820152602401610a04565b6001600160a01b038216610fd75760405163ec442f0560e01b81525f6004820152602401610a04565b610ee8838383611732565b5f6109a0817f000000000000000000000000000000000000000000000000000000000000000061214e565b5f306001600160a01b037f00000000000000000000000000000000000000000000000000000000000000001614801561106557507f000000000000000000000000000000000000000000000000000000000000000046145b1561108f57507f000000000000000000000000000000000000000000000000000000000000000090565b6109a0604080517f8b73c3c69bb8fe3d512ecc4cf759cc79239f7b179b0ffacaa9a75d522b39400f60208201527f0000000000000000000000000000000000000000000000000000000000000000918101919091527f000000000000000000000000000000000000000000000000000000000000000060608201524660808201523060a08201525f9060c00160405160208183030381529060405280519060200120905090565b6111627f0000000000000000000000000000000000000000000000000000000000000000853085611845565b604051632e1a7d4d60e01b8152600481018390527f00000000000000000000000000000000000000000000000000000000000000006001600160a01b031690632e1a7d4d906024015f604051808303815f87803b1580156111c1575f5ffd5b505af11580156111d3573d5f5f3e3d5ffd5b505060405163534a7e1d60e11b8152600481018590527f00000000000000000000000000000000000000000000000000000000000000006001600160a01b0316925063a694fc3a915084906024015f604051808303818588803b158015611238575f5ffd5b505af115801561124a573d5f5f3e3d5ffd5b5050505050611259838261132c565b826001600160a01b0316846001600160a01b03167fdcbc1c05240f31ff3ad067ef1ee35ce4997762752e3a095284754544f4c709d784846040516112a7929190918252602082015260400190565b60405180910390a350505050565b6001600160a01b0381165f9081526007602052604081205461093d565b60606109a07f000000000000000000000000000000000000000000000000000000000000000060056118ac565b60606109a07f000000000000000000000000000000000000000000000000000000000000000060066118ac565b6001600160a01b0382166113555760405163ec442f0560e01b81525f6004820152602401610a04565b610bca5f8383611732565b826001600160a01b0316856001600160a01b03161461138457611384838683610f1c565b61138e8382611955565b6040516370a0823160e01b815230600482015247905f907f00000000000000000000000000000000000000000000000000000000000000006001600160a01b0316906370a0823190602401602060405180830381865afa1580156113f4573d5f5f3e3d5ffd5b505050506040513d601f19601f820116820180604052508101906114189190611f8e565b90505f818511611428578461142a565b815b905080156114a8576040516305c2fbcf60e31b8152600481018290527f00000000000000000000000000000000000000000000000000000000000000006001600160a01b031690632e17de78906024015f604051808303815f87803b158015611491575f5ffd5b505af11580156114a3573d5f5f3e3d5ffd5b505050505b5f6114b38447612167565b90505f8682116114c357816114c5565b865b90507f00000000000000000000000000000000000000000000000000000000000000006001600160a01b031663d0e30db0826040518263ffffffff1660e01b81526004015f604051808303818588803b158015611520575f5ffd5b505af1158015611532573d5f5f3e3d5ffd5b50505050506115686115617f000000000000000000000000000000000000000000000000000000000000000090565b8a83611989565b876001600160a01b0316896001600160a01b03168b6001600160a01b03167ffbde797d201c681b91056529119e0b02407c7bb96a4a2c75c01fc9667232c8db848a6040516115c0929190918252602082015260400190565b60405180910390a450505050505050505050565b5f61093d6115e061100d565b8360405161190160f01b8152600281019290925260228201526042902090565b5f5f5f5f611610888888886119ba565b9250925092506116208282611a82565b50909695505050505050565b5f61165961163983611b3a565b801561165457505f848061164f5761164f612015565b868809115b151590565b611664868686611b66565b610c279190611fb9565b6001600160a01b0384166116975760405163e602df0560e01b81525f6004820152602401610a04565b6001600160a01b0383166116c057604051634a1406b160e11b81525f6004820152602401610a04565b6001600160a01b038085165f9081526001602090815260408083209387168352929052208290558015610f7f57826001600160a01b0316846001600160a01b03167f8c5be1e5ebec7d5bd14f71427d1e84f3dd0314c0f7b2291e5b200ac8c7c3b925846040516112a791815260200190565b6001600160a01b03831661175c578060025f8282546117519190611fb9565b909155506117b99050565b6001600160a01b0383165f908152602081905260409020548181101561179b5783818360405163391434e360e21b8152600401610a049392919061203c565b6001600160a01b0384165f9081526020819052604090209082900390555b6001600160a01b0382166117d5576002805482900390556117f3565b6001600160a01b0382165f9081526020819052604090208054820190555b816001600160a01b0316836001600160a01b03167fddf252ad1be2c89b69c2b068fc378daa952ba7f163c4a11628f55a4df523b3ef8360405161183891815260200190565b60405180910390a3505050565b6040516001600160a01b038481166024830152838116604483015260648201839052610f7f9186918216906323b872dd906084015b604051602081830303815290604052915060e01b6020820180516001600160e01b038381831617835250505050611c16565b606060ff83146118c6576118bf83611c82565b905061093d565b8180546118d290611fcc565b80601f01602080910402602001604051908101604052809291908181526020018280546118fe90611fcc565b80156119495780601f1061192057610100808354040283529160200191611949565b820191905f5260205f20905b81548152906001019060200180831161192c57829003601f168201915b5050505050905061093d565b6001600160a01b03821661197e57604051634b637e8f60e11b81525f6004820152602401610a04565b610bca825f83611732565b6040516001600160a01b03838116602483015260448201839052610ee891859182169063a9059cbb9060640161187a565b5f80807f7fffffffffffffffffffffffffffffff5d576e7357a4501ddfe92f46681b20a08411156119f357505f91506003905082611a78565b604080515f808252602082018084528a905260ff891692820192909252606081018790526080810186905260019060a0016020604051602081039080840390855afa158015611a44573d5f5f3e3d5ffd5b5050604051601f1901519150506001600160a01b038116611a6f57505f925060019150829050611a78565b92505f91508190505b9450945094915050565b5f826003811115611a9557611a9561217a565b03611a9e575050565b6001826003811115611ab257611ab261217a565b03611ad05760405163f645eedf60e01b815260040160405180910390fd5b6002826003811115611ae457611ae461217a565b03611b055760405163fce698f760e01b815260048101829052602401610a04565b6003826003811115611b1957611b1961217a565b03610bca576040516335e2f38360e21b815260048101829052602401610a04565b5f6002826003811115611b4f57611b4f61217a565b611b59919061218e565b60ff166001149050919050565b5f5f5f611b738686611cbf565b91509150815f03611b9757838181611b8d57611b8d612015565b0492505050610984565b818411611bae57611bae6003851502601118611cdb565b5f848688095f868103871696879004966002600389028118808a02820302808a02820302808a02820302808a02820302808a02820302808a02909103029181900381900460010185841190960395909502919093039390930492909217029150509392505050565b5f5f60205f8451602086015f885af180611c35576040513d5f823e3d81fd5b50505f513d91508115611c4c578060011415611c59565b6001600160a01b0384163b155b15610f7f57604051635274afe760e01b81526001600160a01b0385166004820152602401610a04565b60605f611c8e83611cec565b6040805160208082528183019092529192505f91906020820181803683375050509182525060208101929092525090565b5f805f1983850993909202808410938190039390930393915050565b634e487b715f52806020526024601cfd5b5f60ff8216601f81111561093d57604051632cd44ac360e21b815260040160405180910390fd5b5f81518084528060208401602086015e5f602082860101526020601f19601f83011685010191505092915050565b602081525f6109846020830184611d13565b5f60208284031215611d63575f5ffd5b5035919050565b80356001600160a01b0381168114611d80575f5ffd5b919050565b5f5f60408385031215611d96575f5ffd5b611d9f83611d6a565b946020939093013593505050565b5f5f5f60608486031215611dbf575f5ffd5b611dc884611d6a565b9250611dd660208501611d6a565b929592945050506040919091013590565b5f60208284031215611df7575f5ffd5b61098482611d6a565b5f5f60408385031215611e11575f5ffd5b82359150611e2160208401611d6a565b90509250929050565b60ff60f81b8816815260e060208201525f611e4860e0830189611d13565b8281036040840152611e5a8189611d13565b606084018890526001600160a01b038716608085015260a0840186905283810360c0850152845180825260208087019350909101905f5b81811015611eaf578351835260209384019390920191600101611e91565b50909b9a5050505050505050505050565b5f5f5f60608486031215611ed2575f5ffd5b83359250611ee260208501611d6a565b9150611ef060408501611d6a565b90509250925092565b5f5f5f5f5f5f5f60e0888a031215611f0f575f5ffd5b611f1888611d6a565b9650611f2660208901611d6a565b95506040880135945060608801359350608088013560ff81168114611f49575f5ffd5b9699959850939692959460a0840135945060c09093013592915050565b5f5f60408385031215611f77575f5ffd5b611f8083611d6a565b9150611e2160208401611d6a565b5f60208284031215611f9e575f5ffd5b5051919050565b634e487b7160e01b5f52601160045260245ffd5b8082018082111561093d5761093d611fa5565b600181811c90821680611fe057607f821691505b602082108103610b4157634e487b7160e01b5f52602260045260245ffd5b808202811582820484141761093d5761093d611fa5565b634e487b7160e01b5f52601260045260245ffd5b5f8261203757612037612015565b500490565b6001600160a01b039390931683526020830191909152604082015260600190565b6001815b60018411156120985780850481111561207c5761207c611fa5565b600184161561208a57908102905b60019390931c928002612061565b935093915050565b5f826120ae5750600161093d565b816120ba57505f61093d565b81600181146120d057600281146120da576120f6565b600191505061093d565b60ff8411156120eb576120eb611fa5565b50506001821b61093d565b5060208310610133831016604e8410600b8410161715612119575081810a61093d565b6121255f19848461205d565b805f190482111561213857612138611fa5565b029392505050565b5f61098460ff8416836120a0565b60ff818116838216019081111561093d5761093d611fa5565b8181038181111561093d5761093d611fa5565b634e487b7160e01b5f52602160045260245ffd5b5f60ff8316806121a0576121a0612015565b8060ff8416069150509291505056fea264697066735822122022e92add71d69aaff2c6d81ac47ad7677c8ab13e43c48f5dc55ffd1effee4e7b64736f6c634300081c0033","linkReferences":{}},"methodIdentifiers":{"DOMAIN_SEPARATOR()":"3644e515","WHYPE_MAINNET()":"ccfba0ad","allowance(address,address)":"dd62ed3e","approve(address,uint256)":"095ea7b3","asset()":"38d52e0f","balanceOf(address)":"70a08231","convertToAssets(uint256)":"07a2d13a","convertToShares(uint256)":"c6e6f592","decimals()":"313ce567","deposit(uint256)":"b6b55f25","deposit(uint256,address)":"6e553f65","depositNative()":"db6b5246","eip712Domain()":"84b0196e","exchangeRate()":"3ba0b9a9","hyperLiquidStaking()":"7f78c848","maxDeposit(address)":"402d267d","maxMint(address)":"c63d75b6","maxRedeem(address)":"d905777e","maxWithdraw(address)":"ce96cb77","mint(uint256,address)":"94bf804d","name()":"06fdde03","nonces(address)":"7ecebe00","permit(address,address,uint256,uint256,uint8,bytes32,bytes32)":"d505accf","previewDeposit(uint256)":"ef8b30f7","previewMint(uint256)":"b3d7f6b9","previewRedeem(uint256)":"4cdad506","previewWithdraw(uint256)":"0a28a477","redeem(uint256,address,address)":"ba087652","symbol()":"95d89b41","testnetMint(address,uint256)":"b023689f","totalAssets()":"01e1d114","totalSupply()":"18160ddd","transfer(address,uint256)":"a9059cbb","transferFrom(address,address,uint256)":"23b872dd","whype()":"46e25312","withdraw(uint256)":"2e1a7d4d","withdraw(uint256,address,address)":"b460af94","withdrawNative(uint256)":"84276d81"},"id":56}